S011000048656C6C6F576F726C642E733139E7
S31508000000406C00209D220008014500088145000833
S3150800001099450008AD450008C145000800000000E4
S315080000200000000000000000000000001123000886
S315080000301123000800000000E97E00082D7F000853
S315080000402D7F00082D7F00082D7F00082D7F0008D2
S315080000502D7F00082D7F00082D7F00082D7F0008C2
S315080000602D7F00082D7F00082D7F00082D7F0008B2
S315080000702D7F00082D7F00082D7F00082D7F0008A2
S315080000802D7F00082D7F00082D7F00082D7F000892
S315080000902D7F00082D7F00082D7F00082D7F000882
S315080000A02D7F00082D7F00082D7F00082D7F000872
S315080000B02D7F00082D7F00082D7F00082D7F000862
S315080000C02D7F00082D7F00082D7F00082D7F000852
S315080000D02D7F00082D7F00082D7F00082D7F000842
S315080000E02D7F00082D7F00082D7F00082D7F000832
S315080000F02D7F00082D7F00082D7F00082D7F000822
S315080001002D7F00082D7F00082D7F00082D7F000811
S315080001102D7F00082D7F00082D7F00082D7F000801
S315080001202D7F00082D7F00082D7F00082D7F0008F1
S315080001302D7F00082D7F00082D7F00082D7F0008E1
S315080001402D7F00082D7F00082D7F00082D7F0008D1
S315080001502D7F00082D7F00082D7F00082D7F0008C1
S315080001602D7F00082D7F00082D7F00082D7F0008B1
S315080001702D7F00082D7F00082D7F00082D7F0008A1
S311080001802D7F00082D7F00082D7F000849
S3150800018C80B582B000AF4FF03F004FF0000107F08A
S3150800019C2BFA3B460220194607F06CFBD7E90023DD
S315080001AC4FF004004FF0000102EA000203EA0103D3
S315080001BC13431CD0904B1B78062B18D08E4B5A78B1
S315080001CC8D4B9A708C4B06225A708B4B9B78042B52
S315080001DC01D101F05DF9884B9B78042B01D101F014
S315080001EC11F9854B9B78042B01D101F081F9D7E9DC
S315080001FC00234FF008004FF0000102EA000203EA60
S3150800020C010313430AD07D4B1B78FF2B06D07B4B7F
S3150800021C5A787A4B9A70794BFF225A70D7E9002391
S3150800022C4FF020004FF0000102EA000203EA010336
S3150800023C13430AD0724B1B78032B06D0704B5A7893
S3150800024C6F4B9A706E4B03225A70D7E900234FF006
S3150800025C10004FF0000102EA000203EA01031343FF
S3150800026C07D04FF010004FF0000107F08FFB01F09C
S3150800027CFBF8D7E900234FF002004FF0000102EA21
S3150800028C000203EA0103134307D04FF002004FF0B4
S3150800029C000107F07BFB01F001F9D7E900234FF0C9
S315080002AC01004FF0000102EA000203EA01031343BE
S315080002BC07D04FF001004FF0000107F067FB01F083
S315080002CC23F9D7E900234FF004004FF0000102EAA6
S315080002DC000203EA010313430DD0474B5B78062B48
S315080002EC09D1454B1A78444B5A70434B06221A705F
S315080002FC414B0122DA70D7E900234FF008004FF082
S3150800030C000102EA000203EA0103134313D03B4B34
S3150800031C5B78FF2B0FD1394B1B78012B01D101F0E0
S3150800032CBDF8364B1A78354B5A70344BFF221A7077
S3150800033C324B0122DA70D7E900234FF020004FF038
S3150800034C000102EA000203EA0103134313D02C4B03
S3150800035C5B78032B0FD12A4B1B78002B01D101F0AC
S3150800036CC1F8274B1A78264B5A70254B03221A705C
S3150800037C234B0122DA70D7E900234FF004004FF023
S3150800038C000102EA000203EA0103134305D04FF009
S3150800039C04004FF0000107F0F9FAD7E900234FF0F3
S315080003AC08004FF0000102EA000203EA01031343B6
S315080003BC05D04FF008004FF0000107F0E7FAD7E92F
S315080003CC00234FF020004FF0000102EA000203EA76
S315080003DC0103134305D04FF020004FF0000107F03E
S315080003ECD5FA054B0022DA70044B0022DA70044B5E
S315080003FC0022DA70C7E600BF300900202409002065
S3150800040C2009002080B500AF00F080F800F084F8D1
S3150800041C00F0E8FE384B01225A70374B03221A704B
S3150800042C354B03229A70344B0022DA70334B052273
S3150800043C5A70324B07221A70304B07229A702F4B80
S3150800044C0022DA702D4B01225A712C4B02221A719A
S3150800045C2A4B02229A71294B0022DA71274B0A225F
S3150800046C5A72264B0C221A72244B0C229A72234B64
S3150800047C0022DA72214B01225A73204B02221A737C
S3150800048C1E4B02229A731D4B0022DA731B4B002259
S3150800049C5A741A4B01221A74184B01229A74174B68
S315080004AC0022DA74164B04225A70154B06221A705F
S315080004BC134B06229A70124B0022DA70114B032248
S315080004CC5A70104BFF221A700E4BFF229A700D4B66
S315080004DC0022DA700B4B03225A710A4BFF221A714F
S315080004EC084BFF229A71074B0022DA71064B012240
S315080004FC1A700023184680BD200900200C0900201C
S3150800050C30090020240900200009002080B400AF1F
S3150800051CBD465DF8047B704780B400AFBD465DF8F8
S3150800052C047B704780B400AF72B6064B1B78DBB2FF
S3150800053CDBB20133DBB2DAB2024B1A70BD465DF898
S3150800054C047B70475C2D002080B400AF0A4B1B78E7
S3150800055C002B0DD0084B1B78DBB2DBB2013BDBB2B0
S3150800056CDAB2054B1A70044B1B78002B00D162B615
S3150800057CBD465DF8047B70475C2D002080B584B0C1
S3150800058C00AF78600023FB73FFF7CCFF054B1A7896
S3150800059C7B681A70FFF7D8FFFB7B18461037BD46E9
S315080005AC80BD00BF2E09002080B584B000AF7860EE
S315080005BC0023FB73FFF7B6FF054B1A787B681A7096
S315080005CCFFF7C2FFFB7B18461037BD4680BD00BF40
S315080005DC0409002080B400AF72B6064B1B78DBB258
S315080005ECDBB20133DBB2DAB2024B1A70BD465DF8E8
S315080005FC047B70475C2D002080B400AF0A4B1B7837
S3150800060C002B0DD0084B1B78DBB2DBB2013BDBB2FF
S3150800061CDAB2054B1A70044B1B78002B00D162B664
S3150800062CBD465DF8047B70475C2D002080B582B012
S3150800063C00AF0346FB710C4B1B78032B0FD1FFF74E
S3150800064CC9FF094AFB791370FFF7D6FF02204FF052
S3150800065C20024FF0000307F057F8002300E082232E
S3150800066C18460837BD4680BD2009002080B400AF67
S3150800067C72B6064B1B78DBB2DBB20133DBB2DAB2ED
S3150800068C024B1A70BD465DF8047B70475C2D002042
S3150800069C80B400AF0A4B1B78002B0DD0084B1B7887
S315080006ACDBB2DBB2013BDBB2DAB2054B1A70044B98
S315080006BC1B78002B00D162B6BD465DF8047B7047EB
S315080006CC5C2D002080B483B000AF0346FB718623F3
S315080006DC18460C37BD465DF8047B704780B483B06A
S315080006EC00AF0346FB71862318460C37BD465DF8EA
S315080006FC047B704780B584B000AF78600023FB7329
S3150800070CFFF7B4FF054B1A887B681A80FFF7C0FF02
S3150800071CFB7B18461037BD4680BD00BF2C09002050
S3150800072C80B584B000AF78600023FB73FFF79EFF9B
S3150800073C054B1A887B681A80FFF7AAFFFB7B1846BD
S3150800074C1037BD4680BD00BF0609002080B485B0B1
S3150800075C00AF78600023FB738623FB73FB7B18467C
S3150800076C1437BD465DF8047B704700BF80B584B06E
S3150800077C00AF0346FB800023FB73FFF777FF054AA0
S3150800078CFB881380FFF784FFFB7B18461037BD46A2
S3150800079C80BD00BF2C09002080B584B000AF03468D
S315080007ACFB800023FB73FFF761FF054AFB88138068
S315080007BCFFF76EFFFB7B18461037BD4680BD00BFA2
S315080007CC0609002080B582B000AF0346FB710E4BBC
S315080007DC1B7A0C2B13D1FFF749FF0B4AFB791372C3
S315080007ECFFF756FFFFF742FF074B1A7A064B5A726A
S315080007FC054B0C221A72FFF74BFF002300E08223ED
S3150800080C18460837BD4680BD0C09002080B582B055
S3150800081C00AF0346FB710E4B1B7C012B13D1FFF764
S3150800082C25FF0B4AFB791374FFF732FFFFF71EFF00
S3150800083C074B1A7C064B5A74054B01221A74FFF7A0
S3150800084C27FF002300E0822318460837BD4680BDE3
S3150800085C0C09002080B582B000AF0346FB710E4B25
S3150800086C1B78072B13D1FFF701FF0B4AFB79137083
S3150800087CFFF70EFFFFF7FAFE074B1A78064B5A706E
S3150800088C054B07221A70FFF703FF002300E08223AB
S3150800089C18460837BD4680BD0C09002080B485B0C3
S315080008AC00AF0346B9607A60FB7386231846143783
S315080008BCBD465DF8047B704780B483B000AF7860A2
S315080008CC0B46FB70862318460C37BD465DF8047B31
S315080008DC704700BF80B483B000AF0346FB71862314
S315080008EC18460C37BD465DF8047B704780B582B058
S315080008FC00AF0346FB71FB790620194600F078FC1D
S3150800090C034618460837BD4680BD00BF80B582B081
S3150800091C00AF03460A46FB711346BB71FA79BB79DD
S3150800092C41F20100002100F079FC0346184608370D
S3150800093CBD4680BD80B584B000AFF860B96013467B
S3150800094CFB80FB884FF48050F968BA6800F082FC8B
S3150800095C034618461037BD4680BD00BF80B400AFAD
S3150800096C72B6064B1B78DBB2DBB20133DBB2DAB2FA
S3150800097C024B1A70BD465DF8047B70475C2D00204F
S3150800098C80B400AF0A4B1B78002B0DD0084B1B7894
S3150800099CDBB2DBB2013BDBB2DAB2054B1A70044BA5
S315080009AC1B78002B00D162B6BD465DF8047B7047F8
S315080009BC5C2D002080B500AF002000F05FFC0346DC
S315080009CC184680BD80B500AF002000F067FC0346D2
S315080009DC184680BD80B582B000AF0346FB710C4B40
S315080009EC1B78062B0FD1FFF7B9FF094AFB79137051
S315080009FCFFF7C6FF02204FF004024FF0000306F083
S31508000A0C83FE002300E0822318460837BD4680BDC6
S31508000A1C3009002080B582B000AF78600020796874
S31508000A2C00F04CFC034618460837BD4680BD00BF8F
S31508000A3C80B582B000AF78603960002079683A6872
S31508000A4C00F04EFC034618460837BD4680BD00BF6D
S31508000A5C80B582B000AF0346FB71FB7900201946BE
S31508000A6C00F050FC034618460837BD4680BD00BF4B
S31508000A7C80B582B000AF0346FB71FB79012019469D
S31508000A8C00F040FC034618460837BD4680BD00BF3B
S31508000A9C80B582B000AF78603960002079683A6812
S31508000AAC00F042FC034618460837BD4680BD00BF19
S31508000ABC80B400AF86231846BD465DF8047B7047A4
S31508000ACC80B400AF86231846BD465DF8047B704794
S31508000ADC80B582B000AF03460A46FB711346BB715C
S31508000AECFA79BB791046194600F064F8034618469D
S31508000AFC0837BD4680BD00BF80B582B000AF03463F
S31508000B0C0A46FB711346BB71FA79BB79104619462E
S31508000B1C00F064F8034618460837BD4680BD00BF8A
S31508000B2C80B582B000AF0346FB71FB7902201946EB
S31508000B3C00F01EFC034618460837BD4680BD00BFAC
S31508000B4C80B582B000AF78600320796800F0FEFBB0
S31508000B5C034618460837BD4680BD00BF80B582B02F
S31508000B6C00AF78600320796800F018FC0346184635
S31508000B7C0837BD4680BD00BF80B582B000AF78602F
S31508000B8C0020796800F01CFC034618460837BD4659
S31508000B9C80BD00BF80B582B000AF78603960002098
S31508000BAC79683A6800F01CFC034618460837BD46B7
S31508000BBC80BD00BF80B582B000AF03460A46FB7104
S31508000BCC1346BB71FA79BB791046194600F020FC1E
S31508000BDC034618460837BD4680BD00BF80B582B0AF
S31508000BEC00AF03460A46FB711346BB71FA79BB790B
S31508000BFC1046194600F022FC034618460837BD462F
S31508000C0C80BD00BF80B582B000AF0346FB71FB798F
S31508000C1C1846FFF785FF034618460837BD4680BDBC
S31508000C2C80B582B000AF78607868FFF789FF034615
S31508000C3C18460837BD4680BD80B582B000AF7860CF
S31508000C4C7868FFF78BFF034618460837BD4680BD04
S31508000C5C80B584B000AF78600023FB7303207968F5
S31508000C6C11F062F903461A46FB7B1343FB73FB7BB5
S31508000C7C18461037BD4680BD80B584B000AF786085
S31508000C8C0023FB730120796811F04EF903461A46C6
S31508000C9CFB7B1343FB73FB7B18461037BD4680BDA5
S31508000CAC80B584B000AF78600023FB7302207968A6
S31508000CBC11F03AF903461A46FB7B1343FB73FB7B8D
S31508000CCC18461037BD4680BD80B584B000AF0346C4
S31508000CDCFB710023FB73FB1D0620194611F07EF8E9
S31508000CEC03461A46FB7B1343FB73FB7B18461037EC
S31508000CFCBD4680BD80B584B000AF0346FB710023AA
S31508000D0CFB73FB1D0420194611F068F803461A46B6
S31508000D1CFB7B1343FB73FB7B18461037BD4680BD24
S31508000D2C80B584B000AF78600023FB733B1D0520AB
S31508000D3C194611F053F803461A46FB7B1343FB730B
S31508000D4CFB7B18461037BD4680BD00BF80B400AF8C
S31508000D5C72B6064B1B78DBB2DBB20133DBB2DAB206
S31508000D6C024B1A70BD465DF8047B70475C2D00205B
S31508000D7C80B400AF0A4B1B78002B0DD0084B1B78A0
S31508000D8CDBB2DBB2013BDBB2DAB2054B1A70044BB1
S31508000D9C1B78002B00D162B6BD465DF8047B704704
S31508000DAC5C2D002080B584B000AF78600023FB73FF
S31508000DBC3B1D0020194611F011F803461A46FB7B19
S31508000DCC1343FB73FB7B18461037BD4680BD00BF2B
S31508000DDC80B582B000AF7860396078683968FFF7FB
S31508000DEC27FE034618460837BD4680BD80B582B037
S31508000DFC00AF0346FB71FB791846FFF729FE03463D
S31508000E0C18460837BD4680BD80B582B000AF03468C
S31508000E1CFB71FB791846FFF769FD03461846083738
S31508000E2CBD4680BD80B582B000AF03460A46FB714D
S31508000E3C1346BB71FA79BB7910461946FFF766FD5E
S31508000E4C034618460837BD4680BD00BF80B584B03A
S31508000E5C00AFF860B9601346FB80FB88F868B96880
S31508000E6C1A46FFF767FD034618461037BD4680BD80
S31508000E7C80B582B000AF78607868FFF7CBFD034683
S31508000E8C18460837BD4680BD80B582B000AF78607D
S31508000E9C7868FFF771FE034618460837BD4680BDCD
S31508000EAC80B582B000AF7860396078683968FFF72A
S31508000EBC71FE034618460837BD4680BD80B582B01C
S31508000ECC00AF7860396078683968FFF7E1FD03464A
S31508000EDC18460837BD4680BD80B584B000AF78602B
S31508000EEC0023FB730820796811F01EF803461A468E
S31508000EFCFB7B1343FB73FB7B18461037BD4680BD43
S31508000F0C80B584B000AF78600023FB73072079683E
S31508000F1C11F00AF803461A46FB7B1343FB73FB7B5B
S31508000F2C18461037BD4680BD80B485B000AF7860D2
S31508000F3C0023FB73044A7B681360FB7B1846143743
S31508000F4CBD465DF8047B70473409002080B500AFB8
S31508000F5CFFF738FD0346184680BD00BF80B500AFC5
S31508000F6CFFF728FD0346184680BD00BF80B582B042
S31508000F7C00AF0346FB80FB88184600F019F90346B8
S31508000F8C18460837BD4680BD80B584B000AF034609
S31508000F9CFB710023FB73FFF7D9FE054AFB79137027
S31508000FACFFF7E6FEFB7B18461037BD4680BD00BF33
S31508000FBC0409002080B400AF72B6064B1B78DBB26E
S31508000FCCDBB20133DBB2DAB2024B1A70BD465DF8FE
S31508000FDC047B70475C2D002080B400AF0A4B1B784D
S31508000FEC002B0DD0084B1B78DBB2DBB2013BDBB216
S31508000FFCDAB2054B1A70044B1B78002B00D162B67B
S3150800100CBD465DF8047B70475C2D002080B582B028
S3150800101C00AF0346FB71FB791846FFF729FD03461B
S3150800102C18460837BD4680BD80B584B000AF034668
S3150800103CFB710023FB73FFF7BDFF054AFB791370A1
S3150800104CFFF7CAFFFB7B18461037BD4680BD00BFAD
S3150800105C2E09002080B584B000AF78600023FB739E
S3150800106C0720796810F060FF03461A46FB7B13438A
S3150800107CFB73FB7B18461037BD4680BD80B485B024
S3150800108C00AF78600023FB73054B1A687B681A60FF
S3150800109CFB7B18461437BD465DF8047B704700BFCA
S315080010AC3409002080B584B000AF78600023FB7348
S315080010BC3B1D0920194610F091FE03461A46FB7B88
S315080010CC1343FB73FB7B18461037BD4680BD00BF28
S315080010DC80B400AF72B6064B1B78DBB2DBB20133B9
S315080010ECDBB2DAB2024B1A70BD465DF8047B704768
S315080010FC5C2D002080B400AF0A4B1B78002B0DD05A
S3150800110C084B1B78DBB2DBB2013BDBB2DAB2054B20
S3150800111C1A70044B1B78002B00D162B6BD465DF8DD
S3150800112C047B70475C2D002080B582B000AF034667
S3150800113CFB710E4B1B79FF2B13D1FFF7C9FF0B4A1B
S3150800114CFB791371FFF7D6FFFFF7C2FF074B1A7926
S3150800115C064B5A71054BFF221A71FFF7CBFF00237A
S3150800116C00E0822318460837BD4680BD24090020B6
S3150800117C80B582B000AF0346FB710C4B1B78FF2B76
S3150800118C0FD1FFF7A5FF094AFB791370FFF7B2FFDA
S3150800119C02204FF008024FF0000306F0B5FA0023C0
S315080011AC00E0822318460837BD4680BD2409002076
S315080011BC80B582B000AF0346FB80FB880020194639
S315080011CC00F0B8F9034618460837BD4680BD00BF7F
S315080011DC80B500AF02204FF010024FF0000306F066
S315080011EC93FA80BD80B400AFBD465DF8047B7047AA
S315080011FC80B584B000AF03460A46FB8013467B7164
S3150800120CFA887B791046194618F0CAFC0346FB7314
S3150800121CFB7B18461037BD4680BD00BF90B585B020
S3150800122C00AF0446084611461A462346FB80034679
S3150800123C7B710B463B711346FB70F88879793A79C2
S3150800124CFB780DF08FFD0346FB73FB7B18461437B2
S3150800125CBD4690BD80B586B000AFF860B9607A60BF
S3150800126C7B807B88F868B9687A680DF0ADFF034611
S3150800127CFB75FB7D18461837BD4680BD80B584B016
S3150800128C00AF0346FB71FB79184601F0E5FA0346F5
S3150800129CFB73FB7B18461037BD4680BD80B584B002
S315080012AC00AF0346FB71FB79184601F0B9FA034601
S315080012BCFB73FB7B18461037BD4680BD80B584B0E2
S315080012CC00AF03463960FB80FB881846396821F065
S315080012DCF3FC0346FB73FB7B18461037BD4680BDF3
S315080012EC80B586B000AFF860B9607A60F868B968FE
S315080012FC7A6815F019FD0346FB75FB7D18461837F9
S3150800130CBD4680BD80B584B000AF78600B46FB70D7
S3150800131CFB787868194615F09FFB0346FB73FB7B35
S3150800132C18461037BD4680BD80B586B000AFF8604C
S3150800133CB9607A60F868B9687A6815F05DFE034694
S3150800134CFB75FB7D18461837BD4680BD80B584B045
S3150800135C00AF03463960FB80FB88184639680AF0EB
S3150800136C0DFA0346FB73FB7B18461037BD4680BD4A
S3150800137C80B584B000AF03460A46FB8013467B71E2
S3150800138CFA887B79104619460AF070F90346FB73FE
S3150800139CFB7B18461037BD4680BD00BF80B584B0B0
S315080013AC00AF03463960FB80FB88184639680AF09B
S315080013BC5FFA0346FB73FB7B18461037BD4680BDA8
S315080013CC80B584B000AF786039607868396808F001
S315080013DCC3FB0346FB73FB7B18461037BD4680BD23
S315080013EC80B586B000AFF860B9607A60F868B968FD
S315080013FC7A6808F0BFFB0346FB75FB7D1846183761
S3150800140CBD4680BD80B500AF00F0A6FB80BD00BF11
S3150800141C80B584B000AF03460A46FB711346BB7110
S3150800142CFA79BB791046194600F020FB0346FB7384
S3150800143CFB7B18461037BD4680BD00BF80B584B00F
S3150800144C00AF03460A46FB711346BB71FA79BB79A2
S3150800145C1046194600F01AFB0346FB73FB7B18462D
S3150800146C1037BD4680BD00BF80B500AF0548FFF7F5
S3150800147CEFFB0548FFF700FC0448FFF711FC00F0EA
S3150800148C77FB80BD38090020480900204009002058
S3150800149C80B500AF00F03AFE80BD00BF80B500AF46
S315080014AC0B48FFF719FD0B48FFF72AFD00F062FD04
S315080014BC094B1B681846FFF737FD084B1B6818467F
S315080014CCFFF770FC064B1B781846FFF75DFD80BDD1
S315080014DC50090020540900205C09002058090020F6
S315080014EC4C09002080B500AF00F098FE80BD00BF07
S315080014FC80B500AF00F098FE024B1B781846FFF734
S3150800150C93FD80BD6809002080B500AF0648FFF73B
S3150800151CA1FD0648FFF7B2FD00F04AFE044B1B6816
S3150800152C1846FFF7BFFD80BD64090020600900203E
S3150800153C6C09002080B584B000AF03460A46FB80D0
S3150800154C1346BB80FA88BB88104619460CF0CEFCAD
S3150800155C0346FB73FB7B18461037BD4680BD00BFA0
S3150800156C80B483B000AF03463960FB713B68002238
S3150800157C1A70002318460C37BD465DF8047B704775
S3150800158C80B485B000AF78600023FB7307E0FB7B63
S3150800159C7A681344FA7B1A70FB7B0133FB73FB7B6B
S315080015AC132BF4D9002318461437BD465DF8047B73
S315080015BC704700BF80B485B000AF78600023FB731A
S315080015CC07E0FB7B7A681344FA7B1A70FB7B0133C2
S315080015DCFB73FB7B012BF4D9002318461437BD4645
S315080015EC5DF8047B704700BF80B485B000AF7860A7
S315080015FC0023FB7307E0FB7B7A681344FA7B1A70AB
S3150800160CFB7B0133FB73FB7B012BF4D900231846B8
S3150800161C1437BD465DF8047B704700BF80B485B0AF
S3150800162C00AF78600023FB7309E0FB7B7A681344F0
S3150800163CFA7B0132D2B21A70FB7B0133FB73FB7B4C
S3150800164C032BF2D9002318461437BD465DF8047BE4
S3150800165C704700BF80B483B000AF7860002318468B
S3150800166C0C37BD465DF8047B704700BF80B400AFED
S3150800167C72B6064B1B78DBB2DBB20133DBB2DAB2DD
S3150800168C024B1A70BD465DF8047B70475C2D002032
S3150800169C80B400AF0A4B1B78002B0DD0084B1B7877
S315080016ACDBB2DBB2013BDBB2DAB2054B1A70044B88
S315080016BC1B78002B00D162B6BD465DF8047B7047DB
S315080016CC5C2D002080B500AF0020024929F008FAED
S315080016DC80BD00BF7009002080B500AF002029F03E
S315080016EC5FFB0020044929F0A9F9002029F0ACFA7F
S315080016FC024B01221A7080BD740900207209002061
S3150800170C80B582B000AF184B1B78012B28D100206E
S3150800171C29F072FB0346FB71FB79002B02D0FB798F
S3150800172C032B06D1002029F08FFA104B00221A70D1
S3150800173C16E00E4B1B780133DAB20C4B1A700B4BB6
S3150800174C1B78042B0CD9002029F0EEFA29F0AEF8F8
S3150800175C074829F0CBF8FFF7BFFF044B00221A7095
S3150800176C0837BD4680BD00BF7209002076090020E7
S3150800177C0CCE020880B584B000AF03463A60FB7104
S3150800178C0B46BB710023FB81BB790E2B07D1FFF7E8
S3150800179C6DFF084B1B88FB81FFF77AFF01E00023DE
S315080017ACFB813B6803221A70FB8918461037BD4625
S315080017BC80BD00BF7009002080B582B000AF8023C1
S315080017CCFB71FB1D184601F019F8FB79112B01D892
S315080017DC07F028FBFB79122B01D807F023FB24F022
S315080017EC5BFA07F01FFB0837BD4680BD80B582B093
S315080017FC00AF80237B717B1D184600F0FFFF7B79B9
S3150800180C112B01D807F00EFB0023FB717B79122BE9
S3150800181C02D80123FB710DE07B79402B08D07B792C
S3150800182C802B05D07B794E2B02D07B794D2B01D1A1
S3150800183C0A23FB710023BB7116E0434B1B78002B64
S3150800184C03D0414B1B78082B01D10AF0B7F83E4B55
S3150800185C1B78013BDAB23C4B1A700CF039F927F0BD
S3150800186C8BFDBB790133BB71BA79FB7901339A428B
S3150800187CE3D37B79122B01D807F0D4FA334B1B68C8
S3150800188C03F00103002B01D10FF054F82F4B1B6802
S3150800189C03F00103002B03D110F03EFF11F0B0F852
S315080018AC2A4B1B6803F00103002B01D101F0B6FC8F
S315080018BC264B1B6803F00103002B01D10FF00AFF1E
S315080018CC224B1B6803F00103002B01D128F048FEBC
S315080018DC05F0D8F91D4B1B6803F00103002B01D149
S315080018EC24F08AF9194B1B6803F00303002B01D16A
S315080018FC18F066FF154B1B6803F00103002B01D18A
S3150800190C21F0A6FA114B1B6803F00103002B01D139
S3150800191CFFF7F6FE0D4B1B6803F00103002B01D1F4
S3150800192C02F0FAFB094B1B6803F00103002B01D1EB
S3150800193C0CF09EFB054B1B680133044A136007F039
S3150800194C71FA0837BD4680BD0000002078090020D2
S3150800195C80B500AF002000F063FF00F009FF00F02F
S3150800196C15F807F05FFA80BD80B483B000AF034664
S3150800197C3960FB800C37BD465DF8047B704700BFA9
S3150800198C80B400AFBD465DF8047B704780B400AFE9
S3150800199CBD465DF8047B704780B400AF034B1B68EB
S315080019ACDB681846BD465DF8047B70471CBC02080C
S315080019BC80B400AF034B1B681B691846BD465DF81F
S315080019CC047B70471CBC020880B400AF044B1B6830
S315080019DC5B681B781846BD465DF8047B704700BFEC
S315080019EC1CBC020880B400AF044B1B681B681B7830
S315080019FC1846BD465DF8047B704700BF1CBC020840
S31508001A0C80B400AF044B1B689B681B681846BD4620
S31508001A1C5DF8047B704700BF1CBC020880B582B019
S31508001A2C00AF0346FB71FB791846FFF74DF90346E1
S31508001A3C18460837BD4680BD80B582B000AF034650
S31508001A4CFB71FB791846FFF755F903461846083714
S31508001A5CBD4680BD80B582B000AF78607868FFF768
S31508001A6C5FF9034618460837BD4680BD80B483B077
S31508001A7C00AF03460A46FB711346BB710023184692
S31508001A8C0C37BD465DF8047B704700BF80B586B041
S31508001A9C00AF03460A46FB711346BB714FF0FF3382
S31508001AACFB60FB79072B03D1294B1B78012B06D03E
S31508001ABCFB79062B46D1264B1B78022B42D1BB79D8
S31508001ACC002B1BD1FFF774FFB860BB681B683B6122
S31508001ADCFB79072B05D11F4B1B6A01331D4A136271
S31508001AEC04E01C4BDB6A01331A4AD362FB79072BD9
S31508001AFC01D1012300E00323FB7516E0FB683B616B
S31508001B0CFB79072B05D1134BDB690133114AD361DA
S31508001B1C04E0104B9B6A01330E4A9362FB79072B40
S31508001B2C01D1022300E00423FB750120FFF784FF93
S31508001B3C3869FFF78FFFFB7D1846FFF76FFF044BDD
S31508001B4C00221A70002318461837BD4680BD00BF00
S31508001B5CAC0900207C09002080B400AF034B00229E
S31508001B6C1A70BD465DF8047B704700BFAC090020AF
S31508001B7C80B584B000AFFFF727FF0346FB71FFF76C
S31508001B8C31FF0346BB71FFF73BFF3860FB79012B2E
S31508001B9C03D0FB79022B40F0C480BB79002B03D011
S31508001BACBB79012B40F0BD800023FB73BB79002B5E
S31508001BBC48D1FFF7F1FEB860FB79012B02D0022B56
S31508001BCC25D03EE03B68002B1ED03B68DA43BB6849
S31508001BDC1A60554B1B6A0133534A1362BA79524938
S31508001BEC13465B001344DB000B441B68591C4E4818
S31508001BFC13465B001344DB00034419600120FFF70E
S31508001C0C01F80123FB731CE00623FB7319E0BA7970
S31508001C1C454913465B001344DB000B4408335B68E9
S31508001C2C591C414813465B001344DB000344083334
S31508001C3C59603D4BDB6A01333B4AD3620323FB7382
S31508001C4C00BF5EE0BB79012B5BD1384B1B78002BB0
S31508001C5C55D1FFF7ADFEB860FB79012B02D0022BEC
S31508001C6C27D04BE03B68002B20D03B68DA43BB6897
S31508001C7C1A60B868FEF7E0FF0346002B13D1BA7951
S31508001C8C294913465B001344DB000B441B68591C9B
S31508001C9C254813465B001344DB0003441960234BA9
S31508001CAC01221A702AE00223FB7327E00623FB7332
S31508001CBC24E0B8680021042229F0FEFDB868FEF776
S31508001CCCAFFF0346002B16D1BA79B97916480B46DD
S31508001CDC5B000B44DB00034408335B68591C124851
S31508001CEC13465B001344DB000344083359600F4B5F
S31508001CFC02221A7001E00423FB7300BF01E00523DE
S31508001D0CFB73FB7B002B0CD0BB791846FFF794FEB4
S31508001D1CBB681B681846FFF79DFEFB7B1846FFF74A
S31508001D2C7DFE1037BD4680BD7C090020AC0900201D
S31508001D3C80B500AFFFF70AF90346184680BD00BF09
S31508001D4C80B400AF044B1B685B681B681846BD461D
S31508001D5C5DF8047B704700BF34BC020880B400AF42
S31508001D6C044B1B681B681B781846BD465DF8047B3C
S31508001D7C704700BF34BC020880B483B000AF7860EB
S31508001D8C044B1B68DB687A681A600C37BD465DF82D
S31508001D9C047B704734BC020880B483B000AF78600B
S31508001DAC044B1B689B687A681A600C37BD465DF84D
S31508001DBC047B704734BC020880B483B000AF03467A
S31508001DCCFB71054B1B681B69FA791A700C37BD46F3
S31508001DDC5DF8047B704700BF34BC020880B582B03E
S31508001DEC00AF78607868FFF74FF80346184608374F
S31508001DFCBD4680BD80B582B000AF78603960786822
S31508001E0C3968FFF74DF8034618460837BD4680BDB6
S31508001E1C80B582B000AF0346FB71FB791846FEF716
S31508001E2CE5FF034618460837BD4680BD80B582B027
S31508001E3C00AF7860396078683968FEF7C9FF0346E1
S31508001E4C18460837BD4680BD80B582B000AF03463C
S31508001E5C0A46FB711346BB71FA79BB7910461946CB
S31508001E6CFEF7E0FF034618460837BD4680BD00BF9F
S31508001E7C80B582B000AF7860396078683968FFF74A
S31508001E8C1DF8034618460837BD4680BD80B584B094
S31508001E9C00AFF860B9601346FB80FB88F868B96830
S31508001EAC1A46FEF7D3FF034618461037BD4680BDC3
S31508001EBC80B582B000AF0346FB71FB791846FEF776
S31508001ECCA3FF034618460837BD4680BD80B500AF4C
S31508001EDCFFF744F80346184680BD00BF80B582B0AC
S31508001EEC00AF78607868FEF7C3FF034618460837D4
S31508001EFCBD4680BD80B485B000AF78601A4B1B68B0
S31508001F0C7A689A4202DD184A7B681360174B1B687D
S31508001F1C7A689A4202DA154A7B681360124B1A6879
S31508001F2C124B1B68D31ABB604FF40043FB60BB68AB
S31508001F3C002B12D00D4B1B687A68D31A4FF47A72A1
S31508001F4C02FB03F2BB6892FBF3F3DB03084A82FB42
S31508001F5C03129211DB17D31AFB60FB681846143769
S31508001F6CBD465DF8047B7047B0090020B409002013
S31508001F7CD34D6210B0B590B000AF00237B625E4BB8
S31508001F8CFB6307F12403BB63F86BFFF727FFF86BBA
S31508001F9CB96BFFF72FFFFFF7D3FE0346002B0CBFD9
S31508001FAC01230023DBB21846FFF732FFFFF7C8FE02
S31508001FBC7863786BFFF7E0FE07F12C0207F12B0329
S31508001FCC10461946FFF732FFFB6A42F2107293422B
S31508001FDC03DD00200021FFF737FFFB6A1846FFF7E1
S31508001FECDBFEFB6A1846FFF785FF024607F12B0353
S31508001FFC10461946FFF73CFFFFF7B0FE034687F875
S3150800200C333097F83330002B2AD03C4B1B7897F893
S3150800201C33209A4224D0394A97F83330137097F8FC
S3150800202C3330012B01D1FFF751FF97F83330022BD0
S3150800203C05D10420FFF7C0FE314B01221A7097F820
S3150800204C3330032B05D10020FFF7B6FE2C4B0022AC
S3150800205C1A7097F83330042B02D1294B00221A70C8
S3150800206C274B1B78002B02D00020FEF77FFFFFF7CB
S3150800207C67FE0346B3F1DE3F03D102200321FFF7C7
S3150800208CE3FEFFF75DFE0346B3F1BA3F02D101202A
S3150800209CFFF70EFFFFF754FE0346B3F1AD3F23D10E
S315080020AC184B07F10C041D460FCD0FC495E8030019
S315080020BC20600434218002340B0C2370AD233B734F
S315080020CCAD237B73AD23BB73AD23FB730E4A3B4623
S315080020DC10685168926807C33A4607F10C03104614
S315080020EC19461622FFF7D2FE07F12A031846FFF700
S315080020FCF5FE4037BD46B0BDB8090020BC09002026
S3150800210CBD0900204CBC020864BC020880B500AFAF
S3150800211CFFF70EFE80BD00BF80B483B000AF034648
S3150800212CFB71054B1B689B68FA791A700C37BD4610
S3150800213C5DF8047B704700BF48BC020880B400AF4A
S3150800214C044B1B681B681B781846BD465DF8047B58
S3150800215C704700BF48BC020880B400AF044B1B682C
S3150800216C5B681B681846BD465DF8047B704700BF64
S3150800217C48BC020880B483B000AF7860044B1B6877
S3150800218CDB687A681A600C37BD465DF8047B7047C5
S3150800219C48BC020880B582B000AF0346FB71FB79D8
S315080021AC1846FEF733FF034618460837BD4680BD6A
S315080021BC80B582B000AFFFF7CFFF03461846FFF78E
S315080021CCD9FF144B1B781846FFF7E4FF114B1B7805
S315080021DC012B03D10F4B00221A7002E00D4B012282
S315080021EC1A70FFF7ABFF0346FB71FB79002B0DD07A
S315080021FC094B1B78FA799A4208D0074AFB7913706F
S3150800220CFB79012B02D10020FFF786FF0837BD4664
S3150800221C80BD00BFC0090020C109002080B400AFF2
S3150800222CBD465DF8047B704780B500AF0220FFF70A
S3150800223C73FF80BD80B483B000AF0123FB71FB79BB
S3150800224C012BFCD00C37BD465DF8047B704700BFEC
S3150800225C80B485B000AF0346FB710123FB73FB7B8F
S3150800226C012BFCD01437BD465DF8047B704700BFC4
S3150800227C80B400AFBD465DF8047B704780B483B06C
S3150800228C00AF0346FB710C37BD465DF8047B7047FF
S3150800229C134880F30988022080F31488BFF36F8FE4
S315080022AC104880F308881048104B114D002102E0A5
S315080022BC6C584450043142189A42F9D30D4A02E03C
S315080022CC002342F8043B0C4B9A42F9D30B4A054CB3
S315080022DC0B4B42F8043BA242FBD305F0F7FC7047C4
S315080022EC406C0020407C0020000000203C080020A8
S315080022FCECFC020800090020AC6A0020406C0020A7
S3150800230C42424242FEE7000080B48BB000AF7860D0
S3150800231C00237B6200233B620023FB610023BB6125
S3150800232C00237B6100233B61624B5B6803F00C0363
S3150800233CFB60FB68042B07D0082B09D0002B5ED159
S3150800234C7B685D4A1A605EE07B685C4A1A605AE0F4
S3150800235C584B5B6803F470137B62564B5B6803F44B
S3150800236C80333B627B6A9B0C7B627B6A0D2B03D0AA
S3150800237C7B6A02337B6201E006237B623B6A002B95
S3150800238C06D17B6A4E4A02FB03F27B681A6035E07B
S3150800239C484BDB6A03F48033FB61464BDB6A03F07C
S315080023AC0F030133BB61FB69002B09D1434ABB6997
S315080023BCB2FBF3F37A6A02FB03F27B681A601DE040
S315080023CC3C4BDB6A03F0F0031B0901337B61394B89
S315080023DCDB6A03F470631B0A02333B61374A7B6979
S315080023ECB2FBF3F33A6902FB03F2BB69B2FBF3F3F4
S315080023FC7A6A02FB03F27B681A6004E003E07B68E6
S3150800240C2D4A1A6000BF2B4B5B6803F0F003FB6088
S3150800241CFB681B09FB602B4AFB6813441B78DBB271
S3150800242CBB607B681A68BB68DA407B685A60214BCC
S3150800243C5B6803F4E063FB60FB681B0AFB60214ADC
S3150800244CFB6813441B78DBB2BB607B685A68BB68B5
S3150800245CDA407B689A60174B5B6803F46053FB6041
S3150800246CFB68DB0AFB60174AFB6813441B78DBB274
S3150800247CBB607B685A68BB68DA407B68DA600D4BD0
S3150800248C5B6803F44043FB60FB689B0BFB600E4ADE
S3150800249CFB6813441B78DBB2BB607B68DA68BB68E5
S315080024ACB2FBF3F27B681A612C37BD465DF8047BE8
S315080024BC704700BF0010024000127A0040787D0178
S315080024CC00093D00040000201400002080B483B0ED
S315080024DC00AF78600B46FB70FB78002B06D00949D9
S315080024EC084B9A697B6813438B6106E00549054BD3
S315080024FC9A697B68DB4313408B610C37BD465DF8E4
S3150800250C047B70470010024080B483B000AF78603B
S3150800251C0B46FB70FB78002B06D00949084BDA688A
S3150800252C7B681343CB6006E00549054BDA687B6884
S3150800253CDB431340CB600C37BD465DF8047B704714
S3150800254C0010024080B483B000AF78600B46FB7075
S3150800255CFB78002B06D00949084B1A697B6813438C
S3150800256C0B6106E00549054B1A697B68DB4313408A
S3150800257C0B610C37BD465DF8047B704700100240B2
S3150800258C80B584B000AFF860B9607A60252005F094
S3150800259CC1FB1037BD4680BD80B582B000AF0123A4
S315080025ACFB71112000F07AFB01F054F805F08CFA57
S315080025BC07F0DEFE01F03EF80246274B5A60FB791F
S315080025CC012B46D1244B5B68184601F04BF826F0D4
S315080025DC63FA0346BB71BB79032B17D801A252F8D1
S315080025EC23F000BF0126000811260008092600085A
S315080025FC09260008012000F085F80CE0022000F0FE
S3150800260C81F808E0082000F07DF804E0BB7918464C
S3150800261C01F066FA00BF104B01221A700E4B5B686C
S3150800262C1A7E0D4B5B685B7E1046194600F016F851
S3150800263C03467B717B79002B0BD1074B00225A6121
S3150800264C054B00229A61044B5B68DB69184605F05A
S3150800265C45FB0837BD4680BD2C2C002080B582B0C2
S3150800266C00AF03460A46FB711346BB71FB79184645
S3150800267C00F070F90246BB79074811461A4623F052
S3150800268C45FE064AFB791372044ABB7993770023F5
S3150800269C18460837BD4680BDB0BE02082C2C002053
S315080026AC80B483B000AF7860094B1A6A7B68DB4349
S315080026BC1340074A1362064B9A6A7B68DB4313403E
S315080026CC034A93620C37BD465DF8047B704700BF1E
S315080026DC2C2C002080B400AF034B1B6A1846BD4651
S315080026EC5DF8047B704700BF2C2C002080B400AF2B
S315080026FC034B9B6A1846BD465DF8047B704700BFC2
S3150800270C2C2C002080B584B000AF7860174B9A6AE1
S3150800271C7B681343154A93620023FB601BE0134B3B
S3150800272C5B68996BFA6813465B0013449B000B4471
S3150800273CBB60BB681A687B681340002B08D0BB6863
S3150800274C1B7AFF2B04D0BB681B7A18460EF0F8F8D8
S3150800275CFB680133FB60FB68002BE0D0786802212C
S3150800276C01F09AFE1037BD4680BD00BF2C2C002008
S3150800277C80B584B000AF1E4B1B7C112B02D11220E6
S3150800278C00F08CFA1A4B1B7C122B2CD1184B5B685D
S3150800279C184600F0BBFF07F0B1FBF860FDF732FEF8
S315080027AC0020144908F014FF0346FB7207F0A6FB39
S315080027BC0246FB68D31A4FF47A7202FB03F30E4AED
S315080027CCA2FB03239B097B600A4B1B78022B05D1C2
S315080027DC074B5B685A6A7B689A42E1D8044B5B687C
S315080027EC184601F007F800F079FB1037BD4680BD96
S315080027FC2C2C00205C2C0020D34D621080B483B0A6
S3150800280C00AF7860054B1A7C7B681A700023184653
S3150800281C0C37BD465DF8047B704700BF2C2C002096
S3150800282C80B483B000AF0346FB710A4B1B7F002BA9
S3150800283C08D1084B5A69FB79012101FA03F31343B2
S3150800284C044A5361002318460C37BD465DF8047BD1
S3150800285C704700BF2C2C002080B483B000AF034611
S3150800286CFB71084B5A69FB79012101FA03F3DB4327
S3150800287C1340044A5361002318460C37BD465DF8CD
S3150800288C047B70472C2C002080B400AF72B6064B24
S3150800289C1B78DBB2DBB20133DBB2DAB2024B1A704D
S315080028ACBD465DF8047B70475C2D002080B400AFF4
S315080028BC0A4B1B78002B0DD0084B1B78DBB2DBB20E
S315080028CC013BDBB2DAB2054B1A70044B1B78002BB2
S315080028DC00D162B6BD465DF8047B70475C2D0020BE
S315080028EC80B483B000AF0A4B5B697B60094B5B68AD
S315080028FC7A6813437B607B68002B14BF0123002383
S3150800290CDBB218460C37BD465DF8047B704700BF32
S3150800291C2C2C0020242C002080B400AF054B9B697E
S3150800292C002B14BF01230023DBB21846BD465DF805
S3150800293C047B70472C2C002080B582B000AF034670
S3150800294CFB71FB791846FEF745F803461846083717
S3150800295CBD4680BD80B584B000AF0346FB7100232D
S3150800296CFB60FB79103B802B00F2458101A252F8E3
S3150800297C23F000BFA92B0008D32B0008BB2B00089B
S3150800298C032C0008032C0008032C0008032C000851
S3150800299C032C0008032C0008032C0008032C000841
S315080029AC032C0008032C0008032C0008032C000831
S315080029BC032C0008912B00089D2B0008C72B000838
S315080029CCE52B0008D92B0008972B0008C12B00080B
S315080029DC032C0008032C0008032C0008032C000801
S315080029EC032C0008032C0008032C0008032C0008F1
S315080029FC032C0008B52B0008032C0008852B0008AF
S31508002A0CEB2B0008032C0008032C0008032C0008E9
S31508002A1C032C0008032C0008032C0008032C0008C0
S31508002A2C032C0008032C0008032C0008032C0008B0
S31508002A3C032C00088B2B0008032C0008032C000819
S31508002A4C032C0008AF2B0008032C0008032C0008E5
S31508002A5C032C0008032C0008CD2B0008032C0008B7
S31508002A6C032C0008032C0008FD2B0008F12B00088A
S31508002A7C032C0008DF2B0008032C0008032C000885
S31508002A8C032C0008032C0008032C0008032C000850
S31508002A9C032C0008032C0008032C0008032C000840
S31508002AAC032C0008032C0008032C0008032C000830
S31508002ABC032C0008032C0008032C0008032C000820
S31508002ACC032C0008032C0008032C0008032C000810
S31508002ADC032C0008032C0008032C0008032C000800
S31508002AEC032C0008032C0008032C0008032C0008F0
S31508002AFC032C0008032C0008032C0008032C0008E0
S31508002B0C032C0008032C0008032C0008032C0008CF
S31508002B1C032C0008032C0008032C0008032C0008BF
S31508002B2C032C0008032C0008032C0008032C0008AF
S31508002B3C032C0008A32B0008032C0008032C000800
S31508002B4C032C0008032C0008032C0008032C00088F
S31508002B5C032C0008032C0008032C0008032C00087F
S31508002B6C032C0008032C0008032C0008032C00086F
S31508002B7C032C0008F72B0008244BFB6040E0244B81
S31508002B8CFB603DE0234BFB603AE0234BFB6037E0F0
S31508002B9C224BFB6034E0224BFB6031E0214BFB609F
S31508002BAC2EE0214BFB602BE0204BFB6028E0204BF2
S31508002BBCFB6025E01F4BFB6022E01F4BFB601FE010
S31508002BCC1E4BFB601CE01E4BFB6019E01D4BFB60AB
S31508002BDC16E01D4BFB6013E01C4BFB6010E01C4B16
S31508002BECFB600DE01B4BFB600AE01B4BFB6007E030
S31508002BFC1A4BFB6004E01A481A49A422FFF7C0FCDA
S31508002C0CFB6818461037BD4680BD00BF18BF0208C2
S31508002C1C2CBF020840BF020854BF020870BF020846
S31508002C2C88BF020898BF0208ACBF0208C8BF0208D2
S31508002C3CD8BF0208F0BF020808C0020828C002085C
S31508002C4C3CC0020854C002086CC0020880C00208C6
S31508002C5C9CC00208B4C00208CCC00208E0C0020836
S31508002C6CF8C00208FCC0020890B486B000AF034650
S31508002C7CFB71094B07F108040FCB84E80F00FB79AD
S31508002C8C9B0007F11802134453F8103C18461837E2
S31508002C9CBD4690BC704700BFA0C1020880B584B081
S31508002CAC00AF0346FB71684AFB791374674B1B78B4
S31508002CBCFB73FB79123B3E2B00F2AE8001A252F855
S31508002CCC23F000BF1F2E0008252E0008252E00080D
S31508002CDC252E0008252E0008252E0008252E00086E
S31508002CEC252E0008252E0008252E0008252E00085E
S31508002CFC252E0008252E0008252E0008CD2D0008A7
S31508002D0CCD2D0008CD2D0008CD2D0008CD2D0008A1
S31508002D1C252E0008E92D0008252E0008252E00086A
S31508002D2C252E0008252E0008252E0008252E00081D
S31508002D3C252E0008252E0008252E0008252E00080D
S31508002D4C252E0008FF2D0008F92D0008252E000851
S31508002D5C252E0008252E0008252E0008252E0008ED
S31508002D6C252E0008252E0008252E0008252E0008DD
S31508002D7C252E0008252E0008252E0008CD2D000826
S31508002D8C252E0008252E0008252E0008F92D0008EA
S31508002D9C252E0008252E0008252E0008252E0008AD
S31508002DACD32D0008252E0008252E0008252E0008F0
S31508002DBCE32D0008E32D0008252E0008CD2D00086C
S31508002DCC0323FB7329E0204B1B7A502B02D10323D8
S31508002DDCFB7322E021E00223FB731EE01A4B1B7ADD
S31508002DEC502B02D10523FB7317E016E00023FB7367
S31508002DFC13E0FFF749FD0123FB73134B5B681B6A52
S31508002E0C134AA2FB0323DB08124A1360FFF74EFD95
S31508002E1C03E00423FB7300E000BF0C4B1B78FA7B22
S31508002E2C9A4207D0094AFB7B1370084B1B78184645
S31508002E3CFFF782FDFB79112B03D0FB79184601F0BD
S31508002E4C15FB1037BD4680BD2C2C002070010020C8
S31508002E5CCDCCCCCC202C002080B584B000AF03465A
S31508002E6C0A46FB711346BB710023FB732CE0194B06
S31508002E7C5B68DA6BFB7B5B001344BB60154B5B68CA
S31508002E8CDB6B002B1DD0FB79002B0DD0FB79012BAE
S31508002E9C03D1BB685B78032B06D1FB79022B10D1C7
S31508002EACBB685B78032B0CD1BB681B780A481946A0
S31508002EBC23F02CFABB681A78BB79104619460DF024
S31508002ECC0BFDFB7B0133FB73FB7B002BCFD0103741
S31508002EDCBD4680BD2C2C0020B0C1020880B500AFC1
S31508002EEC00F0B0FC00200121FFF7B6FF3220FFF7F7
S31508002EFCD5FE80BD80B500AF4920FFF7CFFE0A4B43
S31508002F0C1B685B680948194623F0E8F900F0B2FC1F
S31508002F1C08F036FB064B5B689B6A064AA2FB032342
S31508002F2CDB08054A136080BDC8030020DCC1020813
S31508002F3C2C2C0020CDCCCCCC642C002080B584B0B5
S31508002F4C00AF2C4B1B68002B12D02A4B1B68013B7D
S31508002F5C284A1360BB1D0020194608F039FB0346A6
S31508002F6C002B02D1BB79022B02D0224B00221A600D
S31508002F7C204B1B68002B2FD11F4B5B685A6B1E4BC3
S31508002F8C9B7F19460B465B000B449B001344BB60A6
S31508002F9CBB685B68FB6015E0FB68B3FA83F3DBB2CE
S31508002FACC3F11F03FB71FB79012202FA03F31846DE
S31508002FBC00F06CFCFB79012202FA03F3DB43FA6896
S31508002FCC1340FB60FB68002BE6D1002006F076F870
S31508002FDC5020FFF763FE09E0FFF77CFB0346002B46
S31508002FEC04D008F0EFFA2120FFF758FE1037BD463B
S31508002FFC80BD00BF642C00202C2C002080B582B02C
S3150800300C00AF184B5B685A6B164B9B7F19460B46E1
S3150800301C5B000B449B0013447B60134B1B685B687B
S3150800302C1248194623F05AF900F012FD7B681B7AF0
S3150800303C0F48194623F06AF97B681B7A184625F05F
S3150800304C61FD00F029FD0346002B05D1054B5B6895
S3150800305C1B8E184600F0D6FA2120FFF71FFE0837FC
S3150800306CBD4680BD2C2C0020C803002000C20208D7
S3150800307C28C2020880B500AF0DF00EFA01F040F830
S3150800308C08F07EFA044B5B689B6A044AA2FB03238E
S3150800309CDB08034A136080BD2C2C0020CDCCCCCC8D
S315080030AC602C002080B500AF4D20FFF7F7FD00F02F
S315080030BCE7FB02200021FFF7CFFEFFF7DBFF80BD01
S315080030CC80B500AF144B1B68002B0AD0124B1B683B
S315080030DC013B114A1360104B1B681048194623F024
S315080030EC15F9FFF7FDFB0346002B13D10A4B1B689A
S315080030FC002B0FD10A4B1B685B680A48194623F04C
S3150800310CEDF800F0A5FB01200021FFF7A5FE332002
S3150800311CFFF7C4FD80BD00BF202C002048C2020862
S3150800312CC803002060C2020880B500AFFFF7D8FBC1
S3150800313C0346012B09D10E4B1B685B680D481946D3
S3150800314C23F0CCF8FFF7CAFE10E0FFF7E5FB0346C1
S3150800315C002B0BD1064B1B685B680748194623F0F6
S3150800316CBDF800F07BFB4420FFF798FD80BD00BF3F
S3150800317CC803002084C20208ACC2020880B500AF9E
S3150800318C4FF0FF30FFF78CFA0D4B1B685B680D4848
S3150800319C194623F0A3F800F067FB16F0E3FC0A4B7C
S315080031AC1B7A802B04D0902B02D0502B03D005E031
S315080031BCFFF778FF02E0FFF79DFE00BF80BD00BF5A
S315080031CCC8030020D4C202082C2C002080B582B07B
S315080031DC00AF104B1B68002B04D00E4B1B68013B31
S315080031EC0C4A136000200C4908F0F2F90346FB71EF
S315080031FCFB79002B03D1084B1B78022B03D1054B0B
S3150800320C1B68002B02D1002004F084FD0837BD464C
S3150800321C80BD00BF602C0020742C002080B586B0C1
S3150800322C00AF0123FB750023FB60B84B1B78002B02
S3150800323C01D10023FB75FB7D012B40F0D681B34BE6
S3150800324C1A7CB34B1B789A420DD0B04B1B7C184694
S3150800325CFFF780FB0346AF48194623F057F8AB4BEC
S3150800326C1A7CAB4B1A70A94B1B7C213B2F2B00F2FB
S3150800327CBB8101A252F823F06F330008A53400086D
S3150800328C9B350008EB350008F5350008F5350008C0
S3150800329CF5350008F5350008F5350008F53500084C
S315080032ACF5350008F5350008F5350008F53500083C
S315080032BCF5350008F5350008F535000845330008DE
S315080032CC4B330008F5350008F5350008F5350008C8
S315080032DCF5350008F5350008F5350008F53500080C
S315080032ECF5350008F5350008F5350008F5350008FC
S315080032FCF5350008F5350008F5350008F5350008EC
S3150800330CF535000851330008F5350008F535000881
S3150800331CF5350008F53500085D330008F535000865
S3150800332CF5350008F535000857330008F53500085B
S3150800333CF53500086B330008FFF7C2FE55E1FFF7B9
S3150800334CF3FE52E1FFF71AFF4FE1FFF73FFF4CE19F
S3150800335CFFF7F4FD6D4B1B7C502B00D045E1FFF7B6
S3150800336C4DFE6A4B1B7C1846FFF7F4FA0346694870
S3150800337C194622F0CBFF654B5B6893F82C30184640
S3150800338C25F0C0FBFFF7A6F9F8606348F96822F048
S3150800339CBDFFF86800F084FA5C4B5B68184600F0D1
S315080033ACF5FA5A4B00221A77584B00225A77002006
S315080033BC05F00EFF594B00221A60594B00221A6071
S315080033CC2220FFF76BFC574B1B685B68564819465F
S315080033DC22F084FFFFF77EF90246544B1A60534BD2
S315080033EC1B685348194622F091FF504B1B68184628
S315080033FC00F060FA454B0022DA6200233B6147E095
S3150800340C424B5B68996B3A6913465B0013449B0005
S3150800341C0B44BB60BB681A68FB681340002B34D09E
S3150800342CBB685B68B3F1FF3F24D0BB681A68FB68BE
S3150800343C1340002B1ED0BB681A68384B1B68134305
S3150800344C364A1360BB685B683A4AA2FB0323DA0860
S3150800345C334B1B68934238BF1346314A1360304BC3
S3150800346C1B68002B02D02E4B1B6800E00123274A51
S3150800347CD3620AE0BB681B682F48194622F046FF40
S3150800348CBB681B681846FFF73DF93B6901333B617E
S3150800349C3B69002BB4D0A8E01C4BDB6A002B53D03D
S315080034ACFFF724F90246214B1B685340234819465B
S315080034BC22F02CFFFFF71AF902461C4B1B685340E7
S315080034CC184600F03FFAFFF711F90346002B0CD00B
S315080034DCFFF70CF90246154B1B6853401846FFF7C5
S315080034EC11F92320FFF7DAFB46E0104B1A680B4B51
S315080034FC1B68134811461A4622F008FF034BDB6A71
S3150800350C1048194622F002FF36E000BF2C2C00208A
S3150800351C71010020FCC2020808C30208682C0020AE
S3150800352C6C2C0020C803002038C30208702C00201D
S3150800353C68C30208CDCCCCCC94C30208D8C3020805
S3150800354C04C4020844C40208FFF7D0F80246284B04
S3150800355C1B6853407B607B68002B0AD0254879682A
S3150800356C22F0D4FE786800F0C9F97868032100F0D7
S3150800357C93FF2320FFF792FB1F4BDB6A002B05D02A
S3150800358C1D4BDB6A013B1C4AD3622EE02DE0FFF78C
S3150800359CADF8F8601948F96822F0B8FEFB68002BFC
S315080035AC01D1032300E00023FB70FB78184600F0DA
S315080035BC27FA0346FB70FB781846FFF755FB0346BC
S315080035CC0F48194622F0A2FEFB78002B03D12420C3
S315080035DCFFF764FB09E04920FFF760FB05E016F0EE
S315080035EC1FFAFFF77BFC00E000BF1837BD4680BD0D
S315080035FC702C002070C402082C2C00209CC40208D5
S3150800360CC8C4020880B582B000AF0346FB800448E4
S3150800361C044940F20112FEF7B3FF0837BD4680BDD8
S3150800362CC8C50208CCC5020880B400AFBD465DF813
S3150800363C047B704780B500AF044B1B78002B01D177
S3150800364CFFF7F2FF024B184680BD00BF752C002011
S3150800365C08C5020880B500AF0BF042FB0BF0E4FB83
S3150800366C80BD00BF80B582B000AF78607B681B6CEC
S3150800367C184625F07BF97B681B6CDB78184625F019
S3150800368C99F900BF25F0E4F90346002BFAD125F089
S3150800369CCBF91D4B1B78002B04D17B68DB6E1846C7
S315080036AC15F0E4FE7B685B6C184625F087FA7B6898
S315080036BC5B6C184625F082FA7B689B6C184627F0DB
S315080036CC85F87B68DB6D184627F0C0FB0E4B1B781C
S315080036DC002B04D17B685B6E18460AF0B5FA7B683A
S315080036EC5B6D184627F002F97B685B6F9B69184679
S315080036FC00F08AFC7B681B6D184627F0FDFC25F04C
S3150800370CC3FA0837BD4680BD752C002080B582B03B
S3150800371C00AF7860364B1B78002B04D17B689B6D09
S3150800372C184625F01BFD324B1B78002B01D10AF0ED
S3150800373C05F82F4B1B78002B01D107F0B5FE2C4B47
S3150800374C1B78002B01D107F0F9FE7B685B6FDB69F0
S3150800375C184626F02DFA264B1B78002B05D17B68CC
S3150800376C5B6F1B6A184600F06BFF214B1B78002B0E
S3150800377C05D17B685B6F5B6A184602F00FFE1C4B23
S3150800378C1B78002B04D17B68DB6C18460DF022FAEB
S3150800379C174B1B78002B05D17B685B6F1B6B184688
S315080037AC13F088F8124B1B78002B05D17B685B6FDE
S315080037BC9B6A18460FF030FA0D4B1B78002B04D178
S315080037CC7B689B6E184616F0C7FF094B1B78002BB7
S315080037DC01D1FDF781FF064B1B78002B04D17B68C2
S315080037EC1B6F18461FF09AFD0837BD4680BD00BFF3
S315080037FC752C002080B582B000AF78607B68DB6FD3
S3150800380C18461FF019FA0E4B1B78002B01D116F02F
S3150800381C07F90B4B1B78002B04D17B689B6F18465A
S3150800382C0BF056FB064B1B78002B05D17B685B6FA0
S3150800383CDB6A18460CF036FD0837BD4680BD00BF5E
S3150800384C752C002080B400AFBD465DF8047B70472C
S3150800385C80B400AFBD465DF8047B704780B400AFFA
S3150800386CBD465DF8047B704780B400AFBD465DF875
S3150800387C047B704780B400AFBD465DF8047B704787
S3150800388C80B400AFBD465DF8047B704780B483B046
S3150800389C00AF78600C37BD465DF8047B704700BFF7
S315080038AC80B483B000AF78600C37BD465DF8047BF6
S315080038BC704700BF80B584B000AF786007F10F037E
S315080038CC1846FEF79BFF0346002B05D00848094906
S315080038DC40F2C522FEF754FEFB7B222B05D0064888
S315080038EC044940F2C522FEF74BFE1037BD4680BD93
S315080038FCC8C50208CCC5020838C6020880B584B00B
S3150800390C00AF786007F10F031846FEF777FF0346FA
S3150800391C002B05D00848094940F2D122FEF730FEA3
S3150800392CFB7B222B05D00648044940F2D122FEF730
S3150800393C27FE1037BD4680BDC8C50208CCC502088F
S3150800394C38C6020880B584B000AF786007F10F035B
S3150800395C1846FEF753FF0346002B05D008480949BD
S3150800396C40F2DB22FEF70CFEFB7B222B05D0064829
S3150800397C044940F2DB22FEF703FE1037BD4680BD34
S3150800398CC8C50208CCC5020838C6020880B584B07A
S3150800399C00AF786007F10B031846FEF72FFF0346B6
S315080039AC002B05D01248134940F2F122FEF7E8FD28
S315080039BCFB7A212B05D010480E4940F2F122FEF76E
S315080039CCDFFDFFF737FEF860F868FFF74BFE25F0CA
S315080039DCAFF80246094B1B68B2FBF3F3184606F020
S315080039EC15FBF868FFF792FE1037BD4680BD00BF81
S315080039FCC8C50208CCC502084CC6020870BC020829
S31508003A0C80B584B000AF0346FB7107F10F03184667
S31508003A1CFEF7F4FE0346002B05D00A480A4940F285
S31508003A2C1932FEF7ADFDFB7B232B05D0074806495B
S31508003A3C40F21932FEF7A4FDFB7918461037BD463D
S31508003A4C80BD00BFC8C50208CCC5020860C60208FE
S31508003A5C80B582B000AFFB1D1846FEF7CFFE0346B5
S31508003A6C002B05D009480A4940F22A32FEF788FD90
S31508003A7CFB79502B05D00748054940F22A32FEF748
S31508003A8C7FFD26F013FF0837BD4680BDC8C5020862
S31508003A9CCCC5020874C6020880B582B000AFFB1DFF
S31508003AAC1846FEF7ABFE0346002B05D009480A4913
S31508003ABC40F24132FEF764FDFB79502B05D00748DE
S31508003ACC054940F24132FEF75BFD002318460837DC
S31508003ADCBD4680BDC8C50208CCC5020874C6020816
S31508003AEC80B582B000AF78600220FEF70BFE00BFEF
S31508003AFC0837BD4680BD00BF80B487B000AFF860FC
S31508003B0CB96011461A460B46FB8013467B71002397
S31508003B1CFB82FB68002B24D07B79012B01D0FB8818
S31508003B2C01E04FF6FF73FB8200233B6115E0FB8A2D
S31508003B3C1B029AB2FB8A1B0A9BB21946FB681B78B6
S31508003B4C4B40DBB20A4931F813305340FB82FB6811
S31508003B5C0133FB603B6901333B613A69BB689A42A6
S31508003B6CE5D3FB8A18461C37BD465DF8047B7047BF
S31508003B7C88C6020880B487B000AFF860B9607A606E
S31508003B8CFB7000237B61FB68002B25D0FB78012B8F
S31508003B9C02D07B68DB4301E04FF0FF337B610023E7
S31508003BAC3B6112E07B691A0AFB681B7819467B692C
S31508003BBC4B40DBB20C4951F8233053407B61FB6810
S31508003BCC0133FB603B6901333B613A69BB689A4236
S31508003BDCE8D37B69DB437B617B6918461C37BD469A
S31508003BEC5DF8047B704700BF88C8020880B400AF34
S31508003BFC72B6064B1B78DBB2DBB20133DBB2DAB238
S31508003C0C024B1A70BD465DF8047B70475C2D00208C
S31508003C1C80B400AF0A4B1B78002B0DD0084B1B78D1
S31508003C2CDBB2DBB2013BDBB2DAB2054B1A70044BE2
S31508003C3C1B78002B00D162B6BD465DF8047B704735
S31508003C4C5C2D002080B584B000AF7860094A7B688B
S31508003C5C52F82330BB60BB6898470346012B02D148
S31508003C6C0123FB7301E00023FB73FB7B184610371B
S31508003C7CBD4680BD9001002080B586B000AF0346D6
S31508003C8CFB802F4B1A68B7F906301B0113443B61AE
S31508003C9C2C4B1B685B68FB604FF0FF337B613B6901
S31508003CAC1B681846FFF7CEFF0346FB72FB7A012BFF
S31508003CBC1FD13B695B68002B15DB3B695B681A46B1
S31508003CCC13465B0013449B001A46FB6813441B7A85
S31508003CDC002B05D0B7F906301B4AD35C012B02D052
S31508003CEC3B695B687B61B7F90630174A0121D154E9
S31508003CFC21E0FB7A002B1ED13B699B68002B15DB58
S31508003D0C3B699B681A4613465B0013449B001A468C
S31508003D1CFB6813441B7A002B05D0B7F906300A4A00
S31508003D2CD35C002B02D03B699B687B61B7F90630E4
S31508003D3C054A0021D1547B6918461837BD4680BD03
S31508003D4C802C00207C2C00208C2C002080B584B084
S31508003D5C00AF78607B681B68054A52F82330FB6015
S31508003D6CFB6878689847034618461037BD4680BDE9
S31508003D7C7801002080B487B000AFF860B9607A602B
S31508003D8C0023FB75FB6893F83830052B1AD8FB68AB
S31508003D9C93F838301946FB687A6843F82120FB6893
S31508003DAC93F83830FA6806339B001344BA685A609D
S31508003DBCFB6893F838300133DAB2FB6883F838209D
S31508003DCC0123FB75FB7D18461C37BD465DF8047B45
S31508003DDC704700BF80B487B000AFF860B9607A60EE
S31508003DEC0023FB75FB6893F83830002B2DD0FB6845
S31508003DFC93F83830013BDAB2FB6883F83820FB6855
S31508003E0C93F838301A46FB6853F822207B681A60F8
S31508003E1CFB6893F83830FA6806339B0013445A68E3
S31508003E2CBB681A60FB6893F83830FA6806339B004F
S31508003E3C134400225A60FB6893F838301946FB681D
S31508003E4C002243F821200123FB75FB7D18461C37FD
S31508003E5CBD465DF8047B704780B598B000AF7860B6
S31508003E6C564B1B685B68BB650023BB647B687B642D
S31508003E7C002387F85F3007F108033C221846002117
S31508003E8C27F01AFD72E07B6C1A4613465B00134446
S31508003E9C9B001A46BB6D13441A68BB6C9B001344F3
S31508003EAC1B687B65BB6C0133BB647B6D9B7E012BEE
S31508003EBC2ED0022B3ED0002B57D1786DFFF746FF3C
S31508003ECC034687F853307B6DDB68002B12DB97F8BB
S31508003EDC5330012B07D17B6DDB689BB21846012149
S31508003EEC15F016FF06E07B6DDB689BB218460021C1
S31508003EFC15F00EFF7B6D5B7F012B05D197F85330C0
S31508003F0C012B01D1012300E0002387F85F302DE057
S31508003F1C7A6CBB6C07F10801084611461A46FFF77E
S31508003F2C29FF0346012B04D17B6D9B687B64002318
S31508003F3CBB641BE07B6D1B8B1BB21846FFF79CFE04
S31508003F4CF864FB6C002B0FDB7A6CBB6C07F1080171
S31508003F5C084611461A46FFF70DFF0346012B03D1F7
S31508003F6CFB6C7B640023BB6400E000BF97F85F30F2
S31508003F7C002B0DD17B6C1A4613465B0013449B0031
S31508003F8C1A46BB6D13445A68BB6C9A423FF67BAF14
S31508003F9C002387F85F3007F1080107F1440207F19F
S31508003FAC4803084611461A46FFF714FF0346012B29
S31508003FBC3FF468AF6037BD4680BD00BF7C2C00203F
S31508003FCC80B483B000AF0023FB71084B1B78002B21
S31508003FDC04D10123FB71054B01221A70FB79184693
S31508003FEC0C37BD465DF8047B704700BF842C002057
S31508003FFC80B400AF034B00221A70BD465DF8047BF3
S3150800400C704700BF842C002080B584B000AF786060
S3150800401C7B68002B06D12A200021002202230AF0F5
S3150800402CA1FE58E07B681B68002B06D12A200021CC
S3150800403C002206230AF096FE4DE07B681B68DB68B7
S3150800404C052B06D92A200021002206230AF08AFE0F
S3150800405C41E0224A7B6813607B681B68204A136020
S3150800406C7B681B689B681F4A13600023FB600DE086
S3150800407C1C4B1A68FB681B011344197B1A4AFB680C
S3150800408C13440A461A70FB680133FB60144B1B6811
S3150800409CDA68FB689A42EBD80023FB600CE07B6875
S315080040AC9A68FB689B0013441A681049FB6841F828
S315080040BC2320FB680133FB60FB68022BEFD90C4B02
S315080040CC00221A700B4B00221A700B4B00221A7026
S315080040DC0A4B00221A701037BD4680BD7C2C002076
S315080040EC782C0020802C00208C2C0020942C00206E
S315080040FC852C0020892C0020842C0020740100209B
S3150800410C80B400AF034B01221A70BD465DF8047BE0
S3150800411C704700BF7401002080B584B000AF2C4BEB
S3150800412C1B78002B06D02A200021032201230AF033
S3150800413C19FE4AE0274B1B78012B05D126480FF0B0
S3150800414C6FF8244B00221A70FFF750FDFFF738FF63
S3150800415C0346FB72FFF75CFD00F044F90023FB6095
S3150800416C1BE01E4B1B681A68FB685B0013441B8814
S3150800417C3B81B7F90830002B00DA14E0B7F90830A0
S3150800418C1846FFF779FD78607B68002B02DB7868A8
S3150800419CFFF762FEFB680133FB60104B1B68DA689D
S315080041ACFB689A42DDD80E4B1B78012B08D10D4BB8
S315080041BC1B78094819460EF0D1FE094B00221A70D5
S315080041CCFB7A012B01D1FFF713FF1037BD4680BDD3
S315080041DC7401002075010020882C0020782C002002
S315080041EC852C0020892C002080B584B000AF78601F
S315080041FC7B685B69FB60FB68002B11D00CE0FB68E5
S3150800420C1A1DFA601B689BB21548194601220FF055
S3150800421C21F8144B01221A70FB681B68002BEEDA86
S3150800422C7B681B69FB60FB68002B11D00CE0FB68F4
S3150800423C1A1DFA601B689BB20948194600220FF032
S3150800424C09F8084B01221A70FB681B68002BEEDA7A
S3150800425C7B689A7F044B1A701037BD4680BD00BF29
S3150800426C882C0020852C0020892C002080B582B053
S3150800427C00AF78607868FCF781F90346184608376A
S3150800428CBD4680BD80B582B000AF78607868FCF713
S3150800429C8BF9034618460837BD4680BD80B582B0F3
S315080042AC00AF78607868FFF79FFF00231846083739
S315080042BCBD4680BD80B582B000AF78600020022173
S315080042CC0CF0FEF8034618460837BD4680BD00BFFD
S315080042DC80B582B000AF7860002009F057FD002346
S315080042EC18460837BD4680BD80B582B000AF7860E9
S315080042FC012009F04BFD002318460837BD4680BD42
S3150800430C80B400AF064B1B68DBB2022B0CBF012333
S3150800431C0023DBB21846BD465DF8047B704700BF28
S3150800432C942C002080B400AF064B5B68DBB2002BE4
S3150800433C14BF01230023DBB21846BD465DF8047B87
S3150800434C704700BF942C002080B400AF064B1B6846
S3150800435CDBB2012B0CBF01230023DBB21846BD468A
S3150800436C5DF8047B704700BF942C002080B400AF26
S3150800437C064B1B68DBB2002B0CBF01230023DBB2F8
S3150800438C1846BD465DF8047B704700BF942C002088
S3150800439C80B400AF064B9B68DBB2042B0CBF012321
S315080043AC0023DBB21846BD465DF8047B704700BF98
S315080043BC942C002080B582B000AFFB1D1846FFF781
S315080043CC55FFFB7918460837BD4680BD80B582B0C7
S315080043DC00AFFB1D1846FFF755FFFB791846083743
S315080043ECBD4680BD80B500AFFFF7E4FF03461A460D
S315080043FC044B5A60FFF7EAFF03461A46014B9A60CC
S3150800440C80BD00BF942C002080B582B000AF034657
S3150800441C0A46FB711346BB71124B1B78002B06D050
S3150800442C2A2000210E2201230AF09CFC17E0BB79F6
S3150800443C022B0CD0BB79012B09D0BB79002B06D0EB
S3150800444C2A2000210E2205230AF08CFC07E0FB79B2
S3150800445C002B00D003E0BB79034A136000BF083772
S3150800446CBD4680BD74010020942C002080B582B016
S3150800447C00AF0346FB71074B1B78002B06D02A208E
S3150800448C00210F2201230AF06DFC00BF0837BD4638
S3150800449C80BD00BF7401002080B582B000AF786083
S315080044AC0B46FB70064B1B78002B06D02A200021E6
S315080044BC102201230AF056FC00BF0837BD4680BD02
S315080044CC7401002080B582B000AF03460A46FB7122
S315080044DC1346BB71064B1B78002B06D02A200021ED
S315080044EC052201230AF03EFC00BF0837BD4680BDF5
S315080044FC7401002080B500AF6FF00D00002106F0A6
S3150800450CC3F880BD80B48DB000AF78607B681B683B
S3150800451CFB627B685B68BB627B689B687B627B68BB
S3150800452CDB683B627B681B69FB617B685B69BB610B
S3150800453C7B689B697B617B68DB693B610C4B9B6A7F
S3150800454C03F48023002B00D0FEE7094B9B6A03F487
S3150800455C0033002B00D0FEE7054B9B6A03F400439F
S3150800456C002B03D0024B9B6BFB60FEE7FEE700BFFC
S3150800457C00ED00E072B61EF0040F0CBFEFF30880D6
S3150800458CEFF30980004908471145000880B500AFCC
S3150800459C6FF00B00014906F077F880BD00ED00E0DE
S315080045AC80B500AF6FF00A00014906F06DF880BDC2
S315080045BC00ED00E080B500AF6FF00900014906F088
S315080045CC63F880BD00ED00E080B483B000AF78607E
S315080045DCFF2318460C37BD465DF8047B704700BFB1
S315080045EC80B485B000AF03463960FB710123FB73B9
S315080045FC3B68002B1AD00023BB7314E00F4B1B68C7
S3150800460C9968BA7B13469B0013449B000B441B7C8E
S3150800461CFA799A4204D13B68BA7B1A700023FB7369
S3150800462CBB7B0133BB73BB7B002BE7D0FB7B1846EC
S3150800463C1437BD465DF8047B704700BFA02C0020DC
S3150800464C80B584B000AF78607B68002B06D13C201F
S3150800465C0021012214230AF085FB1AE00E4A7B6816
S3150800466C13600023FB730EE0FB7B0C4A5B001344C0
S3150800467C01225A70FB7B094A5B00134400229A708C
S3150800468CFB7B0133FB73FB7B002BEDD0034B012229
S3150800469C1A701037BD4680BDA02C0020A42C002013
S315080046AC80B584B000AF03460A46FB711346BB714E
S315080046BC204B1B78012B06D03C20002117221E23E9
S315080046CC0AF050FB33E0BB79022B0CD0BB79032BD9
S315080046DC09D0BB79012B06D03C20002117221523C3
S315080046EC0AF040FB23E00023FB73FA7907F10F036A
S315080046FC10461946FFF774FF0346002B06D03C20DC
S3150800470C002117220E230AF02DFB10E00A4BDB685A
S3150800471C002B06D0084BDB68F97BBA79084611469C
S3150800472C9847FB7B034A5B001344BA795A701037D7
S3150800473CBD4680BDA42C0020A4CD020880B584B04B
S3150800474C00AF03460A46FB711346BB71344B1B7804
S3150800475C012B07D03C20002103221E230AF002FB62
S3150800476C012358E0FB79002B07D03C2000210322BB
S3150800477C0F230AF0F7FA01234DE0BB79022B0DD073
S3150800478CBB79032B0AD0BB79012B07D03C2000211F
S3150800479C032215230AF0E6FA01233CE0214B1B6899
S315080047AC9968FA7913469B0013449B000B441B7CAF
S315080047BC7B73FB791A4A5B0013445B783B730023C3
S315080047CCFB730023BB73BB79022B0CD0032B0DD0C8
S315080047DC012B0ED13B7B032B02D10323FB730BE07E
S315080047EC0123FB7308E00023FB7305E00223FB732C
S315080047FC02E00123BB7300BFBB7B002B0AD17A7B7B
S3150800480CFB7B1046194625F049FC0346012B01D1C2
S3150800481C0123BB73BB7B18461037BD4680BD00BF52
S3150800482CA42C0020A02C002080B588B000AF03462D
S3150800483C3960FB800123BB770023FB777A4B1B7807
S3150800484C012B07D03C20002105221E230AF08AFAE8
S3150800485C0123E5E03B68002B07D13C20002105220B
S3150800486C14230AF07FFA0123DAE0FA886F4B1B68E7
S3150800487C1B689B689A4207D33C20002105223223E9
S3150800488C0AF070FA0123CBE0684B1B681B68196A9F
S3150800489CFA8813469B0013449B000B44BB61BB6907
S315080048AC1B681B685B78FB75FB7D5F4A5B001344D2
S315080048BC9B78002B06D0FB7D5B4A5B0013449B78E8
S315080048CC012B07D13C200021052246230AF04AFA7F
S315080048DC0123A5E0FB7D544A5B0013445B78012B4E
S315080048EC07D13C200021052246230AF03BFA012376
S315080048FC96E0FB7D4C4A5B0013445B78022B0DD18A
S3150800490CFB7D494A5B0013449B78012B06D0FB7D43
S3150800491C454A5B0013449B78002B01D10123FB7796
S3150800492CFB7F002B7BD1FB7F002B78D1FB7D3E4A8E
S3150800493C5B0013449B78042B06D0FB7D3A4A5B003C
S3150800494C13449B78052B16D1BB695B68B3F1FF3F03
S3150800495C0FD0BB695B68364A52F82330002B08D057
S3150800496CBB695B68324A52F82330BA699289104699
S3150800497C98470023BB77BB7F012B4ED1BB699B683D
S3150800498CFB60BB699B7B002B04D1FB6843F000439F
S3150800499CFB6010E0BB699B7B032B04D1FB6843F0DF
S315080049AC8043FB6007E0BB699B7B012B03D1FB684B
S315080049BC43F04043FB603B689A88BB691B7C9BB2FF
S315080049CC9A4204D23B689B88DBB2BB7202E0BB6995
S315080049DC1B7CBB723B681B683B61FB883B81BB69D4
S315080049EC1B681B689A7807F108031046194625F0C8
S315080049FC9BFC0346BB75BB7D022B02D10123FB77BF
S31508004A0C0DE0BB7D012B02D10123FB7707E0BB7DB3
S31508004A1C002B04D10023FB7701E0BB7FFB77FB7FE0
S31508004A2C18462037BD4680BDA42C0020A02C00209B
S31508004A3C8CCD020880B584B000AF0346FB802A4BA8
S31508004A4C1B78012B06D03C20002113221E230AF0CA
S31508004A5C89F946E0FA88254B1B681B689B689A42BD
S31508004A6C06D33C20002113220D230AF07BF938E0EB
S31508004A7C1E4B1B681B68196AFA8813469B0013445D
S31508004A8C9B000B44FB60FB681B681B685A7807F194
S31508004A9C0B031046194600F01FFA0346002B20D1CB
S31508004AACFB7A022B08D0FB7A032B05D0FB7A042B56
S31508004ABC02D0FB7A052B14D1FB685B68B3F1FF3F78
S31508004ACC0FD0FB685B680A4A52F82330002B08D0D3
S31508004ADCFB685B68064A52F82330FA6892891046D6
S31508004AEC98471037BD4680BDA42C0020A02C00206A
S31508004AFC8CCD020880B489B000AFF8607A603B6050
S31508004B0C0B467B810023FB777B68DB0FDBB2FB76DE
S31508004B1C7B6823F000437B610023BB8322E0BB8BBD
S31508004B2C1B01FA6813445A687B699A4217D3BB8BE4
S31508004B3C1B01FA6813441A687B699A420FD8BB8B17
S31508004B4C1B01FA681344DB7BFA7E9A4207D10123D0
S31508004B5CFB77BB8B1B01FA681A443B681A60BB8B44
S31508004B6C0133BB83BA8B7B899A4202D2FB7F002B1B
S31508004B7CD5D0FB7F18462437BD465DF8047B7047B5
S31508004B8C80B58AB000AFB9607B600346FB731346E9
S31508004B9CBB73002387F82730714B1B78012B06D083
S31508004BAC3C20002114221E230AF0DCF8D4E0FA7B00
S31508004BBC6C4B1B681B689B69DB689A4206D33C20C6
S31508004BCC002114220C230AF0CDF8C5E0654B1B68AE
S31508004BDC1B689B699A68FB7B5B0013441B884FF622
S31508004BECFF72934206D13C20002114220C230AF0B2
S31508004BFCB9F8B1E05B4B1B681B689B691A68594B83
S31508004C0C1B681B689B699968FB7B5B000B441B88BC
S31508004C1C1B0113443B62BB68002B05DABB6823F007
S31508004C2C4043B3F1005F08D2BB68002B07DBBB68B7
S31508004C3C23F04043B3F5006F01D3012300E00023B2
S31508004C4CFB77FB7F012B04D0BB6803F08043002B5A
S31508004C5C06D03C20002114220A230AF083F87BE0B4
S31508004C6CBB7B082B06D93C20002114220B230AF007
S31508004C7C79F871E07B68002B06D13C2000211422C0
S31508004C8C14230AF06FF867E03B6A9A7807F11E035B
S31508004C9C1046194600F020F90346002B08D1BB7FB5
S31508004CAC002B05D0BB7F022B02D0BB7F042B01D176
S31508004CBC012300E00023002B4ED13B6A9B683B6125
S31508004CCC3B6A9B89002B19D03B6A1B78012B03D0B6
S31508004CDC3B6A5B78002B03D1012387F827300DE05C
S31508004CEC3B6A99683B6A9A8907F11003084611468C
S31508004CFCBA68FFF7FFFE034687F8273097F8273080
S31508004D0C002B29D03B699B7BBA7B9A4206D23C2066
S31508004D1C002114220B230AF025F81DE03B699B6839
S31508004D2CB3F1FF3F18D03B699B680F4A52F8233002
S31508004D3C002B11D0BB7B9BB23B837B687B613B69A9
S31508004D4C9B68094A52F823303A69918907F114028B
S31508004D5C084611469847FFE72837BD4680BD00BF71
S31508004D6CA42C0020A02C002074CD020880B584B099
S31508004D7C00AF03460A46FB711346BB710023FB734F
S31508004D8C544B1B78012B07D03C20002109221E23EB
S31508004D9C09F0E8FF012399E0FB79002B07D03C20AA
S31508004DAC002109220F2309F0DDFF01238EE0FB7990
S31508004DBC484A5B0013449B787B737B7BBB73BB793C
S31508004DCC062B79D801A252F823F000BFF54D00083E
S31508004DDC014E0008274E00084D4E0008994E000853
S31508004DECFB4D0008734E00080023BB7367E00323D2
S31508004DFCBB7364E07B7B032B02D10223BB730BE0F2
S31508004E0C7B7B012B02D10023BB7305E07B7B052B37
S31508004E1C02D10423BB7352E051E07B7B022B02D1F7
S31508004E2C0323BB730BE07B7B002B02D10123BB73E3
S31508004E3C05E07B7B042B02D10523BB733FE03EE0E8
S31508004E4C7B7B032B02D07B7B052B02D10123BB7307
S31508004E5C08E07B7B022B02D07B7B042B02D1002340
S31508004E6CBB732CE02BE07B7B002B02D07B7B022BCD
S31508004E7C02D10423BB7308E07B7B032B02D07B7B1C
S31508004E8C012B02D10523BB7319E018E07B7B002BA1
S31508004E9C02D10223BB730EE07B7B012B02D07B7BFA
S31508004EAC052B02D10323BB7305E07B7B042B02D1B4
S31508004EBC0223BB7303E002E00123FB7300BFFB79FB
S31508004ECC044A5B001344BA7B9A70FB7B184610376E
S31508004EDCBD4680BDA42C002080B582B000AF034629
S31508004EEC3960FB71164B1B78012B07D03C2000212F
S31508004EFC0A221E2309F036FF01231DE0FB79002B3D
S31508004F0C07D03C2000210A220F2309F02BFF01238E
S31508004F1C12E03B68002B07D13C2000210A221423FF
S31508004F2C09F020FF012307E0FB79054A5B001344CF
S31508004F3C9A783B681A70002318460837BD4680BD18
S31508004F4CA42C002080B584B000AF0346FB71002367
S31508004F5CFB731A4B1B78012B06D03C20002116221A
S31508004F6C1E2309F0FFFE26E0FA7907F10F03104617
S31508004F7C1946FFF735FB0346002B06D03C200021CB
S31508004F8C16220E2309F0EEFE15E0FB7B0B4A5B009E
S31508004F9C13445B78002B05D0FB7B084A5B00134453
S31508004FAC01225A70064B1B68002B04D0044B1B6855
S31508004FBCFA7B104698471037BD4680BDA42C0020B6
S31508004FCCA4CD020880B483B000AF7860064B1B688A
S31508004FDC1B681B687A68B2FBF3F318460C37BD4698
S31508004FEC5DF8047B704700BF302D002080B485B077
S31508004FFC00AF786039600023FB730023BB73012371
S3150800500C7B737B681B78002B06D0012B09D13B6878
S3150800501C1B681B78BB7307E03B681B685B78BB7324
S3150800502C02E000237B7300BF7B7B002B1AD0BB7B73
S3150800503C03F03003102B0CD0102B02DC002B05D000
S3150800504C10E0202B08D0302B09D00BE00123FB7382
S3150800505C08E00223FB7305E00323FB7302E0042339
S3150800506CFB7300BFFB7B18461437BD465DF8047B03
S3150800507C704700BF80B487B000AFF8600B467A6003
S3150800508CFB720023FB8201237B7500233B75FB68AF
S3150800509C1B78002B04D0012B05D100233B7506E0A9
S315080050AC01233B7503E00023FB8200237B757B7D84
S315080050BC012B33D1FB7A012B02D0022B16D02AE016
S315080050CC7B689B88082B07D97B681A683B7D01335C
S315080050DC13441B78FB8221E07B681A683B7D1344DA
S315080050EC1B789BB203F00F03FB8217E07B681A68E8
S315080050FC3B7D013313441B789AB27B6819683B7D58
S3150800510C0B441B789BB203F00F039BB21B029BB29A
S3150800511C1344FB8202E00023FB8200BFFB8A18467D
S3150800512C1C37BD465DF8047B704700BF80B483B05E
S3150800513C00AF78607B6801221A747B680022DA72E9
S3150800514C7B6800225A807B6800221A807B680022C2
S3150800515C9A827B680022DA827B6800221A837B6833
S3150800516C0022DA847B68002283F824207B684FF6B9
S3150800517CFF721A850C37BD465DF8047B704700BF75
S3150800518C80B483B000AF78607B6801221A747B68A0
S3150800519C0022DA727B6800225A807B6800221A8009
S315080051AC7B6800229A827B680022DA827B6800225E
S315080051BC1A837B68022283F824207B684FF6FF72D9
S315080051CC1A850C37BD465DF8047B704780B586B0EA
S315080051DC00AFF860B9607A607B803B6A00221A805F
S315080051ECBB681B7C032B0DD0FB689988BB689A8A15
S315080051FCBB681833084611461A4611F063F903467C
S3150800520CFB7510E0204B00229A801F4B00221A6077
S3150800521CFB689A88BB68183310461B491A4611F066
S3150800522C2BF90346FB75FB7D002B27D1164A7B68A9
S3150800523C1360BB681B8B7A889A420ED8124A7B88F5
S3150800524C9380FB689A88BB68183310460E491A4631
S3150800525C11F012F90346FB7501E00223FB75FB7D81
S3150800526C002B0BD1084B9A883B6A1A80BB68DA8AE2
S3150800527C054B9B8813449AB2BB68DA82FB7D1846A9
S3150800528C1837BD4680BD00BF342D002080B487B0CA
S3150800529C00AFF860B9601346FB800023BB75FB684A
S315080052AC93F82A30012B02D14023FB7501E0082321
S315080052BCFB75FB7D9BB2FA889A4218D200233B6198
S315080052CC11E03B69BA6813441978FA683B691344C8
S315080052DC18330A469A70FB68FA885A840123BB75F8
S315080052EC3B6901333B61FA883B699A42E9DCBB7D31
S315080052FC18461C37BD465DF8047B704780B586B0EA
S3150800530C00AFF860B9607A60FB689B7C012B12D100
S3150800531C7B689B88FB750BE07B681A68FB7D1344DE
S3150800532C104A12681268127C1A70FB7D0133FB75E1
S3150800533CFB7D072BF0D97B6808229A80FB681B89B2
S3150800534C1A46BB68DA60BB680122DA72FB685B88AE
S3150800535C18467968FFF768FA034618461837BD46A3
S3150800536C80BD00BF302D002080B586B000AFF86038
S3150800537CB9607A60FB681B7D012B19D17B689B8809
S3150800538C7B610BE07B681A687B691344124A1268C6
S3150800539C1268127C1A707B6901337B61FB68DB88A7
S315080053AC1A467B699A42EDDCFB68DA887B689A8038
S315080053BCFB685B891A46BB68DA60BB680122DA723D
S315080053CCFB681B8818467968FFF72EFA03461846B9
S315080053DC1837BD4680BD00BF302D002080B58AB079
S315080053EC00AFF860B9601346FB71002387F82730C5
S315080053FC012387F823300023BB8407F11003BB6114
S3150800540CFB689B79002B0CD197F827305A1C87F828
S3150800541C27201946BB681A7A07F128030B4403F8A8
S3150800542C182CFB79032B00F2B28001A252F823F058
S3150800543C4D5400089B5500083B550008715500084B
S3150800544C97F827305A1C87F8272007F128021344A7
S3150800545C302203F8182CFB689B79002B18D1BB68F3
S3150800546C93F82A30012B09D1BB681B8B594AA2FB2E
S3150800547C03231B099BB20133BB8425E0BB681B8B3A
S3150800548C554AA2FB03239B089BB20133BB841BE042
S3150800549CBB6893F82A30012B0AD1BB681B8B5B08B7
S315080054AC4E4AA2FB03231B099BB20133BB840BE0B8
S315080054BCBB681A8B4A4BA3FB0213D21A5208134425
S315080054CC9B089BB20133BB84FB68DB799BB2BA8C15
S315080054DC9A4202D9FB68DB79BB84FB68DA79BB682C
S315080054EC9A7297F827305A1C87F827201946BB68F2
S315080054FC9A7A07F128030B4403F8182C97F82730E7
S3150800550C5A1C87F827201946FB68DB8ADAB207F19A
S3150800551C28030B4403F8182CBB68BA8C1A8097F826
S3150800552C27309BB2BB83BB680022DA8430E097F83D
S3150800553C27305A1C87F8272007F1280213443122F2
S3150800554C03F8182C97F82730023387F8273097F882
S3150800555C27309BB2BB83BB68DB8C01339AB2BB6822
S3150800556CDA8415E097F827305A1C87F8272007F1B4
S3150800557C28021344322203F8182C97F827300233E2
S3150800558C87F8273097F827309BB2BB8300E000BF1B
S3150800559C07F11803F868B9681A46FFF7AFFE034611
S315080055AC87F8233097F82330002B10D0FB689B889C
S315080055BC1846012110F074FFBB6801221A74BB68E7
S315080055CC4FF6FF721A85BB68002283F82420283709
S315080055DCBD4680BD3FC52543ABAAAAAA430821846C
S315080055EC2549922490B58DB002AFF860B9607A60FF
S315080055FC002387F82730002387F8223000233B84C2
S3150800560C0023FB830023BB840023BB830023BB82BC
S3150800561C0123FB76FB689B79002B12D10023BB7602
S3150800562C7B681A6897F82730591C87F82710134493
S3150800563C1B78BB76BA7EFB68DB691B689A4200D07E
S3150800564C3DE1BB681B7C032B40F039817B681A68EB
S3150800565C97F82730591C87F8271013441B7803F042
S3150800566C0F0387F8223097F82220BB685B8803F073
S3150800567C0F039A4211D0FB689B881846052110F037
S3150800568C0FFFBB6801221A74BB684FF6FF721A85A6
S3150800569CBB68002283F8242011E17B689A8897F866
S315080056AC27309BB2D31ABB83BB689A8ABB68DB8A42
S315080056BCD31A3B843A8CBB8B9A4202D23B8CBB8462
S315080056CC01E0BB8BBB847B681A6897F827301A44B1
S315080056DCBC8C07F114030093F868B9682346FFF7E6
S315080056EC75FD0346FB76FB7E012B11D1FB689B8867
S315080056FC1846012110F0D4FEBB6801221A74BB6847
S3150800570C4FF6FF721A85BB68002283F82420D6E070
S3150800571CFB7E022B40F0918000237B76FB689B79FD
S3150800572C012B06D13B8C072B8CBF01230023DBB244
S3150800573C05E03B8C062B8CBF01230023DBB27B7662
S3150800574CBB681B88012B65D17B7E002B62D000239E
S3150800575C87F82330BB8ABA8CD31AFB82FB689B79F1
S3150800576C012B1CD17B681B68BA8A01321A44FB8A46
S3150800577CB86811461A46FFF789FD0346012B2AD04D
S3150800578CBB6801221A74BB684FF6FF721A85BB6890
S3150800579C002283F82420012387F823301BE07B683A
S315080057AC1B68BA8A02321A44FB8AB86811461A462A
S315080057BCFFF76CFD0346012B0DD0BB6801221A744A
S315080057CCBB684FF6FF721A85BB68002283F8242043
S315080057DC012387F8233097F82330002B19D1BB689F
S315080057EC5B8801339AB2BB685A80FB685B890133C4
S315080057FC1A46BB685A60BB6805221A74BB68012234
S3150800580C83F82420FB7EF868B9681A46FFF7E6FD8C
S3150800581C12E011E0FB689B881846012110F040FE47
S3150800582CBB6801221A74BB684FF6FF721A85BB68EF
S3150800583C002283F8242042E041E0FB7E002B3ED177
S3150800584CBB689A8ABB68DB8AD31AFB83FB8B002B53
S3150800585C24D0BB685B8801339AB2BB685A80BB6894
S3150800586C1B88002B05D0BB681B88013B9AB2BB680A
S3150800587C1A80BB681B88002B09D1BB689B7A002B46
S3150800588C05D0F868B9680022FFF7A8FD17E0FB6891
S3150800589C9B8901331A46BB685A6010E0BB68012223
S315080058AC1A74BB684FF6FF721A85BB68002283F818
S315080058BC2420FB689B881846002110F0F1FD2C3734
S315080058CCBD4690BD80B586B000AF786039600023C0
S315080058DCBB753B685B8C7B757B7D18333A681344C8
S315080058EC0233FB603B6893F82A30012B03D17B68A3
S315080058FCDB88FB7501E00823FB753B689B8A1A4617
S3150800590C3B68DB8AD21AF97D7B7DCB1A9A4207DD76
S3150800591CFB7D9AB27B7D9BB2D31A9BB23B8206E087
S3150800592C3B689A8A3B68DB8AD31A9BB23B827B68B4
S3150800593C59883B68183307F10C02084611460022B1
S3150800594C10F0D6FD0346BB75BB7D002B2DD13B68ED
S3150800595C5A8C3B8A13449AB23B685A843B68DA8A57
S3150800596C3B8A13449AB23B68DA823B681A33FB606B
S3150800597C3A8A7B7D9BB213449BB23B827B685B89DC
S3150800598C01331A463B685A603B6809221A7407F1B8
S3150800599C0C03786839681A46FFF7E6FC03463B752C
S315080059AC3B7D002B01D00123BB75BB7D18461837F0
S315080059BCBD4680BD80B584B000AF786039603B6861
S315080059CC5B8801339AB23B685A803B6801225A8439
S315080059DC7B681B7A002B05D13B685B8C01339AB22A
S315080059EC3B685A843B685B8C013B3A685288D2B256
S315080059FC02F00F02D2B22032D1B23A6813440A46E8
S31508005A0C9A763B681B88002B05D03B681B88013BA4
S31508005A1C9AB23B681A803B689A8A3B68DB8A9A4238
S31508005A2C11D87B685B881846002110F077FD3B6817
S31508005A3C01221A743B684FF6FF721A853B680222DC
S31508005A4C83F8242064E03B681B88002B0DD13B6847
S31508005A5C9B7A002B09D07B689B8901331A463B68D5
S31508005A6C5A603B6808221A7452E03B685B7A002B32
S31508005A7C28D178683968FFF725FF0346FB73FB7B4B
S31508005A8C002B1ED0FB7B022B09D17B68DB890133EB
S31508005A9C1A463B685A603B6807221A7411E07B6801
S31508005AAC5B881846012110F039FD3B6801221A74EF
S31508005ABC3B684FF6FF721A853B68022283F824204E
S31508005ACC26E025E03B685B7ADBB25BB2002B09DB90
S31508005ADC3B685B7A1846FFF775FA03465A1C3B680F
S31508005AEC5A6012E03B685B7AF02B07D93B685B7A05
S31508005AFCF92B03D83B6801225A6006E07F20FFF792
S31508005B0C61FA03465A1C3B685A603B6806221A74AB
S31508005B1C1037BD4680BD00BF80B586B000AFF860B3
S31508005B2CB9607A6000237B61FB681B7A002B10D165
S31508005B3C0023FB747B681A687B69591C79611344CA
S31508005B4C1B78FB74FA7CFB689B691B689A4200D02D
S31508005B5C62E0BB681B7C082B5ED17B681A687B6984
S31508005B6C591C796113441B7803F00F03012B25D0BC
S31508005B7C022B2DD0002B3DD17B681A687B69591CEA
S31508005B8C796113441B78BB74BB68BA7C9A72BB7C6C
S31508005B9C9AB2BB681A807B681A687B69591C79614A
S31508005BAC13441A78BB685A72FB68DB8901331A46A8
S31508005BBCBB685A60BB6807221A742DE0FB689B8980
S31508005BCC01331A46BB685A60BB6808221A7423E06C
S31508005BDCFB685B8818460A2110F0A0FCBB680122FA
S31508005BEC1A74BB684FF6FF721A85BB68022283F8D3
S31508005BFC242011E0FB685B881846062110F08EFC01
S31508005C0CBB6801221A74BB684FF6FF721A85BB680B
S31508005C1C022283F8242000BF1837BD4680BD00BF7A
S31508005C2C90B58BB002AFF860B9607A607B800023C0
S31508005C3CFB610123FB76FB680633184601217A685B
S31508005C4CFFF718FA03463B83FB689B79002B1FD199
S31508005C5C0023FB757B681B681B78FB75FA7DFB6854
S31508005C6CDB691B689A4205D13B8B062B02D83B8B0A
S31508005C7C002B0CD10023FB76BB6893F82A30012B3A
S31508005C8C05D13B8B3D2B02D80123FB7612E011E0A4
S31508005C9C3B8B072B02D83B8B002B0BD10023FB76B7
S31508005CACBB6893F82A30012B04D13B8B3E2B01D8C9
S31508005CBC0123FB76FB7E012B40F0B980BB681B7C6D
S31508005CCC012B19D0BB681B7C052B15D0BB681B7C1C
S31508005CDC042B11D0574B1B685A68BB681B8D194689
S31508005CEC0B469B000B44DB0013441B89BB82BB8A07
S31508005CFC1846012110F0D4FBB868FFF717FAFB68B1
S31508005D0C9B79012B0ED1BB6893F82A30012B04D151
S31508005D1C7B681B680233FB6112E07B681B680133E6
S31508005D2CFB610DE0BB6893F82A30012B04D17B6824
S31508005D3C1B680333FB6103E07B681B680233FB615A
S31508005D4CBB683A8B9A82BB6802221A74BB6801221A
S31508005D5C83F82420FB685B8901331A46BB685A60B2
S31508005D6CBB687A881A853C8B07F110030093F86890
S31508005D7CB968FA692346FFF729FA0346FB74FB7CD4
S31508005D8C002B11D1FB689B881846002110F088FB64
S31508005D9CBB6801221A74BB684FF6FF721A85BB687A
S31508005DAC002283F8242042E0FB7C022B2ED1FB68D0
S31508005DBC9B79012B0ED1BB6893F82A30012B04D1A1
S31508005DCC7B681B680233FB6112E07B681B68013336
S31508005DDCFB610DE0BB6893F82A30012B04D17B6874
S31508005DEC1B680333FB6103E07B681B680233FB61AA
S31508005DFC3B8BB868F9691A46FFF748FABB68042260
S31508005E0C1A74BB68012283F8242010E0FB689B886F
S31508005E1C1846012110F044FBBB6801221A74BB68B2
S31508005E2C4FF6FF721A85BB68002283F824202437A4
S31508005E3CBD4690BD302D002090B58BB002AFF860F2
S31508005E4CB9607A607B800123BB7700233B830023F0
S31508005E5CFB750023BB8300237B83FB689B79002B94
S31508005E6C0AD17B681B681B78FB75FA7DFB68DB69B6
S31508005E7C1B689A4200D023E1BB681B7C012B19D006
S31508005E8CBB681B7C052B15D0BB681B7C042B11D05F
S31508005E9C8D4B1B685A68BB681B8D19460B469B00B5
S31508005EAC0B44DB0013441B89BB82BB8A18460121B1
S31508005EBC10F0F6FAB868FFF739F9FB680633184696
S31508005ECC02217A68FFF7D6F803463B83BB683A8B00
S31508005EDC9A82BB687A881A85BB689B8A002B06D17E
S31508005EEC232000210422802308F03CFFE8E0FB680D
S31508005EFC9B79012B0FD13B8B072B1BD80023BB7728
S31508005F0CBB6893F82A30012B14D13B8B3E2B11D846
S31508005F1C0123BB770EE03B8B062B0BD80023BB77F4
S31508005F2CBB6893F82A30012B04D13B8B3D2B01D847
S31508005F3C0123BB77BB7F012B40F0C2807B689B8813
S31508005F4C072B00D8BCE0BB6801225A80BB6802222A
S31508005F5C1A74BB68012283F82420FB685B891A46ED
S31508005F6CBB685A60FB689B79012B0AD1BB6893F80E
S31508005F7C2A30012B02D13E23BB830CE00623BB83BC
S31508005F8C09E0BB6893F82A30012B02D13D237B83A9
S31508005F9C01E005237B83FB689B79012B0ED17B687B
S31508005FAC1B689A1CBC8B07F112030093F868B96836
S31508005FBC2346FFF70BF90346FB7713E0FB68DB690F
S31508005FCC1B68DAB2BB681A727B681B68DA1C7C8B96
S31508005FDC07F112030093F868B9682346FFF7F6F839
S31508005FEC0346FB77FB7F002B13D1FB689B89013398
S31508005FFC1A46BB685A60BB6803221A74BB6801222E
S3150800600C83F82420FB7FF868B9681A46FFF7E6F987
S3150800601C56E0FB7F022B2AD1FB689B79012B09D111
S3150800602C7B681B689A1CBB8BB86811461A46FFF727
S3150800603C2DF908E07B681B68DA1C7B8BB86811465F
S3150800604C1A46FFF723F9FB685B8901331A46BB68C6
S3150800605C5A60BB6805221A74BB68012283F824208F
S3150800606CFB7FF868B9681A46FFF7B8F928E0FB7F92
S3150800607C032B11D1FB7FF868B9681A46FFF7AEF9FE
S3150800608CBB6801221A74BB684FF6FF721A85BB6887
S3150800609C002283F8242013E0FB7F012B10D1BB6868
S315080060AC1B8D1846012110F0FBF9BB6801221A74E6
S315080060BCBB684FF6FF721A85BB68002283F824204A
S315080060CC2437BD4690BD00BF302D002080B584B066
S315080060DC00AF786039600023BB737B681B7A002B92
S315080060EC0AD13B6893F82A30012B02D13D23FB7366
S315080060FC0CE00623FB7309E03B6893F82A30012B66
S3150800610C02D13E23FB7301E00723FB737B681B7AE2
S3150800611C002B16D13B689A8AFB7B9BB29A4202D813
S3150800612C0123BB7323E07B685B7D012B02D1022321
S3150800613CBB731CE0232000210322902308F012FED7
S3150800614C15E03B689A8AFB7B9BB29A4202D80123DC
S3150800615CBB730CE07B685B7D012B02D10223BB73FE
S3150800616C05E0232000210322902308F0FBFDBB7BCE
S3150800617C18461037BD4680BD80B586B000AF0346BD
S3150800618C3960FB8000233B610023FB600023FB7511
S3150800619C3B68002B07D1232000210322042308F097
S315080061ACE1FD0123F2E07B4B5B78012B07D0232022
S315080061BC00210322202308F0D5FD0123E6E0FA8806
S315080061CC754B1B681B685B689A4207D32320002112
S315080061DC0322302308F0C6FD0123D7E06E4B1B685B
S315080061EC9A68FB88DB0013445B884FF6FF72934270
S315080061FC00F0CB80684B1B689A68FB88DB0013445D
S3150800620C5B887B81644B1B6859687A8913469B00AB
S3150800621C1344DB000B4404333B613B691B7C1A4675
S3150800622C13465B0113449B005A4A13440433FB6020
S3150800623CFB681B7C012B40F0A680FB6800225A8465
S3150800624CFB680022DA82FB6800225A803B689A882F
S3150800625CFB689A823B69DB8901331A46FB685A60EC
S3150800626CFB68032283F82420FB687A891A854A4B33
S3150800627C1B6859687A8913469B001344DB000B4448
S3150800628C93F82420FB6883F82A203869F968FFF705
S3150800629C1DFF03467B723B691B7A002B0DD1FB68ED
S315080062AC5B8C5A1C91B2FA68518419463B69DB69B6
S315080062BC1B68DAB2FB680B449A767B7A012B02D000
S315080062CC022B31D059E0FB6893F82A30012B18D1F0
S315080062DCFB685B8C5A1C91B2FA6851841A46FB68A7
S315080062EC134400229A76FB685B8C5A1C91B2FA68A6
S315080062FC51841946FB689B8ADAB2FB680B449A767A
S3150800630C0FE0FB685B8C5A1C91B2FA6851841946EB
S3150800631CFB689B8ADBB203F00F03DAB2FB680B440B
S3150800632C9A760023FB752AE0FB685B8C5A1C91B2A3
S3150800633CFA6851841946FB689B8A03F470631B122E
S3150800634CDBB243F01003DAB2FB680B449A76FB68AF
S3150800635C5B8C5A1C91B2FA6851841946FB689B8A65
S3150800636CDAB2FB680B449A76FB6801221A80FB6842
S3150800637C01229A720023FB7501E00123FB75FB6869
S3150800638C07221A7401E00123FB75FB7D18461837A2
S3150800639CBD4680BDA82C0020302D002080B584B0C9
S315080063AC00AF78607B68002B06D1232000210122E0
S315080063BC032308F0D7FC31E01A4A7B6813600023E4
S315080063CCFB7325E0FA7B13465B0113449B00164AC4
S315080063DC134404331846FEF7D3FEFA7B13465B01C7
S315080063EC13449B002C33104A134404331846FEF707
S315080063FC9DFEFA7B13465B0113449B0058330A4AED
S3150800640C134404331846FEF791FEFB7B0133FB73EA
S3150800641CFB7B002BD6D0044B01225A701037BD4695
S3150800642C80BD00BF302D0020A82C002080B58EB072
S3150800643C00AF03463960FB8000237B6300233B6374
S3150800644C0023FB62002387F82B304FF6FF733B853E
S3150800645CFA889D4B1B681B689B689A4200D38EE191
S3150800646C9A4B5B78012B06D023200021042220238B
S3150800647C08F078FC83E100237B6202E07B6A013337
S3150800648C7B623B689B881A467B6A9A42F6DC8F4B82
S3150800649C5B78012B06D0232000210422202308F048
S315080064AC61FC6CE14FF6FF737B840023FB6189E08A
S315080064BC854B1B689A68FB69DB001344DB88FA88F2
S315080064CC9A427CD1804B1B689A68FB69DB001344A3
S315080064DC1B78002B71D17C4B1B689A68FB69DB0017
S315080064EC134418463968FEF781FD0346042B28D158
S315080064FC754B1B689A68FB69DB0013449B884FF63F
S3150800650CFF7293425BD0704B1B685A686E4B1B68C4
S3150800651C9968FB69DB000B449B8819460B469B0064
S3150800652C0B44DB0013440433BB613B681B681B78C4
S3150800653C1A46BB699B691B689A4240D1FB697B84E6
S3150800654C3DE0614B1B689A68FB69DB0013445B886A
S3150800655C4FF6FF72934232D05B4B1B685A685A4B04
S3150800656C1B689968FB69DB000B445B8819460B466C
S3150800657C9B000B44DB0013441B78012B1FD1524B99
S3150800658C1B685A68504B1B689968FB69DB000B44FF
S3150800659C5B8819460B469B000B44DB0013440433FB
S315080065AC7B613B681B681B781A467B69DB691B6831
S315080065BC9A4204D1FB697B8401E0FB697B84FB6905
S315080065CC0133FB61404B1B681B68DA68FB699A420E
S315080065DC05D97B8C4FF6FF7293423FF469AF7B8CDF
S315080065EC4FF6FF72934200F09180374B1B689A68FE
S315080065FC7B8CDB0013443B6138693968FEF7F6FC83
S3150800660C034687F82B3097F82B30042B2CD12E4BBE
S3150800661C1B689A687B8CDB0013449B884FF6FF72C9
S3150800662C934220D0284B1B689A687B8CDB0013445A
S3150800663C9B88FB81244B1B685968FA8913469B0077
S3150800664C1344DB000B4404333B633B6B1B7C1A463D
S3150800665C13465B0113449B001C4A13440433FB6228
S3150800666C00237B6352E08AE0174B1B689A687B8C85
S3150800667CDB0013445B884FF6FF72934245D0124BEE
S3150800668C1B689A687B8CDB0013445B883B850E4B36
S3150800669C1B6859683A8D13469B001344DB000B4460
S315080066AC04337B637B6BDB7C002B11D17B6B9B7B75
S315080066BC1A4613465B0113449B005833034A13448A
S315080066CC0433FB6210E000BF302D0020A82C0020FC
S315080066DC7B6B9B7B1A4613465B0113449B002C333E
S315080066EC284A13440433FB62274B1B6859683A8DB6
S315080066FC13469B001344DB000B4493F82420FB6AD7
S3150800670C83F82A2000233B6300E038E097F82B3007
S3150800671C042B33D801A252F823F000BF896700086E
S3150800672C3D67000851670008656700087767000829
S3150800673C7B6B002B05D03B8D786BF96A3A68FFF7B3
S3150800674C6FFA1CE07B6B002B05D03B8D786BF96AD6
S3150800675C3A68FFF771FB12E07B6B002B04D0786B61
S3150800676CF96A3A68FEF73EFF09E03B6B002B04D04A
S3150800677C386BF96A3A68FFF7CFF900E000BF38378B
S3150800678CBD4680BDA82C0020302D002080B586B0D3
S3150800679C00AF0346FB8000237B6100233B61394B2A
S315080067AC5B78012B06D0232000210522202308F034
S315080067BCD9FA63E0FA88344B1B681B689B689A42C3
S315080067CC06D3232000210522302308F0CBFA55E006
S315080067DC2D4B1B689A68FB88DB0013445B884FF6C5
S315080067ECFF7293424AD0284B1B689A68FB88DB00D9
S315080067FC13445B88FB81244B1B685968FA8913463A
S3150800680C9B001344DB000B441B78002B1FD11E4B3B
S3150800681C1B685968FA8913469B001344DB000B4422
S3150800682C04333B613B691B7C1A4613465B011344D4
S3150800683C9B00144A13440433BB60BB681B7C092BAE
S3150800684C04D13869B968FFF7B5F817E016E00E4BAE
S3150800685C1B685968FA8913469B001344DB000B44E2
S3150800686C04337B617B699B7B1946064A0B465B01A5
S3150800687C0B449B00134434330022DA711837BD4697
S3150800688C80BD00BFA82C0020302D002090B587B005
S3150800689C02AF786039603B685B68002B04D03B68B4
S315080068AC5B685A1E3B685A603B6803F11A023B68E0
S315080068BC5C8C07F10C030093786839682346FEF75D
S315080068CC85FC0346FB73FB7B002B11D17B689B88ED
S315080068DC184600210FF0E4FD3B6801221A743B6848
S315080068EC4FF6FF721A853B68002283F8242014E0C1
S315080068FCFB7B022B03D13B685B68002B02D0FB7B2E
S3150800690C012B0AD13B6801221A743B684FF6FF72B9
S3150800691C1A853B68002283F8242000BF1437BD462D
S3150800692C90BD00BF80B584B000AF786039603B6815
S3150800693C1B7C063B032B00F2A08001A252F823F025
S3150800694C5D6900088B690008076A0008476A000831
S3150800695C3B685B68002B04D03B685B685A1E3B6837
S3150800696C5A603B685B68002B00D087E03B680722BF
S3150800697C1A747B68DB8901331A463B685A60786857
S3150800698C3968FEF79FFF0346FB73FB7B002B33D05E
S3150800699CFB7B022B1ED13B685B68002B04D03B6843
S315080069AC5B685A1E3B685A603B685B68002B23D1B0
S315080069BC3B6801221A743B684FF6FF721A853B68CE
S315080069CC022283F824207B685B88184601210FF085
S315080069DCA5FD11E03B6801221A743B684FF6FF725D
S315080069EC1A853B68022283F824207B685B88184644
S315080069FC01210FF093FD41E040E03B685B68002BFA
S31508006A0C04D03B685B685A1E3B685A603B685B68F7
S31508006A1C002B11D13B6801221A743B684FF6FF72A2
S31508006A2C1A853B68022283F824207B685B88184603
S31508006A3C03210FF073FD21E020E03B685B68002B17
S31508006A4C04D03B685B685A1E3B685A603B685B68B7
S31508006A5C002B11D13B6801221A743B684FF6FF7262
S31508006A6C1A853B68022283F824207B685B881846C3
S31508006A7C02210FF053FD01E000E000BF1037BD46C0
S31508006A8C80BD00BF90B587B002AF786039603B68AF
S31508006A9C1B7C042B00F0DB80052B22D0032B00D0AB
S31508006AACDAE03B685B68002B04D03B685B685A1ECF
S31508006ABC3B685A603B685B68002B11D17B689B88E6
S31508006ACC184604210FF0ECFC3B6801221A743B684B
S31508006ADC4FF6FF721A853B68002283F82420BBE028
S31508006AECBAE03B685B68002B04D03B685B685A1EAF
S31508006AFC3B685A600023FB813B6803F11A023B682A
S31508006B0C5C8C07F10A030093786839682346FEF70C
S31508006B1C5DFB03467B733B689A8A3B68DB8AD31A10
S31508006B2CFB817B7B002B23D1FB89002B0ED07B7B37
S31508006B3C786839681A46FEF751FC7B689B891A46B1
S31508006B4C3B685A603B6803221A747FE03B68012253
S31508006B5C1A743B684FF6FF721A853B68002283F855
S31508006B6C24207B689B88184600210FF099FC73E05B
S31508006B7C7B7B022B4ED13B685B68002B2AD13B688A
S31508006B8CDA8C7B681B7D9BB29A420AD27868396884
S31508006B9C0222FEF723FC7B685B891A463B685A601F
S31508006BAC54E03B6801221A743B684FF6FF721A854B
S31508006BBC3B68002283F824203B680022DA843B6871
S31508006BCCDB8A002B42D07B689B88184601210FF084
S31508006BDC67FC3BE03B68DA8C7B681B7D9BB29A4270
S31508006BEC34D33B6801221A743B684FF6FF721A8538
S31508006BFC3B68002283F824203B680022DA843B6831
S31508006C0CDB8A002B22D07B689B88184601210FF063
S31508006C1C47FC21E07B7B012B18D13B6801221A74B7
S31508006C2C3B684FF6FF721A853B68002283F82420CE
S31508006C3C3B680022DA843B68DB8A002B06D07B682B
S31508006C4C9B88184601210FF02BFC05E004E07868B8
S31508006C5C3968FFF71BFE00BF1437BD4690BD00BF51
S31508006C6C80B582B000AF786039603B681B7C042B1A
S31508006C7C00D004E078683968FFF708FE00BF0837CB
S31508006C8CBD4680BD80B588B000AF0023BB6100232C
S31508006C9C7B6100233B610023FB60474B5B78012B30
S31508006CAC06D0232000210622202308F05BF87FE07B
S31508006CBC0023FB6179E04049FA6913465B011344EA
S31508006CCC9B000B4428339B887B813B49FA69134606
S31508006CDC5B0113449B000B4454339B883B81364918
S31508006CECFA6913465B0113449B000B4480339B885B
S31508006CFCFB807B894FF6FF72934217D02F4B1B688C
S31508006D0C59687A8913469B001344DB000B440433F9
S31508006D1C3B61FA6913465B0113449B00264A1344EC
S31508006D2C0433BB613869B969FFF7FCFD3B894FF63B
S31508006D3CFF72934218D0214B1B6859683A8913463F
S31508006D4C9B001344DB000B440433FB60FA691346BF
S31508006D5C5B0113449B002C33174A134404337B61A1
S31508006D6CF8687969FFF78EFEFB884FF6FF72934237
S31508006D7C18D0124B1B685968FA8813469B001344A3
S31508006D8CDB000B440433FB60FA6913465B011344BE
S31508006D9C9B005833084A134404337B61F8687969B5
S31508006DACFFF75EFFFB690133FB61FB69002B82D0A1
S31508006DBC2037BD4680BD00BFA82C0020302D0020F2
S31508006DCC80B584B000AF03460A46FB711346BB7107
S31508006DDC0023FB73FB79012B08D0BB797B200021A0
S31508006DEC1A460A2307F0BEFF0123FB73FB7B1846E2
S31508006DFC1037BD4680BD00BF80B584B000AF786043
S31508006E0C0B46FB701346BB700023FB737B68002B89
S31508006E1C0ED0FB780D4AA2FB03125209642101FB22
S31508006E2C02F29B1ADBB29AB27B681B8A9A4208D387
S31508006E3CBB787B2000211A46152307F093FF012304
S31508006E4CFB73FB7B18461037BD4680BD1F85EB517F
S31508006E5C80B584B000AF03463960FB711346BB712D
S31508006E6CFB7918460921FFF7ABFF0346012B02D124
S31508006E7C0023FB7320E0BB79386819460922FFF713
S31508006E8CBBFF0346012B02D10023FB7314E03B68BE
S31508006E9CDA68BB790B49A1FB03014909642000FB9D
S31508006EAC01F15B1ADBB219460B465B000B44DB009F
S31508006EBC13445B691B7AFB73FB7B18461037BD467C
S31508006ECC80BD00BF1F85EB5180B584B000AF03466B
S31508006EDC3960FB711346BB71FB7918460721FFF71E
S31508006EEC6FFF0346012B02D10123FB732BE0BB7901
S31508006EFC386819460722FFF77FFF0346012B02D194
S31508006F0C0123FB731FE03B68DA68BB791B49A1FBBD
S31508006F1C03014909642000FB01F15B1ADBB219462F
S31508006F2C0B465B000B44DB0013445B68002B08D153
S31508006F3C0123FB737B2000210722182307F012FF7D
S31508006F4C01E00023FB73FB7B002B14D13B68DA684A
S31508006F5CBB790A49A1FB03014909642000FB01F12D
S31508006F6C5B1ADBB219460B465B000B44DB00134479
S31508006F7C5B6901221A701037BD4680BD1F85EB511F
S31508006F8C80B584B000AF03463960FB711346BB71FC
S31508006F9CFB7918460821FFF713FF0346012B02D18C
S31508006FAC0123FB732BE0BB79386819460822FFF7D7
S31508006FBC23FF0346012B02D10123FB731FE03B6819
S31508006FCCDA68BB791B49A1FB03014909642000FB5C
S31508006FDC01F15B1ADBB219460B465B000B44DB006E
S31508006FEC13445B68002B08D10123FB737B2000211B
S31508006FFC0822182307F0B6FE01E00023FB73FB7B7F
S3150800700C002B14D13B68DA68BB790A49A1FB03014A
S3150800701C4909642000FB01F15B1ADBB219460B46E1
S3150800702C5B000B44DB0013445B6900221A701037B3
S3150800703CBD4680BD1F85EB5180B584B000AF0346B5
S3150800704C3960FB711346BB710023FB73FB79184639
S3150800705C0421FFF7B5FE0346012B02D10123FB736E
S3150800706C2CE0BB79386819460422FFF7C5FE03469F
S3150800707C012B02D10123FB7320E03B68DA68BB794C
S3150800708C1149A1FB03014909642000FB01F15B1AB4
S3150800709CDBB219460B465B000B44DB0013445B69F9
S315080070AC1B7A002B08D10123FB737B2000210422B9
S315080070BC0C2307F057FE01E00023FB73FB7B1846F5
S315080070CC1037BD4680BD00BF1F85EB5180B584B017
S315080070DC00AF03463960FB711346BB710023FB7383
S315080070ECFB7918460221FFF76BFE0346012B02D1EA
S315080070FC0123FB737FE0BB79386819460222FFF738
S3150800710C7BFE0346012B02D10123FB7373E03B681C
S3150800711CDA68BB793A49A1FB03014909642000FBEB
S3150800712C01F15B1ADBB219460B465B000B44DB001C
S3150800713C13445B695B68002B08D17B200021022273
S3150800714C192307F00FFE0123FB7354E03B68DA683A
S3150800715CBB792B49A1FB03014909642000FB01F10A
S3150800716C5B1ADBB219460B465B000B44DB00134477
S3150800717C5B78002B08D07B2000210222172307F00E
S3150800718CF1FD0123FB7336E03B68DA68BB791C49D1
S3150800719CA1FB03014909642000FB01F15B1ADBB270
S315080071AC19460B465B000B44DB0013445B691B7AE0
S315080071BC002B1ED03B68DA68BB791149A1FB030189
S315080071CC4909642000FB01F15B1ADBB219460B4630
S315080071DC5B000B44DB0013445B691B7A032B08D05A
S315080071EC7B20002102220B2307F0BCFD0023FB7336
S315080071FC01E00023FB73FB7B18461037BD4680BDA8
S3150800720C1F85EB5180B584B000AF03463960FB711E
S3150800721C1346BB710023FB73FB7918460321FFF752
S3150800722CCFFD0346012B02D10123FB734AE0BB7940
S3150800723C386819460322FFF7DFFD0346012B02D1F6
S3150800724C0123FB733EE03B68DA68BB792049A1FB56
S3150800725C03014909642000FB01F15B1ADBB21946EC
S3150800726C0B465B000B44DB0013445B78002B08D001
S3150800727C7B2000210322172307F074FD0123FB73DF
S3150800728C20E03B68DA68BB791149A1FB030149097F
S3150800729C642000FB01F15B1ADBB219460B465B0056
S315080072AC0B44DB0013445B691B7A002B08D17B204B
S315080072BC002103220C2307F055FD0123FB7301E083
S315080072CC0023FB73FB7B18461037BD4680BD00BFF9
S315080072DC1F85EB5180B584B000AF03463960FB714E
S315080072EC0023FB73FB79002B08D07B20002100229E
S315080072FC0D2307F037FD0123FB730DE03B68002BCC
S3150800730C08D17B20002100220E2307F02BFD012338
S3150800731CFB7301E00023FB73FB7B18461037BD4655
S3150800732C80BD00BF80B584B000AF03463960FB71E1
S3150800733C0023FB73FB7918460121FFF741FD034631
S3150800734C002B3CD10023BB6032E03B68D968BB6894
S3150800735C1E4AA2FB03025209642000FB02F29A1A87
S3150800736C13465B001344DB000B445B691B7A002B4A
S3150800737C1BD03B68D968BB68144AA2FB03025209A6
S3150800738C642000FB02F29A1A13465B001344DB00D6
S3150800739C0B445B691B7A032B07D07B200021012247
S315080073AC0B2307F0DFFC0123FB73BB680133BB60BF
S315080073BC3B681B8A1A46BB689A42C6D801E0012369
S315080073CCFB73FB7B18461037BD4680BD1F85EB51FA
S315080073DC80B586B000AFB9607B600346FB73134675
S315080073ECBB730023FB75FB7B18460C21FFF7E8FCE7
S315080073FC0346012B02D10123FB7535E0BB7BB8682C
S3150800740C19460C22FFF7F8FC0346012B02D101237F
S3150800741CFB7529E0BB68DA68BB7B1649A1FB03013F
S3150800742C4909642000FB01F15B1ADBB219460B46CD
S3150800743C5B000B44DB0013445B691B7A002B08D0FA
S3150800744C7B2000210C220B2307F08CFC0123FB75F7
S3150800745C0AE07B68002B07D17B2000210C22142321
S3150800746C07F080FC0123FB75FB7D18461837BD46D3
S3150800747C80BD00BF1F85EB5100F044FD0C480D493B
S3150800748C016062B6BFF34F8FBFF36F8FFEE74FEA0B
S3150800749C000D4FEA010E70472DE9F04F4FEA0D0427
S315080074AC04600C684FEA040D034D2960BDE8F08FA3
S315080074BC04ED00E000000010602D002080B483B0BD
S315080074CC00AFEFF310833B603B687B6072B67B685A
S315080074DC18460C37BD465DF8047B704780B485B0FA
S315080074EC00AF78607B68FB60FB6883F31088143701
S315080074FCBD465DF8047B704780B400AF034B1B6830
S3150800750C1846BD465DF8047B704700BF602D002009
S3150800751C80B400AF084B1A78084B1B781343DBB2C0
S3150800752C5BB2002B14BF01230023DBB21846BD4601
S3150800753C5DF8047B704700BF5D2D00205C2D002094
S3150800754C80B400AF074B5B6D9B8B4FF6FF72934273
S3150800755C0CBF01230023DBB21846BD465DF8047B3D
S3150800756C704700BF602D002080B483B000AF03467F
S3150800757CFB80FA881346DB0013441B01034A1344A9
S3150800758C18460C37BD465DF8047B7047C82D00209D
S3150800759C80B483B000AF78607B689B6B002B14BFFC
S315080075AC01230023DBB218460C37BD465DF8047B75
S315080075BC704700BF80B582B000AF0346FB71094B1C
S315080075CC5B6A002B0AD0074B5B6ADB68002B05D07D
S315080075DC044B5B6ADB68FA79104698470837BD4650
S315080075EC80BD00BF602D002080B586B000AFC7E90E
S315080075FC0001FFF781FF78610023FB74FFF788FF12
S3150800760C0346002B0DD00D23FB743B4B0A221A7034
S3150800761C3B68394A5360FB7C1846FFF7CBFFFB7C6B
S3150800762C66E0364B5B69002B0DD00223FB74324B9C
S3150800763C0A221A703B68304A5360FB7C1846FFF7DF
S3150800764CB9FFFB7C54E07B691B6C1B7B032B0DD0B1
S3150800765C0123FB74284B0A221A703B68264A53608E
S3150800766CFB7C1846FFF7A6FFFB7C41E07869FFF721
S3150800767C8FFF0346002B0DD00623FB741E4B0A22E4
S3150800768C1A703B681C4A5360FB7C1846FFF792FF3E
S3150800769CFB7C2DE0FFF712FFF8607B69D3E9060146
S315080076ACD7E9002302EA000203EA010313431BD1BC
S315080076BC7969D7E90023C1E90423FFF741FF03469B
S315080076CC002B0ED0022001F0E5F87B699B8903F0AC
S315080076DC0803002B08D10A480A494922FAF750FF31
S315080076EC02E0786900F080FFF868FFF7F7FEFB7C8C
S315080076FC18461837BD4680BD4C2D0020602D00203D
S3150800770C20CE020844CE020880B588B000AF0146E8
S3150800771CC7E900230B46FB810023FB77FB89042B67
S3150800772C10D90323FB774F4B07221A70FB894D4A56
S3150800773C53603B684B4A9360FB7F1846FFF73AFF4A
S3150800774CFB7F8AE0FB891846FFF70EFFB861FFF747
S3150800775CD3FE7861BB691B6C1B7B032B10D00123F2
S3150800776CFB77404B07221A70FB893E4A53603B68ED
S3150800777C3C4A9360FB7F1846FFF71CFFFB7F6CE0C7
S3150800778CBB699B8903F00403002B10D00723FB77F6
S3150800779C344B07221A70FB89324A53603B68314ACC
S315080077AC9360FB7F1846FFF705FFFB7F55E0FFF755
S315080077BC85FE3861BB69D3E90601D7E9002342EA9D
S315080077CC000243EA0103B969C1E90623BB69D3E997
S315080077DC0401D7E9002302EA000203EA0103134372
S315080077EC37D0BB699B8903F00203002B26D0B869F6
S315080077FC00F0E6FEFFF780FE78611B4B5B69002BF9
S3150800780C27D17B691B6C93F82830002B21D1BB69D7
S3150800781CDA6A7B69DB6A9A421BD9FFF779FE03465B
S3150800782C83F00103DBB2002B13D0FFF789FE034666
S3150800783C002B0ED0012001F02DF80AE0BB699B89BC
S3150800784C03F06903002B04D108480949B722FAF753
S3150800785C97FE3869FFF742FEFB7F18462037BD4670
S3150800786C80BD00BF4C2D0020602D0020A8CE02083C
S3150800787C44CE020880B586B000AF03463960FB805B
S3150800788C0023FB753B68002B10D11823FB753E4B68
S3150800789C09221A70FB883C4A53603B683A4A936043
S315080078ACFB7D1846FFF786FEFB7D68E0FFF730FE8A
S315080078BC0346002B10D00D23FB75334B09221A7087
S315080078CCFB88314A53603B682F4A9360FB7D184608
S315080078DCFFF770FEFB7D52E0FB88042B10D90323BF
S315080078ECFB75294B09221A70FB88274A53603B689B
S315080078FC254A9360FB7D1846FFF75CFEFB7D3EE050
S3150800790CFB881846FFF730FE38613B691B6C1B7BFE
S3150800791C032B10D00123FB751B4B09221A70FB880D
S3150800792C194A53603B68184A9360FB7D1846FFF763
S3150800793C41FEFB7D23E03B699B8903F00403002B86
S3150800794C10D00723FB75104B09221A70FB880E4AB8
S3150800795C53603B680C4A9360FB7D1846FFF72AFE7A
S3150800796CFB7D0CE0FFF7AAFDF8603B69D3E906231B
S3150800797C3968C1E90023F868FFF7B0FDFB7D1846A6
S3150800798C1837BD4680BD00BF4C2D002080B586B08B
S3150800799C00AFC7E900010023FB75FFF7ADFD3861A1
S315080079ACFFF7B6FD0346002B0DD00D23FB75264BB2
S315080079BC08221A703B68244A5360FB7D1846FFF769
S315080079CCF9FDFB7D3BE0214B5B69002B0DD00223B7
S315080079DCFB751D4B08221A703B681B4A5360FB7DCE
S315080079EC1846FFF7E7FDFB7D29E03B691B6C1B7B03
S315080079FC032B0DD00123FB75134B08221A703B6819
S31508007A0C114A5360FB7D1846FFF7D4FDFB7D16E043
S31508007A1CFFF754FDF8603B69D3E90601D7E9002363
S31508007A2C6FEA02026FEA030302EA000203EA0103A1
S31508007A3C3969C1E90623F868FFF750FDFB7D18463E
S31508007A4C1837BD4680BD00BF4C2D0020602D002088
S31508007A5C80B400AF044B00221A70044B00221A7033
S31508007A6CBD465DF8047B70475D2D00205C2D00201B
S31508007A7C80B483B000AF0346FB80FA881346DB005C
S31508007A8C13441B01034A134418460C37BD465DF8CC
S31508007A9C047B7047C82D002090B482B000AF786084
S31508007AAC39603B685A687B68DA627A683B681446C0
S31508007ABC103393E8070084E807007B683A681A6471
S31508007ACC0837BD4690BC704780B588B000AF3148C2
S31508007ADC00215C2223F0F0FE2E4B012283F85A205B
S31508007AEC2C4B2D4A5A652D4B64221A702C4B64224A
S31508007AFC1A7000F031FB274B00229A64254B294A51
S31508007B0CDA60244B0022DA64224B274A1A653B1D9D
S31508007B1C184602F08FFCBB681A46FB681344103BE8
S31508007B2C1A461C4B1A62BB68BB61BB6942221A70A7
S31508007B3CBA68FB6813447B617B69013B42221A7065
S31508007B4C02F0E8F90023FB611BE0FB699BB21846BF
S31508007B5CFFF78EFF3861FB699B01144A1344386999
S31508007B6C1946FFF799FF386900F0D6FD3B690022E4
S31508007B7C9A633B6903F138023B69DA63FB690133A3
S31508007B8CFB61FB69042BE0D901F00CFC2037BD46E0
S31508007B9C80BD00BF602D0020983000205C2D002091
S31508007BAC5D2D0020C82D0020AC2D002058BD0208E4
S31508007BBC80B586B000AF00233B6172B63B4B93F899
S31508007BCC5A30002B04D13A483A49BD22FAF7D8FC68
S31508007BDC364B394A5A62354B5B6A5B68002B03D0C5
S31508007BEC324B5B6A5B68984702F010FD01F0A4FE05
S31508007BFC02F004FA20F09CFFB860304B1B68BA6898
S31508007C0CB2FBF3F3184602F001FA0023FB600023DB
S31508007C1CFB8219E0FB8A1846FFF72AFF78607B6817
S31508007C2C1B6C5B7B002B0CD03B69002B04D07B6850
S31508007C3CDA6AFB689A4204D97B683B617B68DB6A23
S31508007C4CFB60FB8A0133FB82FB8A042BE2D93B6976
S31508007C5C002B05D11A48174940F20712FAF790FC7F
S31508007C6C124A3B6913603B691B6CDB690F4A136448
S31508007C7CFFF7EEFE3B6993F830203B691B6C93F8D3
S31508007C8C3C309A4205D90F480A4940F21312FAF7C2
S31508007C9C77FC0020396900F0D7FF0B48054940F2FC
S31508007CAC1712FAF76DFC1837BD4680BD602D0020FB
S31508007CBCACCE0208D0CE020898BE020870BC0208E8
S31508007CCC34CF020850CF020890CF020880B500AF17
S31508007CDCFAF762FC0123184680BD00BF80B582B056
S31508007CEC00AF7860084B012283F85920064A7B6856
S31508007CFC9363FFF75DFF054805494FF49D72FAF744
S31508007D0C3FFC0837BD4680BD602D002090CF020889
S31508007D1CD0CE020880B582B000AF0346FB7172B6AE
S31508007D2C074B5B6A002B0AD0054B5B6A9B68002BDA
S31508007D3C05D0034B5B6A9B68FA7910469847FEE7B1
S31508007D4C602D002080B483B000AF7860034A7B684E
S31508007D5C13600C37BD465DF8047B7047602D002018
S31508007D6C80B400AF084B1A78084B1B781343DBB268
S31508007D7C5BB2002B14BF01230023DBB21846BD46A9
S31508007D8C5DF8047B704700BF5D2D00205C2D00203C
S31508007D9C80B483B000AF0346FB7197F90730002B0C
S31508007DAC0ADA0D4AFB7903F00F03043B13441B7ED6
S31508007DBCDBB21B09DBB208E0084A97F90730134413
S31508007DCC93F80033DBB21B09DBB218460C37BD46F9
S31508007DDC5DF8047B704700BF00ED00E000E100E0B1
S31508007DEC80B400AF074B5B6D9B8B4FF6FF729342CB
S31508007DFC0CBF01230023DBB21846BD465DF8047B95
S31508007E0C704700BF602D002080B483B000AF786047
S31508007E1C7B6808229A810C37BD465DF8047B70474F
S31508007E2C80B485B000AF78600023FB737B685B6811
S31508007E3CBB60BB681B78422B0CBF01230023DBB24B
S31508007E4CFB73FB7B18461437BD465DF8047B7047FD
S31508007E5C80B485B000AF78600023FB737B685A68E2
S31508007E6C7B689B681344BB60BB68013B1B78422B41
S31508007E7C0CBF01230023DBB2FB73FB7B18461437BC
S31508007E8CBD465DF8047B704780B582B000AF78605C
S31508007E9C7868FFF7C5FF0346002B05D07868FFF70F
S31508007EACD7FF0346002B02D10E20FFF733FF083706
S31508007EBCBD4680BD80B500AF62B6034B1B681B6C14
S31508007ECC9B68984780BD00BF602D002080B400AF2A
S31508007EDC30231846BD465DF8047B704790B482B0D3
S31508007EEC00AFEFF309831C4623467B607B6820337F
S31508007EFC7B607B683B603B6883F309880837BD4623
S31508007F0C90BC704780B500AF044B5A68034B1B688E
S31508007F1C10461946FFF7C0FA80BD00BF602D002039
S31508007F2C90B587B000AF6F4B5B68C3F308037B61F2
S31508007F3C7B69DBB2103BDBB2DBB25BB21846FFF7F0
S31508007F4C27FF0346042B10D8674A7B6952F823305F
S31508007F5C002B04D1654866497A22FAF711FB624A66
S31508007F6C7B6952F823309847B8E0EFF309831C462F
S31508007F7C23463B6172B6FFF7F3FE0346002B04D08B
S31508007F8C5C485B498522FAF7FBFA7B699BB2386930
S31508007F9C194602F061FA584B1B78422B02D00E2078
S31508007FACFFF7B8FE4F4B5B6803F40063002B00F039
S31508007FBC9180524B00221A60EFF309831C46234624
S31508007FCCFB60FB68203BFB60FB684FF08072DA6154
S31508007FDCFB687B607B6883F3098800F0C1FBB8609B
S31508007FECB868FFF751FF464B1A68BB689A420ED021
S31508007FFC434B1B681B6C93F82830012B07D0FFF7F3
S3150800800CEFFE034683F00103DBB2002B2AD03C4B70
S3150800801C1B6808229A813A4B1B689B8903F0080354
S3150800802C002B04D137483249B522FAF7A9FA344B52
S3150800803C1B689B6A002B04D033482D49B522FAF7E6
S3150800804C9FFA2F4B1B6801229A622D4B5B6A1B69A0
S3150800805C002B03D02A4B5B6A1B6998472B4AFB6893
S3150800806C9A613BE0264B1B68254A5360B868FFF7B4
S3150800807C69FEBB681B6CDB69214A136401F06AF95B
S3150800808CB868FFF7C1FE1E4B1B689B8903F00803F3
S3150800809C002B04D11B481649C522FAF771FA184B5E
S315080080AC1B689B6A002B04D017481149C522FAF79E
S315080080BC67FA134B1B6801229A62114B5B6A1B69A0
S315080080CC002B03D00E4B5B6A1B699847104AFB685A
S315080080DC9A6103E0094B01221A6062B61C37BD4649
S315080080EC90BD00BF00ED00E07C3B002094CF020859
S315080080FCBCCF02082CD00208406C0020C02D0020F2
S3150800810C602D00204CD0020880D002088874000824
S3150800811C8474000880B485B000AF78607B681B68EF
S3150800812CFB607B681B6C1B7B032B03D1084AFB6823
S3150800813C1A6207E07B681B6C1B7B012B02D1054A74
S3150800814CFB681A621437BD465DF8047B704700BF9E
S3150800815C75860008B986000880B400AFBD465DF880
S3150800816C047B704780B483B000AFEFF310833B6099
S3150800817C3B687B6072B67B6818460C37BD465DF863
S3150800818C047B704780B485B000AF78607B68FB6071
S3150800819CFB6883F310881437BD465DF8047B70477B
S315080081AC80B483B000AF7860034A7B6813600C37E1
S315080081BCBD465DF8047B7047602D002080B400AF87
S315080081CC034B1B681846BD465DF8047B704700BF19
S315080081DC602D002080B400AF084B1A78084B1B782A
S315080081EC1343DBB25BB2002B14BF01230023DBB2B3
S315080081FC1846BD465DF8047B704700BF5D2D002010
S3150800820C5C2D002080B400AF044B00221A70044B7E
S3150800821C00221A70BD465DF8047B70475D2D002060
S3150800822C5C2D002080B400AF074B5B6D9B8B4FF623
S3150800823CFF7293420CBF01230023DBB21846BD46DE
S3150800824C5DF8047B704700BF602D002080B483B0B6
S3150800825C00AF78607B6808229A810C37BD465DF8BA
S3150800826C047B704780B483B000AF0346FB80FA8862
S3150800827C1346DB0013441B01034A134418460C37F8
S3150800828CBD465DF8047B7047C82D002080B582B0CA
S3150800829C00AF786039607B689A8B3B681B6C1B88CF
S315080082AC9A4205D01F48204940F20312FAF768F99A
S315080082BC7B684FF6FF729A837B689A693B68DA6229
S315080082CC7B689B7F022B29D03B689B6B002B05D1C7
S315080082DC1648154940F20912FAF752F93B68DB6B56
S315080082EC5B681A687B689A4205D011480E494FF4A8
S315080082FC8672FAF745F97B689B6A002B05D07B6872
S3150800830C9B6A7A68D26ADA6203E07B68DA6A3B6847
S3150800831CDA637B68DB6A7A68926A1A600837BD4644
S3150800832C80BD00BFA8D00208D0D0020834D10208FC
S3150800833C6CD1020880B584B000AF78607B689B6B03
S3150800834CFB6006E0F8687968FFF7A0FFFB689B6A94
S3150800835CFB60FB68002BF5D11037BD4680BD00BF0E
S3150800836C80B485B000AF78607B685A687B689B6878
S3150800837C1344FB60FB68013B42221A701437BD4656
S3150800838C5DF8047B704700BF80B485B000AF786099
S3150800839C7B685B68FB60FB6842221A701437BD4623
S315080083AC5DF8047B704700BF80B485B000AF786079
S315080083BC0023FB737B685B68BB60BB681B78422B2E
S315080083CC0CBF01230023DBB2FB73FB7B1846143767
S315080083DCBD465DF8047B704780B485B000AF786005
S315080083EC0023FB737B685A687B689B681344BB60E5
S315080083FCBB68013B1B78422B0CBF01230023DBB265
S3150800840CFB73FB7B18461437BD465DF8047B704737
S3150800841C80B582B000AF78607868FFF7C5FF034671
S3150800842C002B05D07868FFF7D7FF0346002B02D13F
S3150800843C0E20FFF76FFC0837BD4680BD80B483B0AD
S3150800844C00AF78607B689B6B002B14BF012300235D
S3150800845CDBB218460C37BD465DF8047B704700BF87
S3150800846C80B582B000AF0346FB71094B5B6A002BE3
S3150800847C0AD0074B5B6ADB68002B05D0044B5B6A9A
S3150800848CDB68FA79104698470837BD4680BD00BFA9
S3150800849C602D002080B582B000AF78607B689B8920
S315080084AC082B04D0054806492522FAF769F87B6893
S315080084BC01229A810837BD4680BD00BFB8D1020893
S315080084CCE0D1020880B483B000AF78607B68D3F83B
S315080084DC8430002B08D07B68D3F884307A68D2F8BD
S315080084EC8820C3F8882004E07B68D3F88830074ACC
S315080084FC13657B68D3F888307A68D2F884201A60BA
S3150800850C0C37BD465DF8047B704700BF602D002014
S3150800851C80B483B000AF78607B680022C3F88420EF
S3150800852C084B1A6D7B68C3F88820064B1B6D7A6856
S3150800853C1A607B688433034A13650C37BD465DF8AD
S3150800854C047B7047602D002080B582B000AF786040
S3150800855C7B689B8903F00903002B04D1064807495D
S3150800856C6322FAF70DF87B6804229A817868FFF77C
S3150800857CA9FF0837BD4680BD44D20208E0D10208DF
S3150800858C80B582B000AF78607B681B6C1B7B032BB5
S3150800859C0DD179684FF000024FF00003C1E90623AC
S315080085AC79684FF000024FF00003C1E9042378689C
S315080085BC00F082F87868FFF7ADFD0837BD4680BD38
S315080085CC80B582B000AF78607B689B8903F009039D
S315080085DC002B05D17B6801229A817868FFF798FFF2
S315080085EC0837BD4680BD00BF80B582B000AF786045
S315080085FC7B689B8903F00903002B04D106480749BD
S3150800860C9622F9F7BDFF7B6802229A817868FFF7F4
S3150800861C59FF0837BD4680BD44D20208E0D102088E
S3150800862C80B584B000AF78607B681B68FB607B689C
S3150800863C1A687B685B689A4204D809480949A622D5
S3150800864CF9F79EFF7B685968FB687A6852689B1A2B
S3150800865C084642211A4623F02FF91037BD4680BD2D
S3150800866C70D20208E0D1020880B582B000AFFFF7DD
S3150800867CA5FD7860FFF71EFC72B6FFF7ABFD034647
S3150800868C002B01D0FFF7BEFD7868FFF7D7FE03462F
S3150800869C002B02D07868FFF74DFE0C20FFF7E0FEA2
S315080086AC00F0C0FB0837BD4680BD00BF80B500AFE3
S315080086BCFFF7DAFF80BD00BF80B584B000AF7860E5
S315080086CC7B685A687B689B681344FB60FB6803F0FD
S315080086DC0703002B05D00E480E494FF49372F9F791
S315080086EC4FFF7B68FA681A607868FFF739FEFB68F3
S315080086FC103BFB60FFF7EAFB03465B42FA681A4439
S3150800870C7B681A607868FFF73FFE1037BD4680BD58
S3150800871C98D20208E0D1020880B582B000AF786022
S3150800872C7B681B6C5B7B012B0BD17B6893F8303019
S3150800873C0133DAB27B6883F830207868FFF740FF9C
S3150800874C02E07B6804229A817868FFF7B5FF78689F
S3150800875CFFF766FF7868FFF7DDFC0837BD4680BD76
S3150800876C80B584B000AF0023BB6000237B60002378
S3150800877CFB701D4BDB6CFB6025E0FB689B8903F0EB
S3150800878C0903002B15D0FB78012B0AD1FB68DA6A92
S3150800879C7B689A4213D9FB68DB6A7B60FB68BB6013
S315080087AC0DE00123FB70FB68DB6A7B60FB68BB6032
S315080087BC05E00E480E494FF4B372F9F7E1FEFB6873
S315080087CCD3F88430FB60FB68002BD6D1BB68002B32
S315080087DC05D10848064940F26B12F9F7D1FEBB6879
S315080087EC18461037BD4680BD602D0020B8D2020849
S315080087FCE0D10208BCD2020880B582B000AF78601E
S3150800880C7868FFF759FF7868FFF720FD7868FFF757
S3150800881CC7FC1A4B1B689B8903F00803002B05D170
S3150800882C174818494FF41672F9F7AAFE134B1B682A
S3150800883C9B6A002B05D0144812494FF41672F9F7A7
S3150800884C9FFE0E4B1B6801229A620C4B5B6A1B69D6
S3150800885C002B03D0094B5B6A1B6998477B681B681E
S3150800886C18460A49FEF713FE0948064940F25D22E6
S3150800887CF9F786FE0837BD4680BD00BF602D00207F
S3150800888CD8D20208E0D102080CD30208B98600082F
S3150800889CB8D2020880B584B000AF0346FB80FFF758
S315080088AC8DFCF860B84B5B69002B05D0B748B84906
S315080088BC40F27122F9F764FEFFF7B4FC034683F025
S315080088CC0103DBB2002B05D0B248B14940F2722243
S315080088DCF9F756FEFB689B8903F00803002B05D1B4
S315080088ECAD48AB4940F27522F9F74AFEA64B1B6810
S315080088FC9B8903F00803002B05D1A848A44940F22C
S3150800890C7622F9F73DFEA04B1B689B6A012B05D016
S3150800891CA3489F4940F27622F9F732FE9A4B1B6818
S3150800892C00229A62984B5B6A5B69002B03D0964BC4
S3150800893C5B6A5B699847FB88013B3F2B00F2E18039
S3150800894C01A252F823F000BF558A00085D8A000878
S3150800895C0F8B0008658A00080F8B00080F8B000820
S3150800896C0F8B0008D58A00080F8B00080F8B0008A0
S3150800897C0F8B00080F8B00080F8B00080F8B000855
S3150800898C0F8B0008558A00080F8B00080F8B000800
S3150800899C0F8B00080F8B00080F8B00080F8B000835
S315080089AC0F8B00080F8B00080F8B00080F8B000825
S315080089BC0F8B00080F8B00080F8B00080F8B000815
S315080089CC0F8B00086D8A00080F8B00080F8B0008A8
S315080089DC0F8B00080F8B00080F8B00080F8B0008F5
S315080089EC0F8B00080F8B00080F8B00080F8B0008E5
S315080089FC0F8B00080F8B00080F8B00080F8B0008D5
S31508008A0C0F8B00080F8B00080F8B00080F8B0008C4
S31508008A1C0F8B00080F8B00080F8B00080F8B0008B4
S31508008A2C0F8B00080F8B00080F8B00080F8B0008A4
S31508008A3C0F8B00080F8B00080F8B00080F8B000894
S31508008A4C0F8B0008558A0008F868FFF723FD5FE0CE
S31508008A5CF868FFF7C9FD5BE0F868FFF7B1FD57E06A
S31508008A6C494B1B69002B05D14E48494940F29122C6
S31508008A7CF9F786FD444B1A69FB689A4223D0FB68C2
S31508008A8C93F83030002B05D1474841494FF42872EA
S31508008A9CF9F776FDFB6893F83030013BDAB2FB68E0
S31508008AAC83F83020FB6893F83030002B03D1F86834
S31508008ABCFFF74AFD07E0F868FFF7ECFCFB680122B4
S31508008ACC83F8312024E023E0FB6893F83030002B40
S31508008ADC05D135482E4940F2B522F9F751FDFB6808
S31508008AEC93F83030013BDAB2FB6883F83020FB6828
S31508008AFC93F83030002B03D1F868FFF725FD07E013
S31508008B0C06E02A48224940F2BD22F9F739FD00BF92
S31508008B1CFFF726FEB860BA68FB689A422DD0FB8828
S31508008B2C202B0AD1184B1A69FB689A4205D1164BA9
S31508008B3C00221A61F868FFF7ADFCBB68002B05D15B
S31508008B4C1B48134940F2CD22F9F71AFD00F016FC22
S31508008B5CF868FFF75DFCBB6893F83130012B07D139
S31508008B6CBB68002283F83120B868FFF745FE07E09A
S31508008B7CF868B96800F01EF802E0B868FFF73CFE22
S31508008B8C1037BD4680BD00BF602D002034D30208C7
S31508008B9CE0D1020854D3020874D30208D8D20208CA
S31508008BAC9CD30208C4D30208F0D30208B8D2020830
S31508008BBC0CD4020880B582B000AF786039603B6887
S31508008BCC002B35D03868FFF7EBFA3B681B6CDB6972
S31508008BDC194A136400F0BEFB3868FFF737FB164BCF
S31508008BEC1B689B8903F00803002B05D1134814490D
S31508008BFC40F20B32F9F7C4FC0F4B1B689B6A002B2F
S31508008C0C05D010480E4940F20B32F9F7B9FC0A4B5D
S31508008C1C1B6801229A62084B5B6A1B69002B03D0FE
S31508008C2C054B5B6A1B69984778683968FEF734FC0C
S31508008C3C0837BD4680BD00BF602D0020D8D202087B
S31508008C4CE0D102080CD3020880B582B000AF786078
S31508008C5C39603868FFF7A4FA3B681B6CDB691C4A59
S31508008C6C136400F077FB3868FFF7F0FA184B1B68AB
S31508008C7C9B8903F00803002B05D11648164940F2C8
S31508008C8C1F32F9F77DFC124B1B689B6A002B05D02B
S31508008C9C1248114940F21F32F9F772FC0C4B1B684B
S31508008CAC01229A620A4B5B6A1B69002B03D0084B9C
S31508008CBC5B6A1B69984778683968FEF7F2FB0848BF
S31508008CCC05494FF44972F9F75BFC0837BD4680BD78
S31508008CDC602D0020D8D20208E0D102080CD3020875
S31508008CECB8D2020890B587B000AF0346FB80FFF7F1
S31508008CFC65FA78610023FB74FB88042B0DD90323D2
S31508008D0CFB74444B00221A70FB88424A5360FB7C66
S31508008D1C1846FFF7A5FBFB7C77E0FB881846FFF7A0
S31508008D2CA1FAF860FFF756FA0346002B0DD00D236F
S31508008D3CFB74384B00221A70FB88364A5360FB7C4E
S31508008D4C1846FFF78DFBFB7C5FE0FFF70BFAB86064
S31508008D5CFB6893F830300133DAB2FB6883F83020BD
S31508008D6CFB689B89042B21D0FB6893F83020FB68A1
S31508008D7C1B6C93F83C309A4229D90423FB74B868C7
S31508008D8CFFF700FAFB6893F83030013BDAB2FB6860
S31508008D9C83F830201F4B00221A70FB881D4A53603B
S31508008DACFB7C1846FFF75CFBFB7C2EE0FB6893F814
S31508008DBC3030012B05D01848184940F2FE32F9F725
S31508008DCCDFFBF868FFF7DCFBF868FFF7F9FB144BD9
S31508008DDC5B69002B15D17B691B6C93F82830002B2B
S31508008DEC0FD1FB68DC6AFFF7E9F90346DB6A9C429C
S31508008DFC07D9FFF717FA0346002B02D00420FFF712
S31508008E0C49FDB868FFF7BEF9FB7C18461C37BD460A
S31508008E1C90BD00BF4C2D002020D40208E0D10208DA
S31508008E2C602D002080B582B000AF0023FB71FFF7E0
S31508008E3CC5F93860FFF7CEF90346002B0AD00D2387
S31508008E4CFB711C4B01221A70FB791846FFF708FBBD
S31508008E5CFB792AE0184B5B69002B0AD00223FB71BD
S31508008E6C144B01221A70FB791846FFF7F9FAFB79AD
S31508008E7C1BE03868FFF7E2FA0346002B0AD00623F4
S31508008E8CFB710C4B01221A70FB791846FFF7E8FAAE
S31508008E9CFB790AE072B60820FFF7FCFC074808497C
S31508008EAC40F24142F9F76CFBFB7918460837BD4688
S31508008EBC80BD00BF4C2D0020602D0020B8D20208C2
S31508008ECCE0D1020880B483B000AFEFF310833B60A7
S31508008EDC3B687B6072B67B6818460C37BD465DF8F6
S31508008EEC047B704780B485B000AF78607B68FB6004
S31508008EFCFB6883F310881437BD465DF8047B70470E
S31508008F0C80B400AF034B1B681846BD465DF8047B5E
S31508008F1C704700BF602D002080B400AF084B1A784C
S31508008F2C084B1B781343DBB25BB2002B14BF01232F
S31508008F3C0023DBB21846BD465DF8047B704700BFBC
S31508008F4C5D2D00205C2D002080B483B000AF034655
S31508008F5CFB71002318460C37BD465DF8047B704739
S31508008F6C80B400AF074B5B6D9B8B4FF6FF72934239
S31508008F7C0CBF01230023DBB21846BD465DF8047B03
S31508008F8C704700BF602D002080B483B000AF7860B6
S31508008F9C39603B681B6C1A887B689A833B68DA6A6B
S31508008FAC7B689A617B685A693B68DA627B689B7F47
S31508008FBC022B0FD07B6800229A623B68DA6B7B68BF
S31508008FCCDA623B68DB6B7A681A607B6803F1280205
S31508008FDC3B68DA630C37BD465DF8047B704700BF07
S31508008FEC80B582B000AF786039607B689A8B3B6835
S31508008FFC1B6C1B889A4205D01F48204940F2031265
S3150800900CF9F7BEFA7B684FF6FF729A837B689A6902
S3150800901C3B68DA627B689B7F022B29D03B689B6B8B
S3150800902C002B05D11648154940F20912F9F7A8FA8A
S3150800903C3B68DB6B5B681A687B689A4205D01148FB
S3150800904C0E494FF48672F9F79BFA7B689B6A002BDC
S3150800905C05D07B689B6A7A68D26ADA6203E07B6819
S3150800906CDA6A3B68DA637B68DB6A7A68926A1A6042
S3150800907C0837BD4680BD00BF90D40208B8D4020894
S3150800908C1CD5020854D5020880B582B000AF034639
S3150800909CFB71094B5B6A002B0AD0074B5B6ADB68D2
S315080090AC002B05D0044B5B6ADB68FA7910469847A7
S315080090BC0837BD4680BD00BF602D002080B586B040
S315080090CC00AF0346FB710023FB74FFF725FF03462D
S315080090DC002B0DD00D23FB743B4B05221A70FB7924
S315080090EC394A5360FB7C1846FFF7CEFFFB7C66E0DB
S315080090FCFB79002B0DD00323FB74334B05221A7016
S3150800910CFB79314A5360FB7C1846FFF7BDFFFB7CA5
S3150800911C55E0FFF7D7FEF8602C4B5B69002B10D097
S3150800912C2623FB74F868FFF7DDFE274B05221A7019
S3150800913CFB79254A5360FB7C1846FFF7A5FFFB7C99
S3150800914C3DE0FFF7DDFEB860FB79002B03D11F4B22
S3150800915C5B6D7B612BE0FB791846FFF7F5FE7861B2
S3150800916CBB681B6CDA6AFB7922FA03F303F001037A
S3150800917C002B0BD07B699B8B4FF6FF72934205D164
S3150800918CBB68DA6A7B695B699A4210D90123FB745E
S3150800919CF868FFF7A7FE0C4B05221A70FB790A4AEA
S315080091AC5360FB7C1846FFF76FFFFB7C07E078697A
S315080091BCB968FFF7E9FEF868FFF794FEFB7C1846DA
S315080091CC1837BD4680BD00BF4C2D0020602D0020F1
S315080091DC90B589B000AF0346FB710023FB76FFF709
S315080091EC8FFE7861FFF798FE0346002B0DD00D23F2
S315080091FCFB76564B06221A70FB79544A5360FB7E53
S3150800920C1846FFF741FFFB7E9BE0FB79002B0DD040
S3150800921C0323FB764D4B06221A70FB794B4A536097
S3150800922CFB7E1846FFF730FFFB7E8AE0FFF74AFE07
S3150800923C3861474B5B69002B10D02623FB763869BF
S3150800924CFFF750FE414B06221A70FB793F4A5360D2
S3150800925CFB7E1846FFF718FFFB7E72E0FB79002BA6
S3150800926C03D13B4B5B6DFB611CE07B691B6CDA6ABB
S3150800927CFB7922FA03F303F00103002B0DD1032328
S3150800928CFB76324B06221A70FB79304A5360FB7E0A
S3150800929C1846FFF7F9FEFB7E53E0FB791846FFF7F5
S315080092AC53FEF861FB699B8B4FF6FF72934210D104
S315080092BC0523FB763869FFF715FE244B06221A7030
S315080092CCFB79224A5360FB7E1846FFF7DDFEFB7ED0
S315080092DC37E07B69DA6AFB695B699A4210D201232B
S315080092ECFB763869FFF7FEFD184B06221A70FB79D8
S315080092FC164A5360FB7E1846FFF7C6FEFB7E20E037
S3150800930CF8697969FFF76CFE7B691B6C93F8283052
S3150800931C002B12D1FFF724FE0346002B0DD0FFF7C6
S3150800932C1FFAF860FB68DC6AFFF7EAFD0346DB6A9E
S3150800933C9C4202D94020FFF7ADFA3869FFF7D2FDF7
S3150800934CFB7E18462437BD4690BD00BF4C2D002029
S3150800935C602D002080B582B000AFFFF7D1FD786094
S3150800936C7B681B6C9B6B3B603B68002B03D0386897
S3150800937C7968FFF709FE0837BD4680BD80B582B00F
S3150800938C00AFFFF7BDFD78607B681B6C9B6B3B6081
S3150800939C3B68002B03D038687968FFF721FE08373D
S315080093ACBD4680BD80B500AF0A4B5B6D4FF0FF32F2
S315080093BC5A61084B5B6D1846074922F0CBFA054BE8
S315080093CC5B6D00221A61034B5B6D4FF6FF729A8335
S315080093DC80BD00BF602D0020A0D5020880B483B0E4
S315080093EC00AFEFF310833B603B687B6072B67B681B
S315080093FC18460C37BD465DF8047B704780B485B0BB
S3150800940C00AF78607B68FB60FB6883F310881437C1
S3150800941CBD465DF8047B704780B400AF084B1A78DC
S3150800942C084B1B781343DBB25BB2002B14BF01232A
S3150800943C0023DBB21846BD465DF8047B704700BFB7
S3150800944C5D2D00205C2D002080B483B000AF7860C1
S3150800945C7B681B6A18460C37BD465DF8047B70475B
S3150800946C80B483B000AF78607B685B6918460C37AC
S3150800947CBD465DF8047B704780B487B000AFF860D2
S3150800948CB9607A60BA68FB68D31A3B617A683B693B
S3150800949C9A4204D8FA687B6813447B6106E0FA683A
S315080094ACBB68D21A7B681344013B7B617B691846FF
S315080094BC1C37BD465DF8047B704700BF80B483B08B
S315080094CC00AF0346FB80FA881346DB001344DB0027
S315080094DC034A134418460C37BD465DF8047B70479F
S315080094EC5000002080B582B000AF0346FB71094BD3
S315080094FC5B6A002B0AD0074B5B6ADB68002B05D02E
S3150800950C044B5B6ADB68FA79104698470837BD4600
S3150800951C80BD00BF602D002080B485B000AF786098
S3150800952C39600023FB737B68002B0DD03B685B68A6
S3150800953C9A6A7B689A4205D83B685B681A6A7B68A4
S3150800954C9A4201D20823FB73FB7B18461437BD4697
S3150800955C5DF8047B704700BF90B583B000AF7860A8
S3150800956C7B689B69002B04D17B68002283F8242036
S3150800957C15E07B685B681846FFF772FF04467B6844
S3150800958C5B681846FFF760FF02467B689B692046B6
S3150800959C11461A46FFF770FF02467B681A620C37AB
S315080095ACBD4690BD80B588B000AFB9607A601A46E2
S315080095BC0346FB8113467B730023FB777B7B002BCF
S315080095CC18D1FFF729FF0346002B13D00D23FB7781
S315080095DC524B0D221A70FB89504A53604F4ABB688E
S315080095EC93604E4A7B68D360FB7F1846FFF77AFF79
S315080095FCFB7F8EE0FB89032B13D90323FB77474BA1
S3150800960C0D221A70FB89454A5360444ABB6893601D
S3150800961C424A7B68D360FB7F1846FFF763FFFB7FE4
S3150800962C77E0FB891846FFF749FFB861BB68002B42
S3150800963C05D0BB695B681A6ABB689A4213D20823C1
S3150800964CFB77364B0D221A70FB89344A5360334A22
S3150800965CBB689360314A7B68D360FB7F1846FFF77B
S3150800966C41FFFB7F55E07868B969FFF755FF03465C
S3150800967C082B13D10823FB77284B0D221A70FB896C
S3150800968C264A5360254ABB689360244A7B68D36094
S3150800969CFB7F1846FFF726FFFB7F3AE0FFF79EFE97
S315080096AC7861BB6993F82430002B16D07869FFF7DC
S315080096BCA5FE0723FB77194B0D221A70FB89174A4F
S315080096CC5360164ABB689360144A7B68D360FB7F69
S315080096DC1846FFF707FFFB7F1BE0BB69012283F8DF
S315080096EC2420BB695B681846FFF7BAFE0246BB69BD
S315080096FC5B681B6A10461946BA68FFF7BDFE024638
S3150800970CBB691A62BB697A689A617869FFF776FE53
S3150800971CFB7F18462037BD4680BD00BF4C2D002068
S3150800972C80B588B000AFB9607A601A460346FB81EB
S3150800973C13467B730023FB777B7B002B18D1FFF733
S3150800974C6BFE0346002B13D00D23FB77494B0E22D9
S3150800975C1A70FB89474A5360464ABB689360454A68
S3150800976C7B68D360FB7F1846FFF7BCFEFB7F7DE06A
S3150800977CFB89032B13D90323FB773E4B0E221A7056
S3150800978CFB893C4A53603B4ABB689360394A7B6801
S3150800979CD360FB7F1846FFF7A5FEFB7F66E0FB89C7
S315080097AC1846FFF78BFEB861BB695B681A6ABB681B
S315080097BC9A4213D20823FB772E4B0E221A70FB897A
S315080097CC2C4A53602B4ABB6893602A4A7B68D36041
S315080097DCFB7F1846FFF786FEFB7F47E07868B9697A
S315080097ECFFF79AFE0346082B13D10823FB77214B68
S315080097FC0E221A70FB891F4A53601E4ABB68936077
S3150800980C1C4A7B68D360FB7F1846FFF76BFEFB7F11
S3150800981C2CE0FFF7E3FD7861BB6993F82430002B45
S3150800982C16D00723FB777869FFF7E8FD114B0E2254
S3150800983C1A70FB890F4A53600E4ABB6893600D4A2F
S3150800984C7B68D360FB7F1846FFF74CFEFB7F0DE069
S3150800985CBB69012283F82420BB69BA681A62BB6902
S3150800986C7A689A617869FFF7C9FDFB7F1846203735
S3150800987CBD4680BD4C2D002080B584B000AF786005
S3150800988C7B681B6BFB604DE0FB6893F82430002B60
S3150800989C45D07B685A69FB681B6A9A423FD1FB68BC
S315080098AC93F82830032B32D801A252F823F000BFC4
S315080098BCCD980008DF98000829990008099900082E
S315080098CCFB685B8D1846FFF70DFAF868FFF744FE40
S315080098DC25E0FB68598DFB68D3E90C230846FDF790
S315080098EC13FF0346FB72FB7A002B03D0FB7A184650
S315080098FCFFF7F8FDF868FFF72FFE10E0FB689B6B87
S3150800990C184600F047F9F868FFF726FE07E00848FE
S3150800991C08494FF40072F8F733FE00E000BFFB6805
S3150800992C5B6CFB60FB68002BAED11037BD4680BD67
S3150800993CB0D50208B4D5020880B584B000AF0023B0
S3150800994CFB8130E0FB891846FFF7B8FDB860BB68A9
S3150800995C1B6C002B24D0BB681B6C7B60154B9A6B5D
S3150800996C7B68DB681340002B1AD07B681B79002BAD
S3150800997C0BD17B681A687B689B68F989084611467F
S3150800998C1A460123FFF7CCFE0AE07B681A687B6847
S3150800999C9B68F989084611461A460123FFF702FE09
S315080099ACFB890133FB81FB89032BCBD91037BD46C9
S315080099BC80BD00BF602D002080B483B000AFEFF3EC
S315080099CC10833B603B687B6072B67B6818460C3725
S315080099DCBD465DF8047B704780B485B000AF7860EF
S315080099EC7B68FB60FB6883F310881437BD465DF80B
S315080099FC047B704780B400AF084B1A78084B1B7869
S31508009A0C1343DBB25BB2002B14BF01230023DBB27A
S31508009A1C1846BD465DF8047B704700BF5D2D0020D7
S31508009A2C5C2D002080B483B000AF78607B681B6A1D
S31508009A3C18460C37BD465DF8047B704780B483B076
S31508009A4C00AF78607A681346DB009B1ADB00044A81
S31508009A5C134418460C37BD465DF8047B704700BFA7
S31508009A6C1800002080B485B000AFF860B9607A6041
S31508009A7CFA68BB689A4203D3FA68BB68D31A05E03E
S31508009A8C7A68BB68D21AFB68134401331846143734
S31508009A9CBD465DF8047B704780B487B000AFF860AC
S31508009AACB9607A60BA68FB68D31A3B617A683B6915
S31508009ABC9A4204D8FA687B6813447B6106E0FA6814
S31508009ACCBB68D21A7B681344013B7B617B691846D9
S31508009ADC1C37BD465DF8047B704700BF80B483B065
S31508009AEC00AF0346FB80FA881346DB001344DB0001
S31508009AFC034A134418460C37BD465DF8047B704779
S31508009B0C5000002080B582B000AF0346FB71094BAC
S31508009B1C5B6A002B0AD0074B5B6ADB68002B05D007
S31508009B2C044B5B6ADB68FA79104698470837BD46DA
S31508009B3C80BD00BF602D002080B483B000AF786074
S31508009B4C7B68002B0CBF01230023DBB218460C37AD
S31508009B5CBD465DF8047B704780B582B000AF78606F
S31508009B6C39607868396800F079F80346184608377A
S31508009B7CBD4680BD80B584B000AFF860B9607A6028
S31508009B8CF868B9687A6800F0D5F8034618461037AD
S31508009B9CBD4680BD90B587B000AF78600023FB75D5
S31508009BACFFF728FF0346002B0DD00D23FB752A4B18
S31508009BBC27221A70284A7B685360FB7D1846FFF7E4
S31508009BCCA1FFFB7D44E07868FFF7B6FF0346002B40
S31508009BDC0DD10323FB75204B27221A701E4A7B686E
S31508009BEC5360FB7D1846FFF78DFFFB7D30E07868E8
S31508009BFCFFF724FF38613B691B7C83F00103DBB25A
S31508009C0C002B0DD00323FB75134B27221A70124A0F
S31508009C1C7B685360FB7D1846FFF774FFFB7D17E0E6
S31508009C2CFFF7CAFEF8603B695C693869FFF7FAFE0C
S31508009C3C0346204619460122FFF72EFF02463B69CA
S31508009C4C5A613869FFF718FEF868FFF7C5FEFB7D01
S31508009C5C18461C37BD4690BD4C2D002080B584B0E7
S31508009C6C00AF786039600023FB733B68002B10D17A
S31508009C7C1823FB732D4B28221A702C4A7B685360C9
S31508009C8C3B682A4A9360FB7B1846FFF73BFFFB7B36
S31508009C9C48E0FFF7AFFE0346002B10D00D23FB73ED
S31508009CAC224B28221A70214A7B6853603B681F4A4C
S31508009CBC9360FB7B1846FFF725FFFB7B32E0786841
S31508009CCCFFF73AFF0346002B10D10323FB73174B00
S31508009CDC28221A70154A7B6853603B68134A9360AE
S31508009CECFB7B1846FFF70EFFFB7B1BE07868FFF73C
S31508009CFCA5FEB860BB681B7C83F00103DBB2002BA6
S31508009D0C0BD0BB68DB6A002B04D1094B9A693B68FC
S31508009D1C1A6006E00123FB7303E0BB685A693B68CB
S31508009D2C1A60FB7B18461037BD4680BD4C2D0020AB
S31508009D3C602D002080B588B000AFF860B9607A60F5
S31508009D4C0023FB7700233B61BB68002B13D1182338
S31508009D5CFB77564B29221A70544AFB685360BB682A
S31508009D6C524A93607B68514AD360FB7F1846FFF7CB
S31508009D7CC9FEFB7F96E07B68002B13D11823FB7773
S31508009D8C4A4B29221A70494AFB685360BB68474AF2
S31508009D9C93607B68454AD360FB7F1846FFF7B2FE93
S31508009DACFB7F7FE0FFF726FE0346002B13D00D231F
S31508009DBCFB773E4B29221A703C4AFB685360BB68FA
S31508009DCC3A4A93607B68394AD360FB7F1846FFF79B
S31508009DDC99FEFB7F66E0F868FFF7AEFE0346002B9C
S31508009DEC13D10323FB77314B29221A702F4AFB68B0
S31508009DFC5360BB682D4A93607B682C4AD360FB7F03
S31508009E0C1846FFF77FFEFB7F4CE0F868FFF716FE57
S31508009E1CB861BB69002B13D11823FB77234B292276
S31508009E2C1A70224AFB685360BB68204A93607B68A9
S31508009E3C1E4AD360FB7F1846FFF764FEFB7F31E0B2
S31508009E4CB869FFF7EFFD7861BB681A687B699A42B7
S31508009E5C13D90823FB77154B29221A70134AFB686A
S31508009E6C5360BB68114A93607B68104AD360FB7FCA
S31508009E7C1846FFF747FEFB7F14E007F11003F86856
S31508009E8C1946FFF7EBFE3A69BB681B68104619467C
S31508009E9C7A69FFF7E7FD02467B681A603A69BB6880
S31508009EAC1A60FB7F18462037BD4680BD4C2D002016
S31508009EBC90B583B000AF0F4B1B681846FFF7BEFD75
S31508009ECC78600D4B9B6901330B4A93617B685C691F
S31508009EDC7868FFF7A7FD0346204619460122FFF7C7
S31508009EECDBFD02467B685A617868FFF7C5FC0C37C0
S31508009EFCBD4690BDC8090020602D002080B400AF77
S31508009F0C034B9B691846BD465DF8047B704700BF3A
S31508009F1C602D002080B584B000AF0020FFF7DEFD71
S31508009F2CB860BB685B687B607B6800221A63002399
S31508009F3CFB8111E0FB891846FFF7D0FDB860BB68BA
S31508009F4C5B687B607B681A6BBB685A647B68BA680B
S31508009F5C1A63FB890133FB81FB89032BEAD910377A
S31508009F6CBD4680BD80B483B000AF03463960FB7133
S31508009F7C97F90730002B0BDA0D49FB7903F00F0321
S31508009F8C043B3A68D2B21201D2B20B441A7609E0F3
S31508009F9C084997F907303A68D2B21201D2B20B4483
S31508009FAC83F800230C37BD465DF8047B704700BF69
S31508009FBC00ED00E000E100E080B582B000AF78600B
S31508009FCC7B68013BB3F1807F01D301230FE00A4A7A
S31508009FDC7B68013B53604FF0FF300F21FFF7C2FF40
S31508009FEC054B00229A60044B07221A600023184678
S31508009FFC0837BD4680BD00BF10E000E080B500AF55
S3150800A00C014800F0C7F980BD20D6020880B582B099
S3150800A01C00AF78607868FFF7CFFF0837BD4680BD7C
S3150800A02C80B400AF034B1B681846BD465DF8047B2D
S3150800A03C704700BF602D002080B400AF084B1A781B
S3150800A04C084B1B781343DBB25BB2002B14BF0123FE
S3150800A05C0023DBB21846BD465DF8047B704700BF8B
S3150800A06C5D2D00205C2D002080B400AF044B00222F
S3150800A07C1A70044B00221A70BD465DF8047B7047B3
S3150800A08C5D2D00205C2D002080B483B000AF786075
S3150800A09C07497A6813465B0013449B000B44083344
S3150800A0AC5B7818460C37BD465DF8047B704700BFD5
S3150800A0BC84BC020880B485B000AF78600023FB73BB
S3150800A0CC7B685B68BB60BB681B78422B0CBF0123A3
S3150800A0DC0023DBB2FB73FB7B18461437BD465DF8D1
S3150800A0EC047B704780B485B000AF78600023FB739F
S3150800A0FC7B685A687B689B681344BB60BB68013BEA
S3150800A10C1B78422B0CBF01230023DBB2FB73FB7BB2
S3150800A11C18461437BD465DF8047B704780B582B087
S3150800A12C00AF78607868FFF7C5FF0346002B05D0AB
S3150800A13C7868FFF7D7FF0346002B02D10E20FDF7F0
S3150800A14CE9FD0837BD4680BD80B582B000AF034631
S3150800A15CFB71094B5B6A002B0AD0074B5B6ADB6801
S3150800A16C002B05D0044B5B6ADB68FA7910469847D6
S3150800A17C0837BD4680BD00BF602D002080B584B071
S3150800A18C00AF78607B68DB68FB6006E0F868796886
S3150800A19C00F05AF8FB689B6AFB60FB68002BF5D14C
S3150800A1AC1037BD4680BD00BF80B483B000AF786061
S3150800A1BC7B68DB68002B14BF01230023DBB218462F
S3150800A1CC0C37BD465DF8047B704700BF80B485B07C
S3150800A1DC00AF78607B68DB881BB21033054AD35C0A
S3150800A1ECFB81FB891BB218461437BD465DF8047B08
S3150800A1FC704700BFCC09002080B485B000AF034679
S3150800A20C3960FB800023FB60FB880D4AD35C7B819D
S3150800A21C3B68FA881A807B89FF2B0AD07B891D2B11
S3150800A22C07D87A8913469B0013449B00054A1344A6
S3150800A23CFB60FB6818461437BD465DF8047B70470F
S3150800A24CCC090020D030002080B582B000AF7860F1
S3150800A25C39607B689B8B1A463B681B881BB29A42F3
S3150800A26C04D01C481C49B222F8F78AF97B684FF6C9
S3150800A27CFF729A837B689B7F022B27D03B68DB682F
S3150800A28C002B04D115481449B722F8F779F93B681D
S3150800A29C1B695B681A687B689A4204D010480E4999
S3150800A2ACBC22F8F76DF97B689B6A002B05D07B6896
S3150800A2BC9B6A7A68D26ADA6203E07B68DA6A3B6878
S3150800A2CC1A617B68DB6A7A68926A1A600837BD4637
S3150800A2DC80BD00BF38D6020854D60208B8D6020884
S3150800A2ECF0D602082DE9F04184B002AF78600B462F
S3150800A2FC7B80B7F902201C4913469B0013449B002C
S3150800A30C0B4408337A681A60B7F9022016491346C3
S3150800A31C9B0013449B000B447A881A807B68DB8865
S3150800A32C1BB210337A88D1B2104AD1547B68DE68D6
S3150800A33C7B68B3F806807B681B899DB27B685C7961
S3150800A34C7B681B691846FFF79FFE03461A460FFAE9
S3150800A35C88F30092304619462A46234600F06EFAD0
S3150800A36C0837BD46BDE8F081D0300020CC09002066
S3150800A37C80B500AF00F040FA044B00221A8004485E
S3150800A38CFF21542221F098FA80BD00BFC830002066
S3150800A39CCC09002080B584B000AF78607B68002BB0
S3150800A3AC04D11F481F49F922F8F7EAF87B68DB88BD
S3150800A3BC1BB21033532B04D91B481A49FA22F8F747
S3150800A3CCDFF87868FFF702FF0346BB81B7F90C3054
S3150800A3DCFF2B02D0BB89FB811BE0144B1B88FB812E
S3150800A3EC124B1B889BB29BB201339BB29AB20F4B92
S3150800A3FC1A80B7F90E301D2B05DD0D4809494FF4A7
S3150800A40C8772F8F7BDF8B7F90E3078681946FFF772
S3150800A41C69FFFB891BB218461037BD4680BD00BFC5
S3150800A42C3CD7020854D6020854D70208C830002074
S3150800A43C8CD7020880B483B000AF78607B68054A75
S3150800A44C5A607B684FF400629A600C37BD465DF81B
S3150800A45C047B70473033002080B586B000AF786037
S3150800A46C0B467B8000237B6100233B610023FB604A
S3150800A47C00237B817A8807F10A0310461946FFF7F1
S3150800A48CBBFE78617B69002B05D15948594940F2C6
S3150800A49C9F12F8F775F87B699B681B89002B20D1EE
S3150800A4AC554B9B68FB60544A7B699360524B5B69BE
S3150800A4BC0133514A536162B67B699B68DB689847DE
S3150800A4CC72B64D4B5B69013B4B4A53614A4AFB6872
S3150800A4DC93607B899BB21BB2184600F0A5F97B6882
S3150800A4EC81E07B699B681B891BB2012B05D043480D
S3150800A4FC404940F2AF12F8F743F83F4B5A69404BC4
S3150800A50C1B681344002B2ED13B4B1B689B8903F00D
S3150800A51C0803002B05D13B48364940F2B912F8F727
S3150800A52C2FF8354B1B689B6A012B05D036483149E9
S3150800A53C40F2B912F8F724F82F4B1B6800229A62DE
S3150800A54C2D4B5B6A5B69002B03D02B4B5B6A5B69F3
S3150800A55C9847FFF765FD38613B6901229A8138698E
S3150800A56CFFF7DCFD06E0264B1B68012B02D0224BBD
S3150800A57C9B68FB60204B5B6901331F4A53617B69FF
S3150800A58C01225A601C4A7B69936062B67B699B6898
S3150800A59CDB68984772B6FFF74FFD0346002B04D0CD
S3150800A5ACFFF762FD0D20FFF7CFFD7869FFF7FCFD7D
S3150800A5BC0346012B05D17869FFF7E0FD0620FFF766
S3150800A5CCC3FD7B6902225A600B4A7B6993607B89BF
S3150800A5DC9BB21BB2184600F027F9074B5B69013B87
S3150800A5EC054A5361002318461837BD4680BD00BF7F
S3150800A5FC3CD7020854D60208602D00209CD70208C6
S3150800A60CC02D0020B8D70208ECD7020880B483B056
S3150800A61C00AF0023FB802BE0FB88194A4C2101FB79
S3150800A62C03F31344083300221A70F988FA8815487C
S3150800A63C13465B0013449B00034408331878104AEE
S3150800A64C4C2303FB01F3134402461A70F988FA8863
S3150800A65C0C4813465B0013449B0003441A680848CD
S3150800A66C4C2303FB01F303445A60FB880133FB803C
S3150800A67CFB88002BD0D00C37BD465DF8047B7047A1
S3150800A68C303B002084BC020880B584B000AF7860EB
S3150800A69C39600423FB73114B5B6A002B15D00F4BE7
S3150800A6AC5B6A1B68002B10D07868F9F78DFF034698
S3150800A6BCBB73BB7BFF2B08D0084B5B6A1B68BA7B4A
S3150800A6CC104698470346FB73FFE7FB7B002B02D02B
S3150800A6DC1F20FDF71FFB1037BD4680BD602D0020DF
S3150800A6EC80B485B000AF78607B6803F00703FB6025
S3150800A6FC0C4BDB68BB60BA684FF6FF031340BB60B4
S3150800A70CFB681A02BB68134343F0BF6343F4003378
S3150800A71CBB60044ABB68D3601437BD465DF8047B3E
S3150800A72C704700BF00ED00E080B483B000AF03466D
S3150800A73C3960FB7197F90730002B0BDA0D49FB7959
S3150800A74C03F00F03043B3A68D2B21201D2B20B449F
S3150800A75C1A7609E0084997F907303A68D2B2120115
S3150800A76CD2B20B4483F800230C37BD465DF8047B44
S3150800A77C704700BF00ED00E000E100E080B582B054
S3150800A78C00AF0346FB71FB791F2B04D90748084910
S3150800A79C2922F7F7F5FEFB795B08DBB2C3F10F0349
S3150800A7ACDBB218460837BD4680BD00BF14D8020870
S3150800A7BC1CD8020880B582B000AF03463960FB711D
S3150800A7CC97F9073018463968FFF7AEFF97F907303F
S3150800A7DC002B0CDB074AFB795B09DBB21846FB79C5
S3150800A7EC03F01F03012101FA03F342F8203008375E
S3150800A7FCBD4680BD00E100E080B500AF0020FFF744
S3150800A80C6FFF1420FFF7BAFF03466FF001001946D5
S3150800A81CFFF78AFF034A034B5B6863F0FF03536039
S3150800A82C80BD00BF002004E080B483B000AF0346AF
S3150800A83CFB800C37BD465DF8047B704790B585B038
S3150800A84C00AFF860084611461A4603467B810B464C
S3150800A85C3B811346FB71B7F90A30532B28DC3B892D
S3150800A86C002B0FD1FB79152B04D8154815497C22DA
S3150800A87CF7F786FEB7F90A3010331349FA6841F828
S3150800A88C232007E0FB79132B04D910480D497F22A6
S3150800A89CF7F776FE7B89DCB2FB791846FFF76EFF75
S3150800A8AC03461A4663B218461146FFF783FF04E0BF
S3150800A8BC074804498622F7F763FE1437BD4690BD50
S3150800A8CC8CD802081CD802087C3B0020A0D80208A9
S3150800A8DCB0D8020880B400AF72B6064B1B78DBB250
S3150800A8ECDBB20133DBB2DAB2024B1A70BD465DF845
S3150800A8FC047B70475C2D002080B400AF0A4B1B7894
S3150800A90C002B0DD0084B1B78DBB2DBB2013BDBB25C
S3150800A91CDAB2054B1A70044B1B78002B00D162B6C1
S3150800A92CBD465DF8047B70475C2D002080B400AFF3
S3150800A93CBD465DF8047B704780B400AF034B00221C
S3150800A94C1A70BD465DF8047B704700BFCC01002029
S3150800A95C80B483B000AF0346FB71074B01221A7013
S3150800A96C054B01225A70044AFB7993700C37BD4685
S3150800A97C5DF8047B704700BFCC01002080B584B01D
S3150800A98C00AF384B9B68FB60374BBB6000237B7171
S3150800A99C364B02221A70364B00221A71344B00229F
S3150800A9AC5A800023FB8054E0FB681B79012B44D1A9
S3150800A9BCBB689B79002B03D0BB685B79002B3CD119
S3150800A9CCFB681B69002B09D1FB681B69002B05D199
S3150800A9DC2848294940F26322F7F7D2FDFB681B6920
S3150800A9EC002B07D1142000210C22FD2304F0BAF900
S3150800A9FC002332E0FB681B78022B09D1FB681B7815
S3150800AA0C022B05D11D481C4940F26622F7F7B8FD02
S3150800AA1CFB681B78022B07D1142000210C22FD237E
S3150800AA2C04F0A0F9002318E0BB6802221A71BB686F
S3150800AA3C00221A7001237B7102E0BB6804221A718A
S3150800AA4CBB681833BB60FB682833FB60FB88013393
S3150800AA5CFB80FB88022BA7D97B7918461037BD4695
S3150800AA6C80BD00BF88DB0208D03C0020183D0020C2
S3150800AA7C1C3D002070D90208ACD9020808DA020875
S3150800AA8C80B485B000AFF860B9607A60BB689B7B10
S3150800AA9C012B3FD1BB68DB7B012B14D1BB689B898F
S3150800AAAC1A46FB6813447A681289120A92B2D2B211
S3150800AABC1A70BB689B890133FA6813447A68128941
S3150800AACCD2B21A7026E0BB689B891A46FB681344F7
S3150800AADC7A689268120ED2B21A70BB689B890133D7
S3150800AAECFA6813447A689268120CD2B21A70BB6868
S3150800AAFC9B890233FA6813447A689268120AD2B2AE
S3150800AB0C1A70BB689B890333FA6813447A6892688F
S3150800AB1CD2B21A701437BD465DF8047B704700BF75
S3150800AB2C80B584B000AF786039600023FB737B680E
S3150800AB3C1B78012B26D13B681B7D012B1CD17B680E
S3150800AB4C5B7D022B09D07B685B7D022B05D01048F8
S3150800AB5C104940F29522F7F713FD3B689B78002BBA
S3150800AB6C0CBF01230023DBB21A463B689A703B687C
S3150800AB7C00221A700123FB733B681B7D0133DAB282
S3150800AB8C3B681A75FB7B18461037BD4680BD00BF5F
S3150800AB9C48DA0208ACD9020880B590B000AFF86064
S3150800ABACB9607A60FB70012387F83E30002387F87A
S3150800ABBC3F30BB681B79022B09D0BB681B79022B6B
S3150800ABCC05D0A948A94940F2BD22F7F7D9FCBB68BC
S3150800ABDC1B78042B00F2568301A252F823F000BF0F
S3150800ABEC01AC000819AE00088FB000089DB000082B
S3150800ABFC31B10008002387F83D307B68002B02D161
S3150800AC0CFB681B6900E07B683B63BB683A6B1A619F
S3150800AC1CFB78012B61D197F84830002B08D07B685C
S3150800AC2C002B05D0924891494FF43372F7F7A8FCDC
S3150800AC3CFB689B898F48396B1A4620F0C7FD8D48EF
S3150800AC4CF968BA68FFF71CFFBB689A78FB685B7DE6
S3150800AC5C9A422DD2FFF770FE874ABB689360864AE4
S3150800AC6CFB685360FFF736FEFB689A8BBB689B78CC
S3150800AC7C9BB213449BB218467E4902F03DFE03462E
S3150800AC8C87F82F3097F82F30002B0ED002F0A0FE45
S3150800AC9C0346012B06D10120FFF75AFE012387F83C
S3150800ACAC3D3002E0FFF728FEF3E2FFF725FE08E049
S3150800ACBC142000214122402304F054F8012387F87C
S3150800ACCC3D3097F83D30012B40F09C80BB68012243
S3150800ACDC1A71012387F83F30DBE2002387F83C30F2
S3150800ACECFB689B7B012B08D1FB68DB7B012B01D115
S3150800ACFC022300E0042387F83C3097F84C30012BEC
S3150800AD0C1DD1FB681B6A002B09D1FB681B6A002B3B
S3150800AD1C05D15A48554940F20532F7F731FCFB681C
S3150800AD2C1A6AFB689B89386B11461A4620F04EFD49
S3150800AD3CBB6800221A71012387F83F30A9E2BB6869
S3150800AD4C9B7887F82E30FB689A8997F83C309BB22B
S3150800AD5C1344BB85FB685B7D97F82E209A422FD24D
S3150800AD6CFFF7EAFD444ABB689360434AFB685360A5
S3150800AD7CFFF7B0FDFB689A8B97F82E309BB21344FD
S3150800AD8C9AB2BB8D104600213A4A02F015FD0346CD
S3150800AD9C87F82F3097F82F30002B0ED002F018FEBC
S3150800ADAC0346012B06D10120FFF7D2FD012387F8B4
S3150800ADBC3D3002E0FFF7A0FD6BE2FFF79DFD16E0C4
S3150800ADCC97F82E20FB685B7D1946FB68DB8B0B44DA
S3150800ADDC9A4203DA012387F83D3008E01420002153
S3150800ADEC4022402303F0BEFF012387F83D3097F835
S3150800ADFC3D30012B06D1BB6801221A71012387F855
S3150800AE0C3F3046E2BB6801221A7042E27B68002B8F
S3150800AE1C02D1FB681B6900E07B68BB62BB6A002B2E
S3150800AE2C06D1012387F83F30002387F83E3027E107
S3150800AE3C02F0DAFD034687F8273097F82730022BFD
S3150800AE4C00F01E8197F82730002B40F09780FB788E
S3150800AE5C012B15D1BB6800221A70BB6800221A7127
S3150800AE6C012387F83F3088E060DA0208ACD902087B
S3150800AE7C7CDA0208243D0020CC01002080DA020886
S3150800AE8CFB689B7B012B65D1FB68DB7B012B16D101
S3150800AE9CFB689B891A469C4B9B5C9BB21B029AB21D
S3150800AEACFB689B8901339849CB5C9BB213449AB2D5
S3150800AEBCBB689A81BB689A89BB681A811FE0FB68D4
S3150800AECC9B891A46904B9B5C1A06FB689B89013337
S3150800AEDC8D49CB5C1B041A44FB689B8902338A494F
S3150800AEECCB5C1B021344FA689289033286498A5C46
S3150800AEFC1A44BB68DA60BB68DA68BB689A60BB68D8
S3150800AF0C1A69FB689B8910467F491A4620F05EFC35
S3150800AF1CFB681B7D012B13D1FB689B7B012B05D092
S3150800AF2C7A487B494FF45F72F7F72AFBBB68042211
S3150800AF3C1A70BB6800225A70BB6800221A751CE08E
S3150800AF4CBB6800221A70BB6800221A71012387F8A5
S3150800AF5C3F309EE1BB681A69FB689B8910466A49B3
S3150800AF6C1A4620F033FCBB6800221A70BB68002214
S3150800AF7C1A71012387F83F308BE18AE1FB78012BA4
S3150800AF8C10D1BB68DB790133DAB2BB68DA71BB68FE
S3150800AF9CDB79022B09D9012387F83F30BB680022DD
S3150800AFACDA7102E0012387F83F3097F83F30012B1E
S3150800AFBC66D1F868B968FFF7B3FD0346002B5FD175
S3150800AFCC97F82730042B08D0052B02D0012B13D069
S3150800AFDC21E0BB6805221A7124E0BB6803221A71AA
S3150800AFEC4C4B9B88002B06D04A4B9B881846012154
S3150800AFFC0EF08EFE16E015E0BB6801221A71454B61
S3150800B00CDB88002B06D0434BDB88184601210EF053
S3150800B01C7FFE07E006E040483D4940F2DB32F7F791
S3150800B02CAFFA00BFFB78002B23D1FB681B6A002BF9
S3150800B03C03D1FB685B6A002B1BD0FB681B6A002BD1
S3150800B04C0CD0FB681A6AFB689B89B86A11461A46C3
S3150800B05C20F0BCFBBB6800221A7109E0FB685B6A2E
S3150800B06C002B05D0FB685B6A9847BB6800221A71EF
S3150800B07C06E0BB6800221A70284B01221A7108E1F7
S3150800B08C07E12548224940F2FF32F7F779FA00E141
S3150800B09C7B68002B02D1FB681B6900E07B683B626E
S3150800B0AC3B6A002B08D13B6A002B05D11C48184972
S3150800B0BC40F20E42F7F764FAFB68DB7B012B11D1E1
S3150800B0CCFB689B89386A19464FF6FF720123F8F715
S3150800B0DC13FD0346FB83BB68FA8B1A81BB680022F7
S3150800B0EC1A700CE0FB689B89386A19464FF0FF32D8
S3150800B0FC0123F8F73FFDB861BB68BA699A60BB686B
S3150800B10C00221A70C5E000BF243D0020ACDA020804
S3150800B11CACD9020888DB02087CDA02081C3D002040
S3150800B12CC4DA0208FB681B7D012B09D0FB681B7D62
S3150800B13C012B05D06E486F4940F22A42F7F720FAE0
S3150800B14C00237B8700237B63FB68DB7B012B0DD1FC
S3150800B15CBB681A69FB689B89104619464FF6FF723D
S3150800B16C0123F8F7C9FC03467B870BE0BB681A6911
S3150800B17CFB689B89104619464FF0FF320123F8F7F6
S3150800B18CF9FC7863BB685B78002B02D0012B60D086
S3150800B19C77E0FB68DB7B012B08D1BB681B897A8FB0
S3150800B1AC9A420CBF01230023DBB207E0BB689A68FE
S3150800B1BC7B6B9A420CBF01230023DBB2FB75FB7D2C
S3150800B1CC012B0CD1BB6800221A70BB6800221A71BD
S3150800B1DCBB6800221A70012387F83F3038E0F868FC
S3150800B1ECB968FFF79DFC0346002B31D1FB681B6A37
S3150800B1FC002B0ED0BB681969FB681A6AFB689B8919
S3150800B20C084611461A4620F0E1FABB6801225A7024
S3150800B21C1EE0FB685B6A002B06D0FB685B6A9847E6
S3150800B22CBB6801225A7013E0334B9B88002B05D060
S3150800B23C314B9B88184601210EF06AFDBB68032228
S3150800B24C1A71BB6800221A70012387F83F3018E080
S3150800B25C17E0FB68DB7B012B03D1BB687A8F1A815D
S3150800B26C02E0BB687A6B9A60BB6800225A70BB68AE
S3150800B27C03221A71BB6800221A70012387F83F3023
S3150800B28C00BF06E01D481B4940F28C42F7F778F9D7
S3150800B29C00BF97F83E30012B24D197F83F30012B8D
S3150800B2AC20D1BB681B79002B05D1BB6800225A71CB
S3150800B2BCBB6801229A71FB689B68002B08D0FB6857
S3150800B2CC9B680F4A1178BA6812790846114698474E
S3150800B2DC97F84830002B05D10A4B01221A700A4BF5
S3150800B2EC00221A7097F83F3018464037BD4680BD85
S3150800B2FCE0DA0208ACD9020888DB02087CDA020814
S3150800B30CCE3C0020CC3C0020CD3C002090B585B02E
S3150800B31C02AF0346FB7133E02F4B5B8819462F4A65
S3150800B32C0B465B000B44DB0013441B79042B21D022
S3150800B33C2B4B9A68284B5B8819460B469B000B448B
S3150800B34CDB00D118244B5B881A4613465B00134462
S3150800B35CDB00224A1A44FC7901230093002301934B
S3150800B36C0846114600222346FFF716FC0346002B17
S3150800B37C00D109E0184B5B8801339AB2164B5A80F8
S3150800B38C154B5B88022BC7D9134B5B88022B20D92C
S3150800B39C114B00225A80104B1B79012B03D1114BF0
S3150800B3AC01221A7002E00F4B00221A700E4B012272
S3150800B3BC1A700E4B00221A70094B1B68002B08D00A
S3150800B3CC074B1B680A4A1178064A12780846114632
S3150800B3DC98470C37BD4690BD1C3D0020D03C00203C
S3150800B3EC88DB0208183D0020CC3C0020CD3C002010
S3150800B3FCCE3C002080B485B000AF284B9B68FB6020
S3150800B40C274BBB6000237B71264B00221A71254BF8
S3150800B41C00225A800023FB8035E0FB681B69002B51
S3150800B42C25D0BB689B79012B21D1BB685B79012B95
S3150800B43C1DD1BB68DB78002B19D1BB689A78FB68E1
S3150800B44C5B7D9A4213D2BB6802221A71FB689B7BFE
S3150800B45C012B03D1BB6803221A7005E0BB680022D6
S3150800B46C1A70BB680022DA7101237B7102E0BB6893
S3150800B47C04221A71BB681833BB60FB682833FB605F
S3150800B48CFB880133FB80FB88022BC6D97B791846CF
S3150800B49C1437BD465DF8047B704700BF88DB02088D
S3150800B4ACD03C00201C3D002080B584B000AF1D4B5D
S3150800B4BC9B68FB601C4BBB601C481D4905220C2372
S3150800B4CC1AF01CFD0023FB801FE0FB681B78022B7F
S3150800B4DC02D1BB6800229A70FB689A78BB68DA704E
S3150800B4ECBB6801221A71BB6800225A71BB6800221C
S3150800B4FC9A71BB680022DA71BB681833BB60FB68AB
S3150800B50C2833FB60FB880133FB80FB88022BDCD9D4
S3150800B51C084B01221A70084B01221A701037BD46C7
S3150800B52C80BD00BF88DB0208D03C0020883D002087
S3150800B53C343D0020183D0020CC3C002080B500AFDF
S3150800B54C0C4B1B78002B06D1142000210C2214233B
S3150800B55C03F008FC0CE0FFF7BDF9074B02221A7042
S3150800B56C064B02221A70044B0C225A71FFF7C4F9C7
S3150800B57C80BD00BFCC3C00201C3D0020183D00209F
S3150800B58C80B500AF0C4B1B78002B06D1142000217C
S3150800B59C0D22142303F0E6FB0CE0FFF79BF9074B8F
S3150800B5AC03221A70064B02221A70044B0D225A718A
S3150800B5BCFFF7A2F980BD00BFCC3C00201C3D002043
S3150800B5CC183D002080B400AFBD465DF8047B70477B
S3150800B5DC80B582B000AF03463960FB80204B1B78E0
S3150800B5EC002B07D1142000210422142303F0BAFBE4
S3150800B5FC012330E0FB88032B07D9142000210422F1
S3150800B60C0A2303F0AFFB012325E03B68002B07D187
S3150800B61C1420002104220E2303F0A4FB01231AE0B4
S3150800B62CFB88002B04D10F4B1A783B681A7011E073
S3150800B63CFB88012B03D13B6800221A700AE0FB88B1
S3150800B64C5A1E094913465B001344DB000B441A794E
S3150800B65C3B681A70002318460837BD4680BD00BFE4
S3150800B66CCC3C0020183D0020D03C002080B584B08E
S3150800B67C00AF03460A46FB8013467B71FB88032BF7
S3150800B68C07D91420002105220A2303F06BFB01239A
S3150800B69C3BE0FB885A1E13465B001344DB001D4A2D
S3150800B6AC1344FB601C4B1B78002B07D1142000217C
S3150800B6BC0522142303F056FB012326E0FB88012BF5
S3150800B6CC07D81420002105220A2303F04BFB01237B
S3150800B6DC1BE0FB681B79022B07D1142000210522DD
S3150800B6EC152303F03FFB01230FE00C4B9968FA88EE
S3150800B6FC13469B001344DB00283BCA187B7910467B
S3150800B70CF9681A4600F00CF8002318461037BD469F
S3150800B71C80BD00BFD03C0020CC3C002088DB020852
S3150800B72C80B485B000AFF860B9601346FB71FB684E
S3150800B73C1B69002B0FD0FB79012B06D1BB680122A4
S3150800B74C5A71BB6801229A7105E0BB6800225A71CE
S3150800B75CBB6800229A711437BD465DF8047B7047A6
S3150800B76C80B483B000AF03460A46FB8013467B7150
S3150800B77C0C37BD465DF8047B704700BF80B586B0B4
S3150800B78C00AF03463960FB80354B1B78002B07D17D
S3150800B79C142000210622142303F0E4FA01235AE0AC
S3150800B7ACFB88032B07D91420002106220A2303F051
S3150800B7BCD9FA01234FE03B68002B13D1294B996822
S3150800B7CCFA8813469B001344DB00283B0B441B6981
S3150800B7DC002B07D11420002100220D2303F0C2FAF6
S3150800B7EC012338E0FB885A1E1F4913465B00134495
S3150800B7FCDB000B441B79022B07D1142000210622EF
S3150800B80C152303F0AFFA012325E004233B72FB88CA
S3150800B81C7B813B68FB6006233B7407F108031348DE
S3150800B82C19461AF095FB03467B617B69002B07D0FA
S3150800B83C142000210622502303F094FA01230AE06F
S3150800B84CFB885A1E084913465B001344DB000B445D
S3150800B85C02221A71002318461837BD4680BD00BF50
S3150800B86CCC3C002088DB0208D03C0020883D002018
S3150800B87C80B588B000AF03463960FB80FB88012B86
S3150800B88C08D8FB88012B05D84648474940F2B262CE
S3150800B89CF6F776FE454B1B78002B07D114200021B2
S3150800B8AC0722142303F05EFA012376E0FB88032BA8
S3150800B8BC07D91420002107220A2303F053FA01237F
S3150800B8CC6BE03B4B9968FA8813469B001344DB00E4
S3150800B8DC283B0B44FB61FB885A1E13465B0013443A
S3150800B8ECDB00344A1344BB61BB69DB78012B05D0FA
S3150800B8FCBB699A78FB695B7D9A4207D314200021B1
S3150800B90C0722512303F02EFA012346E03B68002B4D
S3150800B91C0BD1FB691B69002B07D1142000210722C8
S3150800B92C0D2303F01FFA012337E0BB691B79022BA1
S3150800B93C07D1142000210722152303F013FA01233B
S3150800B94C2BE0FB887B8105233B72FB887B813B685C
S3150800B95CFB6007233B7407F10803174819461AF0CE
S3150800B96CF7FA03467B617B69002B07D0142000216C
S3150800B97C0722502303F0F6F901230EE0BB690222D5
S3150800B98C1A71FB699B7B012B03D1BB6903221A70C5
S3150800B99C02E0BB6900221A70002318462037BD4600
S3150800B9AC80BD00BF00DB0208ACD90208CC3C0020E5
S3150800B9BC88DB0208D03C0020883D002080B586B084
S3150800B9CC02AF9F4B9B68FB609E4B1B78012B47D1A4
S3150800B9DC9D489E491AF0F8FA0346BB60BB68002BD3
S3150800B9EC26D19A4B1A78974B1A70984B5B881A463D
S3150800B9FC13469B001344DB00283BFA681344944A0D
S3150800BA0C1360924B5B885A1E13465B001344DB008B
S3150800BA1C904A1344904A1360904B00221A708E4B2E
S3150800BA2C1B6802221A71894B1A7A8D4B1A7017E009
S3150800BA3C8C4B1B78002B13D08A4B1A78814B1A70B7
S3150800BA4C864B00221A70824B00221A60824B002207
S3150800BA5C1A60844B5A79824B1A70824B00221A70E0
S3150800BA6C784B1B780A2B00F2208101A252F823F09E
S3150800BA7CC7BC0008A9BA0008AFBA00085BBB000827
S3150800BA8C07BB00083FBB000823BB0008B7BC00086F
S3150800BA9CB7BC0008B7BC0008B3BB0008FEF746FFE6
S3150800BAAC0CE16E4B1B78002B1FD1FEF767FF034684
S3150800BABC012B03D1694B01221A701DE06A4B002237
S3150800BACC1A70604B01221A70644B00221A705C4B78
S3150800BADC1B68002B10D05A4B1B68614A1178624AB6
S3150800BAEC1278084611469847E8E05C4B1B78012B00
S3150800BAFC02D10020FFF70AFCE0E0554B1868564BBC
S3150800BB0C1968524B5A6800230093002301930023AB
S3150800BB1CFFF742F8D2E04E4B18684F4B19684B4B5F
S3150800BB2C5A6800230093012301930023FFF734F886
S3150800BB3CC4E0474B1868484B1968444B5A680023AD
S3150800BB4C0093002301930123FFF726F8B6E0434B35
S3150800BB5C1B78002B1FD1FFF74DFC0346012B03D195
S3150800BB6C3E4B01221A701DE03F4B00221A70354BD2
S3150800BB7C01221A70394B00221A70314B1B68002BA4
S3150800BB8C10D02F4B1B68364A1178374A127808465C
S3150800BB9C1146984792E0314B1B78012B02D10120B4
S3150800BBACFFF7B4FB8AE02D4B1B78002B02D0012B38
S3150800BBBC1DD079E0284B1B689B789AB22B4B1B78C7
S3150800BBCC9BB21344FB80224B1B689A8BFB8813444D
S3150800BBDCBB80BB88184601F01DFF0346FB70FB783B
S3150800BBEC002B03D11D4B01221A705DE05CE001F0BD
S3150800BBFCFBFE0346BB70BB78022B54D0BB78002BDC
S3150800BC0C36D1134B1B681B78012B0AD1174B1B78A3
S3150800BC1C002B06D1154B01221A70104B00221A70F4
S3150800BC2C41E0124B00221A70064B01221A700B4B7C
S3150800BC3C00221A70084B1B6800221A7133E000BFE9
S3150800BC4C88DB0208CC3C0020883D0020703D002093
S3150800BC5C7C3D0020D03C0020803D0020CD3C0020BF
S3150800BC6CCE3C00201C3D0020183D0020843D0020C1
S3150800BC7C144BDB88002B05D0124BDB8818460121A8
S3150800BC8C0EF046F80120FEF763FE0F4B01221A70E0
S3150800BC9C0E4B00221A700E4B1B6801221A710D4BA3
S3150800BCAC00221A70FFE700BF08E0142000210E22BC
S3150800BCBC412303F057F800BF00E000BF1037BD461C
S3150800BCCC80BD00BF88DB0208CC3C0020CD3C0020A0
S3150800BCDC803D0020843D002080B500AF0A4B012230
S3150800BCEC1A70094B00225A70074B5B68002B06D05A
S3150800BCFC01F07AFE03461A46034B9A7002E0024B91
S3150800BD0C01229A7080BD00BFCC01002080B500AF1F
S3150800BD1C0A4B01221A70094B01225A70074B5B68B1
S3150800BD2C002B06D001F060FE03461A46034B9A70A8
S3150800BD3C02E0024B01229A7080BD00BFCC010020A4
S3150800BD4C80B500AFF4F7B4FE0346184680BD00BFB5
S3150800BD5C80B582B000AF03460A46FB711346BB7129
S3150800BD6CFA79BB7910461946F4F7B2FE034618461B
S3150800BD7C0837BD4680BD00BF80B500AFF4F7A0FEFE
S3150800BD8C0346184680BD00BF80B582B000AF034697
S3150800BD9C0A46FB711346BB71FA79BB7910461946EC
S3150800BDACF4F7AAFE034618460837BD4680BD00BF01
S3150800BDBC80B400AF72B6064B1B78DBB2DBB201332C
S3150800BDCCDBB2DAB2024B1A70BD465DF8047B7047DB
S3150800BDDC5C2D002080B400AF0A4B1B78002B0DD0CD
S3150800BDEC084B1B78DBB2DBB2013BDBB2DAB2054B94
S3150800BDFC1A70044B1B78002B00D162B6BD465DF851
S3150800BE0C047B70475C2D002080B485B000AF0346D8
S3150800BE1CFB800323FB81114B9B68BB600023BB8112
S3150800BE2C11E0BA8913465B0013449B001A46BB689B
S3150800BE3C13445B88FA889A4202D1BB89FB8105E0D8
S3150800BE4CBB890133BB81BB89012BEAD9FB8918460F
S3150800BE5C1437BD465DF8047B704700BFC4DB020887
S3150800BE6C80B582B000AF1DF07BFA0346FB71FB79F7
S3150800BE7C022B14BF01230023DBB218460837BD4634
S3150800BE8C80BD00BF80B487B000AFF8600B467A60FF
S3150800BE9CFB7200237B6100233B610DE0FA683B696A
S3150800BEAC13441B78FA7A9A4203D03B6901337B61B7
S3150800BEBC06E03B6901333B613A697B689A42EDD3EC
S3150800BECC7B6918461C37BD465DF8047B704700BF76
S3150800BEDC80B582B000AF0346FB710E4B9B780133DD
S3150800BEECDAB20C4B9A700B4B9B78012B0CD915209C
S3150800BEFC00214022FA2302F035FF064B20221A7045
S3150800BF0C054B01221A7002E0024B01221A700837FF
S3150800BF1CBD4680BDA43D0020DC3D002080B400AFAA
S3150800BF2C064B00229A70054B06221A70044B012206
S3150800BF3C1A70BD465DF8047B704700BFA43D00200F
S3150800BF4CDC3D002080B582B000AF0346FB71104B78
S3150800BF5C00229A700E4B06221A700E4B01221A708A
S3150800BF6C0D4AFB791370FB79002B07D10B4B1B6819
S3150800BF7C002B0AD0094B1B68984706E0074B5B68F1
S3150800BF8C002B02D0054B5B6898470837BD4680BD29
S3150800BF9CA43D0020DC3D0020DD3D0020C4DB02086A
S3150800BFAC80B483B000AF78607B681B780A3B142B8F
S3150800BFBC6CD801A252F823F019C0000821C0000859
S3150800BFCC29C0000831C0000839C0000841C0000863
S3150800BFDC49C0000899C0000899C0000899C0000813
S3150800BFEC99C0000899C0000851C0000859C000083B
S3150800BFFC61C0000869C0000871C0000879C0000853
S3150800C00C81C0000889C0000891C000087B680B2213
S3150800C01C1A703CE07B680C221A7038E07B680D229B
S3150800C02C1A7034E07B680E221A7030E07B680F2297
S3150800C03C1A702CE07B6810221A7028E07B68112293
S3150800C04C1A7024E07B6817221A7020E07B68182285
S3150800C05C1A701CE07B6819221A7018E07B681A2281
S3150800C06C1A7014E07B681B221A7010E07B681C227D
S3150800C07C1A700CE07B681D221A7008E07B681E2279
S3150800C08C1A7004E07B681F221A7000E000BF0C3798
S3150800C09CBD465DF8047B704780B500AF164B9B799F
S3150800C0AC002B12D1154B1A69154B9968124B9B88A4
S3150800C0BC184603465B0003449B000B449B880733D6
S3150800C0CCDB08DB0013440D4A13610C4BDB68103B91
S3150800C0DC0A4AD360094B9B780133DAB2074B9A703C
S3150800C0EC064B9B78052B03D90120FFF72BFF02E0A3
S3150800C0FC024B06221A7080BDE03D0020A43D0020AC
S3150800C10CC4DB020880B500AF194B1A69194B99683C
S3150800C11C174BDB8B184603465B0003449B000B440A
S3150800C12C9B880733DB08DB001344114A1361104B59
S3150800C13CDB68103B0E4AD3600D4B9B780133DAB2A1
S3150800C14C0B4B9A700A4B9B78052B0DD90A4B1B780F
S3150800C15C012B02D00120FFF7F5FE054B20221A70A1
S3150800C16C054B01221A7002E0014B06221A7080BD9B
S3150800C17CA43D0020C4DB0208DC3D002080B582B05B
S3150800C18C00AFFFF715FE1DF0DFF80346012B1AD199
S3150800C19C0F4B9B7A0F4ADB0013445B68083B184627
S3150800C1AC0D4908221DF056F90346FB71FB79002B45
S3150800C1BC03D10A4B03221A7005E01DF0D1F8034689
S3150800C1CC1846FFF785FEFFF705FE0837BD4680BD06
S3150800C1DCE03D002094DB0208CC3D0020A43D002065
S3150800C1EC80B582B000AF0F4B00229A720023FB80F9
S3150800C1FC09E0FB880C4A9B0013444FF0FF325A6047
S3150800C20CFB880133FB80FB88012BF2D9064B0222F3
S3150800C21C1A70054B00225A70FFF7B0FF0837BD4657
S3150800C22C80BD00BFE03D0020A43D002080B584B051
S3150800C23C00AFFFF715FE0346012B40F0E8800023FC
S3150800C24CFB731DF08DF80346BB71BB79002B1ED111
S3150800C25C704B1B68704A934219D16E4B1B79002B95
S3150800C26C15D06C4B5B79002B11D06A4B1B791A468F
S3150800C27C684B5B79DB43DBB29A4208D1674B9B7AF6
S3150800C28C1946644B1A79654B0B441A7215E0BB793F
S3150800C29C002B02D0BB79042B07D1604B9B7A1A462C
S3150800C2AC5E4B134400221A7207E01DF059F8034638
S3150800C2BC1846FFF70DFE0123FB73FB7B002B40F0A2
S3150800C2CCA680564B9B7A0133DAB2544B9A72534B6F
S3150800C2DC9B7A012B05D8524B02221A70FFF74EFF98
S3150800C2EC95E00023BB7300237B730023BB600023FC
S3150800C2FCFB7120E0FB79494A13441B7A002B17D0B3
S3150800C30CFB79464A13441A7A7B7BD31A7B71BB6832
S3150800C31C002B03D07B795BB2002B06DAFB79BB7357
S3150800C32CFB793E4A13441B7A7B73BB680133BB60AB
S3150800C33CFB790133FB71FB79012BDBD9BB68012B2C
S3150800C34C07D8374B5B7843F00403DAB2344B5A7090
S3150800C35C20E0334ABB7B82F82430BB7B002B02D00F
S3150800C36CBB7B013B00E001232C4A13441B7AFE2BB2
S3150800C37C0CD0BB7B002B02D0BB7B013B00E001231E
S3150800C38C264A13441B7A0133DBB200E00123244A04
S3150800C39C82F82530BB68002B1BD1214B012283F870
S3150800C3AC25201F4B002283F824201D4B002283F8DE
S3150800C3BC20201B4B00221A751A4B183B184AD360BF
S3150800C3CC194A174B1A61FFF7A9FD154B12221A7059
S3150800C3DC1DE0124ABB7B9372104ABB7BD3720F4B80
S3150800C3EC9B7A124ADB0013445B68183B0B4A1360B2
S3150800C3FC0A4B9B7A1A460D4B53F83230074A536050
S3150800C40C074B04221A70064ABB7B82F82030103779
S3150800C41CBD4680BDCC3D0020BEBA4523E03D00207C
S3150800C42CA43D0020008803080080030894DB02085A
S3150800C43C80B582B000AFFFF7BBFC1CF085FF034646
S3150800C44C012B1AD10F48FF2110221FF035FA0E4B7B
S3150800C45C1B6818460B4910221CF0FCFF0346FB719F
S3150800C46CFB79002B03D1094B05221A7005E01CF049
S3150800C47C77FF03461846FFF72BFDFFF7ABFC08378B
S3150800C48CBD4680BDCC3D0020E03D0020A43D0020EB
S3150800C49C80B582B000AF634B1A68624B9B7A6249CF
S3150800C4ACDB000B445B68183B9A427CD05D4B9A7A4E
S3150800C4BC5E4B1A755B4B1B685C4AD360594B5B68C1
S3150800C4CC5A4A1361594B1A7D564BDB7A9A4209D054
S3150800C4DC564B5B7843F01003DAB2544B5A70534BF5
S3150800C4EC0022DA834F4B9B7AFB714E4B9B7A002BBF
S3150800C4FC04D14C4B9B7A0133DBB200E00023494A4A
S3150800C50C9372484B9A7A474BDB7A9A4212D1474B2D
S3150800C51CDA68464B1B69D21A444B9B699A4206D277
S3150800C52C424B5B7843F00803DAB2404B5A70FFF77C
S3150800C53CF5FC37E03B4B9B7A1A463A4B13441B7A6D
S3150800C54C002B18D1FB79374A13441B7AFE2B06D0DD
S3150800C55CFB79344A13441B7A0133DBB200E001231E
S3150800C56C324A82F825302F4B9A7A304B83F824209E
S3150800C57CFFF7D4FC16E02B4B9B7A2B4ADB001344B3
S3150800C58C5B68183B274A1360264B9B7A1A46264B40
S3150800C59C53F83230234A5360244B04221A70FFF79F
S3150800C5AC47FF3CE03BE01F4B9A7A1E4BDB7A9A42DC
S3150800C5BC0BD11C4B9A7A1D4B1A751A4B1B681B4AC6
S3150800C5CCD360184B5B68194A1361184B5B7803F0F8
S3150800C5DC0403002B21D0134B9B7A1A46114B134498
S3150800C5EC1B7AFE2B08D00F4B9B7A1A460D4B13441D
S3150800C5FC1B7A0133DBB200E001230C4A82F82530A2
S3150800C60C084B9B7A002B04D1064B9B7A0133DBB281
S3150800C61C00E00023054A82F82430FFF77FFC083730
S3150800C62CBD4680BDE03D002094DB0208A43D0020F9
S3150800C63C80B582B000AFFFF713FC0346012B40F020
S3150800C64CAF801CF08DFE0346FB71FB79002B03D0E3
S3150800C65CFB79042B40F0A080534B1A88524B5B880D
S3150800C66CDB439BB29A4274D14F4B5B6813F1030FB1
S3150800C67C1ED04D4B5A684D4B5B689A4269D34A4B50
S3150800C68C5A684A4B1B689A4263D2474B5A68464BC0
S3150800C69C5B680733DB08DB009A425AD1424B1B888E
S3150800C6AC1A46414B5B681A44404B1B689A4250D851
S3150800C6BC3D4B9B891846FFF7A7FB0346BB80FB79C6
S3150800C6CC002B23D1BB88012B20D8374B9B68384AC3
S3150800C6DC93421BD1344B9A89334BDB89DB439BB290
S3150800C6EC9A4213D1334B9968BA8813465B001344A4
S3150800C6FC9B000B449A882C4B1B889A4206D1BB8804
S3150800C70C294A52682C499B000B445A60264B5B6895
S3150800C71C13F1030F09D0244B1B880733DB08DA0007
S3150800C72C214B5B681344214A5360204B1B68103B12
S3150800C73C1E4A13601D4B1A681C4B5B689A4205D33C
S3150800C74C1D4B04221A70FFF773FE24E0FFF7A0FEB8
S3150800C75C21E0FB79002B0AD11348FF211022FFF7A1
S3150800C76C91FB0346002B02D1FFF792FE13E00F4B09
S3150800C77C1B68103B0D4A13600C4B1A680B4B5B6815
S3150800C78C9A4205D30C4B04221A70FFF751FE02E0AD
S3150800C79CFFF77EFE04E003E0FB791846FFF798FBEB
S3150800C7AC0837BD4680BD00BFCC3D0020E03D0020CB
S3150800C7BCBEBABAEBC4DB0208A43D002080B582B031
S3150800C7CC00AF2F4B9B882F4A9B0013445B687B60FA
S3150800C7DC7B6813F1030F0AD12A4B5B7823F001030C
S3150800C7ECDAB2284B5A700520FFF7ACFB44E07B689D
S3150800C7FCB3F1FF3F0AD1234B5B7823F00103DAB27E
S3150800C80C204B5A700420FFF79DFB35E0FFF7D0FA52
S3150800C81C1CF09AFD0346012B2CD1194B9B88194AFF
S3150800C82C9B0013445B68164A12899918144B1A68AC
S3150800C83C134BDB88084611461A461CF00BFE0346BA
S3150800C84CFB70FB78002B03D10E4B08221A7011E0F3
S3150800C85C0B4B9B880B4A9B0013444FF0FF325A60D4
S3150800C86C084B5B7823F00103DAB2064B5A700420A6
S3150800C87CFFF768FBFFF7AEFA0837BD4680BD00BF69
S3150800C88CE03D0020A43D002080B582B000AFFFF744
S3150800C89CE7FA0346012B14D11CF062FD0346FB7123
S3150800C8AC094B5B7823F00103DAB2074B5A70FB7914
S3150800C8BC002B03D10020FFF745FB02E00420FFF70D
S3150800C8CC41FB0837BD4680BDA43D002080B582B02B
S3150800C8DC00AFFFF76DFA1CF037FD0346012B11D19B
S3150800C8EC0B4BDB6818460B4908221CF0BBFC0346AD
S3150800C8FCFB71FB79002B03D10548FFF751FB01E0CF
S3150800C90CFFF7CAFBFFF766FA0837BD4680BD00BFBE
S3150800C91CA43D0020CC3D002080B500AF124B9B797E
S3150800C92C002B04D0114B6FF002025A6003E0104B37
S3150800C93C1B690E4A53600F4B9A680B4B9B8819461A
S3150800C94C0B465B000B449B0013449A88074B1A80D2
S3150800C95C064B1B88DB439AB2044B5A80044B0A22BB
S3150800C96C1A70FFF7B3FF80BDE03D0020CC3D0020D8
S3150800C97CA43D0020C4DB020890B583B000AFFFF7D6
S3150800C98C17FA1CF0E1FC0346012B20D1124B18694F
S3150800C99C124B1C68124B9A68104B9B8819460B460F
S3150800C9AC5B000B449B0013449B880733DB08DB00B6
S3150800C9BC21461A461CF056FC0346FB71FB79002BE4
S3150800C9CC03D1054B0D221A7001E0FFF765FBFFF743
S3150800C9DC01FA0C37BD4690BDA43D0020E03D002071
S3150800C9ECC4DB020880B582B000AFFFF7E1F91CF092
S3150800C9FCABFC0346012B12D10B4BDB6808331846EC
S3150800CA0C0A4908221CF02EFC0346FB71FB79002B05
S3150800CA1C03D10548FFF7C4FA01E0FFF73DFBFFF722
S3150800CA2CD9F90837BD4680BDA43D0020D43D002069
S3150800CA3C80B582B000AFFFF713FA0346012B2DD150
S3150800CA4C1CF08EFC0346FB71FB79002B24D1154B8D
S3150800CA5C9A68154B9B8819460B465B000B449B0042
S3150800CA6C13445A88114B9A810E4B9A680E4B9B8825
S3150800CA7C19460B465B000B449B0013445B88DB434F
S3150800CA8C9AB20A4BDA810A4A084B9A60094B0E226B
S3150800CA9C1A70FFF7A7FF01E0FFF7FEFA0837BD4645
S3150800CAAC80BD00BFC4DB0208E03D0020CC3D002061
S3150800CABCBEBABAEBA43D002080B582B000AFFFF732
S3150800CACC77F91CF041FC0346012B11D10B4BDB68A3
S3150800CADC18460B4910221CF0BDFC0346FB71FB796A
S3150800CAEC002B03D10548FFF75BFA01E0FFF7D4FAF0
S3150800CAFCFFF770F90837BD4680BD00BFA43D00207E
S3150800CB0CCC3D002080B582B000AFFFF7A9F90346EB
S3150800CB1C012B21D11CF024FC0346FB71FB79002B5D
S3150800CB2C0FD10F4B9B79002B05D00E4B0D221A708B
S3150800CB3CFFF77EFF10E00B4B0C221A70FFF71CFF59
S3150800CB4C0AE009486FF0FF0110221EF0B5FE054BEE
S3150800CB5C10221A70FFF7B0FF0837BD4680BD00BF1C
S3150800CB6CE03D0020A43D0020CC3D002080B582B0DD
S3150800CB7C00AFFFF775F90346012B4CD11CF0F0FBFF
S3150800CB8C0346FB71FB79002B20D1244B9B79002B98
S3150800CB9C08D0224B9B88224A9B0013446FF0020252
S3150800CBAC5A6008E01D4B9B8818461D4B1A691C4990
S3150800CBBC83000B445A601A4B5B7823F00203DAB2F3
S3150800CBCC174B5A700020FFF7BDF908E0144B0622E4
S3150800CBDC1A70134B9B780133DAB2114B9A700F4BC0
S3150800CBEC9B79002B12D10E4B1A690E4B99680B4B7D
S3150800CBFC9B88184603465B0003449B000B449B88A2
S3150800CC0C0733DB08DB001344054A1361044BDB6866
S3150800CC1C103B034AD3600837BD4680BDE03D002073
S3150800CC2CA43D0020C4DB020880B582B000AFFFF734
S3150800CC3C17F90346012B14D11CF092FB0346FB7122
S3150800CC4CFB79002B0BD10848FF211022FFF71AF9A4
S3150800CC5C0346002B03D1054B06221A7001E0FFF799
S3150800CC6C1BFA0837BD4680BDCC3D0020A43D0020EC
S3150800CC7C80B582B000AFFFF79BF81CF065FB034646
S3150800CC8C012B2BD1184B93F824301A46174B53F813
S3150800CC9C3210154B93F82430144ADB0013445A68A7
S3150800CCAC114B93F824301846104B53F83030D31ADE
S3150800CCBC084619461CF080FA0346FB71FB79002BD3
S3150800CCCC03D1094B13221A7008E0074B06221A7077
S3150800CCDC054B9B780133DAB2034B9A70FFF77AF857
S3150800CCEC0837BD4680BD00BFA43D002094DB020872
S3150800CCFC80B582B000AFFFF75BF81CF025FB034646
S3150800CD0C012B1ED1114B93F82430114ADB00134426
S3150800CD1C5B68083B18460F4908221CF0A3FA034621
S3150800CD2CFB71FB79002B03D1084B15221A7008E00E
S3150800CD3C064B06221A70054B9B780133DAB2034B65
S3150800CD4C9A70FFF747F80837BD4680BDA43D00200A
S3150800CD5C94DB0208CC3D002080B582B000AFFFF70B
S3150800CD6C7FF80346012B23D11CF0FAFA0346FB7114
S3150800CD7CFB79002B13D1104B93F825200F4B1A7106
S3150800CD8C0E4B1B79DB43DAB20C4B5A710C4A0B4B24
S3150800CD9C1A60094B14221A70FFF7AAFF08E0064B13
S3150800CDAC06221A70044B9B780133DAB2024B9A703E
S3150800CDBC0837BD4680BD00BFA43D0020CC3D0020F1
S3150800CDCCBEBA452380B582B000AFFFF749F80346D3
S3150800CDDC012B4FD11CF0C4FA0346FB71FB79002BCF
S3150800CDEC30D1264B93F82530FE2B05D0234B93F8E0
S3150800CDFC25300133DBB200E00123204A82F82530C6
S3150800CE0C1E4B93F82430002B05D11C4B93F8243079
S3150800CE1C0133DBB200E00023184A82F82430174BA2
S3150800CE2C93F82020154B93F824309A4206D1134BCD
S3150800CE3C5B7823F00403DAB2104B5A700F4B0622B8
S3150800CE4C1A7017E00D4B9B780133DAB20B4B9A70BC
S3150800CE5C0A4B9B78052B0AD9084B20221A70084BCB
S3150800CE6C1B78012B06D00120FFF76CF802E0034B68
S3150800CE7C12221A700837BD4680BD00BFA43D00209B
S3150800CE8CDC3D002080B500AF154BDB8B144A9B00AC
S3150800CE9C13445B6813F1030F04D1124B6FF00202B3
S3150800CEAC5A6003E00E4B1B690E4A53600E4B9A6888
S3150800CEBC0B4BDB8B19460B465B000B449B00134450
S3150800CECC9A88084B1A80074B1B88DB439AB2054B8A
S3150800CEDC5A80034B16221A70FFF7F8FC80BD00BF68
S3150800CEECA43D0020CC3D0020C4DB020880B582B0EE
S3150800CEFC00AF244B9A68244BDB8B19460B465B0018
S3150800CF0C0B449B0013449A881F4B9B8BD31AFB80AC
S3150800CF1CFB88102B28BF1023FB80FEF749FF1CF05B
S3150800CF2C13FA0346012B27D1174BDB8B164A9B00AA
S3150800CF3C13445B68144A928B1A44FB8810461349AF
S3150800CF4C1A461CF087FA03467B717B79002B03D1B2
S3150800CF5C0D48FFF725F80FE00B4BDB8B0A4A9B00B5
S3150800CF6C13444FF0FF325A60074BDB8B01339AB2EE
S3150800CF7C054BDA83FFF7C6F8FEF72CFF0837BD46D4
S3150800CF8C80BD00BFC4DB0208A43D0020CC3D0020B8
S3150800CF9C80B582B000AFFEF70BFF1CF0D5F903463F
S3150800CFAC012B11D10B4BDB6818460B4910221CF0D0
S3150800CFBC51FA0346FB71FB79002B03D10548FEF7A2
S3150800CFCCEFFF01E0FFF79EF8FEF704FF0837BD46B2
S3150800CFDC80BD00BFA43D0020CC3D002080B582B0AA
S3150800CFEC00AFFEF73DFF0346012B48D11CF0B8F9FC
S3150800CFFC0346FB71FB79002B36D1224BDB8B214A7E
S3150800D00C9B0013445B6813F1030F24D11E4B9A68DB
S3150800D01C1C4BDB8B19460B465B000B449B001344DD
S3150800D02C5A881A4B9A81184B9A68164BDB8B1946F9
S3150800D03C0B465B000B449B0013445B88DB439AB29C
S3150800D04C124BDA81124A114B9A600E4B1C221A703B
S3150800D05CFFF7C8FC13E00B4B00229A83094B1822E6
S3150800D06C1A70FFF743FF0AE008486FF0FF01102219
S3150800D07C1EF022FC034B1E221A70FFF789FF083795
S3150800D08CBD4680BDA43D0020C4DB0208CC3D002073
S3150800D09CBEBABAEB80B582B000AFFEF789FE1CF0BB
S3150800D0AC53F90346012B37D11E4B9A681E4BDB8B63
S3150800D0BC19460B465B000B449B0013449A881A4B83
S3150800D0CC9B8BD31AFB80FB88102B06D8FB8807335F
S3150800D0DCDB089BB2DB009BB200E01023FB80124BF3
S3150800D0EC1B69114A928B1A44FB8810460F491A463B
S3150800D0FC1CF0B8F803467B717B79002B0AD10A4BD6
S3150800D10C9A8BFB8813449AB2074B9A830648FEF708
S3150800D11C47FF01E0FEF7F6FFFEF75CFE0837BD4653
S3150800D12C80BD00BFC4DB0208A43D0020CC3D002016
S3150800D13C80B582B000AFFEF793FE0346012B1CD1D7
S3150800D14C1CF00EF90346FB71FB79002B05D10C4B31
S3150800D15C1A221A70FFF79EFF0FE0094BDB8B084A61
S3150800D16C9B0013444FF0FF325A60054BDB8B01339F
S3150800D17C9AB2034BDA83FEF7C5FF0837BD4680BD66
S3150800D18CA43D002080B582B000AFFEF769FE0346C9
S3150800D19C012B42D11CF0E4F80346FB71FB79002BFA
S3150800D1AC39D11F4B9A8B1F4B99681D4BDB8B184635
S3150800D1BC03465B0003449B000B449B889A4224D38A
S3150800D1CC184B9A68164BDB8B19460B465B000B44BF
S3150800D1DC9B0013445A88144B9A81124B9A68104B2D
S3150800D1ECDB8B19460B465B000B449B0013445B8890
S3150800D1FCDB439AB20C4BDA810C4A0B4B9A60084B00
S3150800D20C1C221A70FFF7EEFB07E0054B18221A7062
S3150800D21CFFF76CFE01E0FEF775FF0837BD4680BDCB
S3150800D22CA43D0020C4DB0208CC3D0020BEBABAEBF4
S3150800D23C80B582B000AFFEF713FE0346012B3CD136
S3150800D24C1CF08EF80346FB71FB79002B33D11C4B73
S3150800D25CDB8B1B4A9B0013445B6813F1030F1BD033
S3150800D26C174BDB8B1846164B1A69154983000B446A
S3150800D27C5A60134B1A69134B9968114BDB8B18467A
S3150800D28C03465B0003449B000B449B880733DB086F
S3150800D29CDB0013440A4A1361094BDB68103B084A46
S3150800D2ACD360074BDB8B01339AB2054BDA83044BFD
S3150800D2BC06221A7001E0FEF725FF0837BD4680BD29
S3150800D2CCA43D0020C4DB020880B582B000AFFEF78F
S3150800D2DCC7FD0346012B1AD11CF042F80346FB7115
S3150800D2ECFB79002B11D10B48FF211022FEF7CAFD42
S3150800D2FC0346002B09D1084B9B780133DAB2064B4F
S3150800D30C9A70054B06221A7001E0FEF7FBFE0837E9
S3150800D31CBD4680BDCC3D0020A43D002080B588B01C
S3150800D32C00AF0023FB77A24B5B7803F00103002BBD
S3150800D33C05D09F4B07221A70FFF740FAF4E19C4B75
S3150800D34C5B7803F00203002B00F0B180984B5B78F6
S3150800D35C03F00803002B23D0964B9B79012B1FD087
S3150800D36C944B9B88924A9B0013445A68904B93F8AB
S3150800D37C20301946904B53F831309A42C0F09780BA
S3150800D38C8C4B9B888A4A9B0013445A68884B93F8A3
S3150800D39C20308949DB000B445B689A4280F0878011
S3150800D3AC834B1B7D002B04D1814B1B7D0133DBB2D8
S3150800D3BC00E00023BB777E4BDA687D4B1B69D31ADA
S3150800D3CCBB617C4B9B79012B0BD07C4B9A68794BB8
S3150800D3DC9B8819460B465B000B449B0013449B88A1
S3150800D3EC00E000237B61724B9B691A467B691344E8
S3150800D3FC10333B616E4B5B7803F00803002B11D19D
S3150800D40CBA693B699A420DDA694B93F82030BA7FB0
S3150800D41C9A4207D1664B5B7843F00803DAB2644B41
S3150800D42C5A7043E0BA697B699A4239DA604B93F8C9
S3150800D43C2030BA7F9A4208D15E4B9B885C4A9B0087
S3150800D44C13444FF0FF325A6030E0594B93F82430AE
S3150800D45CBA7F9A4203D1564B12221A7026E0544AC6
S3150800D46CBB7F1375524B1B7D534ADB0013445B6819
S3150800D47C183B4F4AD3604E4B1B7D1A464E4B53F8FE
S3150800D48C32304B4A13614A4B5B7843F01003DAB2DD
S3150800D49C474B5A70464B09221A70FFF73DFA43E17F
S3150800D4AC434B09221A70FFF737FA3DE13CE1404B32
S3150800D4BC5B7803F00403002B03D03D4B12221A7041
S3150800D4CC32E13B4B5B7803F00803002B00F0AB8092
S3150800D4DC05E0374BDB8B01339AB2354BDA83344B89
S3150800D4ECDB8B012B2FD8324BDB8B314A9B00134439
S3150800D4FC5B68B3F1FF3FECD02D4BDB8B2C4A9B00C2
S3150800D50C13445B6813F1030F1DD0294BDB8B284A98
S3150800D51C9B0013445A68264B93F820301946264B21
S3150800D52C53F831309A42D4D3214BDB8B204A9B00DB
S3150800D53C13445A681E4B93F820301F49DB000B44E2
S3150800D54C5B689A42C5D21A4BDB8B012B38D9184B20
S3150800D55C93F82030002B05D1154B93F82030013366
S3150800D56CDBB200E00023124A82F82030104B00226E
S3150800D57CDA830F4B93F820200D4B1B7D9A4207D16B
S3150800D58C0B4B5B7823F01803DAB2094B5A7006E09A
S3150800D59C074B5B7823F00803DAB2054B5A70044B39
S3150800D5AC5B7843F00403DAB2014B5A70BCE000BF57
S3150800D5BCA43D0020E03D002094DB0208C4DB0208F1
S3150800D5CC5B4BDA685A4B1B69D31AFB60584BDB8BDF
S3150800D5DC574A9B0013445B6813F1030F0BD0554B4A
S3150800D5EC9A68534BDB8B19460B465B000B449B0026
S3150800D5FC13449B8800E00023BB60BA68FB689A4218
S3150800D60C0EDD4B4BDB8B4A4A9B0013444FF0FF3223
S3150800D61C5A60474BDB8B01339AB2454BDA8383E06E
S3150800D62CFFF730FC80E0424B5B7803F01003002BCD
S3150800D63C7AD047E03E4BDB8B3D4A9B0013445B6834
S3150800D64C13F1030F17D13A4BDA68394B1B69D31A06
S3150800D65C7B6000233B603A687B689A4206DD344B54
S3150800D66CDB8B01339AB2324BDA8303E0FFF70AFC01
S3150800D67C0123FB7726E02E4BDB8B2D4A9B001344AC
S3150800D68C5A682B4B93F8203019462B4B53F83130EC
S3150800D69C9A4211D3264BDB8B254A9B0013445A68B6
S3150800D6AC234B93F820302449DB000B445B689A42E1
S3150800D6BC02D20123FB7705E01D4BDB8B01339AB2B3
S3150800D6CC1B4BDA831A4BDB8B012B02D8FB7F002B07
S3150800D6DCB0D0174BDB8B012B26D9154B93F8203082
S3150800D6EC002B05D1124B93F820300133DBB200E046
S3150800D6FC00230F4A82F820300D4B0022DA830C4B9C
S3150800D70C93F820200A4B1B7D9A4206D1084B5B786E
S3150800D71C23F01003DAB2064B5A70054B5B7843F0CC
S3150800D72C0403DAB2024B5A702037BD4680BD00BFDF
S3150800D73CA43D0020C4DB020894DB020880B582B045
S3150800D74C00AF184B03221A70174B00221A70174891
S3150800D75C00210C221EF0B0F81548002128221EF0D4
S3150800D76CABF8134B01221A700023FB8014E0104B04
S3150800D77C9969104B9868FA8813465B0013449B000A
S3150800D78C03449B880733DB080233DB000B44084A47
S3150800D79C9361FB880133FB80FB88012BE7D908379B
S3150800D7ACBD4680BDDC3D0020DD3D0020E03D00206F
S3150800D7BCA43D0020C4DB020880B586B000AFBA6071
S3150800D7CC1A460346FB810B46BB811346FB80002396
S3150800D7DCFB75444B1B78002B07D115200021022220
S3150800D7EC012301F0BFFA012378E03F4B1B78202B6D
S3150800D7FC02D10123FB7570E03A4B1B78012B0DD037
S3150800D80C384B1B78032B01D1072300E00623152080
S3150800D81C0021022201F0A6FA01235FE0FB891846D3
S3150800D82CFEF7F2FA0346BB82BB8A012B07D91520F1
S3150800D83C00210222022301F095FA01234EE0BB686F
S3150800D84C002B07D1152000210222042301F08AFAA5
S3150800D85C012343E0254B9968BA8A13465B001344A7
S3150800D86C9B000B449B88BA899A4207D31520002142
S3150800D87C0222032301F076FA01232FE0BA89FB88EA
S3150800D88CD1181A4B9868BA8A13465B0013449B0046
S3150800D89C03449B88994207DD1520002102220523A3
S3150800D8AC01F060FA012319E00E4B02221A70104B94
S3150800D8BC02221A700F4ABB8A93800E4ABB891381BF
S3150800D8CC0C4ABB6813600B4AFB88D380064B5B7803
S3150800D8DC43F00103DAB2044B5A70FB7D184618372D
S3150800D8ECBD4680BDDC3D0020A43D0020C4DB0208FB
S3150800D8FCDD3D0020E03D002080B584B000AF034636
S3150800D90C3960FB800023FB732D4B1B78002B07D14A
S3150800D91C152000210322012301F024FA01234BE0F0
S3150800D92C284B1B78202B02D10123FB7343E0244B95
S3150800D93C1B78012B0DD0224B1B78032B01D1072307
S3150800D94C00E0062315200021032201F00BFA01231F
S3150800D95C32E0FB881846FEF757FA0346BB81BB89AB
S3150800D96C012B07D9152000210322022301F0FAF90D
S3150800D97C012321E03B68002B07D115200021032247
S3150800D98C042301F0EFF9012316E00D4B02221A705D
S3150800D99C0D4B02221A700D4ABB8993800B4A3B68C1
S3150800D9AC13600A4B00229A71064B5B7843F002030C
S3150800D9BCDAB2044B5A70FB7B18461037BD4680BD4D
S3150800D9CCDC3D0020A43D0020DD3D0020E03D00208C
S3150800D9DC80B400AF034B1B781846BD465DF8047B34
S3150800D9EC704700BFDC3D002080B500AF074B1B78A5
S3150800D9FC002B07D1152000210622012301F0B2F9CC
S3150800DA0C012301E0024B1B78184680BDDC3D002043
S3150800DA1CDD3D002080B584B000AF0346FB800023B3
S3150800DA2CFB73274B1B78002B07D1152000210722E7
S3150800DA3C012301F097F901233DE0224B1B78202B9B
S3150800DA4C02D10123FB7335E01D4B1B78012B0DD03E
S3150800DA5C1B4B1B78032B01D1072300E0062315204B
S3150800DA6C0021072201F07EF9012324E0FB881846E1
S3150800DA7CFEF7CAF90346BB81BB89012B07D91520CA
S3150800DA8C00210722022301F06DF9012313E00C4B48
S3150800DA9C02221A700C4B02221A700C4ABB8993800C
S3150800DAAC0A4B01229A71074B5B7843F00203DAB2F0
S3150800DABC044B5A70FB7B18461037BD4680BD00BF19
S3150800DACCDC3D0020A43D0020DD3D0020E03D00208B
S3150800DADC80B500AF544B1B78202B00F2A28001A214
S3150800DAEC52F823F02FDC00087BDB000881DB0008EA
S3150800DAFC87DB00088DDB000893DB000875DB000864
S3150800DB0C99DB00089FDB0008A5DB0008ABDB0008E7
S3150800DB1CB1DB0008B7DB0008BDDB0008C3DB000877
S3150800DB2CC9DB0008CFDB0008D5DB0008DBDB000807
S3150800DB3CE1DB0008E7DB0008EDDB0008F3DB000897
S3150800DB4CF9DB0008FFDB000805DC00080BDC000825
S3150800DB5C11DC000817DC00081DDC000823DC0008B3
S3150800DB6C29DC00082FDC0008FFF7D8FB5AE0FEF783
S3150800DB7C37FB57E0FEF702FB54E0FEF757FB51E084
S3150800DB8CFEF756FC4EE0FEF753FD4BE0FEF716FE8D
S3150800DB9C48E0FEF779FE45E0FEF7BEFE42E0FEF7EA
S3150800DBAC95FE3FE0FEF7AEFF3CE0FEF7E5FE39E0FA
S3150800DBBCFEF73EFF36E0FEF715FF33E0FEF7D6FF1D
S3150800DBCC30E0FEF779FF2DE0FFF72EF82AE0FFF795
S3150800DBDC4FF827E0FFF7C0F824E0FFF789F821E0B3
S3150800DBECFFF7F0F81EE0FEF771FE1BE0FFF7F6F9FB
S3150800DBFC18E0FFF77BF915E0FFF79AFA12E0FFF742
S3150800DC0C49FA0FE0FFF7BEFA0CE0FEF7EBFE09E067
S3150800DC1CFFF70EFB06E0FFF7BBF903E0FFF754FB33
S3150800DC2C00E000BF80BD00BFA43D002080B582B0D7
S3150800DC3C00AF0346FB71FB791846F3F775FA0346F2
S3150800DC4C18460837BD4680BD80B586B000AF7860EB
S3150800DC5C01237B7500233B757B68002B06D10D20B1
S3150800DC6C00210022142301F07DF884E0434B1B7A33
S3150800DC7C012B06D10D20002100221A2301F072F87F
S3150800DC8C79E03E4A7B6813603C4B3D4A5A603B4BF5
S3150800DC9C1B689A69394B1B681B7D19460B465B003A
S3150800DCAC0B44DB0013443B617B7D012B63D10023C2
S3150800DCBCFB8206E0FB8A184600F0AAFFFB8A0133B2
S3150800DCCCFB822E4B1B689B88FA8A9A42F2D3002356
S3150800DCDCFB821EE03B699968FA8A13469B0013443B
S3150800DCEC9B000B441B88FB81244B5B681968FA89DB
S3150800DCFC13469B0013445B000B44BB60BB680022B5
S3150800DD0C1A70FB89B868194600F03CFCFB8A01338B
S3150800DD1CFB823B699B89FA8A9A42DBD3174B5B6871
S3150800DD2C9A683B691B78DB001344184600F0ACFD77
S3150800DD3C124B00225A7200F05FFC104B00225A74E8
S3150800DD4C104B00221A80104B00221A800B4A3B6992
S3150800DD5CD3600A4B00221A74084B1B685B8A386915
S3150800DD6C194600F015FA03463B753B7D002B02D18C
S3150800DD7C024B01221A721837BD4680BDD801002005
S3150800DD8C1C020020EE3D0020EC3D002080B588B03A
S3150800DD9C00AF0346FB710023FB770123FB75524B3F
S3150800DDAC1B7A002B07D10D2000210322102300F02B
S3150800DDBCD9FF012393E04C4B1B681B7FFA799A42D7
S3150800DDCC07D30D2000210322122300F0CBFF0123D9
S3150800DDDC85E0FB7D012B7FD1434B5B7A002B03D06F
S3150800DDEC414B5B7A012B79D13F4B1B689969FA79C0
S3150800DDFC13465B001344DB000B443B610023BB83D7
S3150800DE0C00237B8340E03B699B897A8B9A420AD232
S3150800DE1C3B6999687A8B13469B0013449B000B4409
S3150800DE2C1B883B8303E0304B1B689B883B8306E0CF
S3150800DE3CBB8B184600F0ECFEBB8B0133BB83BA8B4D
S3150800DE4C3B8B9A42F4D33B699B897A8B9A4218D2BC
S3150800DE5C254B5B681968BA8B13469B0013445B0009
S3150800DE6C0B44FB60FB681B78042B07D1FB6800226C
S3150800DE7C1A70BB8BF868194600F084FBBB8B013310
S3150800DE8CBB837B8B01337B833B699B897A8B9A4259
S3150800DE9CB9D9154B5B689A68134BDB681B78DB00A2
S3150800DEAC1344184600F0F0FC0F4B1B685B8A7B8109
S3150800DEBC7B89184600F024F90346FB77FB7F002B79
S3150800DECC06D17B893869194600F062F90346FB7757
S3150800DEDC054A3B69D36001E00123FB77FB7F1846B3
S3150800DEEC2037BD4680BD00BFD801002080B588B05C
S3150800DEFC00AF03460A46FB801346BB805B4B1B7A76
S3150800DF0C002B07D10D2000210E22102300F02AFF2A
S3150800DF1C0123A7E0554B1B689B88FA889A4207D3BE
S3150800DF2C0D2000210E22132300F01CFF012399E07B
S3150800DF3C0123FB774D4B1B681968FA8813469B001F
S3150800DF4C1344DB000B443B61484B5B681968FA8841
S3150800DF5C13469B0013445B000B44FB603B691B890F
S3150800DF6CBA889A4207D30D2000210E22162300F0F8
S3150800DF7CF9FE012376E0FB681B78042B6BD0002393
S3150800DF8CBB6100237B610023BB8327E0374BDB682F
S3150800DF9C9968BA8B13469B0013449B000B441B8849
S3150800DFACFA889A4217D1314BDB689968BA8B1346B3
S3150800DFBC9B0013449B000B44BB612C4B5B689A6813
S3150800DFCC2A4BDB681B78DB0013441A68BB8B1B01D6
S3150800DFDC13447B6108E0BB8B0133BB83234BDB68A3
S3150800DFEC9B89BA8B9A42D1D3BB69002B07D10D20DA
S3150800DFFC00210E22132300F0B5FE012332E07B69C3
S3150800E00C002B07D10D2000210E22132300F0AAFEA7
S3150800E01C012327E0BB88B86979691A4600F08AFC9F
S3150800E02CBB88B86979691A4600F0B6FC03461A46E5
S3150800E03CFB689A70BB699B78012B09D1BB88386938
S3150800E04CF9681A4600F0C0FD03461A46FB68DA70F2
S3150800E05C0023FB7705E00D2000210E22192300F082
S3150800E06C81FEFB7F18462037BD4680BDD8010020AF
S3150800E07C80B582B000AF204B1B7A002B06D10D2041
S3150800E08C00210822102300F06DFE31E000F0E8F8BC
S3150800E09C00F06CFB0023FB7124E0174BDB681A6954
S3150800E0ACFB799B0013449B78002B18D0124B5B7A98
S3150800E0BC032B07D0104BDB681A69FB799B001344BA
S3150800E0CC1B8800E00023BB800B4B1B7C002B06D166
S3150800E0DC0A4B5B685B685B68BA8810469847FB799D
S3150800E0EC0133FB71044BDB681B7DFA799A42D4D356
S3150800E0FC0837BD4680BD00BFD80100203CDC0208AD
S3150800E10C80B584B000AF0346FB800023BB730023A5
S3150800E11CFB732AE01C4B1B689A681B4BDB68196956
S3150800E12CFB7B9B000B44DB785B0013445B787B73AF
S3150800E13C164B5B685B689B680020984703463B73E5
S3150800E14C3B7B002B0ED0104B03225A7200F054FA6C
S3150800E15CFB88002B04D0FB88184601210BF0D8FD50
S3150800E16C0123BB73FB7B0133FB73074BDB681B7DFE
S3150800E17CFA7B9A4202D2BB7B002BCBD0BB7B1846D0
S3150800E18C1037BD4680BD00BFD80100203CDC020814
S3150800E19C80B584B000AF78600B467B800023BB73D8
S3150800E1AC0023FB734AE02C4B1B689A687B68196939
S3150800E1BCFB7B9B000B44DB785B0013445B787B731F
S3150800E1CC264B5B685B689B687A681169FA7B9200D8
S3150800E1DC0A4492781046984703463B733B7B002BC0
S3150800E1EC17D17B681A69FB7B9B0013449B78002B21
S3150800E1FC0FD0194B1B7C002B0BD1184B5B685B683B
S3150800E20C5B687A681169FA7B92000A441288104690
S3150800E21C98473B7B002B0ED00F4B03225A7200F00B
S3150800E22CEBF97B88002B04D07B88184601210BF070
S3150800E23C6FFD0123BB73FB7B0133FB737B681B7D73
S3150800E24CFA7B9A4202D2BB7B002BACD0BB7B18461E
S3150800E25C1037BD4680BD00BFD80100203CDC020843
S3150800E26C80B588B000AF0023FB835BE0324BDB68DC
S3150800E27C9968FA8B13469B0013449B000B447B61ED
S3150800E28C2D4B5B681A687B691B8819460B469B00E5
S3150800E29C0B445B0013443B6101237B7700233B77DC
S3150800E2AC00237B8330E07B695A687B8BDB00134445
S3150800E2BCFB60214B5B689A681F4BDB681B78DB009D
S3150800E2CC13441A68FB8B1B0113441A687B8BDB00FF
S3150800E2DC1344BB60BB689B8801339AB2BB689A80AF
S3150800E2ECF868B96800F056F80346FB71BB689B7969
S3150800E2FC012B01D101233B77FB79002B01D1FB794B
S3150800E30C7B777B8B01337B837B691B897A8B9A4260
S3150800E31CC9D33B7F012B02D13B697A7F5A70FB8BA1
S3150800E32C0133FB83044BDB689B89FA8B9A429DD39A
S3150800E33C2037BD4680BD00BFD801002080B485B00B
S3150800E34C00AF786039600023FB733B681B689AB290
S3150800E35C7B685B88D31A9BB2BB81B7F90C307A6899
S3150800E36C5279934208DCB7F90C207B681B795B421F
S3150800E37C9A4201DB0123FB733B6800221A603B6857
S3150800E38C00229A80FB7B18461437BD465DF8047B41
S3150800E39C704700BF80B584B000AF78603960012340
S3150800E3ACFB733B6800229A717B68DB88012B09D1C9
S3150800E3BC78683968FFF7C2FF0346FB733B6801228E
S3150800E3CC9A710EE03B689A887B68DB889A4208D17A
S3150800E3DC78683968FFF7B2FF0346FB733B6801227E
S3150800E3EC9A71FB7B18461037BD4680BD80B582B046
S3150800E3FC00AF786039607B681B7A012B06D97B687D
S3150800E40C1B7A013BDAB27B681A720BE07B68002236
S3150800E41C1A727B6800221A703B681B887868194642
S3150800E42C00F0B0F80837BD4680BD00BF80B582B095
S3150800E43C00AF786039607B685B78002B0ED17B68FF
S3150800E44C01221A703B681B887868194600F09AF8FE
S3150800E45C7B681B7A0133DAB27B681A727B681A7A84
S3150800E46C3B689B7C9A4203D87B685B78012B08D166
S3150800E47C7B6802221A703B681B887868194600F07C
S3150800E48C81F80837BD4680BD80B586B000AFF86008
S3150800E49CB9607A60FB685B78002B20D10023FB758A
S3150800E4AC0023BB820DE07B681A68BB8ADB00134429
S3150800E4BC9B79012B02D10123FB7507E0BB8A01333B
S3150800E4CCBB827B689B88BA8A9A42ECD3FB7D012B6C
S3150800E4DC05D1FB681B7A0133DAB2FB681A72FB6842
S3150800E4EC1A7ABB689B7C9A4208D9FB6802221A7076
S3150800E4FCBB681B88F868194600F044F81837BD46FF
S3150800E50C80BD00BF80B586B000AFF860B9607A6090
S3150800E51CFB685A78FB689B781344DAB2FB68DB789D
S3150800E52C1344FB75FB7D022B0BD0032B1DD1FB680B
S3150800E53C1B78012B04D1F868B968FFF757FF1EE062
S3150800E54C1DE0FB681B78002B04D1F868B968FFF747
S3150800E55C6DFF14E0FB681B78012B05D1F868B968C8
S3150800E56C7A68FFF791FF0AE009E0FB6802221A7045
S3150800E57CBB681B88F868194600F004F800BF183702
S3150800E58CBD4680BD80B582B000AF78600B467B80F7
S3150800E59C7B681B78042B29D801A252F823F000BFFC
S3150800E5ACC1E50008CFE50008DDE50008F9E5000837
S3150800E5BCEBE500087B880F4A52F82330042098476D
S3150800E5CC15E07B880B4A52F82330012098470EE059
S3150800E5DC7B88084A52F823300220984707E07B8844
S3150800E5EC044A52F823300020984700E000BF083749
S3150800E5FCBD4680BDEC01002080B500AF134B5B7A9D
S3150800E60C042B21D801A252F823F000BF2DE60008EE
S3150800E61C35E600083DE6000845E600084DE6000824
S3150800E62C0420FFF703FB10E00120FFF7FFFA0CE0CC
S3150800E63C0220FFF7FBFA08E00320FFF7F7FA04E0DD
S3150800E64C0020FFF7F3FA00E000BF80BDD8010020D8
S3150800E65C80B483B000AF03460A46FB801346BB80E2
S3150800E66CBB88002B02D0104B01225A72FB88002B58
S3150800E67C14D00D4B5B689A680B4BDB681B78DB0078
S3150800E68C1344DA88084BDB685B889A4203D2064B3C
S3150800E69C02225A7202E0044B03225A720C37BD4608
S3150800E6AC5DF8047B704700BFD801002080B483B0A6
S3150800E6BC00AF03460A46FB801346BB80BB88002B7B
S3150800E6CC06D1FB88002B03D1104B00225A7217E097
S3150800E6DCFB88002B14D00D4B5B689A680B4BDB68D8
S3150800E6EC1B78DB001344DA88084BDB685B889A4294
S3150800E6FC03D2064B02225A7202E0044B03225A72C8
S3150800E70C0C37BD465DF8047B704700BFD801002066
S3150800E71C80B483B000AF0346FB80FB88002B1DD06A
S3150800E72C114B5B689A68104BDB681B78DB0013444B
S3150800E73CDA880D4BDB685B889A420CD20A4B5B680D
S3150800E74C9A68094BDB681B78DB001344DA880132BC
S3150800E75C92B2DA8002E0044B03225A720C37BD4699
S3150800E76C5DF8047B704700BFD801002080B586B0E1
S3150800E77C00AF0023FB820023BB82404B5B7A7B7481
S3150800E78C00237B8247E03D4BDB6899687A8A1346FF
S3150800E79C9B0013449B000B44FB60384B5B689A68E0
S3150800E7AC364BDB681B78DB0013441A687B8A1B0123
S3150800E7BC1344BB60314B5B681A68FB681B881946A7
S3150800E7CC0B469B000B445B0013447B607868F96826
S3150800E7DCBA68FFF797FE7B681B78022B11D1274B7B
S3150800E7EC5B7C002B0AD1264A7B8A13807B8ADB4307
S3150800E7FC9AB2244B1A80214B01225A74FB8A013394
S3150800E80CFB827B681B78012B02D1BB8A0133BB8246
S3150800E81C7B8A01337B82194BDB689B897A8A9A42FD
S3150800E82CB1D3164B5B7A032B1DD801A252F823F0F1
S3150800E83C4DE800085BE8000869E8000873E800087A
S3150800E84CFA8ABB8A10461946FFF702FF0CE0FA8AC9
S3150800E85CBB8A10461946FFF729FF05E0FB8A1846BE
S3150800E86CFFF756FF00E000BF044B5B7A7A7C9A42AE
S3150800E87C01D0FFF7C1FE1837BD4680BDD801002070
S3150800E88CEC3D0020EE3D002080B485B000AF7860EA
S3150800E89C7B680022DA800023FB8141E00023BB81E0
S3150800E8AC18E07B681A68FB891B0113441A68BB8934
S3150800E8BCDB00134400221A607B681A68FB891B016B
S3150800E8CC13441A68BB89DB00134400229A80BB895F
S3150800E8DC0133BB817B681A68FB891B0113449B882F
S3150800E8ECBA899A42DDD30023BB810DE07B681A688E
S3150800E8FCFB891B0113449A68BB899B0013440022AD
S3150800E90C1A60BB890133BB817B681A68FB891B01BA
S3150800E91C13449B89BA899A42E8D3FB890133FB8154
S3150800E92C7B689B88FA899A42B8D31437BD465DF83A
S3150800E93C047B704780B487B000AFF860B9601346A3
S3150800E94CFB8000233B610023FB8212E0FB685A68BC
S3150800E95CFB8ADB0013441B88FA889A4206D1BB68EB
S3150800E96C1A68FB8ADB0013443B6107E0FB8A013318
S3150800E97CFB82FB681B89FA8A9A42E7D33B69002B10
S3150800E98C04D03B691B685A1C3B691A601C37BD4688
S3150800E99C5DF8047B704700BF80B588B000AFF8609F
S3150800E9ACB9601346FB800123FB770023BB8354E035
S3150800E9BCFB68D968BA8B13465B0013449B000B445F
S3150800E9CC1B88FA889A4211D100233B6107F1100380
S3150800E9DCBB61BB689A68BB8B9B0013447B61FB6865
S3150800E9ECDB7C18467969BA69FBF7A4F9FB68D96820
S3150800E9FCBA8B13465B0013449B000B445B88FA885E
S3150800EA0C9A4227D1BB689A68BB8B9B0013441B6838
S3150800EA1C002B1FD0FB68DB7C1846FB68D968BA8BC1
S3150800EA2C13465B0013449B001944BB689A68BB8B5E
S3150800EA3C9B0013441A4600F01BF80346002B02D120
S3150800EA4C0023FB770EE0BB689A68BB8B9B001344CC
S3150800EA5C00221A60BB8B0133BB83FB681B8ABA8BFB
S3150800EA6C9A42A5D3FB7F18462037BD4680BD00BF0A
S3150800EA7C80B588B000AFF860B9607A6000233B6156
S3150800EA8C07F11003BB617B687B61F8687969BA6921
S3150800EA9CFBF750F90023FB77BB685B684FF47A7277
S3150800EAAC02FB03F23B699A420AD8BB689B684FF48F
S3150800EABC7A7202FB03F23B699A4201D30123FB7774
S3150800EACCFB7F18462037BD4680BD00BF80B487B093
S3150800EADC00AFF860B9601346FB800023FB75002372
S3150800EAECBB821BE0FB68DA68BB8A9B0013441A8856
S3150800EAFCBB68DB889A420ED1FB68DA68BB8A9B0036
S3150800EB0C13445B88FA889A4205D10123FB75BB68C6
S3150800EB1CFA88DA8007E0BB8A0133BB82FB681B8A5A
S3150800EB2CBA8A9A42DED3FB7D012B17D10023BB820E
S3150800EB3C0FE0FB68DA69BB8A5B0013441B88FA880A
S3150800EB4C9A4203D1BB6800221A7107E0BB8A0133CB
S3150800EB5CBB82FB681B8CBA8A9A42EAD3FB7D1846A1
S3150800EB6C1C37BD465DF8047B704700BF80B487B080
S3150800EB7C00AFF860B9601346FB800023FB750023D1
S3150800EB8CBB8214E0FB685A69BB8A5B0013441B887A
S3150800EB9CFA889A4208D10123FB75BB6801221A71BF
S3150800EBACBB68FA88DA8007E0BB8A0133BB82FB684C
S3150800EBBC1B8BBA8A9A42E5D3FB7D18461C37BD4691
S3150800EBCC5DF8047B704700BF80B586B000AFF8606F
S3150800EBDCB9601346FB800023FB75BB681B79012BB8
S3150800EBEC08D1FB88F868B9681A46FFF76FFF034621
S3150800EBFCFB7507E0FB88F868B9681A46FFF7B6FF95
S3150800EC0C0346FB75FB7D18461837BD4680BD00BF0D
S3150800EC1C80B584B000AF0346FB80134B5B6819685C
S3150800EC2CFA8813469B0013445B000B44FB60FB6895
S3150800EC3C04221A70FB88F8681946FFF7A3FCFB68D0
S3150800EC4C00221A71FB680022DA80FB6800221A720D
S3150800EC5CFB6801225A70FB6801229A70FB68012234
S3150800EC6CDA701037BD4680BDD801002080B582B059
S3150800EC7C00AF0346FB71FB791846F2F779FA03469F
S3150800EC8C18460837BD4680BD80B400AF72B6064B31
S3150800EC9C1B78DBB2DBB20133DBB2DAB2024B1A7089
S3150800ECACBD465DF8047B70475C2D002080B400AF30
S3150800ECBC0A4B1B78002B0DD0084B1B78DBB2DBB24A
S3150800ECCC013BDBB2DAB2054B1A70044B1B78002BEE
S3150800ECDC00D162B6BD465DF8047B70475C2D0020FA
S3150800ECEC80B483B000AF00237B6026E01A497A68AB
S3150800ECFC13465B0013445B000B4400221A8016492A
S3150800ED0C7A6813465B0013445B000B4400229A7026
S3150800ED1C11497A6813465B0013445B000B440022C6
S3150800ED2CDA700D497A6813465B0013445B000B4492
S3150800ED3C00221A717B6801337B607B680F2BD5D94F
S3150800ED4C064B00221A60064B01221A700C37BD4678
S3150800ED5C5DF8047B704700BF447C0020407C002093
S3150800ED6CF83D002090B585B000AF0446084611461C
S3150800ED7C1A462346FB8003467B710B463B711346AA
S3150800ED8CFB700023FB73254B1B78022B41D1F888AB
S3150800ED9C79793A79FB7800F0ABFBFFF775FF204BD6
S3150800EDAC1B680F2B33D81E4B1A681E4913465B007B
S3150800EDBC13445B000B44FA881A80194B1A681949D4
S3150800EDCC13465B0013445B000B447A799A70144B18
S3150800EDDC1A68144913465B0013445B000B443A79D2
S3150800EDECDA700F4B1A680F4913465B0013445B0025
S3150800EDFC0B44FA781A710A4B1B680133084A1360DC
S3150800EE0C074B1B68102B02D1054B00221A60FFF723
S3150800EE1C4DFFFB7B18461437BD4690BDF83D0020C8
S3150800EE2C407C0020447C002080B400AF034B0222B7
S3150800EE3C1A70BD465DF8047B704700BFF83D00208C
S3150800EE4C80B400AF72B6064B1B78DBB2DBB201336B
S3150800EE5CDBB2DAB2024B1A70BD465DF8047B70471A
S3150800EE6C5C2D002080B400AF0A4B1B78002B0DD00C
S3150800EE7C084B1B78DBB2DBB2013BDBB2DAB2054BD3
S3150800EE8C1A70044B1B78002B00D162B6BD465DF890
S3150800EE9C047B70475C2D002080B483B000AF78608B
S3150800EEAC7B685B685A1C7B685A600C37BD465DF8F4
S3150800EEBC047B704780B483B000AF78607B685B686E
S3150800EECC5A1E7B685A600C37BD465DF8047B704742
S3150800EEDC80B582B000AF78607B68002B06D13720EE
S3150800EEEC002101220623FFF73DFF17E00D4A7B6838
S3150800EEFC13600D480D490A224FF4027316F0FEFFF3
S3150800EF0C0B4B00221A700B4B06221A700A4B012265
S3150800EF1C1A7000F08BFB094B01221A700837BD4694
S3150800EF2C80BD00BF183E0020FC3D0020203E00207E
S3150800EF3C1C3E00202D0200202C0200201D3E002025
S3150800EF4C80B582B000AF03460A46FB8013467B7138
S3150800EF5CFFF776FF064817F09BF80346002B02D0FE
S3150800EF6C0348FFF7A7FFFFF77DFF0837BD4680BDAF
S3150800EF7CFC3D002080B58AB000AFF8607A603B6033
S3150800EF8C0B467B810423FB840023FB77FFF758FF92
S3150800EF9C8A4817F053F838623B6A002B17D1874812
S3150800EFAC17F076F80346002B0DD08448FFF782FF3E
S3150800EFBC824817F043F838623B6A002B07D1FFF7F3
S3150800EFCC51FF0423F5E0FFF74DFF0423F1E03B6AFC
S3150800EFDC20221A703B6A1B7843F00203DAB23B6AAA
S3150800EFEC1A703B6A0133764A12781A703B6A1B7898
S3150800EFFC43F00403DAB23B6A1A70FB8C3A6A134480
S3150800F00C704A1268126812781A70FB8C01333A6AC5
S3150800F01C13446C4A12681268013212781A70FB8C07
S3150800F02C02333A6A1344674A126812680232127833
S3150800F03C1A70FB8C03333A6A1344624A12681268D4
S3150800F04C033212781A70FB8C0433FB843B6A1B78E8
S3150800F05C43F00803DAB23B6A1A70FB8C3A6A13441B
S3150800F06C7A68120ED2B21A70FB8C01333A6A1344C0
S3150800F07C7A68120CD2B21A70FB8C02333A6A1344B1
S3150800F08C7A68120AD2B21A70FB8C03333A6A1344A2
S3150800F09C7A68D2B21A70FB8C0433FB843B6A1B78F1
S3150800F0AC43F00103DAB23B6A1A70FB8C3A6A1344D2
S3150800F0BC3A6812781A70FB8C01333A6A13443A6828
S3150800F0CC52781A70FB8C02333A6A13443A6892786F
S3150800F0DC1A70FB8C03333A6A13443A68D2781A705E
S3150800F0ECFB8C04333A6A13443A6812791A70FB8C0F
S3150800F0FC05333A6A13443A6852791A70FB8C06330C
S3150800F10C3A6A13443A6892791A70FB8C07333A6A4E
S3150800F11C13443A68D2791A70FB8C08333A6A13444A
S3150800F12C3A68127A1A70FB8C09333A6A13443A68AD
S3150800F13C527A1A70FB8C0A33FB847B89002B0CD011
S3150800F14CFB8C3A6A1A447B891046F9681A461CF0F5
S3150800F15C3DFBFA8C7B891344FB843B6A0233FA8C9D
S3150800F16C120A92B2D2B21A703B6A0333FA8CD2B232
S3150800F17C1A70134B1B780133DAB2114B1A700F48FD
S3150800F18CFFF78AFEFFF76EFE3B6A7B61FB8C3B83BF
S3150800F19C0B4B1B789AB207F114031046194600F06C
S3150800F1AC4BFA0346BB77BB7F002B01D00423FB77B6
S3150800F1BCFB7F18462837BD4680BD00BFFC3D0020A6
S3150800F1CC1C3E0020183E002080B58AB000AFF860BF
S3150800F1DCB9607A607B80012387F82730002387F88B
S3150800F1EC26307B68002B07D1372000210322062303
S3150800F1FCFFF7B8FD0623B1E05A4B1B78002B09D054
S3150800F20CBB689A78574B1B789A4203D8564B1B788F
S3150800F21C002B05D1002387F82730002387F82630E2
S3150800F22C97F82730012B40F09780BB689B781B0119
S3150800F23CDBB23B75BB68DB7803F00803002B09D0FF
S3150800F24CBB681B88DBB27B753B7D43F00103DBB2E5
S3150800F25C3B7501E000237B75BB681B7ABB75BB68E5
S3150800F26C5B7AFB75BB689B7A3B76BB68DB7A7B76ED
S3150800F27CBB681B79BB76BB685B79FB76BB689B79ED
S3150800F28C3B77BB68DB797B77BB68DB7803F00803D5
S3150800F29C002B19D0BB68DB7803F00103002B13D0C5
S3150800F2AC7B88B3F5027F0BD87A8807F11403786844
S3150800F2BC1146FA68FFF75EFE034687F826304BE0E0
S3150800F2CC012387F8263047E0BB68083318462749D8
S3150800F2DC03221CF049FA0346002B29D0BB680833D5
S3150800F2EC1846234903221CF03FFA0346002B1FD06D
S3150800F2FC7B681B781A067B6801331B781B041A4338
S3150800F30C7B6802331B781B0213437A680332127824
S3150800F31C13433B623B6A012B02D03B6A022B07D193
S3150800F32C3720002103220623FFF71CFD062315E0D0
S3150800F33C7B88B3F5027F0BD87A8807F114037868B3
S3150800F34C1146FA68FFF716FE034687F8263003E0DF
S3150800F35C012387F82630FFE797F826301846283712
S3150800F36CBD4680BD2D0200202C020020FCDC0208C4
S3150800F37C00DD020880B58AB000AF0346FB800B4659
S3150800F38C7B7113463B710023FB84FB883B6201238C
S3150800F39CFB61554A07F1100310685168926807C358
S3150800F3AC7A793B799A4200F09B80FB88002B00F017
S3150800F3BC97800023FB60FFF743FDFB8CFA69120E5E
S3150800F3CCD1B24A4AD154FB8C0133FA69120CD1B228
S3150800F3DC464AD154FB8C0233FA69120AD1B2434A13
S3150800F3ECD154FB8C0333FA69D1B2404AD154FB8C05
S3150800F3FC0433FB84FB8C3A6A120ED1B23B4AD154C5
S3150800F40CFB8C01333A6A120CD1B2384AD154FB8CB4
S3150800F41C02333A6A120AD1B2344AD154FB8C0333FA
S3150800F42C3A6AD1B2314AD154FB8C0433FB84FA883C
S3150800F43C07F10C03104601211A460AF0F7FBFB8C60
S3150800F44CFA68120ED1B2294AD154FB8C0133FA68E8
S3150800F45C120CD1B2254AD154FB8C0233FA68120A23
S3150800F46CD1B2224AD154FB8C0333FA68D1B21F4A63
S3150800F47CD154FB8C0433FB84FF23FB72FB8C1B4A95
S3150800F48C1A44F98807F10B03084611461A460AF07E
S3150800F49CC1FE0346002B04D1FB7A9AB2FB8C1344AB
S3150800F4ACFB84FF23FB72FB8C104A1A44F98807F17C
S3150800F4BC0B03084611461A460AF05EFD0346002B56
S3150800F4CC04D1FB7A9AB2FB8C1344FB8407F1100225
S3150800F4DCFB8CF8691146054AFFF776FEFFF7C2FC66
S3150800F4EC2837BD4680BD00BF04DD020870520020D7
S3150800F4FC90B58BB000AF0446084611461A4623460B
S3150800F50CFB8003467B710B463B711346FB70364AF0
S3150800F51C07F1140310685168926807C302237B62CB
S3150800F52C00237B847B8C7A6A120ED2B207F12801EF
S3150800F53C0B4403F8202C7B8C01337A6A120CD2B25A
S3150800F54C07F128010B4403F8202C7B8C02337A6ACA
S3150800F55C120AD2B207F128010B4403F8202C7B8C33
S3150800F56C03337A6AD2B207F128010B4403F8202C2C
S3150800F57C7B8C04337B847B8CFA88120A92B2D2B2C7
S3150800F58C07F128010B4403F8202C7B8C0133FA88ED
S3150800F59CD2B207F128010B4403F8202C7B8C0233DA
S3150800F5AC07F1280213447A7903F8202C7B8C033351
S3150800F5BC07F1280213443A7903F8202C7B8C043380
S3150800F5CC07F128021344FA7803F8202C7B8C0533B0
S3150800F5DC7B8407F1140107F108027B8C786AFFF724
S3150800F5ECF3FD2C37BD4690BD10DD020880B483B000
S3150800F5FC00AF0346FB710B4B1B680B49FA79CA54CF
S3150800F60C084B1B680133074A1360064B1B68B3F596
S3150800F61CFA7F02D3034B00221A600C37BD465DF8FD
S3150800F62C047B70477C5400208054002080B400AFC3
S3150800F63CBD465DF8047B704780B586B000AF0346BF
S3150800F64C3960FB803B681B687B610023FB730023D6
S3150800F65C3B610AE07B691B781846FFF7C7FF7B6995
S3150800F66C01337B613B6901333B613B689B881A46D6
S3150800F67C3B699A42EED8FA88FB7B10461946FFF787
S3150800F68C5FFCFB7B18461837BD4680BD80B400AFBF
S3150800F69C72B6064B1B78DBB2DBB20133DBB2DAB2DD
S3150800F6AC024B1A70BD465DF8047B70475C2D002032
S3150800F6BC80B400AF0A4B1B78002B0DD0084B1B7877
S3150800F6CCDBB2DBB2013BDBB2DAB2054B1A70044B88
S3150800F6DC1B78002B00D162B6BD465DF8047B7047DB
S3150800F6EC5C2D002080B58AB000AF0346FB71464BF3
S3150800F6FC1B681A68FB791B0113443B62002387F8C5
S3150800F70C25307AE0022387F82730FF23FB7700237E
S3150800F71C87F8263097F8253018335B003B4A134494
S3150800F72CBB61394B1B685A6897F825301B01134483
S3150800F73C7B617B691B7BFB740023BB74002387F8F6
S3150800F74C24302CE0BA7C97F82430104619467A698E
S3150800F75C00F034FCF860FB685B781A4613469B008D
S3150800F76C1344DB000833294A1344BB60FB685A78F8
S3150800F77C3B6A5B789A4202D1012387F82630BB682C
S3150800F78C1B78FB77FA7F97F827309A4202D8FB7FCB
S3150800F79C87F8273097F82430013387F8243097F800
S3150800F7AC2420FB7C9A42CDD3BB695B7897F827203B
S3150800F7BC9A421DD097F82630012B19D1124B1B688B
S3150800F7CC5A6897F825301B0113449B68002B0BD0FD
S3150800F7DC0D4B1B685A6897F825301B0113449B6818
S3150800F7EC97F8272010469847BB6997F827205A7030
S3150800F7FC97F82530013387F8253097F82530002BF4
S3150800F80C80D02837BD4680BDB056002078560020DB
S3150800F81C80B485B000AF786039607B68DB78012BE3
S3150800F82C03D07B68DB78002B08D13B685B69002B1F
S3150800F83C0CBF01230023DBB2FB7301E00123FB732E
S3150800F84CFB7B18461437BD465DF8047B704700BF32
S3150800F85C80B584B000AF78600B46FB700023FB7351
S3150800F86C0023BB737B681B78002B09D17B685A78FD
S3150800F87CFB781046194601F01DFB0346FB7302E0A4
S3150800F88C0123FB7300BFFB7B002B0DD1BB7B002B2D
S3150800F89C0AD17B685B7807495A1C13469B001344AC
S3150800F8ACDB000B4401225A70FB7B18461037BD4609
S3150800F8BC80BD00BF7856002080B485B000AF786054
S3150800F8CC0B46FB707B685B781A4613469B00134401
S3150800F8DCDB0008331D4A1344BB600023FB737B68AB
S3150800F8ECDB78032B03D07B68DB78022B01D1012351
S3150800F8FCFB737B68DB78002B03D07B68DB78012BEA
S3150800F90C1CD1BB681B78022B18D1BB685B78022B01
S3150800F91C08D1BB6841F288325A61BB68002283F869
S3150800F92C26200BE0BB685B78032B07D17B689A68AB
S3150800F93CBB689A61BB68002283F82720FB7B1846B4
S3150800F94C1437BD465DF8047B704700BF7856002017
S3150800F95C80B586B000AFF860B9601346FB71F868DD
S3150800F96C0021FFF775FF0346FB75FB7D002B0DD1B8
S3150800F97CBB6800225A77FB79012B04D1BB6800229D
S3150800F98C83F8232002E0B86800F02AFFFB7D1846AE
S3150800F99C1837BD4680BD00BF80B586B000AFF8608D
S3150800F9ACB9601346FB71F8680121FFF751FF03464E
S3150800F9BCFB75FB7D002B0DD1BB6801225A77FB79B1
S3150800F9CC012B04D1BB68002283F8232002E0B86817
S3150800F9DC00F006FFFB7D18461837BD4680BD00BFF4
S3150800F9EC80B586B000AFF860B9601346FB7100238A
S3150800F9FCFB750023BB75BB685B78002B02D1BB6813
S3150800FA0C01225A70BB685B78032B08D1BB680222AB
S3150800FA1C5A70F8680021FFF74FFF0346BB75BB68A1
S3150800FA2CDB7F012B24D1F8680221FFF711FF03466F
S3150800FA3CFB75FB7D002B1BD1BB6802225A77FB7921
S3150800FA4C012B04D1BB68002283F8232010E0B86888
S3150800FA5C00F0C6FEBB6893F82230002B08D1BB68B1
S3150800FA6C93F82030002B03D1BB68012283F825209C
S3150800FA7CFA7DBB7D1340DBB218461837BD4680BDF0
S3150800FA8C80B586B000AFF860B9601346FB71BB68E9
S3150800FA9C02221A70BB6802225A77BB6803225A7074
S3150800FAACF8680021FFF708FF0346FB75FB7D002B62
S3150800FABC0AD1FB79012B04D1BB68002283F82320D9
S3150800FACC02E0B86800F08CFEFB7D18461837BD4678
S3150800FADC80BD00BF80B586B000AFF860B96013462C
S3150800FAECFB710023FB753C4B93F83230012B05D088
S3150800FAFCBB681B7C03F00203002B01D0012300E03A
S3150800FB0C0023BB75BB681B7C03F00103002B14BFD9
S3150800FB1C01230023DBB27B75BB689B7F03F00403D0
S3150800FB2C002B03D0B86800F05BFE50E0BB6893F876
S3150800FB3C2230012B08D1FB79F868B9681A46FFF709
S3150800FB4C4FFF0346FB7542E0BB7D012B02D07B7D44
S3150800FB5C012B07D1BB6893F82030002B02D1002368
S3150800FB6CFB7534E0BB689B7F03F00803002B08D0B9
S3150800FB7CFB79F868B9681A46FFF732FF0346FB7536
S3150800FB8C25E0BB68D3E90223134308D1BB681B7F66
S3150800FB9C022B04D0BB6893F82030012B08D1FB79D3
S3150800FBACF868B9681A46FFF71BFF0346FB750EE0A3
S3150800FBBCFB79F868B9681A46FFF7CAFE0346FB755F
S3150800FBCCBB6800225A70BB68002283F82120FB7D93
S3150800FBDC18461837BD4680BD7856002080B586B0C5
S3150800FBEC00AFF860B9601346FB71314B93F83230AD
S3150800FBFC012B05D0BB681B7C03F00203002B01D03C
S3150800FC0C012300E00023BB75BB681B7C03F00103D2
S3150800FC1C002B14BF01230023DBB27B75BB689B7FCB
S3150800FC2C03F00403002B08D0FB79F868B9681A4668
S3150800FC3CFFF78EFE0346FB7535E0BB7D012B02D024
S3150800FC4C7B7D012B07D1BB6893F82030002B02D1A2
S3150800FC5C0023FB7527E0BB689B7F03F00103002B91
S3150800FC6C08D0FB79F868B9681A46FFF709FF034606
S3150800FC7CFB7518E0BB68D3E90223134308D1BB68AC
S3150800FC8C1B7F022B04D0BB6893F82030012B08D1BC
S3150800FC9CFB79F868B9681A46FFF7A2FE0346FB75A6
S3150800FCAC01E00023FB75FB7D18461837BD4680BD61
S3150800FCBC7856002080B586B000AFF860B960134658
S3150800FCCCFB710023FB75BB689B7F03F00403002BB9
S3150800FCDC08D0FB79F868B9681A46FFF739FE034667
S3150800FCECFB75AEE0BB689B7F03F00203002B14D0B8
S3150800FCFCBB685B78022B03D1FB68DB78022B03D03D
S3150800FD0CBB685B78032B08D1FB79F868B9681A4687
S3150800FD1CFFF742FE0346FB7593E04C4B93F83230E3
S3150800FD2C012B05D0BB681B7C03F00203002B01D00A
S3150800FD3C012300E00023BB75BB7D012B2AD1BB68D0
S3150800FD4C93F82030002B25D1F868B968FFF760FDC9
S3150800FD5C0346012B1DD1BB685B78032B10D1FB68BE
S3150800FD6CDB78012B15D1BB689B69002B11D1FB796C
S3150800FD7CF868B9681A46FFF7EBFD0346FB7560E0B1
S3150800FD8CFB79F868B9681A46FFF77AFE0346FB75DD
S3150800FD9C57E056E0BB68D3E9022313432ED1BB6860
S3150800FDAC93F82030002B29D1BB681B7F002B25D15B
S3150800FDBCF868B968FFF72CFD0346012B1DD1BB6803
S3150800FDCC5B78032B10D1FB68DB78012B15D1BB684C
S3150800FDDC9B69002B11D1FB79F868B9681A46FFF7AD
S3150800FDECB7FD0346FB752CE0FB79F868B9681A462B
S3150800FDFCFFF746FE0346FB7523E022E0BB685B78FB
S3150800FE0C022B08D0FB79F868B9681A46FFF7E8FDA3
S3150800FE1C0346FB7515E0BB689B7F03F00103002BBB
S3150800FE2C0BD0BB689B7F23F00103DAB2BB689A77C9
S3150800FE3CBB68002283F8242003E0BB68002283F801
S3150800FE4C2420FB7D18461837BD4680BD7856002001
S3150800FE5C80B584B000AF78600B46FB707B685B7826
S3150800FE6C1A4613469B001344DB000833174A1344FF
S3150800FE7CBB600023FB73BB681B78012B0CD0022BD1
S3150800FE8C13D0002B1AD1FB787868B9681A46FFF795
S3150800FE9C21FE0346FB7314E0FB787868B9681A46AA
S3150800FEACFFF79CFE0346FB730BE0FB787868B96892
S3150800FEBC1A46FFF7FFFE0346FB7302E00123FB73AA
S3150800FECC00BFFB7B18461037BD4680BD7856002010
S3150800FEDC80B483B000AF786039603B681B78022B1E
S3150800FEEC1DD13B6893F82630002B18D17B685A68CD
S3150800FEFC3B685B699A420BD33B6800225A613B68A4
S3150800FF0C012283F826203B68012283F8242006E088
S3150800FF1C3B685A697B685B68D21A3B685A610C372E
S3150800FF2CBD465DF8047B704780B483B000AF78603B
S3150800FF3C39603B681B78022B21D13B685B78032B15
S3150800FF4C1DD13B6893F82730002B18D17B685A686B
S3150800FF5C3B689B699A420BD33B6800229A613B68C3
S3150800FF6C012283F827203B68012283F8242006E027
S3150800FF7C3B689A697B685B68D21A3B689A610C374E
S3150800FF8CBD465DF8047B704780B584B000AF7860D9
S3150800FF9C39607B681B78002B08D17B685B78184620
S3150800FFAC396801F029F80346FB7302E00123FB7359
S3150800FFBC00BFFB7B18461037BD4680BD80B485B0A4
S3150800FFCC00AF03463A60FB710B46BB713B681A6877
S3150800FFDCBB799B0013441B68FB60FB6818461437F7
S3150800FFECBD465DF8047B704780B485B000AF786079
S3150800FFFC0B46FB700023FB737B6893F82030002BB1
S3150801000C24D1164B93F83230012B05D07B681B7C17
S3150801001C03F00203002B0AD07B685B78022B05D010
S3150801002CFB78022B02D10223FB730FE00EE07B68EF
S3150801003C1B7C03F00103002B08D07B681B78022B71
S3150801004C04D0FB78022B01D10223FB73FB7B1846E8
S3150801005C1437BD465DF8047B704700BF78560020FF
S3150801006C80B485B000AFB9607A601A460346FB7353
S3150801007C1346BB73BB7B022B07D1BB68BA7B1A77BA
S3150801008CBB68012283F823200BE0BB68D3E9022362
S3150801009C134306D1BB68BA7B1A77BB68012283F86E
S315080100AC23201437BD465DF8047B7047F0B58DB037
S315080100BC00AF03460A46FB711346BB71774B1B68A7
S315080100CC5A68FB791B011344BB62FB7918335B0035
S315080100DC734A13447B62002387F82330002387F87D
S315080100EC2F30BB6A1B7B87F82230002387F8213017
S315080100FC002387F82E304AE097F8212097F82E30FE
S3150801010C10461946BA6AFFF759FFF861FB695B781D
S3150801011C1A4613469B001344DB000833604A134402
S3150801012CBB61BB79B8691946FFF75EFF034687F8C9
S3150801013C233097F8232097F82F309A4203D997F84A
S3150801014C233087F82F30BB6993F82130002B19D14E
S3150801015C97F82330002B15D107F10F03F8691946C7
S3150801016CFFF712FF034687F8233097F82330002B45
S3150801017C08D1BB691A78FB7B9A4203D0012387F80D
S3150801018C2F300AE097F82E30013387F82E3097F87E
S3150801019C2E2097F822309A42AED397F82F30012B9E
S315080101AC66D07B6ABA791A70F9794FF001024FF069
S315080101BC0003A1F12006C1F1200003FA01F502FAA8
S315080101CC06F6354322FA00F0054302FA01F4C7E9AB
S315080101DC0445002387F82E3044E097F8212097F838
S315080101EC2E3010461946BA6AFFF7E8FEF861FB6924
S315080101FC5B781A4613469B001344DB000833284ADE
S3150801020C1344BB61BB79002B10D1BB69D3E902013D
S3150801021CD7E904236FEA02026FEA030302EA000232
S3150801022C03EA0103B969C1E902230EE0BB79022B82
S3150801023C0BD1BB69D3E90201D7E9042342EA0002CF
S3150801024C43EA0103B969C1E9022397F82120BB796D
S3150801025C1046B969FA69FFF703FF97F82E3001338F
S3150801026C87F82E3097F82E2097F822309A42B4D375
S3150801027C97F82F30022B0BD1094B9B8E4FF6FF7239
S3150801028C934205D0064B9B8E01339AB2044B9A8640
S3150801029C97F82F3018463437BD46F0BDB0560020B6
S315080102AC7856002080B584B000AF78607B68002B47
S315080102BC06D10C20002101220223FEF753FDE3E0AF
S315080102CC7B681B68002B06D10C2000210122022316
S315080102DCFEF748FDD8E07B685B68002B06D10C203D
S315080102EC002101220223FEF73DFDCDE0684A7B6819
S315080102FC13600023FB73A7E0FA7B664913469B0040
S3150801030C1344DB000B44083300221A70FA7B61494B
S3150801031C13469B001344DB000B44083300225A7026
S3150801032CFA7B5C4913469B001344DB000B4403F12F
S3150801033C10014FF000024FF00003C1E90023FB7BCB
S3150801034C54495A1C13469B001344DB000B440022E8
S3150801035C1A70FA7B4F4913469B001344DB000B4476
S3150801036C183300221A70FA7B4A4913469B00134428
S3150801037CDB000B44203300229A71FA7B454913465C
S3150801038C9B001344DB000B4420330022DA71FB7B00
S3150801039C40495A1C13469B001344DB000B440022AC
S315080103AC5A70FB7B3B495A1C13469B001344DB00D2
S315080103BC0B4400229A70FA7B364913469B00134468
S315080103CCDB000B44203300221A71FB7B31495A1C82
S315080103DC13469B001344DB000B440022DA70FA7BAC
S315080103EC2C4913469B001344DB000B442033002293
S315080103FC5A71FB7B27495A1C13469B001344DB0095
S3150801040C0B4400221A71FB7B22495A1C13469B008A
S3150801041C1344DB000B4400225A71FB7B1D495A1C01
S3150801042C13469B001344DB000B4401229A71FB7B98
S3150801043C18495A1C13469B001344DB000B44012232
S3150801044CDA71FB7B0133FB73FB7B002B3FF454AF57
S3150801045C0023FB730FE0FB7B0E4A1833002102F8CD
S3150801046C1310FB7B0B4A18335B001344FF225A709B
S3150801047CFB7B0133FB73FB7B002BECD0054B00227A
S3150801048C9A86044B01221A701037BD4680BD00BFEF
S3150801049CB05600207856002080B500AF074B1B7864
S315080104AC012B06D00C20002102220123FEF75AFC4F
S315080104BC02E0024B00221A7080BD00BF785600205C
S315080104CC80B582B000AF03460A46FB711346BB7171
S315080104DC164B1B78012B07D00C2000210522012372
S315080104ECFEF740FC03231CE0FB79002B07D00C20FC
S315080104FC002105220223FEF735FC012311E0BB7905
S3150801050C012B07D10C20002105220223FEF72AFC18
S3150801051C012306E0FA79BB7910461946FFF7C6FDA1
S3150801052C034618460837BD4680BD00BF78560020DD
S3150801053C80B582B000AF0346FB71164B1B78012BB5
S3150801054C06D00C2000211F220123FEF70BFC1DE00F
S3150801055CFB79002B06D00C2000211F220223FEF763
S3150801056C01FC13E0FB790B495A1C13469B001344F7
S3150801057CDB000B4401221A70FB7906495A1C1346F7
S3150801058C9B001344DB000B4401221A710837BD4644
S3150801059C80BD00BF7856002080B582B000AF0346F7
S315080105ACFB71164B1B78012B06D00C20002120223F
S315080105BC0123FEF7D7FB1DE0FB79002B06D00C2097
S315080105CC002120220223FEF7CDFB13E0FB790B4910
S315080105DC5A1C13469B001344DB000B4400221A7069
S315080105ECFB7906495A1C13469B001344DB000B4442
S315080105FC01221A710837BD4680BD00BF7856002006
S3150801060C80B586B000AF03463960FB71724B1B7817
S3150801061C012B06D00C20002133220123FEF7A2FB65
S3150801062CD7E0FB79002B06D00C20002133220223BC
S3150801063CFEF798FBCDE03B681B78FB75FA791346F8
S3150801064C9B001344DB000833634A13443B61634B39
S3150801065C1B681A68FB791B011344FB60FFF716F834
S3150801066CFB681B78002B09D13B6993F82130002BC9
S3150801067C04D1FB7D012B01D1012300E00023FB7280
S3150801068CFB7A012B0BD0FB681B78012B09D13B6933
S3150801069C93F82130002B04D1FB7D002B01D10123CA
S315080106AC00E00023FB72FB681B78002B09D13B6920
S315080106BC93F82130002B04D1FB7D022B01D10123A8
S315080106CC00E00023BB72BB7A012B0BD0FB681B78AD
S315080106DC012B09D13B6993F82130002B04D1FB7D01
S315080106EC022B01D1012300E00023BB723B6993F86D
S315080106FC2130012B06D13B695B7FFA7D9A4201D1E8
S3150801070C012300E000237B727B7A012B05D0FB7A4F
S3150801071C012B02D0BB7A012B47D13B691B783B7263
S3150801072C3B69FA7D1A703A7AFB7D9A4220D0FA799E
S3150801073CFB7D10461946F3F767FEFB791846FEF75B
S3150801074CD1FFFB7D012B09D0022B0CD0002B00D03D
S3150801075C0EE0FB7918460AF06DF909E0FB791846A3
S3150801076C0AF082F904E0FB7918460AF097F900BFFA
S3150801077C3B69002283F82120FB7D012B08D0022B33
S3150801078C0AD0002B00D010E03B6900225A700CE00D
S3150801079C3B6904225A7008E03B6902225A70BB7AFB
S315080107ACF8681946FFF788F800BFBB7A012B0ED1FA
S315080107BC3B699B7F03F00403002B05D13B699B7FA7
S315080107CC03F00203002B02D0386900F009F8FEF792
S315080107DC6FFF1837BD4680BD78560020B0560020ED
S315080107EC80B483B000AF78607B689B7F23F00803E5
S315080107FCDAB27B689A777B689B7F23F00103DAB2BE
S3150801080C7B689A777B689B7F23F00203DAB27B6855
S3150801081C9A777B689B7F23F00403DAB27B689A7715
S3150801082C7B68002283F824200C37BD465DF8047BCF
S3150801083C704700BF80B586B000AF0346FB71002335
S3150801084CFB75234B1B681A68FB791B0113443B6127
S3150801085CFA7913469B001344DB0008331D4A1344EB
S3150801086CFB603B69DB78002B04D13869F968FFF723
S3150801087C2FFB0BE03B69DB78012B07D13869F9684B
S3150801088CFFF726FB3869F968FFF74EFBFB6893F807
S3150801089C2430012B05D138690021FFF7D9FA034613
S315080108ACFB75FB6893F82330012B0DD1FB6893F884
S315080108BC2430012B02D1F868FFF792FF3869012120
S315080108CCFFF7C6FA0346FB751837BD4680BD00BF50
S315080108DCB05600207856002080B584B000AF034688
S315080108EC0A46FB711346BB71114B1B78012B06D0BB
S315080108FC0C20002135220123FEF734FA15E0FB7989
S3150801090C002B06D00C20002135220223FEF72AFAE9
S3150801091C0BE0FA7913469B001344DB000833044AAF
S3150801092C1344FB60FB68BA79DA771037BD4680BD8C
S3150801093C7856002080B500AF0020FFF77BFF80BDFD
S3150801094C80B582B000AF0346FB712C4B1B78012B8B
S3150801095C06D00C2000212A220123FEF703FA49E0CE
S3150801096CFB79002B06D00C2000212A220223FEF744
S3150801097CF9F93FE0FA79214913469B001344DB0048
S3150801098C0B4408331B78002B20D0FA791B491346E4
S3150801099C9B001344DB000B4408335B78042B29D1E9
S315080109ACFA79164913469B001344DB000B44203392
S315080109BC5B79002B1ED1FB7910495A1C13469B00F7
S315080109CC1344DB000B445B78012B13D1FB790B49E0
