S01100004C6564426C696E6B65722E73313907
S31508000000C01E002099020008A90A0008290B00084A
S31508000010410B0008550B0008690B0008000000009A
S315080000200000000000000000000000000D030008AA
S315080000300D030008000000001D16000861160008E0
S3150800004061160008611600086116000861160008A6
S315080000506116000861160008611600086116000896
S315080000606116000861160008611600086116000886
S315080000706116000861160008611600086116000876
S315080000806116000861160008611600086116000866
S315080000906116000861160008611600086116000856
S315080000A06116000861160008611600086116000846
S315080000B06116000861160008611600086116000836
S315080000C06116000861160008611600086116000826
S315080000D06116000861160008611600086116000816
S315080000E06116000861160008611600086116000806
S315080000F061160008611600086116000861160008F6
S3150800010061160008611600086116000861160008E5
S3150800011061160008611600086116000861160008D5
S3150800012061160008611600086116000861160008C5
S3150800013061160008611600086116000861160008B5
S3150800014061160008611600086116000861160008A5
S315080001506116000861160008611600086116000895
S315080001606116000861160008611600086116000885
S315080001706116000861160008611600086116000875
S31108000180611600086116000861160008E8
S3150800018C80B582B000AF4FF001004FF0000100F0CF
S3150800019CB3FD3B460120194600F0F4FED7E90023CF
S315080001AC4FF001004FF0000102EA000203EA0103D6
S315080001BC134307D04FF001004FF0000100F06EFF1B
S315080001CC00F032F8DFE700BF80B582B000AF034617
S315080001DCFB71FB790020194600F014F80346184603
S315080001EC0837BD4680BD00BF80B582B000AF034658
S315080001FCFB71FB791846FFF7E7FF034618460837E5
S3150800020CBD4680BD80B584B000AF78600B46FB70E8
S3150800021CFB787868194603F075FC0346FB73FB7B81
S3150800022C18461037BD4680BD80B500AF00F010F8F3
S3150800023C80BD00BF80B582B000AF0346FB71FB7969
S3150800024C1846FFF7D1FF034618460837BD4680BD4A
S3150800025C80B500AF094803F041FD094B1B781846D9
S3150800026CFFF7E8FF064B1B78002B0CBF0123002376
S3150800027CDBB21A46024B1A7080BD00BF50530008F9
S3150800028C0000002080B400AFFEE700BF134880F3DF
S3150800029C0988022080F31488BFF36F8F104880F307
S315080002AC08881048104B114D002102E06C58445038
S315080002BC043142189A42F9D30D4A02E0002342F857
S315080002CC043B0C4B9A42F9D30B4A054C0B4B42F8A0
S315080002DC043BA242FBD301F093F87047C01E0020E2
S315080002ECC02E0020000000202C060020D069000833
S315080002FC30060020241D0020C01E00204242424227
S3150800030CFEE7000080B48BB000AF786000237B62F8
S3150800031C00233B620023FB610023BB6100237B6146
S3150800032C00233B61624B5B6803F00C03FB60FB68C4
S3150800033C042B07D0082B09D0002B5ED17B685D4AAD
S3150800034C1A605EE07B685C4A1A605AE0584B5B6838
S3150800035C03F470137B62564B5B6803F480333B6281
S3150800036C7B6A9B0C7B627B6A0D2B03D07B6A023300
S3150800037C7B6201E006237B623B6A002B06D17B6A13
S3150800038C4E4A02FB03F27B681A6035E0484BDB6A7F
S3150800039C03F48033FB61464BDB6A03F00F0301332E
S315080003ACBB61FB69002B09D1434ABB69B2FBF3F36A
S315080003BC7A6A02FB03F27B681A601DE03C4BDB6A27
S315080003CC03F0F0031B0901337B61394BDB6A03F439
S315080003DC70631B0A02333B61374A7B69B2FBF3F342
S315080003EC3A6902FB03F2BB69B2FBF3F37A6A02FBC6
S315080003FC03F27B681A6004E003E07B682D4A1A60F6
S3150800040C00BF2B4B5B6803F0F003FB60FB681B0912
S3150800041CFB602B4AFB6813441B78DBB2BB607B681A
S3150800042C1A68BB68DA407B685A60214B5B6803F430
S3150800043CE063FB60FB681B0AFB60214AFB681344FC
S3150800044C1B78DBB2BB607B685A68BB68DA407B6892
S3150800045C9A60174B5B6803F46053FB60FB68DB0A16
S3150800046CFB60174AFB6813441B78DBB2BB607B68DE
S3150800047C5A68BB68DA407B68DA600D4B5B6803F434
S3150800048C4043FB60FB689B0BFB600E4AFB681344FE
S3150800049C1B78DBB2BB607B68DA68BB68B2FBF3F22D
S315080004AC7B681A612C37BD465DF8047B704700BF24
S315080004BC0010024000127A0040787D0100093D00C8
S315080004CC040000201400002080B483B000AF7860CC
S315080004DC0B46FB70FB78002B06D00949084B9A692A
S315080004EC7B6813438B6106E00549054B9A697B6863
S315080004FCDB4313408B610C37BD465DF8047B7047B4
S3150800050C0010024080B584B000AFF860B9607A601C
S3150800051C252000F099FF1037BD4680BD80B582B006
S3150800052C00AF0123FB71112000F048FA00F06EFAB7
S3150800053C02462B4B5A602A4B5B68184600F076FA33
S3150800054C00F04AFE02F084FFFB79012B45D104F03A
S3150800055CC9F90346BB71BB792248194603F0BEFBA1
S3150800056CBB79032B16D801A252F823F0890500088B
S3150800057C990500089105000891050008012000F06E
S3150800058C55F80CE0022000F051F808E0082000F0BD
S3150800059C4DF804E0BB79184600F074FA00BF104B0E
S315080005AC01221A700E4B5B681A7E0D4B5B685B7EDC
S315080005BC1046194600F018F803467B717B79002B18
S315080005CC0BD1074B00225A61054B00229A61044B4A
S315080005DC5B68DB69184600F01BFF0837BD4680BD13
S315080005EC981000205054000880B582B000AF03461E
S315080005FC0A46FB711346BB71FB79184600F054F892
S3150800060C0246BB79074811461A4603F067FB064AA9
S3150800061CFB791372044ABB7993770023184608377B
S3150800062CBD4680BD645400089810002080B483B081
S3150800063C00AF7860054B9A6A7B681343034A93624A
S3150800064C0C37BD465DF8047B704700BF9810002038
S3150800065C80B400AF72B6064B1B78DBB2DBB2013343
S3150800066CDBB2DAB2024B1A70BD465DF8047B7047F2
S3150800067CDC10002080B400AF0A4B1B78002B0DD081
S3150800068C084B1B78DBB2DBB2013BDBB2DAB2054BAB
S3150800069C1A70044B1B78002B00D162B6BD465DF868
S315080006AC047B7047DC10002080B584B000AF03468D
S315080006BCFB710023FB60FB79103B802B00F2458114
S315080006CC01A252F823F000BFFD080008270900080C
S315080006DC0F090008570900085709000857090008A8
S315080006EC5709000857090008570900085709000850
S315080006FC5709000857090008570900085709000840
S3150800070C5709000857090008E5080008F108000809
S3150800071C1B090008390900082D090008EB08000810
S3150800072C1509000857090008570900085709000851
S3150800073C57090008570900085709000857090008FF
S3150800074C570900085709000809090008570900083D
S3150800075CD90800083F090008570900085709000876
S3150800076C57090008570900085709000857090008CF
S3150800077C57090008570900085709000857090008BF
S3150800078C5709000857090008DF0800085709000828
S3150800079C57090008570900080309000857090008F3
S315080007AC57090008570900085709000821090008C5
S315080007BC5709000857090008570900085109000885
S315080007CC45090008570900083309000857090008A5
S315080007DC570900085709000857090008570900085F
S315080007EC570900085709000857090008570900084F
S315080007FC570900085709000857090008570900083F
S3150800080C570900085709000857090008570900082E
S3150800081C570900085709000857090008570900081E
S3150800082C570900085709000857090008570900080E
S3150800083C57090008570900085709000857090008FE
S3150800084C57090008570900085709000857090008EE
S3150800085C57090008570900085709000857090008DE
S3150800086C57090008570900085709000857090008CE
S3150800087C57090008570900085709000857090008BE
S3150800088C5709000857090008F7080008570900080F
S3150800089C570900085709000857090008570900089E
S315080008AC570900085709000857090008570900088E
S315080008BC570900085709000857090008570900087E
S315080008CC57090008570900084B090008244BFB6018
S315080008DC40E0244BFB603DE0234BFB603AE0234BA6
S315080008ECFB6037E0224BFB6034E0224BFB6031E0C7
S315080008FC214BFB602EE0214BFB602BE0204BFB6071
S3150800090C28E0204BFB6025E01F4BFB6022E01F4BC9
S3150800091CFB601FE01E4BFB601CE01E4BFB6019E0E6
S3150800092C1D4BFB6016E01D4BFB6013E01C4BFB607C
S3150800093C10E01C4BFB600DE01B4BFB600AE01B4BED
S3150800094CFB6007E01A4BFB6004E01A481A49A4221C
S3150800095CFFF7D8FDFB6818461037BD4680BD00BFAB
S3150800096CCC540008E0540008F45400080855000854
S3150800097C245500083C5500084C55000860550008DD
S3150800098C7C5500088C550008A4550008BC55000871
S3150800099CDC550008F05500080856000820560008D3
S315080009AC3456000850560008685600088056000849
S315080009BC94560008AC560008B056000880B582B0AC
S315080009CC00AF0346FB710B4AFB791374FB79322B88
S315080009DC0CD1FFF73DFE074B5B681B6A064AA2FB68
S315080009EC03239B09054A1360FFF744FE0837BD46E7
S315080009FC80BD00BF981000201F85EB519010002079
S31508000A0C80B400AFBD465DF8047B704780B500AF77
S31508000A1C044B1B78002B01D1FFF7F2FF024B18464B
S31508000A2C80BD00BFC8100020885A000880B582B067
S31508000A3C00AF78607B689B6B184603F0BDFE7B683D
S31508000A4C9B6BDB78184603F0DBFE00BF03F026FF32
S31508000A5C0346002BFAD103F00DFF7B68DB6B1846B7
S31508000A6C03F0BCFF7B68DB6B184603F0B7FF7B68AB
S31508000A7C1B6C184604F0ACFA04F00CF80837BD46A3
S31508000A8C80BD00BF80B582B000AF78600220FFF74A
S31508000A9CCDFD00BF0837BD4680BD00BF80B500AF91
S31508000AAC6FF00D00002102F05FFE80BD80B48DB0A2
S31508000ABC00AF78607B681B68FB627B685B68BB620F
S31508000ACC7B689B687B627B68DB683B627B681B691F
S31508000ADCFB617B685B69BB617B689B697B617B6837
S31508000AECDB693B610C4B9B6A03F48023002B00D01B
S31508000AFCFEE7094B9B6A03F40033002B00D0FEE794
S31508000B0C054B9B6A03F40043002B03D0024B9B6BEB
S31508000B1CFB60FEE7FEE700BF00ED00E072B61EF0D4
S31508000B2C040F0CBFEFF30880EFF309800049084760
S31508000B3CB90A000880B500AF6FF00B00014902F046
S31508000B4C13FE80BD00ED00E080B500AF6FF00A0023
S31508000B5C014902F009FE80BD00ED00E080B500AF4A
S31508000B6C6FF00900014902F0FFFD80BD00ED00E0C1
S31508000B7C80B483B000AF7860FF2318460C37BD46A7
S31508000B8C5DF8047B704700BF00F056FD0C480D4914
S31508000B9C016062B6BFF34F8FBFF36F8FFEE74FEA64
S31508000BAC000D4FEA010E70472DE9F04F4FEA0D0480
S31508000BBC04600C684FEA040D034D2960BDE8F08FFC
S31508000BCC04ED00E000000010E010002080B483B0B3
S31508000BDC00AFEFF310833B603B687B6072B67B68B3
S31508000BEC18460C37BD465DF8047B704780B485B053
S31508000BFC00AF78607B68FB60FB6883F3108814375A
S31508000C0CBD465DF8047B704780B400AF034B1B6888
S31508000C1C1846BD465DF8047B704700BFE0100020FF
S31508000C2C80B400AF084B1A78084B1B781343DBB219
S31508000C3C5BB2002B14BF01230023DBB21846BD465A
S31508000C4C5DF8047B704700BFDD100020DC10002027
S31508000C5C80B400AF074B5B6D9B8B4FF6FF729342CC
S31508000C6C0CBF01230023DBB21846BD465DF8047B96
S31508000C7C704700BFE010002080B483B000AF034675
S31508000C8CFB80FA881346DB0013441B01034A134402
S31508000C9C18460C37BD465DF8047B70474811002092
S31508000CAC80B483B000AF78607B689B6B002B14BF55
S31508000CBC01230023DBB218460C37BD465DF8047BCE
S31508000CCC704700BF80B582B000AF0346FB71094B75
S31508000CDC5B6A002B0AD0074B5B6ADB68002B05D0D6
S31508000CEC044B5B6ADB68FA79104698470837BD46A9
S31508000CFC80BD00BFE010002080B586B000AFC7E904
S31508000D0C0001FFF781FF78610023FB74FFF788FF6A
S31508000D1C0346002B0DD00D23FB743B4B0A221A708D
S31508000D2C3B68394A5360FB7C1846FFF7CBFFFB7CC4
S31508000D3C66E0364B5B69002B0DD00223FB74324BF5
S31508000D4C0A221A703B68304A5360FB7C1846FFF738
S31508000D5CB9FFFB7C54E07B691B6C1B7B032B0DD00A
S31508000D6C0123FB74284B0A221A703B68264A5360E7
S31508000D7CFB7C1846FFF7A6FFFB7C41E07869FFF77A
S31508000D8C8FFF0346002B0DD00623FB741E4B0A223D
S31508000D9C1A703B681C4A5360FB7C1846FFF792FF97
S31508000DACFB7C2DE0FFF712FFF8607B69D3E906019F
S31508000DBCD7E9002302EA000203EA010313431BD115
S31508000DCC7969D7E90023C1E90423FFF741FF0346F4
S31508000DDC002B0ED0022001F0F7F87B699B8903F0F3
S31508000DEC0803002B08D10A480A494922FFF78AFB4F
S31508000DFC02E0786900F092FFF868FFF7F7FEFB7CD3
S31508000E0C18461837BD4680BDCC100020E0100020CF
S31508000E1C9C5B0008C05B000880B588B000AF014633
S31508000E2CC7E900230B46FB810023FB77FB89012BC3
S31508000E3C10D90323FB774F4B07221A70FB894D4AAF
S31508000E4C53603B684B4A9360FB7F1846FFF73AFFA3
S31508000E5CFB7F8AE0FB891846FFF70EFFB861FFF7A0
S31508000E6CD3FE7861BB691B6C1B7B032B10D001234B
S31508000E7CFB77404B07221A70FB893E4A53603B6846
S31508000E8C3C4A9360FB7F1846FFF71CFFFB7F6CE020
S31508000E9CBB699B8903F00403002B10D00723FB774F
S31508000EAC344B07221A70FB89324A53603B68314A25
S31508000EBC9360FB7F1846FFF705FFFB7F55E0FFF7AE
S31508000ECC85FE3861BB69D3E90601D7E9002342EAF6
S31508000EDC000243EA0103B969C1E90623BB69D3E9F0
S31508000EEC0401D7E9002302EA000203EA01031343CB
S31508000EFC37D0BB699B8903F00203002B26D0B8694F
S31508000F0C00F0F8FEFFF780FE78611B4B5B69002B3F
S31508000F1C27D17B691B6C93F82830002B21D1BB6930
S31508000F2CDA6A7B69DB6A9A421BD9FFF779FE0346B4
S31508000F3C83F00103DBB2002B13D0FFF789FE0346BF
S31508000F4C002B0ED0012001F03FF80AE0BB699B8903
S31508000F5C03F06903002B04D108480949B722FFF7A7
S31508000F6CD1FA3869FFF742FEFB7F18462037BD4693
S31508000F7C80BD00BFCC100020E0100020245C0008C7
S31508000F8CC05B000880B586B000AF03463960FB80AD
S31508000F9C0023FB753B68002B10D11823FB753E4BC1
S31508000FAC09221A70FB883C4A53603B683A4A93609C
S31508000FBCFB7D1846FFF786FEFB7D68E0FFF730FEE3
S31508000FCC0346002B10D00D23FB75334B09221A70E0
S31508000FDCFB88314A53603B682F4A9360FB7D184661
S31508000FECFFF770FEFB7D52E0FB88012B10D903231B
S31508000FFCFB75294B09221A70FB88274A53603B68F4
S3150800100C254A9360FB7D1846FFF75CFEFB7D3EE0A8
S3150800101CFB881846FFF730FE38613B691B6C1B7B57
S3150800102C032B10D00123FB751B4B09221A70FB8866
S3150800103C194A53603B68184A9360FB7D1846FFF7BC
S3150800104C41FEFB7D23E03B699B8903F00403002BDF
S3150800105C10D00723FB75104B09221A70FB880E4A11
S3150800106C53603B680C4A9360FB7D1846FFF72AFED3
S3150800107CFB7D0CE0FFF7AAFDF8603B69D3E9062374
S3150800108C3968C1E90023F868FFF7B0FDFB7D1846FF
S3150800109C1837BD4680BD00BFCC10002080B586B081
S315080010AC00AFC7E900010023FB75FFF7ADFD3861FA
S315080010BCFFF7B6FD0346002B0DD00D23FB75264B0B
S315080010CC08221A703B68244A5360FB7D1846FFF7C2
S315080010DCF9FDFB7D3BE0214B5B69002B0DD0022310
S315080010ECFB751D4B08221A703B681B4A5360FB7D27
S315080010FC1846FFF7E7FDFB7D29E03B691B6C1B7B5C
S3150800110C032B0DD00123FB75134B08221A703B6871
S3150800111C114A5360FB7D1846FFF7D4FDFB7D16E09C
S3150800112CFFF754FDF8603B69D3E90601D7E90023BC
S3150800113C6FEA02026FEA030302EA000203EA0103FA
S3150800114C3969C1E90623F868FFF750FDFB7D184697
S3150800115C1837BD4680BD00BFCC100020E01000201B
S3150800116C80B400AF044B00221A70044B00221A708C
S3150800117CBD465DF8047B7047DD100020DC100020AE
S3150800118C80B483B000AF0346FB80FA881346DB00B5
S3150800119C13441B01034A134418460C37BD465DF825
S315080011AC047B70474811002090B482B000AF786079
S315080011BC39603B685A687B68DA627A683B68144619
S315080011CC103393E8070084E807007B683A681A64CA
S315080011DC0837BD4690BC704780B588B000AF384814
S315080011EC02F07CFD374800215C2203F009FF354BE1
S315080011FC012283F85A20334B334A5A65334B6422FF
S3150800120C1A70334B64221A7000F040FB2D4B0022E7
S3150800121C9A642C4B2F4ADA602A4B0022DA64294B43
S3150800122C2D4A1A653B1D184602F074F9BB681A4616
S3150800123CFB681344103B1A46224B1A62BB68BB6107
S3150800124CBB6942221A70BA68FB6813447B617B69D6
S3150800125C013B42221A7001F0CDFE0023FB6127E008
S3150800126CFB699BB21846FFF78BFF3861FB699B013C
S3150800127C1A4A134438691946FFF796FF386900F07D
S3150800128CE5FD3B6900229A633B6903F138023B6929
S3150800129CDA633B691B6C1B8819463B691B6C5A6ADB
S315080012AC3B69DB6A0E4802F019FDFB690133FB61E9
S315080012BCFB69012BD4D901F053FA2037BD4680BD02
S315080012CC285C0008E010002068120020DC100020C2
S315080012DCDD100020481100202C110020B8530008FE
S315080012EC305C000880B586B000AF00233B6172B64F
S315080012FC3B4B93F85A30002B04D13A483A49BF2253
S3150800130CFFF700F9364B394A5A62354B5B6A5B680C
S3150800131C002B03D0324B5B6A5B68984702F0E6F900
S3150800132C01F0E8FC01F0DAFE03F012FBB860304B72
S3150800133C1B68BA68B2FBF3F3184601F0D7FE002314
S3150800134CFB600023FB8219E0FB8A1846FFF718FF9F
S3150800135C78607B681B6C5B7B002B0CD03B69002B85
S3150800136C04D07B68DA6AFB689A4204D97B683B61CD
S3150800137C7B68DB6AFB60FB8A0133FB82FB8A012BE9
S3150800138CE2D93B69002B05D11A48174940F20912D4
S3150800139CFFF7B8F8124A3B6913603B691B6CDB69AB
S315080013AC0F4A1364FFF7DCFE3B6993F830203B6960
S315080013BC1B6C93F83C309A4205D90F480A4940F2FF
S315080013CC1512FFF79FF80020396900F0D7FF0B4874
S315080013DC054940F21912FFF795F81837BD4680BD36
S315080013ECE0100020485C00086C5C000838540008C3
S315080013FC58530008D05C0008EC5C00082C5D00080B
S3150800140C80B500AFFFF78AF80123184680BD00BFE8
S3150800141C80B582B000AF7860084B012283F859205A
S3150800142C064A7B689363FFF75DFF054805494FF449
S3150800143C9E72FFF767F80837BD4680BDE01000209E
S3150800144C2C5D00086C5C000880B582B000AF0346C2
S3150800145CFB7172B6074B5B6A002B0AD0054B5B6AAD
S3150800146C9B68002B05D0034B5B6A9B68FA79104680
S3150800147C9847FEE7E010002080B483B000AF786090
S3150800148C034A7B6813600C37BD465DF8047B7047CE
S3150800149CE010002080B400AF084B1A78084B1B7874
S315080014AC1343DBB25BB2002B14BF01230023DBB260
S315080014BC1846BD465DF8047B704700BFDD1000205A
S315080014CCDC10002080B483B000AF0346FB7197F99B
S315080014DC0730002B0ADA0D4AFB7903F00F03043B9D
S315080014EC13441B7EDBB21B09DBB208E0084A97F9EA
S315080014FC0730134493F80033DBB21B09DBB21846EA
S3150800150C0C37BD465DF8047B704700BF00ED00E064
S3150800151C00E100E080B400AF074B5B6D9B8B4FF688
S3150800152CFF7293420CBF01230023DBB21846BD465B
S3150800153C5DF8047B704700BFE010002080B483B0D0
S3150800154C00AF78607B6808229A810C37BD465DF837
S3150800155C047B704780B485B000AF78600023FB73BA
S3150800156C7B685B68BB60BB681B78422B0CBF01238E
S3150800157C0023DBB2FB73FB7B18461437BD465DF8BC
S3150800158C047B704780B485B000AF78600023FB738A
S3150800159C7B685A687B689B681344BB60BB68013BD5
S315080015AC1B78422B0CBF01230023DBB2FB73FB7B9E
S315080015BC18461437BD465DF8047B704780B582B073
S315080015CC00AF78607868FFF7C5FF0346002B05D097
S315080015DC7868FFF7D7FF0346002B02D10E20FFF7DA
S315080015EC33FF0837BD4680BD80B500AF62B6034BE6
S315080015FC1B681B6C9B68984780BD00BFE0100020D9
S3150800160C80B400AF30231846BD465DF8047B70479E
S3150800161C90B482B000AFEFF309831C4623467B6077
S3150800162C7B6820337B607B683B603B6883F3098867
S3150800163C0837BD4690BC704780B500AF044B5A6856
S3150800164C034B1B6810461946FFF7AEFA80BD00BF60
S3150800165CE010002090B587B000AF6F4B5B68C3F302
S3150800166C08037B617B69DBB2103BDBB2DBB25BB296
S3150800167C1846FFF727FF0346042B10D8674A7B69E1
S3150800168C52F82330002B04D1654866497A22FEF7B6
S3150800169C39FF624A7B6952F823309847B8E0EFF372
S315080016AC09831C4623463B6172B6FFF7F3FE0346D5
S315080016BC002B04D05C485B498522FEF723FF7B6927
S315080016CC9BB23869194601F037FF584B1B78422BE9
S315080016DC02D00E20FFF7B8FE4F4B5B6803F400638D
S315080016EC002B00F09180524B00221A60EFF309830D
S315080016FC1C462346FB60FB68203BFB60FB684FF0EF
S3150800170C8072DA61FB687B607B6883F3098800F07A
S3150800171CC1FBB860B868FFF751FF464B1A68BB683F
S3150800172C9A420ED0434B1B681B6C93F82830012B3E
S3150800173C07D0FFF7EFFE034683F00103DBB2002B5D
S3150800174C2AD03C4B1B6808229A813A4B1B689B890A
S3150800175C03F00803002B04D137483249B522FEF7AB
S3150800176CD1FE344B1B689B6A002B04D033482D4999
S3150800177CB522FEF7C7FE2F4B1B6801229A622D4B2A
S3150800178C5B6A1B69002B03D02A4B5B6A1B6998475B
S3150800179C2B4AFB689A613BE0264B1B68254A53602B
S315080017ACB868FFF769FEBB681B6CDB69214A1364D2
S315080017BC00F0AEFFB868FFF7C1FE1E4B1B689B898D
S315080017CC03F00803002B04D11B481649C522FEF763
S315080017DC99FE184B1B689B6A002B04D017481149B5
S315080017ECC522FEF78FFE134B1B6801229A62114B1A
S315080017FC5B6A1B69002B03D00E4B5B6A1B69984707
S3150800180C104AFB689A6103E0094B01221A6062B61A
S3150800181C1C37BD4690BD00BF00ED00E0BC1B002088
S3150800182C305D0008585D0008C85D0008C01E002021
S3150800183C40110020E0100020E85D00081C5E00083E
S3150800184C980B0008940B000880B485B000AF78603C
S3150800185C7B681B68FB607B681B6C1B7B032B03D1AB
S3150800186C084AFB681A6207E07B681B6C1B7B012B1A
S3150800187C02D1054AFB681A621437BD465DF8047B2B
S3150800188C704700BFA91D0008ED1D000880B400AF05
S3150800189CBD465DF8047B704780B483B000AFEFF3A8
S315080018AC10833B603B687B6072B67B6818460C37C6
S315080018BCBD465DF8047B704780B485B000AF786090
S315080018CC7B68FB60FB6883F310881437BD465DF8AC
S315080018DC047B704780B483B000AF7860034A7B689A
S315080018EC13600C37BD465DF8047B7047E01000208A
S315080018FC80B400AF034B1B681846BD465DF8047BE5
S3150800190C704700BFE010002080B400AF084B1A786F
S3150800191C084B1B781343DBB25BB2002B14BF0123B5
S3150800192C0023DBB21846BD465DF8047B704700BF42
S3150800193CDD100020DC10002080B400AF044B002220
S3150800194C1A70044B00221A70BD465DF8047B70476A
S3150800195CDD100020DC10002080B400AF074B5B6D57
S3150800196C9B8B4FF6FF7293420CBF01230023DBB20D
S3150800197C1846BD465DF8047B704700BFE010002092
S3150800198C80B483B000AF78607B6808229A810C37E4
S3150800199CBD465DF8047B704780B483B000AF034640
S315080019ACFB80FA881346DB0013441B01034A1344D5
S315080019BC18460C37BD465DF8047B70474811002065
S315080019CC80B582B000AF786039607B689A8B3B68CB
S315080019DC1B6C1B889A4205D01F48204940F20312FB
S315080019ECFEF790FD7B684FF6FF729A837B689A69BF
S315080019FC3B68DA627B689B7F022B29D03B689B6B22
S31508001A0C002B05D11648154940F20912FEF77AFD46
S31508001A1C3B68DB6B5B681A687B689A4205D0114891
S31508001A2C0E494FF48672FEF76DFD7B689B6A002B98
S31508001A3C05D07B689B6A7A68D26ADA6203E07B68AF
S31508001A4CDA6A3B68DA637B68DB6A7A68926A1A60D8
S31508001A5C0837BD4680BD00BF445E00086C5E0008B2
S31508001A6CD05E0008085F000880B584B000AF7860C7
S31508001A7C7B689B6BFB6006E0F8687968FFF7A0FF4C
S31508001A8CFB689B6AFB60FB68002BF5D11037BD46DB
S31508001A9C80BD00BF80B485B000AF78607B685A689B
S31508001AAC7B689B681344FB60FB68013B42221A70F7
S31508001ABC1437BD465DF8047B704700BF80B485B00B
S31508001ACC00AF78607B685B68FB60FB6842221A7023
S31508001ADC1437BD465DF8047B704700BF80B485B0EB
S31508001AEC00AF78600023FB737B685B68BB60BB68E0
S31508001AFC1B78422B0CBF01230023DBB2FB73FB7B49
S31508001B0C18461437BD465DF8047B704780B485B01B
S31508001B1C00AF78600023FB737B685A687B689B6808
S31508001B2C1344BB60BB68013B1B78422B0CBF0123DB
S31508001B3C0023DBB2FB73FB7B18461437BD465DF8F6
S31508001B4C047B704780B582B000AF78607868FFF781
S31508001B5CC5FF0346002B05D07868FFF7D7FF034669
S31508001B6C002B02D10E20FFF76FFC0837BD4680BD4F
S31508001B7C80B483B000AF78607B689B6B002B14BF76
S31508001B8C01230023DBB218460C37BD465DF8047BEF
S31508001B9C704700BF80B582B000AF0346FB71094B96
S31508001BAC5B6A002B0AD0074B5B6ADB68002B05D0F7
S31508001BBC044B5B6ADB68FA79104698470837BD46CA
S31508001BCC80BD00BFE010002080B582B000AF786001
S31508001BDC7B689B89082B04D0054806492522FEF705
S31508001BEC91FC7B6801229A810837BD4680BD00BFEF
S31508001BFC545F00087C5F000880B483B000AF78603F
S31508001C0C7B68D3F88430002B08D07B68D3F88430F3
S31508001C1C7A68D2F88820C3F8882004E07B68D3F861
S31508001C2C8830074A13657B68D3F888307A68D2F807
S31508001C3C84201A600C37BD465DF8047B704700BFDC
S31508001C4CE010002080B483B000AF78607B68002277
S31508001C5CC3F88420084B1A6D7B68C3F88820064B9A
S31508001C6C1B6D7A681A607B688433034A13650C37D4
S31508001C7CBD465DF8047B7047E010002080B582B045
S31508001C8C00AF78607B689B8903F00903002B04D1AD
S31508001C9C064807496322FEF735FC7B6804229A81BD
S31508001CAC7868FFF7A9FF0837BD4680BDE05F0008D6
S31508001CBC7C5F000880B582B000AF78607B681B6CCF
S31508001CCC1B7B032B0DD179684FF000024FF00003F4
S31508001CDCC1E9062379684FF000024FF00003C1E909
S31508001CEC0423786800F082F87868FFF7ADFD0837AA
S31508001CFCBD4680BD80B582B000AF78607B689B8995
S31508001D0C03F00903002B05D17B6801229A817868B8
S31508001D1CFFF798FF0837BD4680BD00BF80B582B077
S31508001D2C00AF78607B689B8903F00903002B04D10C
S31508001D3C064807499622FEF7E5FB7B6802229A813C
S31508001D4C7868FFF759FF0837BD4680BDE05F000885
S31508001D5C7C5F000880B584B000AF78607B681B6830
S31508001D6CFB607B681A687B685B689A4204D80948EA
S31508001D7C0949A622FEF7C6FB7B685968FB687A6890
S31508001D8C52689B1A084642211A4603F039F910374D
S31508001D9CBD4680BD0C6000087C5F000880B582B02B
S31508001DAC00AFFFF7A5FD7860FFF71EFC72B6FFF7CC
S31508001DBCABFD0346002B01D0FFF7BEFD7868FFF795
S31508001DCCD7FE0346002B02D07868FFF74DFE0C2091
S31508001DDCFFF7E0FE00F0C0FB0837BD4680BD00BF2C
S31508001DEC80B500AFFFF7DAFF80BD00BF80B584B0C1
S31508001DFC00AF78607B685A687B689B681344FB6005
S31508001E0CFB6803F00703002B05D00E480E494FF468
S31508001E1C9372FEF777FB7B68FA681A607868FFF7A7
S31508001E2C39FEFB68103BFB60FFF7EAFB03465B4297
S31508001E3CFA681A447B681A607868FFF73FFE103711
S31508001E4CBD4680BD346000087C5F000880B582B052
S31508001E5C00AF78607B681B6C5B7B012B0BD17B68B6
S31508001E6C93F830300133DAB27B6883F8302078681F
S31508001E7CFFF740FF02E07B6804229A817868FFF737
S31508001E8CB5FF7868FFF766FF7868FFF7DDFC08375B
S31508001E9CBD4680BD80B584B000AF0023BB6000236F
S31508001EAC7B600023FB701D4BDB6CFB6025E0FB683D
S31508001EBC9B8903F00903002B15D0FB78012B0AD15B
S31508001ECCFB68DA6A7B689A4213D9FB68DB6A7B6023
S31508001EDCFB68BB600DE00123FB70FB68DB6A7B606B
S31508001EECFB68BB6005E00E480E494FF4B372FEF76B
S31508001EFC09FBFB68D3F88430FB60FB68002BD6D152
S31508001F0CBB68002B05D10848064940F26B12FEF750
S31508001F1CF9FABB6818461037BD4680BDE01000209C
S31508001F2C546000087C5F00085860000880B582B0D1
S31508001F3C00AF78607868FFF759FF7868FFF720FDDF
S31508001F4C7868FFF7C7FC1A4B1B689B8903F00803D4
S31508001F5C002B05D1174818494FF41672FEF7D2FA1A
S31508001F6C134B1B689B6A002B05D0144812494FF477
S31508001F7C1672FEF7C7FA0E4B1B6801229A620C4BB7
S31508001F8C5B6A1B69002B03D0094B5B6A1B69984774
S31508001F9C7B681B6818460A49FEF701FE094806497C
S31508001FAC40F25D22FEF7AEFA0837BD4680BD00BF8B
S31508001FBCE0100020746000087C5F0008A860000828
S31508001FCCED1D00085460000880B584B000AF0346C8
S31508001FDCFB80FFF78DFCF860B84B5B69002B05D0CE
S31508001FECB748B84940F27122FEF78CFAFFF7B4FCF1
S31508001FFC034683F00103DBB2002B05D0B248B14986
S3150800200C40F27222FEF77EFAFB689B8903F00803FE
S3150800201C002B05D1AD48AB4940F27522FEF772FA92
S3150800202CA64B1B689B8903F00803002B05D1A8480F
S3150800203CA44940F27622FEF765FAA04B1B689B6A08
S3150800204C012B05D0A3489F4940F27622FEF75AFA8F
S3150800205C9A4B1B6800229A62984B5B6A5B69002B49
S3150800206C03D0964B5B6A5B699847FB88013B3F2B11
S3150800207C00F2E18001A252F823F000BF8921000882
S3150800208C91210008432200089921000843220008E0
S3150800209C43220008432200080922000843220008AC
S315080020AC4322000843220008432200084322000862
S315080020BC432200084322000889210008432200080D
S315080020CC4322000843220008432200084322000842
S315080020DC4322000843220008432200084322000832
S315080020EC4322000843220008432200084322000822
S315080020FC4322000843220008A121000843220008B5
S3150800210C4322000843220008432200084322000801
S3150800211C43220008432200084322000843220008F1
S3150800212C43220008432200084322000843220008E1
S3150800213C43220008432200084322000843220008D1
S3150800214C43220008432200084322000843220008C1
S3150800215C43220008432200084322000843220008B1
S3150800216C43220008432200084322000843220008A1
S3150800217C432200084322000889210008F868FFF763
S3150800218C23FD5FE0F868FFF7C9FD5BE0F868FFF729
S3150800219CB1FD57E0494B1B69002B05D14E484949FF
S315080021AC40F29122FEF7AEF9444B1A69FB689A4243
S315080021BC23D0FB6893F83030002B05D147484149AA
S315080021CC4FF42872FEF79EF9FB6893F83030013B02
S315080021DCDAB2FB6883F83020FB6893F83030002BB2
S315080021EC03D1F868FFF74AFD07E0F868FFF7ECFC3F
S315080021FCFB68012283F8312024E023E0FB6893F87E
S3150800220C3030002B05D135482E4940F2B522FEF761
S3150800221C79F9FB6893F83030013BDAB2FB6883F83E
S3150800222C3020FB6893F83030002B03D1F868FFF7A1
S3150800223C25FD07E006E02A48224940F2BD22FEF7B2
S3150800224C61F900BFFFF726FEB860BA68FB689A42C8
S3150800225C2DD0FB88202B0AD1184B1A69FB689A4299
S3150800226C05D1164B00221A61F868FFF7ADFCBB685E
S3150800227C002B05D11B48134940F2CD22FEF742F933
S3150800228C00F05AFAF868FFF75DFCBB6893F8313032
S3150800229C012B07D1BB68002283F83120B868FFF7F9
S315080022AC45FE07E0F868B96800F01EF802E0B86861
S315080022BCFFF73CFE1037BD4680BD00BFE01000207E
S315080022CCD06000087C5F0008F06000081061000808
S315080022DC7460000838610008606100088C610008A9
S315080022EC54600008A861000880B582B000AF786019
S315080022FC39603B68002B35D03868FFF7EBFA3B683A
S3150800230C1B6CDB69194A136400F002FA3868FFF78C
S3150800231C37FB164B1B689B8903F00803002B05D16A
S3150800232C1348144940F20B32FEF7ECF80F4B1B68B6
S3150800233C9B6A002B05D010480E4940F20B32FEF76B
S3150800234CE1F80A4B1B6801229A62084B5B6A1B6907
S3150800235C002B03D0054B5B6A1B699847786839686C
S3150800236CFEF722FC0837BD4680BD00BFE0100020F2
S3150800237C746000087C5F0008A860000880B582B00D
S3150800238C00AF786039603868FFF7A4FA3B681B6CB5
S3150800239CDB691C4A136400F0BBF93868FFF7F0FADE
S315080023AC184B1B689B8903F00803002B05D11648AC
S315080023BC164940F21F32FEF7A5F8124B1B689B6AAA
S315080023CC002B05D01248114940F21F32FEF79AF835
S315080023DC0C4B1B6801229A620A4B5B6A1B69002B21
S315080023EC03D0084B5B6A1B69984778683968FEF70F
S315080023FCE0FB084805494FF44972FEF783F808379D
S3150800240CBD4680BDE0100020746000087C5F0008A3
S3150800241CA86000085460000890B587B000AF034662
S3150800242CFB80FFF765FA78610023FB74FB88012BA8
S3150800243C0DD90323FB74444B00221A70FB88424ABD
S3150800244C5360FB7C1846FFF7A5FBFB7C77E0FB8803
S3150800245C1846FFF7A1FAF860FFF756FA0346002B61
S3150800246C0DD00D23FB74384B00221A70FB88364AA4
S3150800247C5360FB7C1846FFF78DFBFB7C5FE0FFF790
S3150800248C0BFAB860FB6893F830300133DAB2FB68A4
S3150800249C83F83020FB689B89042B21D0FB6893F8C2
S315080024AC3020FB681B6C93F83C309A4229D90423DC
S315080024BCFB74B868FFF700FAFB6893F83030013BF9
S315080024CCDAB2FB6883F830201F4B00221A70FB889F
S315080024DC1D4A5360FB7C1846FFF75CFBFB7C2EE021
S315080024ECFB6893F83030012B05D01848184940F290
S315080024FCFE32FEF707F8F868FFF7DCFBF868FFF71B
S3150800250CF9FB144B5B69002B15D17B691B6C93F893
S3150800251C2830002B0FD1FB68DC6AFFF7E9F9034674
S3150800252CDB6A9C4207D9FFF717FA0346002B02D041
S3150800253C0420FFF749FDB868FFF7BEF9FB7C18467F
S3150800254C1C37BD4690BD00BFCC100020BC610008EE
S3150800255C7C5F0008E010002080B582B000AF002335
S3150800256CFB71FFF7C5F93860FFF7CEF90346002B68
S3150800257C0AD00D23FB711C4B01221A70FB791846E5
S3150800258CFFF708FBFB792AE0184B5B69002B0AD08E
S3150800259C0223FB71144B01221A70FB791846FFF7BC
S315080025ACF9FAFB791BE03868FFF7E2FA0346002BC9
S315080025BC0AD00623FB710C4B01221A70FB791846BC
S315080025CCFFF7E8FAFB790AE072B60820FFF7FCFC7D
S315080025DC0748084940F24142FDF794FFFB79184633
S315080025EC0837BD4680BD00BFCC100020E010002087
S315080025FC546000087C5F000880B400AF034B1B686E
S3150800260C1846BD465DF8047B704700BFE0100020F5
S3150800261C80B483B000AF786039603B681B6C1A884D
S3150800262C7B689A833B68DA6A7B689A617B685A6925
S3150800263C3B68DA627B689B7F022B0FD07B68002293
S3150800264C9A623B68DA6B7B68DA623B68DB6B7A68A2
S3150800265C1A607B6803F128023B68DA630C37BD46BF
S3150800266C5DF8047B704700BF80B582B000AF786018
S3150800267C39607B689A8B3B681B6C1B889A4205D021
S3150800268C1F48204940F20312FDF73CFF7B684FF6C2
S3150800269CFF729A837B689A693B68DA627B689B7FD0
S315080026AC022B29D03B689B6B002B05D11648154984
S315080026BC40F20912FDF726FF3B68DB6B5B681A686C
S315080026CC7B689A4205D011480E494FF48672FDF77D
S315080026DC19FF7B689B6A002B05D07B689B6A7A6816
S315080026ECD26ADA6203E07B68DA6A3B68DA637B688B
S315080026FCDB6A7A68926A1A600837BD4680BD00BFE5
S3150800270C2C62000854620008B8620008F0620008DF
S3150800271C80B582B000AFFFF76FFF78607B681B6CE3
S3150800272C9B6B3B603B68002B03D038687968FFF7D6
S3150800273C6FFF0837BD4680BD80B582B000AFFFF786
S3150800274C5BFF78607B681B6C9B6B3B603B68002B64
S3150800275C03D038687968FFF787FF0837BD4680BD10
S3150800276C80B500AF0A4B5B6D4FF0FF325A61084BD0
S3150800277C5B6D1846074902F091FC054B5B6D002210
S3150800278C1A61034B5B6D4FF6FF729A8380BD00BFCF
S3150800279CE01000203C63000880B483B000AFEFF370
S315080027AC10833B603B687B6072B67B6818460C37B7
S315080027BCBD465DF8047B704780B485B000AF786081
S315080027CC7B68FB60FB6883F310881437BD465DF89D
S315080027DC047B704780B400AF084B1A78084B1B78FB
S315080027EC1343DBB25BB2002B14BF01230023DBB20D
S315080027FC1846BD465DF8047B704700BFDD10002007
S3150800280CDC10002080B483B000AF78607B681B6A4C
S3150800281C18460C37BD465DF8047B704780B483B008
S3150800282C00AF78607B685B6918460C37BD465DF867
S3150800283C047B704780B487B000AFF860B9607A60E3
S3150800284CBA68FB68D31A3B617A683B699A4204D822
S3150800285CFA687B6813447B6106E0FA68BB68D21A8F
S3150800286C7B681344013B7B617B6918461C37BD4664
S3150800287C5DF8047B704700BF80B483B000AF034695
S3150800288CFB80FA881346DB001344DB00034A134427
S3150800289C18460C37BD465DF8047B7047500000207F
S315080028AC80B582B000AF0346FB71094B5B6A002BFF
S315080028BC0AD0074B5B6ADB68002B05D0044B5B6AB6
S315080028CCDB68FA79104698470837BD4680BD00BFC5
S315080028DCE010002080B485B000AF78603960002322
S315080028ECFB737B68002B0DD03B685B689A6A7B6828
S315080028FC9A4205D83B685B681A6A7B689A4201D289
S3150800290C0823FB73FB7B18461437BD465DF8047B1E
S3150800291C704700BF90B583B000AF78607B689B6941
S3150800292C002B04D17B68002283F8242015E07B68F1
S3150800293C5B681846FFF772FF04467B685B681846A7
S3150800294CFFF760FF02467B689B69204611461A46CC
S3150800295CFFF770FF02467B681A620C37BD4690BDBE
S3150800296C80B588B000AFB9607A601A460346FB8119
S3150800297C13467B730023FB777B7B002B18D1FFF761
S3150800298C29FF0346002B13D00D23FB77524B0D2240
S3150800299C1A70FB89504A53604F4ABB6893604E4A7B
S315080029AC7B68D360FB7F1846FFF77AFFFB7F8EE0C8
S315080029BCFB89002B13D00323FB77474B0D221A7088
S315080029CCFB89454A5360444ABB689360424A7B6814
S315080029DCD360FB7F1846FFF763FFFB7F77E0FB8925
S315080029EC1846FFF749FFB861BB68002B05D0BB69D1
S315080029FC5B681A6ABB689A4213D20823FB77364B74
S31508002A0C0D221A70FB89344A5360334ABB689360AB
S31508002A1C314A7B68D360FB7F1846FFF741FFFB7F83
S31508002A2C55E07868B969FFF755FF0346082B13D1AB
S31508002A3C0823FB77284B0D221A70FB89264A53600C
S31508002A4C254ABB689360244A7B68D360FB7F18468B
S31508002A5CFFF726FFFB7F3AE0FFF79EFE7861BB691E
S31508002A6C93F82430002B16D07869FFF7A5FE0723B8
S31508002A7CFB77194B0D221A70FB89174A5360164AB5
S31508002A8CBB689360144A7B68D360FB7F1846FFF7D4
S31508002A9C07FFFB7F1BE0BB69012283F82420BB6977
S31508002AAC5B681846FFF7BAFE0246BB695B681B6A89
S31508002ABC10461946BA68FFF7BDFE0246BB691A628C
S31508002ACCBB697A689A617869FFF776FEFB7F1846C8
S31508002ADC2037BD4680BD00BFCC10002080B588B01D
S31508002AEC00AFB9607A601A460346FB8113467B73BE
S31508002AFC0023FB777B7B002B18D1FFF76BFE034675
S31508002B0C002B13D00D23FB77494B0E221A70FB8929
S31508002B1C474A5360464ABB689360454A7B68D3600C
S31508002B2CFB7F1846FFF7BCFEFB7F7DE0FB89002B7D
S31508002B3C13D00323FB773E4B0E221A70FB893C4AB3
S31508002B4C53603B4ABB689360394A7B68D360FB7F0A
S31508002B5C1846FFF7A5FEFB7F66E0FB891846FFF7CC
S31508002B6C8BFEB861BB695B681A6ABB689A4213D25A
S31508002B7C0823FB772E4B0E221A70FB892C4A5360BE
S31508002B8C2B4ABB6893602A4A7B68D360FB7F18463E
S31508002B9CFFF786FEFB7F47E07868B969FFF79AFE70
S31508002BAC0346082B13D10823FB77214B0E221A70E8
S31508002BBCFB891F4A53601E4ABB6893601C4A7B6894
S31508002BCCD360FB7F1846FFF76BFEFB7F2CE0FFF705
S31508002BDCE3FD7861BB6993F82430002B16D00723E4
S31508002BECFB777869FFF7E8FD114B0E221A70FB8903
S31508002BFC0F4A53600E4ABB6893600D4A7B68D360D4
S31508002C0CFB7F1846FFF74CFEFB7F0DE0BB690122E4
S31508002C1C83F82420BB69BA681A62BB697A689A6118
S31508002C2C7869FFF7C9FDFB7F18462037BD4680BD7E
S31508002C3CCC10002080B584B000AF78607B681B6B25
S31508002C4CFB604DE0FB6893F82430002B45D07B687D
S31508002C5C5A69FB681B6A9A423FD1FB6893F828307D
S31508002C6C032B32D801A252F823F000BF892C000896
S31508002C7C9B2C0008E52C0008C52C0008FB685B8D0E
S31508002C8C1846FFF7C9FBF868FFF744FE25E0FB6812
S31508002C9C598DFB68D3E90C230846FEF7BDF80346A5
S31508002CACFB72FB7A002B03D0FB7A1846FFF7F8FD6C
S31508002CBCF868FFF72FFE10E0FB689B6B184600F0D0
S31508002CCC0FF9F868FFF726FE07E0084808494FF49D
S31508002CDC0072FDF717FC00E000BFFB685B6CFB603D
S31508002CECFB68002BAED11037BD4680BD4C6300087F
S31508002CFC5063000880B584B000AF0023FB8130E038
S31508002D0CFB891846FFF7B8FDB860BB681B6C002B2F
S31508002D1C24D0BB681B6C7B60154B9A6B7B68DB6895
S31508002D2C1340002B1AD07B681B79002B0BD17B68C0
S31508002D3C1A687B689B68F989084611461A46012366
S31508002D4CFFF7CCFE0AE07B681A687B689B68F989F2
S31508002D5C084611461A460123FFF702FEFB89013382
S31508002D6CFB81FB89002BCBD01037BD4680BD00BF3D
S31508002D7CE010002080B483B000AFEFF310833B6003
S31508002D8C3B687B6072B67B6818460C37BD465DF8A7
S31508002D9C047B704780B485B000AF78607B68FB60B5
S31508002DACFB6883F310881437BD465DF8047B7047BF
S31508002DBC80B400AF084B1A78084B1B781343DBB268
S31508002DCC5BB2002B14BF01230023DBB21846BD46A9
S31508002DDC5DF8047B704700BFDD100020DC10002076
S31508002DEC80B483B000AF78607B681B6A18460C37D2
S31508002DFCBD465DF8047B704780B483B000AF78603D
S31508002E0C7A681346DB009B1ADB00044A13441846FF
S31508002E1C0C37BD465DF8047B704700BF18000020D0
S31508002E2C80B487B000AFF860B9607A60BA68FB689E
S31508002E3CD31A3B617A683B699A4204D8FA687B686C
S31508002E4C13447B6106E0FA68BB68D21A7B681344A4
S31508002E5C013B7B617B6918461C37BD465DF8047BD4
S31508002E6C704700BF80B483B000AF0346FB80FA8876
S31508002E7C1346DB001344DB00034A134418460C378D
S31508002E8CBD465DF8047B70475000002080B582B0C3
S31508002E9C00AF0346FB71094B5B6A002B0AD0074B44
S31508002EAC5B6ADB68002B05D0044B5B6ADB68FA7936
S31508002EBC104698470837BD4680BD00BFE010002075
S31508002ECC80B483B000AF78607B68002B0CBF0123FD
S31508002EDC0023DBB218460C37BD465DF8047B7047F9
S31508002EEC90B587B000AF78600023FB75FFF760FFDD
S31508002EFC0346002B0DD00D23FB752A4B27221A707F
S31508002F0C284A7B685360FB7D1846FFF7BFFFFB7D9D
S31508002F1C44E07868FFF7D4FF0346002B0DD1032352
S31508002F2CFB75204B27221A701E4A7B685360FB7D63
S31508002F3C1846FFF7ABFFFB7D30E07868FFF75CFFC0
S31508002F4C38613B691B7C83F00103DBB2002B0DD087
S31508002F5C0323FB75134B27221A70124A7B6853609E
S31508002F6CFB7D1846FFF792FFFB7D17E0FFF702FF84
S31508002F7CF8603B695C693869FFF732FF03462046FF
S31508002F8C19460122FFF74CFF02463B695A6138691C
S31508002F9CFFF750FEF868FFF7FDFEFB7D18461C3759
S31508002FACBD4690BDCC10002090B583B000AF0F4B3A
S31508002FBC1B681846FFF720FF78600D4B9B69013399
S31508002FCC0B4A93617B685C697868FFF709FF0346CF
S31508002FDC204619460122FFF723FF02467B685A61F1
S31508002FEC7868FFF727FE0C37BD4690BD34060020DF
S31508002FFCE010002080B584B000AF0020FFF732FF48
S3150800300CB860BB685B687B607B6800221A63002328
S3150800301CFB8111E0FB891846FFF724FFB860BB68F3
S3150800302C5B687B607B681A6BBB685A647B68BA689A
S3150800303C1A63FB890133FB81FB89002BEAD0103715
S3150800304CBD4680BD80B483B000AF03463960FB71C2
S3150800305C97F90730002B0BDA0D49FB7903F00F03B0
S3150800306C043B3A68D2B21201D2B20B441A7609E082
S3150800307C084997F907303A68D2B21201D2B20B4412
S3150800308C83F800230C37BD465DF8047B704700BFF8
S3150800309C00ED00E000E100E080B582B000AF78609A
S315080030AC7B68013BB3F1807F01D301230FE00A4A09
S315080030BC7B68013B53604FF0FF300F21FFF7C2FFCF
S315080030CC054B00229A60044B07221A600023184607
S315080030DC0837BD4680BD00BF10E000E080B500AFE4
S315080030EC014800F0C7F980BDBC63000880B582B002
S315080030FC00AF78607868FFF7CFFF0837BD4680BD0C
S3150800310C80B400AF034B1B681846BD465DF8047BBC
S3150800311C704700BFE010002080B400AF084B1A7847
S3150800312C084B1B781343DBB25BB2002B14BF01238D
S3150800313C0023DBB21846BD465DF8047B704700BF1A
S3150800314CDD100020DC10002080B400AF044B0022F8
S3150800315C1A70044B00221A70BD465DF8047B704742
S3150800316CDD100020DC10002080B483B000AF78603E
S3150800317C07497A6813465B0013449B000B440833D3
S3150800318C5B7818460C37BD465DF8047B704700BF64
S3150800319C7053000880B485B000AF78600023FB73C9
S315080031AC7B685B68BB60BB681B78422B0CBF012332
S315080031BC0023DBB2FB73FB7B18461437BD465DF860
S315080031CC047B704780B485B000AF78600023FB732E
S315080031DC7B685A687B689B681344BB60BB68013B79
S315080031EC1B78422B0CBF01230023DBB2FB73FB7B42
S315080031FC18461437BD465DF8047B704780B582B017
S3150800320C00AF78607868FFF7C5FF0346002B05D03A
S3150800321C7868FFF7D7FF0346002B02D10E20FEF77E
S3150800322C13F90837BD4680BD80B582B000AF03469A
S3150800323CFB71094B5B6A002B0AD0074B5B6ADB6890
S3150800324C002B05D0044B5B6ADB68FA791046984765
S3150800325C0837BD4680BD00BFE010002080B584B09D
S3150800326C00AF78607B68DB68FB6006E0F868796815
S3150800327C00F05AF8FB689B6AFB60FB68002BF5D1DB
S3150800328C1037BD4680BD00BF80B483B000AF7860F0
S3150800329C7B68DB68002B14BF01230023DBB21846BE
S315080032AC0C37BD465DF8047B704700BF80B485B00B
S315080032BC00AF78607B68DB881BB21033054AD35C99
S315080032CCFB81FB891BB218461437BD465DF8047B97
S315080032DC704700BF3806002080B485B000AF03469F
S315080032EC3960FB800023FB60FB880D4AD35C7B812D
S315080032FC3B68FA881A807B89FF2B0AD07B89092BB5
S3150800330C07D87A8913469B0013449B00054A134435
S3150800331CFB60FB6818461437BD465DF8047B70479E
S3150800332C38060020A012002080B582B000AF786065
S3150800333C39607B689B8B1A463B681B881BB29A4282
S3150800334C04D01C481C49B222FDF7DCF87B684FF602
S3150800335CFF729A837B689B7F022B27D03B68DB68BE
S3150800336C002B04D115481449B722FDF7CBF83B6856
S3150800337C1B695B681A687B689A4204D010480E4928
S3150800338CBC22FDF7BFF87B689B6A002B05D07B68CF
S3150800339C9B6A7A68D26ADA6203E07B68DA6A3B6807
S315080033AC1A617B68DB6A7A68926A1A600837BD46C6
S315080033BC80BD00BFD4630008F0630008546400089D
S315080033CC8C6400082DE9F04184B002AF78600B4696
S315080033DC7B80B7F902201C4913469B0013449B00BB
S315080033EC0B4408337A681A60B7F902201649134653
S315080033FC9B0013449B000B447A881A807B68DB88F5
S3150800340C1BB210337A88D1B2104AD1547B68DE6865
S3150800341C7B68B3F806807B681B899DB27B685C79F0
S3150800342C7B681B691846FFF79FFE03461A460FFA78
S3150800343C88F30092304619462A46234600F06EFA5F
S3150800344C0837BD46BDE8F081A012002038060020DA
S3150800345C80B500AF00F040FA044B00221A800448ED
S3150800346CFF21542201F0CCFD80BD00BF981200202C
S3150800347C3806002080B584B000AF78607B68002BD6
S3150800348C04D11F481F49F922FDF73CF87B68DB88F5
S3150800349C1BB21033532B04D91B481A49FA22FDF7D1
S315080034AC31F87868FFF702FF0346BB81B7F90C3091
S315080034BCFF2B02D0BB89FB811BE0144B1B88FB81BD
S315080034CC124B1B889BB29BB201339BB29AB20F4B21
S315080034DC1A80B7F90E30092B05DD0D4809494FF44A
S315080034EC8772FDF70FF8B7F90E3078681946FFF7AB
S315080034FC69FFFB891BB218461037BD4680BD00BF55
S3150800350CD8640008F0630008F064000898120020DC
S3150800351C2865000880B483B000AF78607B68054ADC
S3150800352C5A607B684FF400629A600C37BD465DF8AA
S3150800353C047B70477013002080B586B000AF7860A6
S3150800354C0B467B8000237B6100233B610023FB60D9
S3150800355C00237B817A8807F10A0310461946FFF780
S3150800356CBBFE78617B69002B05D15948594940F255
S3150800357C9F12FCF7C7FF7B699B681B89002B20D120
S3150800358C554B9B68FB60544A7B699360524B5B694D
S3150800359C0133514A536162B67B699B68DB6898476D
S315080035AC72B64D4B5B69013B4B4A53614A4AFB6801
S315080035BC93607B899BB21BB2184600F0A5F97B6811
S315080035CC81E07B699B681B891BB2012B05D043489C
S315080035DC404940F2AF12FCF795FF3F4B5A69404BF6
S315080035EC1B681344002B2ED13B4B1B689B8903F09D
S315080035FC0803002B05D13B48364940F2B912FCF7B3
S3150800360C81FF354B1B689B6A012B05D0364831491F
S3150800361C40F2B912FCF776FF2F4B1B6800229A6210
S3150800362C2D4B5B6A5B69002B03D02B4B5B6A5B6982
S3150800363C9847FFF765FD38613B6901229A8138691D
S3150800364CFFF7DCFD06E0264B1B68012B02D0224B4C
S3150800365C9B68FB60204B5B6901331F4A53617B698E
S3150800366C01225A601C4A7B69936062B67B699B6827
S3150800367CDB68984772B6FFF74FFD0346002B04D05C
S3150800368CFFF762FD0D20FFF7CFFD7869FFF7FCFD0C
S3150800369C0346012B05D17869FFF7E0FD0620FFF7F5
S315080036ACC3FD7B6902225A600B4A7B6993607B894E
S315080036BC9BB21BB2184600F027F9074B5B69013B16
S315080036CC054A5361002318461837BD4680BD00BF0E
S315080036DCD8640008F0630008E0100020386500087C
S315080036EC40110020546500088865000880B483B032
S315080036FC00AF0023FB802BE0FB88194A4C2101FB09
S3150800370C03F31344083300221A70F988FA8815480B
S3150800371C13465B0013449B00034408331878104A7D
S3150800372C4C2303FB01F3134402461A70F988FA88F2
S3150800373C0C4813465B0013449B0003441A6808485C
S3150800374C4C2303FB01F303445A60FB880133FB80CB
S3150800375CFB88002BD0D00C37BD465DF8047B704730
S3150800376C701B00207053000880B584B000AF7860D9
S3150800377C39600423FB73114B5B6A002B15D00F4B76
S3150800378C5B6A1B68002B10D07868FDF7F1F90346C5
S3150800379CBB73BB7BFF2B08D0084B5B6A1B68BA7BD9
S315080037AC104698470346FB73FFE7FB7B002B02D0BA
S315080037BC1F20FDF749FE1037BD4680BDE0100020DE
S315080037CC80B485B000AF78607B6803F00703FB60B4
S315080037DC0C4BDB68BB60BA684FF6FF031340BB6043
S315080037ECFB681A02BB68134343F0BF6343F4003308
S315080037FCBB60044ABB68D3601437BD465DF8047BCE
S3150800380C704700BF00ED00E080B483B000AF0346FC
S3150800381C3960FB7197F90730002B0BDA0D49FB79E8
S3150800382C03F00F03043B3A68D2B21201D2B20B442E
S3150800383C1A7609E0084997F907303A68D2B21201A4
S3150800384CD2B20B4483F800230C37BD465DF8047BD3
S3150800385C704700BF00ED00E000E100E080B582B0E3
S3150800386C00AF0346FB71FB791F2B04D9074808499F
S3150800387C2922FCF747FEFB795B08DBB2C3F10F0381
S3150800388CDBB218460837BD4680BD00BFB0650008D8
S3150800389CB865000880B582B000AF03463960FB7185
S315080038AC97F9073018463968FFF7AEFF97F90730CE
S315080038BC002B0CDB074AFB795B09DBB21846FB7954
S315080038CC03F01F03012101FA03F342F820300837ED
S315080038DCBD4680BD00E100E080B500AF0020FFF7D3
S315080038EC6FFF1420FFF7BAFF03466FF00100194665
S315080038FCFFF78AFF034A034B5B6863F0FF035360C9
S3150800390C80BD00BF002004E080B483B000AF03463E
S3150800391CFB800C37BD465DF8047B704790B585B0C7
S3150800392C00AFF860084611461A4603467B810B46DB
S3150800393C3B811346FB71B7F90A30532B28DC3B89BC
S3150800394C002B0FD1FB79152B04D8154815497C2269
S3150800395CFCF7D8FDB7F90A3010331349FA6841F861
S3150800396C232007E0FB79132B04D910480D497F2235
S3150800397CFCF7C8FD7B89DCB2FB791846FFF76EFFAE
S3150800398C03461A4663B218461146FFF783FF04E04E
S3150800399C074804498622FCF7B5FD1437BD4690BD89
S315080039AC28660008B8650008BC1B00203C660008A1
S315080039BC4C66000880B400AF72B6064B1B78DBB2B7
S315080039CCDBB20133DBB2DAB2024B1A70BD465DF8D4
S315080039DC047B7047DC10002080B400AF0A4B1B78C0
S315080039EC002B0DD0084B1B78DBB2DBB2013BDBB2EC
S315080039FCDAB2054B1A70044B1B78002B00D162B651
S31508003A0CBD465DF8047B7047DC10002090B585B088
S31508003A1C00AF0446084611461A462346FB80034661
S31508003A2C7B710B463B711346FB700023FB73224BD1
S31508003A3C1B78022B3BD1FFF7BDFF204B1B680F2BC6
S31508003A4C33D81E4B1A681E4913465B0013445B0099
S31508003A5C0B44FA881A80194B1A68194913465B00E5
S31508003A6C13445B000B447A799A70144B1A68144900
S31508003A7C13465B0013445B000B443A79DA700F4B20
S31508003A8C1A680F4913465B0013445B000B44FA781B
S31508003A9C1A710A4B1B680133084A1360074B1B68DB
S31508003AAC102B02D1054B00221A60FFF795FFFB7B02
S31508003ABC18461437BD4690BD0C1D0020C02E00209C
S31508003ACCC42E002080B584B000AF0346FB710B4BA7
S31508003ADC1B78012B03D10A4B1B78FB7301E0FB798E
S31508003AECFB73074AFB7B1370FB7B1020194601F00E
S31508003AFC3BFA002318461037BD4680BD0D1D002025
S31508003B0C0E1D002080B584B000AF78600B46FB70A4
S31508003B1C0123FB737B68002B00D006E0FB78184664
S31508003B2CFFF7D0FF0346FB7300BFFB7B1846103725
S31508003B3CBD4680BD80B582B000AF0346FB71FB79EC
S31508003B4C184601F007F80837BD4680BD80B584B025
S31508003B5C00AF786039600023FB6009E07B685A1C6B
S31508003B6C7A601B781846FFF7E5FFFB680133FB60A4
S31508003B7CFA683B689A42F1D33B6818461037BD463B
S31508003B8C80BD00BF80B485B000AFF860B9607A60BC
S31508003B9C002318461437BD465DF8047B704700BFF2
S31508003BAC80B483B000AF78607B68042B0BDC0949C2
S31508003BBC7A6813469B001344DB000B441B68002BE6
S31508003BCC01D0012300E0002318460C37BD465DF8EA
S31508003BDC047B70470001002080B483B000AF786086
S31508003BEC7B681B6818460C37BD465DF8047B704726
S31508003BFC90B58BB000AFF860B9607A6000237B6231
S31508003C0CF868FFF7CDFF0346002B01D1092346E0E0
S31508003C1C2549FA6813469B001344DB000B44103302
S31508003C2C5B683B623B6A5B68012B08D13B6AFB61AC
S31508003C3CFB699B6AB8687968984778622EE03B6A94
S31508003C4C5B68022B2AD13B6ABB61FA6813469B0058
S31508003C5C1344DB00144A13447B61BB69DC69B869FD
S31508003C6C7969BA687B68A04778627B6A002B06DAA2
S31508003C7C01F0C0F902467B6A5B4213600EE07B6971
S31508003C8CDA697B681A447B69DA617B695A6A7B69EB
S31508003C9CDB699A4238BF1A467B695A627B6A1846B0
S31508003CAC2C37BD4690BD00BF0001002080B584B0FE
S31508003CBC00AF786039607B68DBB2FB723868FFF757
S31508003CCC8BFFF86007F10B03F8681946012201F01F
S31508003CDC17FB7B6818461037BD4680BD0FB480B5F8
S31508003CEC82B000AF07F114033B60084B1B685B6896
S31508003CFC184639693A6800F00BF878607B681846FC
S31508003D0C0837BD46BDE8804004B07047D401002092
S31508003D1C80B588B002AFF860B9607A607B680093AA
S31508003D2CF86800214FF0FF32BB6800F0D5F87861CF
S31508003D3C7B6918461837BD4680BD00BF80B584B070
S31508003D4C00AFF860B9603B601346FB713B681B68B3
S31508003D5C012B01D101231AE03B681B685A1E3B68EC
S31508003D6C1A60BB68002B08D1FA790B4B1B685B6889
S31508003D7C10461946FFF79AFF08E0BB681B68FA79E4
S31508003D8C1A70BB681B685A1CBB681A600123184654
S31508003D9C1037BD4680BD00BFD401002080B588B061
S31508003DAC00AFF860B9607A603B607B68BB61BB6A40
S31508003DBC03F00203002B01D0302300E02023FB750F
S31508003DCCBB6A03F01003002B25D00023FB610CE023
S31508003DDCFB69BA6913441B78F868B9681A46FB6A12
S31508003DECFFF7ACFFFB690133FB61FB69BA69134446
S31508003DFC1B78002BECD109E0FB7DF868B9681A46EC
S31508003E0CFB6AFFF79BFFFB690133FB61FA693B68A9
S31508003E1C9A42F1DB2FE0786801F09EF903463B6184
S31508003E2C3A683B699A4212DD0023FB6109E0FB7D87
S31508003E3CF868B9681A46FB6AFFF780FFFB69013315
S31508003E4CFB613A683B69D21AFB699A42EFDC00239C
S31508003E5CFB610CE0FB697A6813441B78F868B9684F
S31508003E6C1A46FB6AFFF76AFFFB690133FB61FA69BD
S31508003E7C3B699A42EEDB2037BD4680BD80B58AB0D9
S31508003E8C02AFF860B9607A603B6007F11003FB611A
S31508003E9CFB6A03F02003002B09D07A687B68DB0FDA
S31508003EACDBB21046F9693A6800F064F906E07B68FB
S31508003EBC1846F9693A68002300F05CF9FB6A009326
S31508003ECC3B6B0193F868B968FA69BB6AFFF766FF3A
S31508003EDC2037BD4680BD00BF80B590B004AFF860F2
S31508003EECB9607A603B607B687B6120E197F82F307C
S31508003EFC252B40F012813B685A1C3A601B7887F8D0
S31508003F0C2F3097F82F30252B08D197F82F2007F14B
S31508003F1C1403F868B968FFF711FF08E197F82F3012
S31508003F2C302B02D10223BB6212E097F82F30202BDC
S31508003F3C02D10823BB620BE097F82F302D2B02D148
S31508003F4C1023BB6204E00023BB623B68013B3B6069
S31508003F5C3B685A1C3A601B7887F82F3097F82F3035
S31508003F6C2F2B33D997F82F30392B2FD80123FB61F8
S31508003F7C97F82F303B740BE0FB695A1CFA613A68C8
S31508003F8C511C3960127807F130010B4403F8202CC8
S31508003F9C3B681B782F2B03D93B681B78392BEBD93D
S31508003FAC07F11002FB69134400221A7007F110037B
S31508003FBC184600210A2201F097F903463B623B6832
S31508003FCC5A1C3A601B7887F82F3001E000233B62B5
S31508003FDC97F82F30682B07D097F82F306C2B03D017
S31508003FEC97F82F304C2B05D13B685A1C3A601B7836
S31508003FFC87F82F3097F82F30632B0BD1BB6B1A1D14
S3150800400CBA631B68DAB207F11403F868B968FFF7E4
S3150800401C95FE8CE097F82F30642B14D1BB6A43F0CD
S3150800402C2003BB62BB6B1A1DBA631A683B6A009302
S3150800403CBB6A019307F114030293F868B9680A235B
S3150800404CFFF71CFF73E097F82F30752B14D1BB6A5A
S3150800405C43F04003BB62BB6B1A1DBA631A683B6A12
S3150800406C0093BB6A019307F114030293F868B968C5
S3150800407C0A23FFF703FF5AE097F82F30782B14D151
S3150800408CBB6A43F04003BB62BB6B1A1DBA631A6862
S3150800409C3B6A0093BB6A019307F114030293F86811
S315080040ACB9681023FFF7EAFE41E097F82F30702B1A
S315080040BC14D1BB6A43F08003BB62BB6B1A1DBA638F
S315080040CC1A683B6A0093BB6A019307F114030293BF
S315080040DCF868B9681023FFF7D1FE28E097F82F3057
S315080040EC732B15D1BB6B1A1DBA631B687B627B6A73
S315080040FC002B01D11E4B7B62BB6A009307F114039C
S3150800410C0193F868B9687A6A3B6AFFF747FE0EE0CE
S3150800411C97F82F302E2B0AD11AE70023BB6297F893
S3150800412C2F2007F11403F868B968FFF707FE3B68F8
S3150800413C5A1C3A601B7887F82F3097F82F30002BCB
S3150800414C7FF4D4AE7B691A467B689B1ABB61BB6845
S3150800415C002B08D000237B6107F11403F868B968B3
S3150800416C0022FFF7EBFDBB6918463037BD4680BD0C
S3150800417CD866000880B489B000AFF860B9607A6078
S3150800418C3B60BB68BB613B68002B02D0FB685B429B
S3150800419CFB607B68092B06DC7B68102B03DDBB6890
S315080041AC30221A7041E00023FB61FB695A1CFA6144
S315080041BC1A46BB6899187A68FB68B3FBF2F002FBDF
S315080041CC00F29B1A1B4AD35C0B707B68FA68B2FB2D
S315080041DCF3F3FB60FB68002BE7D13B68002B07D099
S315080041ECFB695A1CFA611A46BB6813442D221A70CD
S315080041FCFB69BA68134400221A70FB69013BBA685A
S3150800420C1344BB600DE0BB681B78FB75BB685A1E74
S3150800421CBA60BA6912781A70BB695A1CBA61FA7D07
S3150800422C1A70BA68BB699A42EDD82437BD465DF850
S3150800423C047B7047E066000880B489B000AF7860EC
S3150800424C39600023FB6100233B610023BB6100231B
S3150800425CFB6000237B610023BB603B68DB7803F0C3
S3150800426C0F03FB613B68DB7803F01003002B05D0CA
S3150800427C3B689B781A46FB691343FB613B681B88B2
S3150800428CDBB2002B44D07B681B687B610023BB61C7
S3150800429C38E0BB69012202FA03F3FB603B681B8812
S315080042AC1A46FB6813403B613A69FB689A4226D169
S315080042BCBB699B00FB60FB680F2202FA03F3BB6029
S315080042CCBB68DB437A6913407B61FB68FA6902FABF
S315080042DC03F37A6913437B613B68DB78282B05D19A
S315080042ECBB6901229A407B685A6108E03B68DB7817
S315080042FC482B04D1BB6901229A407B681A61BB69B9
S3150800430C0133BB61BB69072BC3D97B687A691A6011
S3150800431C3B681B88FF2B4AD97B685B687B6100234B
S3150800432CBB613EE0BB6908331A4601239340FB6028
S3150800433C3B681B881A46FB6813403B613A69FB6865
S3150800434C9A422BD1BB699B00FB60FB680F2202FAD1
S3150800435C03F3BB60BB68DB437A6913407B61FB687C
S3150800436CFA6902FA03F37A6913437B613B68DB78D3
S3150800437C282B07D1BB6908331A46012303FA02F224
S3150800438C7B685A613B68DB78482B07D1BB690833D5
S3150800439C1A46012303FA02F27B681A61BB690133D8
S315080043ACBB61BB69072BBDD97B687A695A60243710
S315080043BCBD465DF8047B704780B483B000AF786067
S315080043CC7B68DB689BB218460C37BD465DF8047BE8
S315080043DC704700BF80B483B000AF78600B467B8013
S315080043EC7A887B68DA600C37BD465DF8047B7047C3
S315080043FC80B487B000AF78600B46FB7000233B6136
S3150800440C0023FB6000237B610023BB607B68002BC9
S3150800441C03DA2E4BDB697B6102E02C4B5B687B6114
S3150800442C7B6803F470231B0CBB607B689BB23B61F7
S3150800443C7B6803F44013B3F5401F0AD17B6923F05C
S3150800444C70637B61214A214B5B6823F07063536070
S3150800445C21E07B6803F48013002B0ED0BB68032283
S3150800446C02FA03F3FB60FB68DB437A6913407B6152
S3150800447C7B6943F070637B610DE07B685B0D1B0108
S3150800448C1A463B699340DB437A6913407B617B6927
S3150800449C43F070637B61FB78002B08D07B685B0D5F
S315080044AC1B011A463B6993407A6913437B617B6807
S315080044BC002B03DA054A7B69D36102E0034A7B6960
S315080044CC53601C37BD465DF8047B704700000140FD
S315080044DC80B400AFBFF34F8F0549054BDB6803F477
S315080044ECE062044B1343CB60BFF34F8F00BFFDE76D
S315080044FC00ED00E00400FA0580B485B000AF7860E2
S3150800450C0023FB6015E01049FA6813465B00134458
S3150800451C9B000B445A687B689A4207D1FA68134683
S3150800452C5B0013449B00084A134406E0FB680133FE
S3150800453CFB60FB68012BE6D9002318461437BD46E9
S3150800454C5DF8047B704700BF2867000880B582B009
S3150800455C00AF064B1B687B607868FFF7CDFF3860A9
S3150800456C002318460837BD4680BD00BF00ED00E0A5
S3150800457C80B483B000AF0346FB71FB79023B9B0406
S3150800458C18460C37BD465DF8047B704780B483B07B
S3150800459C00AF0346FB71FB79023B1B0218460C372E
S315080045ACBD465DF8047B704780B584B000AF786073
S315080045BC0023FB600023BB604E4A4E4B1B6843F43A
S315080045CC803313604B4B1B6803F40033BB60FB68EA
S315080045DC0133FB60BB68002B03D1FB68B3F5A06FF6
S315080045ECF0D1444B1B6803F40033002B02D0012393
S315080045FCBB6001E00023BB60BB68012B75D13E4A4A
S3150800460C3D4B1B6843F0100313603B4A3A4B1B683F
S3150800461C23F003031360384A374B1B6843F0020335
S3150800462C1360344A334B5B685360324A314B5B68D0
S3150800463C5360304A2F4B5B6843F4806353602D49B3
S3150800464C2C4BDA6A2D4B1340CB627B685B79184688
S3150800465CFFF79CFF034643F4803343F04403254994
S3150800466C244AD26A1343CB62224A224B1B6843F074
S3150800467C8063136000BF1F4B1B6803F00063002B9D
S3150800468CF9D01C4A1B4B5B6823F47C1353607B687C
S3150800469C1B791846FFF76CFF034643F4803315491C
S315080046AC144A526813434B60124A124B1B6843F068
S315080046BC8073136000BF0F4B1B6803F00073002B4D
S315080046CCF9D00C4A0B4B5B6823F003035360094A79
S315080046DC084B5B6843F00203536000BF054B5B68ED
S315080046EC03F00C03082BF9D101E0FFF7F1FE1037A4
S315080046FCBD4680BD001002400020024000F0FEFFBF
S3150800470C80B400AF0C490C4B5A690C4B1B6813430D
S3150800471C4B610949084BDA69084B5B681343CB6153
S3150800472C0549054B9A69054B9B6813438B61BD4636
S3150800473C5DF8047B704700BF00100240045B00085C
S3150800474C80B582B000AF7860194A194B1B6843F0E4
S3150800475C010313601649164B5A68164B13404B60E7
S3150800476C134A134B1B6823F0847323F480331360AA
S3150800477C0F4A0F4B1B6823F4802313600C4A0C4B0F
S3150800478C5B6823F4FE035360094A094B1B6823F044
S3150800479CA0531360064B4FF47F029A60044B002219
S315080047ACDA627868FFF700FF0837BD4680BD00BFA0
S315080047BC001002400000FFF080B582B000AF7860B0
S315080047CC7B68002B06D16520002100220A23FFF7FF
S315080047DC1DF90DE0FFF7BAFE07480021082200F084
S315080047EC0FFC62B6054A7B685360044B01221A70AB
S315080047FC0837BD4680BD00BFF0010020E40100204B
S3150800480C80B584B000AF0346FB71194B1B78012B9E
S3150800481C07D06520002102220F23FFF7F7F80123A2
S3150800482C22E0134B5B689B78FA799A4207D365208A
S3150800483C002102220B23FFF7E9F8012314E00C4AA6
S3150800484CFB7913720A4B5B685A68094B1B7A194633
S3150800485C0B465B000B449B001344FB60F868FFF7A0
S3150800486C6FFFFFF74DFF002318461037BD4680BD76
S3150800487CE401002080B500AF074B1B78012B07D04D
S3150800488C6520002103220F23FFF7C0F8012300E05F
S3150800489C0023184680BD00BFE401002080B582B015
S315080048AC00AF0E4B1B78012B07D065200021042284
S315080048BC0F23FFF7ABF802230BE0094B1B6803F039
S315080048CC0073002B02D00023FB7101E00123FB715E
S315080048DCFB7918460837BD4680BD00BFE4010020A9
S315080048EC0010024080B582B000AF174B1B78012B25
S315080048FC07D06520002105220F23FFF787F803232D
S3150800490C1DE0124B5B6A3B603B6803F08053002B3F
S3150800491C02D00223FB7111E03B6803F0C043002B65
S3150800492C02D00123FB7109E03B6803F00063002BFE
S3150800493C02D00023FB7101E00323FB71FB791846B7
S3150800494C0837BD4680BD00BFE401002000100240B8
S3150800495C80B485B000AF1F4B5B685A681D4B1B7A39
S3150800496C19460B465B000B449B0013441B68FB6003
S3150800497C184B5B685A68174B1B7A19460B465B0033
S3150800498C0B449B0013441B79BB60124B5B685A683B
S3150800499C104B1B7A19460B465B000B449B001344C1
S315080049AC5B797B60FB680C4AA2FB03239B087A683D
S315080049BC02FB03F3084AA2FB03239B08BA6802FB13
S315080049CC03F33B603B6818461437BD465DF8047B19
S315080049DC704700BFE4010020CDCCCCCC80B586B0A6
S315080049EC00AF78600023FB7426E0FB7C254A52F85E
S315080049FC2330FB607B685A68FB7CDB0013441A681F
S31508004A0CFB681A60FB6804337A685168FA7CD20032
S31508004A1C04320A4412681A60FB7C1B4A52F823308B
S31508004A2CFB607B689A68FB7C5B001344FA681B88FE
S31508004A3C1380FB7C0133FB74FB7C9AB27B681B8866
S31508004A4C9A42D2D300237B610CE07B681A697B6996
S31508004A5C9B0013441B6818460121FFF7C9FC7B69A8
S31508004A6C01337B617B689B891A467B699A42ECD831
S31508004A7C064B01221A70064A7B68136000BF18376A
S31508004A8CBD4680BD406700085C670008101D002005
S31508004A9C141D002080B586B000AF01200121FBF75C
S31508004AAC13FD4FF480400121FBF70EFD0420012174
S31508004ABCFFF79EFC4023BB801823FB710323BB71B5
S31508004ACC3B1D22481946FFF7B7FB8023BB800423FE
S31508004ADCFB713B1D1D481946FFF7AEFB4FF4E1333E
S31508004AECBB600023BB810023FB8100233B82002390
S31508004AFCBB820C237B8207F108031548194600F084
S31508004B0C43F8134840F22551012200F017F91048D2
S31508004B1C012100F0F3F84FF00060002100F0F8F9DD
S31508004B2C4FF4C06000F080F925233B7001237B709D
S31508004B3C0023BB700123FB703B46184600F086F930
S31508004B4C412000F007F81837BD4680BD000C01401F
S31508004B5C0038014080B582B000AF0346FB71FB7983
S31508004B6C9BB20848194600F031F900BF0548802168
S31508004B7C00F03EF90346002BF8D0FB7918460837A7
S31508004B8CBD4680BD0038014080B58CB000AF78605A
S31508004B9C39600023FB620023BB6200237B6200237F
S31508004BAC3B620023FB617B68FB617B681B8A9BB2BB
S31508004BBCFB62FA6A4CF6FF731340FB623B68DB88B0
S31508004BCC1A46FB6A1343FB62FB6A9AB27B681A8223
S31508004BDC7B689B899BB2FB62FA6A4EF6F313134009
S31508004BECFB623B689A883B681B8913439AB23B68FD
S31508004BFC5B8913439BB21A46FB6A1343FB62FB6A37
S31508004C0C9AB27B689A817B689B8A9BB2FB62FA6A2A
S31508004C1C4FF6FF431340FB623B689B891A46FB6AB7
S31508004C2C1343FB62FB6A9AB27B689A8207F1080304
S31508004C3C1846FBF767FBFB692E4A934202D17B6940
S31508004C4CBB6201E03B69BB627B689B899BB29BB2EA
S31508004C5C1BB2002B0CDABA6A13469B0013449A0053
S31508004C6C1A443B681B685B00B2FBF3F37B620BE0F0
S31508004C7CBA6A13469B0013449A001A443B681B688D
S31508004C8C9B00B2FBF3F37B627B6A1B4AA2FB0323F2
S31508004C9C5B091B01FB62FB6A1B09642202FB03F31B
S31508004CAC7A6AD31A3B627B689B899BB29BB21BB20E
S31508004CBC002B0CDA3B6ADB0032330F4AA2FB0323C8
S31508004CCC5B0903F00703FA6A1343FB620BE03B6AC2
S31508004CDC1B013233084AA2FB03235B0903F00F03BB
S31508004CECFA6A1343FB62FB6A9AB27B681A813037FD
S31508004CFCBD4680BD003801401F85EB5180B483B09A
S31508004D0C00AF78600B46FB70FB78002B08D07B68ED
S31508004D1C9B899BB243F400539AB27B689A8107E04D
S31508004D2C7B689B899BB223F400539AB27B689A8161
S31508004D3C0C37BD465DF8047B704700BF80B487B05E
S31508004D4C00AF78600B467B8013467B7000233B6173
S31508004D5C0023FB600023BB6000237B617B687B61BF
S31508004D6C7B88DBB25B09DBB23B617B8803F01F03F4
S31508004D7CFB60FB68012202FA03F3BB603B69012B5B
S31508004D8C03D17B690C337B6109E03B69022B03D1A8
S31508004D9C7B6910337B6102E07B6914337B617B781A
S31508004DAC002B06D07B697A691168BA680A431A60BF
S31508004DBC06E07B697A691168BA68D2430A401A60B8
S31508004DCC1C37BD465DF8047B704700BF80B483B0C2
S31508004DDC00AF78600B467B807B88C3F308039AB2D6
S31508004DEC7B689A800C37BD465DF8047B704700BF1C
S31508004DFC80B485B000AF78600B467B800023FB73CC
S31508004E0C7B681B889AB27B8813409BB2002B02D016
S31508004E1C0123FB7301E00023FB73FB7B1846143755
S31508004E2CBD465DF8047B704780B483B000AF7860EC
S31508004E3C054A7B6843F0BF6343F40033D3600C37F1
S31508004E4CBD465DF8047B704700ED00E080B487B082
S31508004E5C00AF786000237B6100233B610F23FB6066
S31508004E6C7B68DB78002B3AD0274BDB68DB4303F4F3
S31508004E7CE0631B0A7B617B69C3F104033B617B69B5
S31508004E8CFA6822FA03F3FB607B685B781A463B697F
S31508004E9C02FA03F37B617B689B781A46FB6813401E
S31508004EAC7A6913437B617B691B017B61174A7B68B3
S31508004EBC1B787969C9B213440A4683F80023134A46
S31508004ECC7B681B785B09DBB218467B681B7803F09A
S31508004EDC1F03012101FA03F342F820300FE00B49B6
S31508004EEC7B681B785B09DBB218467B681B7803F07A
S31508004EFC1F0301229A4000F1200341F823201C3796
S31508004F0CBD465DF8047B704700ED00E000E100E06B
S31508004F1C80B483B000AF7860396007493B6823F0EA
S31508004F2C604323F07F037A6813438B600C37BD46C6
S31508004F3C5DF8047B704700BF00ED00E080B582B0D9
S31508004F4C00AF78600B467B80064A7B6852F82320B4
S31508004F5C7B8810461946FFF73DFA00BF0837BD4651
S31508004F6C80BD00BF7C67000880B584B000AF786050
S31508004F7C0B46FB707B681B09144A52F823301846FB
S31508004F8CFFF71AFA0346FB817B6803F00F0301222D
S31508004F9C02FA03F3BB81FB78012B04D1FA89BB898E
S31508004FAC1343FB8106E0BB89DB439AB2FB891340AA
S31508004FBC9BB2FB817B681A09FB8910461946FFF7D9
S31508004FCCBDFF00BF1037BD4680BD00BF7C6700081B
S31508004FDC80B483B000AF7860054A7B681360044BD5
S31508004FEC01221A710C37BD465DF8047B704700BF69
S31508004FFC181D0020014B1868704700BFF8010020E7
S3150800500C70B4840746D0541E002A41D0CDB203464C
S3150800501C02E0621EE4B3144603F8015B9A07F8D162
S3150800502C032C2ED9CDB245EA05250F2C45EA0545A4
S3150800503C19D9264603F11002103E0F2E42F8105CC1
S3150800504C42F80C5C42F8085C42F8045C02F1100267
S3150800505CF2D8A4F1100222F00F0204F00F04103259
S3150800506C032C13440DD91E462246043A032A46F845
S3150800507C045BFAD8221F22F003020432134404F00C
S3150800508C03042CB1C9B21C4403F8011BA342FBD17F
S3150800509C70BC704714460346C2E700BF80EA01029B
S315080050AC844612F0030F4FD111F0030F32D14DF88D
S315080050BC044D11F0040F51F8043B0BD0A3F1013247
S315080050CC9A4312F0803F04BF4CF8043B51F8043B5A
S315080050DC16D100BF51F8044BA3F101329A4312F0D2
S315080050EC803FA4F101320BD14CF8043BA24312F0D9
S315080050FC803F04BF51F8043B4CF8044BEAD02346D6
S3150800510C0CF8013B13F0FF0F4FEA3323F8D15DF887
S3150800511C044B704711F0010F06D011F8012B0CF84F
S3150800512C012B002A08BF704711F0020FBFD031F8C7
S3150800513C022B12F0FF0F16BF2CF8022B8CF800204E
S3150800514C12F47F4FB3D1704711F8012B0CF8012BD1
S3150800515C002AF9D1704700BF20F0030110F00300B4
S3150800516CC0F1000051F8043B00F1040C4FEACC0CDA
S3150800517C6FF000021CBF22FA0CF213434FF0010C1D
S3150800518C4CEA0C2C4CEA0C4CA3EB0C0222EA03025C
S3150800519C12EACC1204BF51F8043B0430F4D0C2F125
S315080051AC000102EA0102B2FA82F2C2F11F0200EB16
S315080051BCD20070472DE9F04F494C0F46D4F800E061
S315080051CC00E027463C4614F8015B0EEB050676789C
S315080051DC06F0080606F0FF08002EF2D12D2D51D048
S315080051EC2B2D04BF7D78BC1C5BB1102B5BD04FF00C
S315080051FCFF39B9FBF3F903FB09FB9A466FEA0B0B6C
S3150800520C07E0302D43D00A239A46DFF8D8904FF0A2
S3150800521C050B0027BC460CE0303DAB4219DD7E1C65
S3150800522C05D0CC4524D821D00AFB0C5C012714F8F0
S3150800523C015B0EEB0506767816F0040FECD116F02A
S3150800524C030606D0012E0CBF37265726AD1BAB42DC
S3150800525CE5DC002F11DBC8F100008CEA00004044A5
S3150800526C4AB107B1611E1160BDE8F08F5D45DBDD03
S3150800527C4FF0FF37DBE7BDE8F08F222303604FF0D2
S3150800528CFF30EDE7BC1C7D784FF00108ACE72378BE
S3150800529C03F0DF03582B0ED008239A464FF0070B62
S315080052AC6FF06049B5E7302D0FD09A464FF00F0BCB
S315080052BC6FF07049ADE74FF0100A657853464FF01A
S315080052CC0F0B02346FF07049A3E7267806F0DF0659
S315080052DC582EF0D04FF00F0B6FF070499A4698E79E
S315080052EC280600209999991930B40D46034C134693
S315080052FC01462A46206830BCFFF75CBFF80100203F
S3150800530C30B40D46034C134601462A46206830BC79
S3150800531C00F002B8F801002070B5084C06460025C6
S3150800532C084611461A462560FEF762FC431C00D057
S3150800533C70BD2368002BFBD0336070BD201D002088
S315080053502121212121000000E80300004F73534C4E
S31508005360424170706C69636174696F6E0000000079
S31508005370000000005C530008010000006400000003
S315080053800100000064000000010000004F73527421
S3150800539065416C61726D313030306D73000000000C
S315080053A04F7349646C6500004F735274655461739A
S315080053B06B00000000000000000000000000000074
S315080053C0910200080101000000000000900E002074
S315080053D0000200000000000001000000A0530008C1
S315080053E000000000000000000000000000000000AF
S315080053F0000000000100000001000000010000009C
S315080054008D0100080301000000000000900600203E
S31508005410000800000000000001000000A853000872
S31508005420000000000000000001000000000000006D
S31508005430000000000100000000000000000000005D
S31508005440000000000000000000000000000000004E
S315080054507265736574526561736F6E203D202564AD
S315080054600D0A00004563754D5F53656C656374539B
S31508005470687574646F776E54617267657428293A23
S315080054802073687574646F776E5461726765743DCE
S3150800549025732C20736C6565704D6F64653D2564B6
S315080054A00A00000020203C2D43414C4C494E203A2E
S315080054B0204563754D5F53657457616B6575704517
S315080054C076656E74203078256C780A004543554D0C
S315080054D05F53544154455F4150505F52554E00004A
S315080054E04543554D5F53544154455F5348555444BD
S315080054F04F574E004543554D5F53544154455F57EA
S31508005500414B4555500000004543554D5F535441A6
S3150800551054455F57414B4555505F57414B45534C92
S31508005520454550004543554D5F53544154455F57D3
S31508005530414B4555505F4F4E450000004543554D7C
S315080055405F53544154455F4F464600004543554D09
S315080055505F53544154455F535441525455500000CB
S315080055604543554D5F53544154455F505245505F2E
S3150800557053485554444F574E000000004543554D77
S315080055805F53544154455F52554E00004543554DAF
S315080055905F53544154455F535441525455505F54D8
S315080055A0574F00004543554D5F53544154455F5787
S315080055B0414B4555505F5454494900004543554DA4
S315080055C05F53544154455F57414B4555505F5641CB
S315080055D04C49444154494F4E000000004543554D3F
S315080055E05F53544154455F474F5F534C4545500000
S315080055F04543554D5F53544154455F5354415254A6
S3150800560055505F4F4E4500004543554D5F53544135
S3150800561054455F57414B4555505F54574F0000005E
S315080056204543554D5F53544154455F534C4545508A
S31508005630000000004543554D5F53544154455F579C
S31508005640414B4555505F5245414354494F4E000022
S315080056504543554D5F53544154455F4150505F5043
S315080056604F53545F52554E004543554D5F53544171
S3150800567054455F474F5F4F46465F54574F000000FB
S315080056804543554D5F53544154455F524553455420
S31508005690000000004543554D5F53544154455F474C
S315080056A04F5F4F46465F4F4E4500000030000000F2
S315080056B0643A2F41726374696353747564696F2D14
S315080056C032312E302E302D77696E33322E77696E51
S315080056D033322E7838365F36342F776F726B7370A5
S315080056E06163652F636F72652D32312E302E302F30
S315080056F0636F72652F73797374656D2F4563754D86
S315080057002F7372632F4563754D5F4D61696E2E6306
S31508005710000000004543554D5F574B4143545F52C7
S31508005720554E0000554E4B4E4F4E573F0000000059
S315080057304543554D5F574B4143545F5454494900BF
S315080057404543554D5F574B4143545F534855544461
S315080057504F574E00145700082457000830570008C2
S3150800576040570008202043414C4C4F55542D3E3A93
S31508005770204543554D3A4563754D5F4F6E476F5308
S315080057806C6565700A000000202043414C4C4F555B
S31508005790542D3E3A204543554D3A4563754D5F476E
S315080057A0656E657261746552616D486173680A0059
S315080057B0202043414C4C4F55542D3E3A204D63759D
S315080057C05F5365744D6F64652025640A0000000008
S315080057D04543554D3A52554E2054696D656F75745B
S315080057E03D256C640A000000202043414C4C4F556F
S315080057F0542D3E3A204543554D3A4563754D5F4F06
S315080058006E4578697452756E0A000000202043417F
S315080058104C4C4F55542D3E3A204543554D3A456319
S31508005820754D5F656E7465725F72756E5F6D6F64D8
S31508005830650A0000202043414C4C4F55542D3E3AF2
S31508005840204543554D3A4563754D5F4F6E4578691A
S3150800585074506F737452756E0A000000202043411D
S315080058604C4C4F55542D3E3A204543554D3A4563C9
S31508005870754D5F4F6E5072657053687574646F77B7
S315080058806E0A000053544154453A2025730A000015
S31508005890202043414C4C4F55542D3E3A20456375C4
S315080058A04D5F44697361626C6557616B65757053CA
S315080058B06F7572636573203078256C780A0000006E
S315080058C0202043414C4C4F55542D3E3A20454355D4
S315080058D04D3A4563754D5F47657450656E64696EEC
S315080058E06757616B6575704576656E74730A000057
S315080058F0202043414C4C4F55542D3E3A2045637564
S315080059004D5F537461727457616B657570536F752B
S3150800591072636573203078256C780A004543554DC7
S315080059203A4E6F2056616C69646174696F6E2066C1
S315080059306F72203A3078256C7820284563754D5F5C
S3150800594056616C696461746557616B6575704576F7
S31508005950656E7428292063616C6C6564290A0000E9
S31508005960202043414C4C4F55542D3E3A20456375F3
S315080059704D5F436865636B56616C69646174696FF2
S315080059806E203078256C780A000000004543554D96
S315080059903A20204177616974696E672076616C697F
S315080059A0646174696F6E20666F72206D61736B3AFD
S315080059B02070656E64696E673D256C782C20657865
S315080059C07065637465643D256C780A004543554DDA
S315080059D03A202056616C69646174696F6E20546957
S315080059E06D65722020202020202020202020203AAB
S315080059F020256C750A000000202043414C4C4F5569
S31508005A00542D3E3A204563754D5F53746F70576148
S31508005A106B657570536F7572636573203078256C86
S31508005A20780A00004543554D3A4563754D5F47650D
S31508005A307456616C69646174656457616B657570E9
S31508005A404576656E74732829203A2025780A000061
S31508005A504543554D3A57616B6575702052656163CC
S31508005A6074696F6E3A2025730A0000000000000072
S31508005A700000000040000000020000004000000096
S31508005A80FFFFFFFF0000000001000000000000000B
S31508005A90AAAA555500000000AAAA555500000000FC
S31508005AA080000000010000001027000010270000F9
S31508005AB01027000000000000705A00087C5A0008F1
S31508005AC0105B0008645B0008905B0008D05A000869
S31508005AD05A5A5A5A01000000AAAA55550000000051
S31508005AE0AAAA55550000000080680008B06800089A
S31508005AF0000000000000000040787D010908000051
S31508005B00000000000000000000000000080000007F
S31508005B1003000100F85A0008000000004444444409
S31508005B2014410441114444444444444444444444D0
S31508005B304444444444444414444444444444444447
S31508005B404444444444444444444444444444444407
S31508005B504444444400000000000000000000000027
S31508005B6000000000070000001C5B0008545B0008EA
S31508005B70000000001C5B000810000000FFFFFFFF8C
S31508005B8001000000FFFFFFFFFFFFFFFF000000000E
S31508005B90785B0008885B0008805B00086375727292
S31508005BA05F7063622D3E7374617465202620283108
S31508005BB0553C3C2875696E743332293355290000E3
S31508005BC0643A2F41726374696353747564696F2DFF
S31508005BD032312E302E302D77696E33322E77696E3C
S31508005BE033322E7838365F36342F776F726B737090
S31508005BF06163652F636F72652D32312E302E302F1B
S31508005C00636F72652F73797374656D2F4F732F7277
S31508005C10746F732F7372632F6F735F6576656E7417
S31508005C202E630000300000006F735F696E697400B0
S31508005C307069643A2564206E616D653A2573207033
S31508005C4072696F3A25640A0028264F735F53797381
S31508005C505B305D292D3E7374617475732E696E69A8
S31508005C60745F6F735F63616C6C656400643A2F419F
S31508005C70726374696353747564696F2D32312E309B
S31508005C802E302D77696E33322E77696E33322E7841
S31508005C9038365F36342F776F726B73706163652F92
S31508005CA0636F72652D32312E302E302F636F726519
S31508005CB02F73797374656D2F4F732F72746F732FEB
S31508005CC07372632F6F735F696E69742E63000000C9
S31508005CD0746D7050636250747220213D20282876B6
S31508005CE06F6964202A29302900000000746D7050FD
S31508005CF063625074722D3E61637469766174696F6C
S31508005D006E73203C3D20746D705063625074722D22
S31508005D103E636F6E73745074722D3E616374697658
S31508005D206174696F6E4C696D69740000300000001B
S31508005D304972715F566563746F725461626C655B14
S31508005D40766563746F725D20213D202828766F6919
S31508005D5064202A2930290000643A2F417263746945
S31508005D606353747564696F2D32312E302E302D775A
S31508005D70696E33322E77696E33322E7838365F364F
S31508005D80342F776F726B73706163652F636F7265FB
S31508005D902D32312E302E302F636F72652F73797343
S31508005DA074656D2F4F732F6F73616C2F61726D2F32
S31508005DB061726D76375F6D2F6B65726E656C2F61DC
S31508005DC07263682E63000000284F735F5379734926
S31508005DD06E74416E7944697361626C656428292022
S31508005DE03D3D20302900000028264F735F53797304
S31508005DF05B305D292D3E637572725461736B507406
S31508005E00722D3E73746174652026202831553C3CFA
S31508005E102875696E743332293355290028264F733D
S31508005E205F5379735B305D292D3E637572725461D9
S31508005E30736B5074722D3E666C616773203D3D200E
S31508005E4030000000725074722D3E6F776E657220B6
S31508005E503D3D207063625074722D3E636F6E73749D
S31508005E605074722D3E70696400000000643A2F4138
S31508005E70726374696353747564696F2D32312E3099
S31508005E802E302D77696E33322E77696E33322E783F
S31508005E9038365F36342F776F726B73706163652F90
S31508005EA0636F72652D32312E302E302F636F726517
S31508005EB02F73797374656D2F4F732F72746F732FE9
S31508005EC07372632F6F735F7461736B5F692E6800FB
S31508005ED0212828267063625074722D3E7265736F8E
S31508005EE07572636548656164292D3E7471685F66DD
S31508005EF069727374203D3D202828766F6964202ACC
S31508005F002930292900000000282A282828737472B5
S31508005F107563742068656164202A292828267063B9
S31508005F20625074722D3E7265736F7572636548654B
S31508005F306164292D3E7471685F6C61737429292D1B
S31508005F403E7471685F6C6173742929203D3D207227
S31508005F5050747200637572725063625074722D3E8B
S31508005F607374617465203D3D202831553C3C287585
S31508005F70696E74333229335529000000643A2F417B
S31508005F80726374696353747564696F2D32312E3088
S31508005F902E302D77696E33322E77696E33322E782E
S31508005FA038365F36342F776F726B73706163652F7F
S31508005FB0636F72652D32312E302E302F636F726506
S31508005FC02F73797374656D2F4F732F72746F732FD8
S31508005FD07372632F6F735F7461736B2E63000000B7
S31508005FE07063622D3E7374617465202620282875B7
S31508005FF0696E7433322931557C2831553C3C2875F5
S31508006000696E74333229335529290000706362504A
S3150800601074722D3E737461636B2E63757272203EC3
S31508006020207063625074722D3E737461636B2E74B4
S315080060306F700000282875696E74333229626F7490
S31508006040746F6D202620307837554C29203D3D2029
S315080060503000000030000000746F705F7072696F66
S315080060605F706362213D2828766F6964202A29308B
S315080060702900000028264F735F5379735B305D292A
S315080060802D3E637572725461736B5074722D3E7334
S31508006090746174652026202831553C3C2875696E44
S315080060A0743332293355290028264F735F53797381
S315080060B05B305D292D3E637572725461736B507443
S315080060C0722D3E666C616773203D3D2030000000EE
S315080060D028264F735F5379735B305D292D3E696EB1
S315080060E0744E657374436E74203D3D203000000085
S315080060F04F735F5363686564756C65725265736F39
S315080061007572636549734672656528290000000043
S31508006110637572725063625074722D3E7374617443
S31508006120652026202831553C3C2875696E74333223
S31508006130293355290000000028264F735F537973C9
S315080061405B305D292D3E637572725461736B5074B2
S31508006150722D3E666C616773203D3D20310000005C
S3150800616028264F735F5379735B305D292D3E63682C
S3150800617061696E656450636250747220213D2028FF
S3150800618028766F6964202A2930290000637572729F
S315080061905063625074722D3E6163746976617469E6
S315080061A06F6E73203E203000706362507472213D1A
S315080061B02828766F6964202A293029006465737453
S315080061C05063625074722D3E6163746976617469B6
S315080061D06F6E73203D3D20310000000064657374C6
S315080061E05063625074722D3E616374697661746996
S315080061F06F6E73203D3D2030000000004F735F53E3
S3150800620079735461736B4765744375727228292DC7
S315080062103E73746174652026202831553C3C2875E8
S31508006220696E74333229335529000000725074722E
S315080062302D3E6F776E6572203D3D20706362507407
S31508006240722D3E636F6E73745074722D3E7069645E
S3150800625000000000643A2F417263746963537475D1
S3150800626064696F2D32312E302E302D77696E3332B8
S315080062702E77696E33322E7838365F36342F776F3D
S31508006280726B73706163652F636F72652D32312E81
S31508006290302E302F636F72652F73797374656D2F87
S315080062A04F732F72746F732F7372632F6F735F74CC
S315080062B061736B5F692E6800212828267063625017
S315080062C074722D3E7265736F757263654865616495
S315080062D0292D3E7471685F6669727374203D3D208E
S315080062E02828766F6964202A2930292900000000A9
S315080062F0282A28282873747275637420686561646F
S31508006300202A292828267063625074722D3E7265E9
S31508006310736F7572636548656164292D3E7471688B
S315080063205F6C61737429292D3E7471685F6C6173A3
S31508006330742929203D3D2072507472005245535FDE
S315080063405343484544554C45520000003000000070
S31508006350643A2F41726374696353747564696F2D67
S3150800636032312E302E302D77696E33322E77696EA4
S3150800637033322E7838365F36342F776F726B7370F8
S315080063806163652F636F72652D32312E302E302F83
S31508006390636F72652F73797374656D2F4F732F72E0
S315080063A0746F732F7372632F6F735F616C61726D95
S315080063B02E6300004F735469636B0000B4630008D2
S315080063C00006FFFF01000000B52F000800000000CE
S315080063D000000000725074722D3E6F776E65722051
S315080063E03D3D206973725074722D3E696400000049
S315080063F0643A2F41726374696353747564696F2DC7
S3150800640032312E302E302D77696E33322E77696E03
S3150800641033322E7838365F36342F776F726B737057
S315080064206163652F636F72652D32312E302E302FE2
S31508006430636F72652F73797374656D2F4F732F723F
S31508006440746F732F7372632F6F735F6973722E6322
S3150800645000000000212828266973725074722D3EA8
S315080064607265736F7572636548656164292D3E743C
S3150800647071685F6669727374203D3D202828766FBF
S315080064806964202A2930292900000000282A28289A
S31508006490287374727563742068656164202A2928D4
S315080064A028266973725074722D3E7265736F757201
S315080064B0636548656164292D3E7471685F6C617314
S315080064C07429292D3E7471685F6C617374292920BB
S315080064D03D3D2072507472006973725074722021A7
S315080064E03D202828766F6964202A29302900000073
S315080064F0286973725074722D3E766563746F7220C4
S315080065002B2031367529203C20282875696E74336E
S3150800651032294F54475F46535F4952516E2B3136E5
S31508006520752B31290000000069643C2849535254F0
S3150800653079706529313075006973725074722D3E11
S31508006540636F6E73745074722D3E74797065203D56
S315080065503D20310028264F735F5379735B305D29E0
S315080065602D3E637572725461736B5074722D3E734F
S31508006570746174652026202831553C3C2875696E5F
S31508006580743332293355290028264F735F5379739C
S315080065905B305D292D3E637572725461736B50745E
S315080065A0722D3E666C616773203D3D203100000008
S315080065B07072696F3C333200643A2F4172637469B2
S315080065C06353747564696F2D32312E302E302D77F2
S315080065D0696E33322E77696E33322E7838365F36E7
S315080065E0342F776F726B73706163652F636F726593
S315080065F02D32312E302E302F636F72652F737973DB
S3150800660074656D2F4F732F6F73616C2F61726D2FC9
S3150800661061726D76375F6D2F6B65726E656C2F696B
S3150800662072712E63000000007072696F7269747966
S31508006630203E202832302B31202900007072696FE5
S3150800664072697479203C2032300000003000000066
S315080066507246696C6520213D202828766F6964207A
S315080066602A29302900000000643A2F4172637469B0
S315080066706353747564696F2D32312E302E302D7741
S31508006680696E33322E77696E33322E7838365F3636
S31508006690342F776F726B73706163652F636F7265E2
S315080066A02D32312E302E302F636F72652F636F6D4A
S315080066B06D6F6E2F72616D6C6F672E630000000040
S315080066C072616D6C6F670000720000002F6465765A
S315080066D02F72616D6C6F6700286E756C6C290000EF
S315080066E0303132333435363738396162636465663A
S315080066F000000000617263636F726500F46600084B
S31508006700000000000000000000000000000000007B
S3150800671000000000434F52455F41524D5F434F52C0
S315080067205445585F4D3300001467000831C21F41B5
S31508006730000000000000000000000000000000004B
S3150800674000080140000C01400010014000140140FF
S3150800675000180140001C0140002001400C080140BF
S315080067600C0C01400C1001400C1401400C1801409F
S315080067700C1C01400C200140256300000008014064
S31508006780000C0140001001400014014000180140AF
S31508006790001C01400000000000000000000000008E
S315080067A000000000010000000000000000000000DA
S315080067B000000000000000000000000000000000CB
S315080067C000000000000000000000000000000000BB
S315080067D000000000000000000000000000000000AB
S315080067E0000000000000000000010000000000009A
S315080067F0000000000000000000000000000000008B
S315080068000100000000000000000000000000000079
S315080068100000000000000100000000000000000069
S315080068200001000000000100000000000000000058
S31508006830000000000000000000000000000000004A
S31508006840000000000000000000000000000000003A
S31508006850000000000000000000000000000000002A
S31508006860000000000000000000000000000000001A
S315080068700000000000000000000000000100000009
S3150800688001000000000000001868000828680008D9
S3150800689024680008A867000894670008EC670008E1
S315080068A00468000800000000000000000000000066
S315080068B0A468000800000100A8680008AC68000881
S315080068C00000000000000000430000000020202017
S315080068D02020202020202828282828202020202082
S315080068E02020202020202020202020202088101052
S315080068F010101010101010101010101010040404AE
S31508006900040404040404041010101010101041416B
S315080069104141414101010101010101010101010159
S31508006920010101010101010110101010101042426D
S315080069304242424202020202020202020202020229
S3150800694002020202020202021010101020000000C9
S315080069500000000000000000000000000000000029
S315080069600000000000000000000000000000000019
S315080069700000000000000000000000000000000009
S3150800698000000000000000000000000000000000F9
S3150800699000000000000000000000000000000000E9
S315080069A000000000000000000000000000000000D9
S315080069B000000000000000000000000000000000C9
S315080069C000000000000000000000000000000000B9
S315080069D00100000000000000010203040102030494
S315080069E00607080902040608000000000000000067
S315080069F00000000000000000000100000000000088
S31508006A000000000001000000FFFFFFFF010000007A
S31508006A100100000000000000000000000000000067
S31508006A208C53000818000020000000000100000038
S31508006A300000000000000000000000000000000048
S31508006A400000000000000000010001000000000036
S31508006A500100000000000000000000000000000027
S31508006A607C53000800000000CC6600080100000006
S31508006A7072616D6C6F670000000000000000000086
S31508006A8000000000913B0008000000000000000024
S31508006A90593B00080000000000000000000000004C
S31508006AA00000000073657269616C5F44756D6D79ED
S31508006AB000000000000000000000000000000000C8
S31508006AC000000000000000000000000000000000B8
S31508006AD000000000000000000100000000000000A7
S31508006AE000000000980000200000000000000000E0
S31508006AF00000000000000000010000000000000087
S31508006B0001000000000000000000000098000020BE
S31508006B100000000000000000000000000000000067
S31508006B200200000000000000010000000000000054
S31508006B30000000009800002000000000000000008F
S31508006B400000000000000000000000000000000037
S31508006B500000000000000000000000000000000027
S31508006B600000000000000000000000000000000017
S31508006B700000000000000000000000000000000007
S31508006B8000000000000000000000000000000000F7
S31508006B90000000000000000000010020280100207D
S31508006BA050010020C801002098000020980000200D
S31508006BB0CC00002000000000105B00080000000068
S31508006BC00000000000000000000200200000000095
S31508006BD000000000EC04002054050020BC0500203D
S31508006BE00000000000000000000000000000000097
S31508006BF00000000000000000000000000000000087
S31508006C0000000000C868000800000000000000003E
S31508006C100000000000000000000000000000000066
S31508006C200000000000000000000000000000000056
S31508006C300000000000000000000000000000000046
S31508006C400000000000000000000000000000000036
S31508006C500000000000000000000000000000000026
S31508006C600000000000000000000000000000000016
S31508006C700000000000000000010000000000000005
S31508006C800E33CDAB34126DE6ECDE05000B000000CA
S31508006C9000000000000000000000000000000000E6
S31508006CA000000000000000000000000000000000D6
S31508006CB000000000000000000000000000000000C6
S31508006CC000000000000000000000000000000000B6
S31108006FF00000000000000000CC6800084B
S7050800029957
