S00D00004F73506572662E73313998
S3150800000020490020B5030008A91000082911000896
S315080000104111000855110008691100080000000088
S31508000020000000000000000000000000290400088D
S315080000302904000800000000F51A0008391B00080A
S31508000040391B0008391B0008391B0008391B000832
S31508000050391B0008391B0008391B0008391B000822
S31508000060391B0008391B0008391B0008391B000812
S31508000070391B0008391B0008391B0008391B000802
S31508000080391B0008391B0008391B0008391B0008F2
S31508000090391B0008391B0008391B0008391B0008E2
S315080000A0391B0008391B0008391B0008391B0008D2
S315080000B0391B0008391B0008391B0008391B0008C2
S315080000C0391B0008391B0008391B0008391B0008B2
S315080000D0391B0008391B0008391B0008391B0008A2
S315080000E0391B0008391B0008391B0008391B000892
S315080000F0391B0008391B0008391B0008391B000882
S31508000100391B0008391B0008391B0008391B000871
S31508000110391B0008391B0008391B0008391B000861
S31508000120391B0008391B0008391B0008391B000851
S31508000130391B0008391B0008391B0008391B000841
S31508000140391B0008391B0008391B0008391B000831
S31508000150391B0008391B0008391B0008391B000821
S31508000160391B0008391B0008391B0008391B000811
S31508000170391B0008391B0008391B0008391B000801
S31108000180391B0008391B0008391B000851
S3150800018C80B400AF034B1B781846BD465DF8047B5C
S3150800019C704700BFE827002080B500AF05F0ECF8E3
S315080001AC002002490D2205F083FD80BD0887000852
S315080001BC80B483B000AF0346FB71FEE780B586B00A
S315080001CC00AF0346FB7107F10A03184602F0EAFB77
S315080001DCFFF7D6FF0346FB75FB7D0D2B00D009E018
S315080001EC264B5B68BB82254B9B683B61234BDB68C4
S315080001FCFB6000BF224B1B781846204B5A682149D6
S3150800020C03010B441A601E4B1B7818461B4B9A6845
S3150800021C1C4903010B445A60194B1B781846174B9B
S3150800022CDA68184903010B4408331A60144B1B7817
S3150800023C144A1B0113440833FA7D9A71104B1B7828
S3150800024C7989104A1B01134408330A469A800C4BC9
S3150800025C1B780C4A1B0113440833FA79DA71084BDC
S3150800026C1B780133DAB2064B1A7000BF044B1B78A5
S3150800027C002BFBD11837BD4680BD00BFE8270020F0
S3150800028C3007002034070020B0B584B000AF786082
S3150800029C07F07EFBF860144B1B6818464FF00001FC
S315080002AC7B681A464FF0000302FB01F500FB03F4CA
S315080002BC2C44A0FB0223E1180B46104619460B4AA0
S315080002CC4FF0000307F070FB02460B461346BB6063
S315080002DC00BF07F05DFB0246FB68D21ABB689A4260
S315080002ECF7D31037BD46B0BD8847002040420F00F3
S315080002FC80B500AF032002F08BFB80BD80B584B0BF
S3150800030C00AF0023FB600023BB6000237B6000204A
S3150800031C0121012203F0D8F90346FB704FF00100C6
S3150800032C4FF0000100F0E8FF4FF001004FF000011C
S3150800033C01F028F9BB685A1CBA60642B18D105F071
S3150800034C8FF8FB680A33144AA2FB0312520964217C
S3150800035C01FB02F29B1AFB600023BB607B68DBB2D5
S3150800036C3720194607F018FA7B6883F001037B607F
S3150800037C002005F0F5FCFB6842F2107202FB03F351
S3150800038C054AA2FB03235B091846FFF77DFF0020ED
S3150800039C05F0F0FDC2E700BF1F85EB5180B500AF35
S315080003AC04F0F0FD80BD00BF134880F309880220D5
S315080003BC80F31488BFF36F8F104880F308881048B1
S315080003CC104B114D002102E06C5844500431421870
S315080003DC9A42F9D30D4A02E0002342F8043B0C4B2F
S315080003EC9A42F9D30B4A054C0B4B42F8043BA242F2
S315080003FCFBD301F067FA70472049002020590020EA
S3150800040C000000202C070020C09E000830070020A2
S3150800041C904700202049002042424242FEE7000055
S3150800042C80B48BB000AF786000237B6200233B62FC
S3150800043C0023FB610023BB6100237B6100233B6126
S3150800044C624B5B6803F00C03FB60FB68042B07D05C
S3150800045C082B09D0002B5ED17B685D4A1A605EE0DA
S3150800046C7B685C4A1A605AE0584B5B6803F4701355
S3150800047C7B62564B5B6803F480333B627B6A9B0C4E
S3150800048C7B627B6A0D2B03D07B6A02337B6201E0AD
S3150800049C06237B623B6A002B06D17B6A4E4A02FB1B
S315080004AC03F27B681A6035E0484BDB6A03F4803349
S315080004BCFB61464BDB6A03F00F030133BB61FB6937
S315080004CC002B09D1434ABB69B2FBF3F37A6A02FBE8
S315080004DC03F27B681A601DE03C4BDB6A03F0F00301
S315080004EC1B0901337B61394BDB6A03F470631B0A06
S315080004FC02333B61374A7B69B2FBF3F33A6902FB79
S3150800050C03F2BB69B2FBF3F37A6A02FB03F27B686C
S3150800051C1A6004E003E07B682D4A1A6000BF2B4B77
S3150800052C5B6803F0F003FB60FB681B09FB602B4A56
S3150800053CFB6813441B78DBB2BB607B681A68BB6824
S3150800054CDA407B685A60214B5B6803F4E063FB6016
S3150800055CFB681B0AFB60214AFB6813441B78DBB259
S3150800056CBB607B685A68BB68DA407B689A60174B35
S3150800057C5B6803F46053FB60FB68DB0AFB60174A95
S3150800058CFB6813441B78DBB2BB607B685A68BB6894
S3150800059CDA407B68DA600D4B5B6803F44043FB601A
S315080005ACFB689B0BFB600E4AFB6813441B78DBB29B
S315080005BCBB607B68DA68BB68B2FBF3F27B681A61CE
S315080005CC2C37BD465DF8047B704700BF001002400F
S315080005DC00127A0040787D0100093D0000000020D9
S315080005EC1000002080B483B000AF78600B46FB7017
S315080005FCFB78002B06D00949084B9A697B6813438C
S3150800060C8B6106E00549054B9A697B68DB43134009
S3150800061C8B610C37BD465DF8047B704700100240B1
S3150800062C80B584B000AFF860B9607A60252001F017
S3150800063C6DF91037BD4680BD80B582B000AF012379
S3150800064CFB71112000F052F900F0DEFB01F038F8CE
S3150800065C03F0FAFC00F0C8FB0246274B5A60FB79FC
S3150800066C012B46D1244B5B68184600F0D5FB06F0E7
S3150800067CF3FC0346BB71BB79032B17D801A252F8BE
S3150800068C23F000BFA1060008B1060008A906000859
S3150800069CA9060008012000F07BF80CE0022000F007
S315080006AC77F808E0082000F073F804E0BB791846E0
S315080006BC00F0EAFC00BF104B01221A700E4B5B6867
S315080006CC1A7E0D4B5B685B7E1046194600F016F8D1
S315080006DC03467B717B79002B0BD1074B00225A61A1
S315080006EC054B00229A61044B5B68DB69184601F0DE
S315080006FCF1F80837BD4680BDA827002080B483B022
S3150800070C00AF03460A46FB711346BB71064AFB79D2
S3150800071C1372054ABB799377002318460C37BD46E6
S3150800072C5DF8047B704700BFA827002080B483B00F
S3150800073C00AF7860094B1A6A7B68DB431340074A9B
S3150800074C1362064B9A6A7B68DB431340034A93622F
S3150800075C0C37BD465DF8047B704700BFA827002000
S3150800076C80B400AF034B1B6A1846BD465DF8047B84
S3150800077C704700BFA827002080B400AF034B9B6AC4
S3150800078C1846BD465DF8047B704700BFA8270020B5
S3150800079C80B483B000AF7860054B9A6A7B681343C4
S315080007AC034A93620C37BD465DF8047B704700BF5D
S315080007BCA827002080B500AF0C4B1B7C112B04D14D
S315080007CC122000F093F807F04FF8084B1B7C122BFD
S315080007DC09D1064B5B68184600F046FB034B5B6871
S315080007EC184600F04BFB00F0B1F880BDA827002096
S315080007FC80B483B000AF7860054B1A7C7B681A709E
S3150800080C002318460C37BD465DF8047B704700BFBD
S3150800081CA827002080B483B000AF0346FB710A4BAF
S3150800082C1B7F002B08D1084B5A69FB79012101FA69
S3150800083C03F31343044A5361002318460C37BD4689
S3150800084C5DF8047B704700BFA827002080B400AF72
S3150800085C72B6064B1B78DBB2DBB20133DBB2DAB20B
S3150800086C024B1A70BD465DF8047B7047F8270020CA
S3150800087C80B400AF0A4B1B78002B0DD0084B1B78A5
S3150800088CDBB2DBB2013BDBB2DAB2054B1A70044BB6
S3150800089C1B78002B00D162B6BD465DF8047B704709
S315080008ACF827002080B483B000AF074B5B697B60E8
S315080008BC7B68002B14BF01230023DBB218460C37C8
S315080008CCBD465DF8047B7047A827002080B400AFAE
S315080008DC054B9B69002B14BF01230023DBB218467A
S315080008ECBD465DF8047B7047A827002080B582B00A
S315080008FC00AF0346FB710B4AFB791374FB79322B59
S3150800090C0CD1FFF7A3FF074B5B681B6A064AA2FBD1
S3150800091C03239B09054A1360FFF7AAFF0837BD4650
S3150800092C80BD00BFA82700201F85EB51A0270020FB
S3150800093C80B483B000AF03460A46FB711346BB71FD
S3150800094C0C37BD465DF8047B704700BF80B500AF19
S3150800095CFFF7CEFC00200121FFF7EAFF3220FFF754
S3150800096CC5FF80BD80B500AF4920FFF7BFFF00F07B
S3150800097CA1FA80BD80B584B000AF214B1B68002B53
S3150800098C04D01F4B1B68013B1D4A13601C4B1B688C
S3150800099C002B2FD11B4B5B681A6B1A4B9B7F194686
S315080009AC0B465B000B449B001344BB60BB685B683F
S315080009BCFB6015E0FB68B3FA83F3DBB2C3F11F03E4
S315080009CCFB71FB79012202FA03F3184600F07EFA52
S315080009DCFB79012202FA03F3DB43FA681340FB6046
S315080009ECFB68002BE6D1012002F05AFA5020FFF7DB
S315080009FC7DFF01E0FFF7B4FE1037BD4680BD00BF92
S31508000A0CD8270020A827002080B582B000AF0D4B50
S31508000A1C5B681A6B0B4B9B7F19460B465B000B44AA
S31508000A2C9B0013447B6000F0FDFA7B681B7A184622
S31508000A3C06F048FB00F00EFB2120FFF757FF08379E
S31508000A4CBD4680BDA827002080B400AFBD465DF822
S31508000A5C047B704780B500AF4D20FFF747FF00F0C9
S31508000A6C2FFA02200021FFF763FFFFF7EDFF80BD89
S31508000A7C80B500AF0D4B1B68002B04D00B4B1B68C5
S31508000A8C013B0A4A1360FFF70DFF0346002B0CD1F6
S31508000A9C064B1B68002B08D100F0FAF9012000213F
S31508000AACFFF746FF3320FFF721FF80BDA027002064
S31508000ABC80B500AFFFF7F6FE0346012B02D1FFF710
S31508000ACC45FF09E0FFF702FF0346002B04D100F0AF
S31508000ADCE5F94420FFF70AFF80BD00BF80B500AFDB
S31508000AEC4FF0FF30FFF722FE00F0DEF9074B1B7ABA
S31508000AFC802B04D0902B02D0502B03D005E0FFF7A7
S31508000B0CA9FF02E0FFF72EFF00BF80BDA827002033
S31508000B1C80B500AF002000F0F9FE80BD80B586B028
S31508000B2C00AF0123FB750023FB60A84B1B78002B39
S31508000B3C01D10023FB75FB7D012B40F04481A34BAF
S31508000B4C1B7C213B2F2B00F23D8101A252F823F08E
S31508000B5C470C0008210D0008950D0008CB0D000860
S31508000B6CD10D0008D10D0008D10D0008D10D0008D3
S31508000B7CD10D0008D10D0008D10D0008D10D0008C3
S31508000B8CD10D0008D10D0008D10D0008D10D0008B3
S31508000B9CD10D00081D0C0008230C0008D10D000807
S31508000BACD10D0008D10D0008D10D0008D10D000893
S31508000BBCD10D0008D10D0008D10D0008D10D000883
S31508000BCCD10D0008D10D0008D10D0008D10D000873
S31508000BDCD10D0008D10D0008D10D0008290C00080C
S31508000BECD10D0008D10D0008D10D0008D10D000853
S31508000BFC350C0008D10D0008D10D0008D10D0008E0
S31508000C0C2F0C0008D10D0008D10D0008430C000864
S31508000C1CFFF72EFFD7E0FFF74BFFD4E0FFF75EFF99
S31508000C2CD1E0FFF775FFCEE0FFF7A4FE674B1B7C00
S31508000C3C502B00D0C7E0FFF7E7FE644B5B6893F8D0
S31508000C4C2C30184606F03EFAFFF78AFDF860F8686D
S31508000C5C00F046F95D4B5B68184600F099F95B4B5A
S31508000C6C00221A77594B00225A77012002F0A2F972
S31508000C7C574B00221A602220FFF738FEFFF770FD4B
S31508000C8C0246544B1A60534B1B68184600F032F94F
S31508000C9C4E4B0022DA6200233B6137E04B4B5B6814
S31508000CAC5A6B3B69DB001344BB60BB681A68FB686C
S31508000CBC1340002B27D0BB685B68B3F1FF3F1DD0F0
S31508000CCCBB681A68FB681340002B17D0BB685B68B7
S31508000CDC414AA2FB03239A093D4B1B68934238BF32
S31508000CEC13463B4A13603A4B1B68002B02D0384B11
S31508000CFC1B6800E00123354AD36204E0BB681B6815
S31508000D0C1846FFF745FD3B6901333B613B69002BF0
S31508000D1CC4D058E02D4BDB6A002B1AD0FFF72CFDFC
S31508000D2C02462C4B1B685340184600F017F9FFF780
S31508000D3C23FD0346002B1CD0FFF71EFD0246254B50
S31508000D4C1B6853401846FFF723FD2320FFF7CEFDFB
S31508000D5C0FE0FFF711FD02461E4B1B6853407B60E4
S31508000D6C7B68002B02D0786800F0DEF82320FFF7AA
S31508000D7CBDFD164BDB6A002B05D0144BDB6A013B19
S31508000D8C124AD3621FE01EE0FFF7F6FCF860FB6818
S31508000D9C002B01D1032300E00023FB70FB781846D7
S31508000DAC00F024F90346FB70FB78002B03D12420B2
S31508000DBCFFF79CFD07E04920FFF798FD03E0FFF7D6
S31508000DCCC5FD00E000BF1837BD4680BDA82700202A
S31508000DDCDC270020E02700201F85EB5180B400AFEC
S31508000DECBD465DF8047B704780B500AF044B1B7895
S31508000DFC002B01D1FFF7F2FF024B184680BD00BF4E
S31508000E0CE4270020C088000880B500AF03F070FC0A
S31508000E1C03F0C6FC80BD00BF80B582B000AF786019
S31508000E2C7B689B6B184606F081F87B689B6BDB78B6
S31508000E3C184606F09FF800BF06F0EAF80346002BA2
S31508000E4CFAD106F0D1F87B68DB6B184606F096F9F2
S31508000E5C7B681B6C184606F0EDFC03F0BDFD06F02E
S31508000E6CF3F90837BD4680BD80B483B000AF78600F
S31508000E7C0C37BD465DF8047B704700BF80B483B061
S31508000E8C00AF78600C37BD465DF8047B704700BF31
S31508000E9C80B400AFBD465DF8047B704780B400AFE4
S31508000EACBD465DF8047B704780B400AFBD465DF85F
S31508000EBC047B704780B400AFBD465DF8047B704771
S31508000ECC80B400AFBD465DF8047B704780B483B030
S31508000EDC00AF78600C37BD465DF8047B704700BFE1
S31508000EEC80B483B000AF78600C37BD465DF8047BE0
S31508000EFC704700BF80B584B000AF786007F10F0368
S31508000F0C1846FFF775FCFB7B222B05D004480549D0
S31508000F1C40F25222FFF784FB1037BD4680BD00BF56
S31508000F2C788900080C89000880B584B000AF786011
S31508000F3C07F10F031846FFF75BFCFB7B222B05D04A
S31508000F4C0448054940F25E22FFF76AFB1037BD4696
S31508000F5C80BD00BF788900080C89000880B584B06C
S31508000F6C00AF786007F10F031846FFF741FCFB7BCF
S31508000F7C222B05D0044805494FF41A72FFF750FB8B
S31508000F8C1037BD4680BD00BF788900080C8900085B
S31508000F9C80B584B000AF786007F10B031846FFF7ED
S31508000FAC27FCFB7A212B05D00D480E4940F27D22F1
S31508000FBCFFF736FBFFF718FFF860F868FFF72CFF0A
S31508000FCC06F096F80246084B1B68B2FBF3F3184674
S31508000FDC02F044FEF868FFF747FF1037BD4680BDA0
S31508000FEC8C8900080C8900081887000880B584B01D
S31508000FFC00AF0346FB7107F10F031846FFF7F8FB22
S3150800100CFB7B232B05D00548054940F2A322FFF7A5
S3150800101C07FBFB7918461037BD4680BDA08900082A
S3150800102C0C89000880B582B000AFFB1D1846FFF787
S3150800103CDFFBFB79502B05D0044805494FF42D727C
S3150800104CFFF7EEFA0837BD4680BD00BFB489000825
S3150800105C0C89000880B582B000AFFB1D1846FFF757
S3150800106CC7FBFB79502B05D00548064940F2CB2225
S3150800107CFFF7D6FA002318460837BD4680BD00BFD1
S3150800108CB48900080C89000880B483B000AF786076
S3150800109C0C37BD465DF8047B704700BF80B500AFC2
S315080010AC6FF00D00002103F0D1F980BD80B48DB02E
S315080010BC00AF78607B681B68FB627B685B68BB6209
S315080010CC7B689B687B627B68DB683B627B681B6919
S315080010DCFB617B685B69BB617B689B697B617B6831
S315080010ECDB693B610C4B9B6A03F48023002B00D015
S315080010FCFEE7094B9B6A03F40033002B00D0FEE78E
S3150800110C054B9B6A03F40043002B03D0024B9B6BE5
S3150800111CFB60FEE7FEE700BF00ED00E072B61EF0CE
S3150800112C040F0CBFEFF30880EFF30980004908475A
S3150800113CB910000880B500AF6FF00B00014903F039
S3150800114C85F980BD00ED00E080B500AF6FF00A00B0
S3150800115C014903F07BF980BD00ED00E080B500AFD6
S3150800116C6FF00900014903F071F980BD00ED00E04C
S3150800117C80B483B000AF7860FF2318460C37BD46A1
S3150800118C5DF8047B704700BF00F0C2FC0C480D49A3
S3150800119C016062B6BFF34F8FBFF36F8FFEE74FEA5E
S315080011AC000D4FEA010E70472DE9F04F4FEA0D047A
S315080011BC04600C684FEA040D034D2960BDE8F08FF6
S315080011CC04ED00E000000010FC27002080B483B07A
S315080011DC00AFEFF310833B603B687B6072B67B68AD
S315080011EC18460C37BD465DF8047B704780B485B04D
S315080011FC00AF78607B68FB60FB6883F31088143754
S3150800120CBD465DF8047B704780B400AF034B1B6882
S3150800121C1846BD465DF8047B704700BFFC270020C6
S3150800122C80B400AF084B1A78084B1B781343DBB213
S3150800123C5BB2002B14BF01230023DBB21846BD4654
S3150800124C5DF8047B704700BFF9270020F8270020BB
S3150800125C80B400AF074B5B6D9B8B4FF6FF729342C6
S3150800126C0CBF01230023DBB21846BD465DF8047B90
S3150800127C704700BFFC27002080B483B000AF03463C
S3150800128CFB80FA881346DB0013441B01034A1344FC
S3150800129C18460C37BD465DF8047B7047602800205D
S315080012AC80B483B000AF78607B689B6B002B14BF4F
S315080012BC01230023DBB218460C37BD465DF8047BC8
S315080012CC704700BF80B582B000AF0346FB71094B6F
S315080012DC5B6A002B0AD0074B5B6ADB68002B05D0D0
S315080012EC044B5B6ADB68FA79104698470837BD46A3
S315080012FC80BD00BFFC27002080B586B000AFC7E9CB
S3150800130C0001FFF781FF78610023FB74FFF788FF64
S3150800131C0346002B0DD00D23FB743B4B0A221A7087
S3150800132C3B68394A5360FB7C1846FFF7CBFFFB7CBE
S3150800133C66E0364B5B69002B0DD00223FB74324BEF
S3150800134C0A221A703B68304A5360FB7C1846FFF732
S3150800135CB9FFFB7C54E07B691B6C1B7B032B0DD004
S3150800136C0123FB74284B0A221A703B68264A5360E1
S3150800137CFB7C1846FFF7A6FFFB7C41E07869FFF774
S3150800138C8FFF0346002B0DD00623FB741E4B0A2237
S3150800139C1A703B681C4A5360FB7C1846FFF792FF91
S315080013ACFB7C2DE0FFF712FFF8607B69D3E9060199
S315080013BCD7E9002302EA000203EA010313431BD10F
S315080013CC7969D7E90023C1E90423FFF741FF0346EE
S315080013DC002B0ED0022001F081F87B699B8903F063
S315080013EC0803002B08D10A480A494922FFF718F9BD
S315080013FC02E0786900F01CFFF868FFF7F7FEFB7C43
S3150800140C18461837BD4680BDE8270020FC27002063
S3150800141C888A0008AC8A000880B588B000AF0146F7
S3150800142CC7E900230B46FB810023FB77FB89032BBB
S3150800143C10D90323FB774F4B07221A70FB894D4AA9
S3150800144C53603B684B4A9360FB7F1846FFF73AFF9D
S3150800145CFB7F8AE0FB891846FFF70EFFB861FFF79A
S3150800146CD3FE7861BB691B6C1B7B032B10D0012345
S3150800147CFB77404B07221A70FB893E4A53603B6840
S3150800148C3C4A9360FB7F1846FFF71CFFFB7F6CE01A
S3150800149CBB699B8903F00403002B10D00723FB7749
S315080014AC344B07221A70FB89324A53603B68314A1F
S315080014BC9360FB7F1846FFF705FFFB7F55E0FFF7A8
S315080014CC85FE3861BB69D3E90601D7E9002342EAF0
S315080014DC000243EA0103B969C1E90623BB69D3E9EA
S315080014EC0401D7E9002302EA000203EA01031343C5
S315080014FC37D0BB699B8903F00203002B26D0B86949
S3150800150C00F082FEFFF780FE78611B4B5B69002BAF
S3150800151C27D17B691B6C93F82830002B21D1BB692A
S3150800152CDA6A7B69DB6A9A421BD9FFF779FE0346AE
S3150800153C83F00103DBB2002B13D0FFF789FE0346B9
S3150800154C002B0ED0012000F0C9FF0AE0BB699B896D
S3150800155C03F06903002B04D108480949B722FFF7A1
S3150800156C5FF83869FFF742FEFB7F18462037BD4601
S3150800157C80BD00BFE8270020FC270020108B000840
S3150800158CAC8A000880B586B000AFC7E90001002315
S3150800159CFB75FFF739FE3861FFF742FE0346002B51
S315080015AC0DD00D23FB75264B08221A703B68244A6E
S315080015BC5360FB7D1846FFF785FEFB7D3BE0214B10
S315080015CC5B69002B0DD00223FB751D4B08221A7084
S315080015DC3B681B4A5360FB7D1846FFF773FEFB7D81
S315080015EC29E03B691B6C1B7B032B0DD00123FB7578
S315080015FC134B08221A703B68114A5360FB7D184638
S3150800160CFFF760FEFB7D16E0FFF7E0FDF8603B692F
S3150800161CD3E90601D7E900236FEA02026FEA03034E
S3150800162C02EA000203EA01033969C1E90623F868EC
S3150800163CFFF7DCFDFB7D18461837BD4680BD00BF9D
S3150800164CE8270020FC27002080B400AF044B0022BA
S3150800165C1A70044B00221A70BD465DF8047B70475D
S3150800166CF9270020F827002080B483B000AF034682
S3150800167CFB80FA881346DB0013441B01034A134408
S3150800168C18460C37BD465DF8047B70476028002069
S3150800169C90B482B000AF786039603B685A687B6852
S315080016ACDA627A683B681446103393E8070084E8D4
S315080016BC07007B683A681A640837BD4690BC7047C1
S315080016CC80B588B000AF314800215C2206F0C0FC1A
S315080016DC2E4B012283F85A202C4B2D4A5A652D4B3A
S315080016EC64221A702C4B64221A7000F03BFB274BB1
S315080016FC00229A64254B294ADA60244B0022DA64C4
S3150800170C224B274A1A653B1D184602F0FFFCBB689C
S3150800171C1A46FB681344103B1A461C4B1A62BB68E4
S3150800172CBB61BB6942221A70BA68FB6813447B61B9
S3150800173C7B69013B42221A7002F014FA0023FB6102
S3150800174C1BE0FB699BB21846FFF78EFF3861FB69F5
S3150800175C9B01144A134438691946FFF799FF3869EF
S3150800176C00F0FEFD3B6900229A633B6903F13802DF
S3150800177C3B69DA63FB690133FB61FB69032BE0D92F
S3150800178C01F002FD2037BD4680BD00BFFC270020B6
S3150800179CA02A0020F8270020F9270020602800201E
S315080017AC482800209087000880B586B000AF002333
S315080017BC3B6172B63B4B93F85A30002B04D13A482E
S315080017CC3A49BD22FEF72CFF364B394A5A62354B3D
S315080017DC5B6A5B68002B03D0324B5B6A5B68984785
S315080017EC02F0F6FD02F03EF802F030FA05F080FC45
S315080017FCB860304B1B68BA68B2FBF3F3184602F0B4
S3150800180C2DFA0023FB600023FB8219E0FB8A18469D
S3150800181CFFF72AFF78607B681B6C5B7B002B0CD070
S3150800182C3B69002B04D07B68DA6AFB689A4204D9B8
S3150800183C7B683B617B68DB6AFB60FB8A0133FB8256
S3150800184CFB8A032BE2D93B69002B05D11A481749A9
S3150800185C40F20712FEF7E4FE124A3B6913603B6935
S3150800186C1B6CDB690F4A1364FFF7EEFE3B6993F8B2
S3150800187C30203B691B6C93F83C309A4205D90F48CB
S3150800188C0A4940F21312FEF7CBFE0020396900F024
S3150800189CFFFF0B48054940F21712FEF7C1FE183731
S315080018ACBD4680BDFC270020148B0008388B000829
S315080018BC90880008188700089C8B0008B88B0008CD
S315080018CCF88B000880B500AFFEF7B6FE0123184664
S315080018DC80BD00BF80B582B000AF7860084B01228E
S315080018EC83F85920064A7B689363FFF75DFF054822
S315080018FC05494FF49D72FEF793FE0837BD4680BD29
S3150800190CFC270020F88B0008388B000880B582B0BD
S3150800191C00AF0346FB7172B6074B5B6A002B0AD005
S3150800192C054B5B6A9B68002B05D0034B5B6A9B686F
S3150800193CFA7910469847FEE7FC27002080B483B056
S3150800194C00AF7860034A7B6813600C37BD465DF8B8
S3150800195C047B7047FC27002080B400AF084B1A782C
S3150800196C084B1B781343DBB25BB2002B14BF012365
S3150800197C0023DBB21846BD465DF8047B704700BFF2
S3150800198CF9270020F827002080B483B000AF03465F
S3150800199CFB7197F90730002B0ADA0D4AFB7903F02D
S315080019AC0F03043B13441B7EDBB21B09DBB208E0B6
S315080019BC084A97F90730134493F80033DBB21B092E
S315080019CCDBB218460C37BD465DF8047B704700BF82
S315080019DC00ED00E000E100E080B400AF074B5B6D62
S315080019EC9B8B4FF6FF7293420CBF01230023DBB28D
S315080019FC1846BD465DF8047B704700BFFC270020DF
S31508001A0C80B483B000AF78607B6808229A810C3763
S31508001A1CBD465DF8047B704780B485B000AF78602E
S31508001A2C0023FB737B685B68BB60BB681B78422B27
S31508001A3C0CBF01230023DBB2FB73FB7B1846143760
S31508001A4CBD465DF8047B704780B485B000AF7860FE
S31508001A5C0023FB737B685A687B689B681344BB60DE
S31508001A6CBB68013B1B78422B0CBF01230023DBB25E
S31508001A7CFB73FB7B18461437BD465DF8047B704731
S31508001A8C80B582B000AF78607868FFF7C5FF03466B
S31508001A9C002B05D07868FFF7D7FF0346002B02D139
S31508001AAC0E20FFF733FF0837BD4680BD80B500AF63
S31508001ABC62B6034B1B681B6C9B68984780BD00BFBE
S31508001ACCFC27002090B400AFEFF309831C4623468D
S31508001ADC1846BD4690BC704780B400AF30231846F4
S31508001AECBD465DF8047B704790B482B000AFEFF347
S31508001AFC09831C4623467B607B6820337B607B68A6
S31508001B0C3B603B6883F309880837BD4690BC704731
S31508001B1C80B500AF044B5A68034B1B681046194630
S31508001B2CFFF742FB80BD00BFFC27002090B587B0AD
S31508001B3C00AF6F4B5B68C3F308037B617B69DBB251
S31508001B4C103BDBB2DBB25BB21846FFF71DFF034650
S31508001B5C042B10D8674A7B6952F82330002B04D122
S31508001B6C654866497A22FEF75BFD624A7B6952F83C
S31508001B7C23309847B8E0EFF309831C4623463B61AC
S31508001B8C72B6FFF7E9FE0346002B04D05C485B49A6
S31508001B9C8522FEF745FD7B699BB23869194602F02A
S31508001BACE9FA584B1B78422B02D00E20FFF7AEFEF3
S31508001BBC4F4B5B6803F40063002B00F09180524B8B
S31508001BCC00221A60EFF309831C462346FB60FB6868
S31508001BDC203BFB60FB684FF08072DA61FB687B6028
S31508001BEC7B6883F3098800F0DFFBB860B868FFF7F9
S31508001BFC47FF464B1A68BB689A420ED0434B1B6884
S31508001C0C1B6C93F82830012B07D0FFF7E5FE03462B
S31508001C1C83F00103DBB2002B2AD03C4B1B6808224D
S31508001C2C9A813A4B1B689B8903F00803002B04D155
S31508001C3C37483249B522FEF7F3FC344B1B689B6ACE
S31508001C4C002B04D033482D49B522FEF7E9FC2F4B5F
S31508001C5C1B6801229A622D4B5B6A1B69002B03D009
S31508001C6C2A4B5B6A1B6998472B4AFB689A613BE0CF
S31508001C7C264B1B68254A5360B868FFF75FFEBB689E
S31508001C8C1B6CDB69214A136401F056FAB868FFF736
S31508001C9CB7FE1E4B1B689B8903F00803002B04D167
S31508001CAC1B481649C522FEF7BBFC184B1B689B6ADA
S31508001CBC002B04D017481149C522FEF7B1FC134B6B
S31508001CCC1B6801229A62114B5B6A1B69002B03D0B5
S31508001CDC0E4B5B6A1B699847104AFB689A6103E0CE
S31508001CEC094B01221A6062B61C37BD4690BD00BF6F
S31508001CFC00ED00E0FC330020FC8B0008248C000867
S31508001D0C948C0008204900205C280020FC27002021
S31508001D1CB48C0008E88C0008981100089411000887
S31508001D2C80B485B000AF78607B681B68FB607B6805
S31508001D3C1B6C1B7B032B03D1084AFB681A6207E052
S31508001D4C7B681B6C1B7B012B02D1054AFB681A624C
S31508001D5C1437BD465DF8047B704700BFBD220008EA
S31508001D6C0123000880B400AFBD465DF8047B7047BC
S31508001D7C80B483B000AFEFF310833B603B687B60A5
S31508001D8C72B67B6818460C37BD465DF8047B7047FF
S31508001D9C80B485B000AF78607B68FB60FB6883F322
S31508001DAC10881437BD465DF8047B704780B483B041
S31508001DBC00AF7860034A7B6813600C37BD465DF844
S31508001DCC047B7047FC27002080B400AF034B1B68CC
S31508001DDC1846BD465DF8047B704700BFFC270020FB
S31508001DEC80B400AF084B1A78084B1B781343DBB248
S31508001DFC5BB2002B14BF01230023DBB21846BD4689
S31508001E0C5DF8047B704700BFF9270020F8270020EF
S31508001E1C80B400AF044B00221A70044B00221A70CF
S31508001E2CBD465DF8047B7047F9270020F82700208B
S31508001E3C80B400AF074B5B6D9B8B4FF6FF729342DA
S31508001E4C0CBF01230023DBB21846BD465DF8047BA4
S31508001E5C704700BFFC27002080B483B000AF7860C1
S31508001E6C7B6808229A810C37BD465DF8047B70475F
S31508001E7C80B483B000AF0346FB80FA881346DB00B8
S31508001E8C13441B01034A134418460C37BD465DF828
S31508001E9C047B70476028002080B582B000AF78605C
S31508001EAC39607B689A8B3B681B6C1B889A4205D0F9
S31508001EBC1F48204940F20312FEF7B2FB7B684FF627
S31508001ECCFF729A837B689A693B68DA627B689B7FA8
S31508001EDC022B29D03B689B6B002B05D1164815495C
S31508001EEC40F20912FEF79CFB3B68DB6B5B681A68D1
S31508001EFC7B689A4205D011480E494FF48672FEF754
S31508001F0C8FFB7B689B6A002B05D07B689B6A7A687B
S31508001F1CD26ADA6203E07B68DA6A3B68DA637B6862
S31508001F2CDB6A7A68926A1A600837BD4680BD00BFBC
S31508001F3C108D0008388D00089C8D0008D48D00087B
S31508001F4C80B584B000AF78607B689B6BFB6006E05D
S31508001F5CF8687968FFF7A0FFFB689B6AFB60FB686B
S31508001F6C002BF5D11037BD4680BD00BF80B485B0B7
S31508001F7C00AF78607B681B68BB607B685B68FB603E
S31508001F8C02E0FB680133FB60FB681B78422B03D12C
S31508001F9CFA68BB689A42F4D3FB6818461437BD46F0
S31508001FAC5DF8047B704700BF80B485B000AF7860DD
S31508001FBC7B685A687B689B681344FB60FB68013B2B
S31508001FCC42221A701437BD465DF8047B704700BF71
S31508001FDC80B485B000AF78607B685B68FB60FB6893
S31508001FEC42221A701437BD465DF8047B704700BF51
S31508001FFC80B485B000AF78600023FB737B685B68A0
S3150800200CBB60BB681B78422B0CBF01230023DBB2D9
S3150800201CFB73FB7B18461437BD465DF8047B70478B
S3150800202C80B485B000AF78600023FB737B685A6870
S3150800203C7B689B681344BB60BB68013B1B78422BCF
S3150800204C0CBF01230023DBB2FB73FB7B184614374A
S3150800205CBD465DF8047B704780B582B000AF7860EA
S3150800206C7868FFF7C5FF0346002B05D07868FFF79D
S3150800207CD7FF0346002B02D10E20FFF747FC083783
S3150800208CBD4680BD80B483B000AF78607B689B6B1F
S3150800209C002B14BF01230023DBB218460C37BD46B0
S315080020AC5DF8047B704700BF80B582B000AF03466D
S315080020BCFB71094B5B6A002B0AD0074B5B6ADB6822
S315080020CC002B05D0044B5B6ADB68FA7910469847F7
S315080020DC0837BD4680BD00BFFC27002080B582B0FE
S315080020EC00AF78607B689B89082B04D005480649A5
S315080020FC2522FEF795FA7B6801229A810837BD4698
S3150800210C80BD00BF208E0008488E000880B483B0BE
S3150800211C00AF78607B68D3F88430002B08D07B68D6
S3150800212CD3F884307A68D2F88820C3F8882004E07B
S3150800213C7B68D3F88830074A13657B68D3F88830F0
S3150800214C7A68D2F884201A600C37BD465DF8047B91
S3150800215C704700BFFC27002080B483B000AF7860BE
S3150800216C7B680022C3F88420084B1A6D7B68C3F879
S3150800217C8820064B1B6D7A681A607B688433034A81
S3150800218C13650C37BD465DF8047B7047FC270020A9
S3150800219C80B582B000AF78607B689B8903F0090331
S315080021AC002B04D1064807496322FEF739FA7B68E7
S315080021BC04229A817868FFF7A9FF0837BD4680BDC7
S315080021CCAC8E0008488E000880B582B000AF7860E7
S315080021DC7B681B6C1B7B032B0DD179684FF00002B7
S315080021EC4FF00003C1E9062379684FF000024FF05F
S315080021FC0003C1E90423786800F082F87868FFF7D1
S3150800220C8FFD0837BD4680BD80B582B000AF7860BB
S3150800221C7B689B8903F00903002B05D17B68012297
S3150800222C9A817868FFF798FF0837BD4680BD00BFCE
S3150800223C80B582B000AF78607B689B8903F0090390
S3150800224C002B04D1064807499622FEF7E9F97B6864
S3150800225C02229A817868FFF759FF0837BD4680BD78
S3150800226CAC8E0008488E000880B584B000AF786044
S3150800227C7B681B68FB607B681A687B685B689A429C
S3150800228C04D809480949A622FEF7CAF97B68596891
S3150800229CFB687A6852689B1A084642211A4605F06A
S315080022ACD7FE1037BD4680BDD88E0008488E00086C
S315080022BC80B582B000AFFFF787FD7860FFF7F6FBB5
S315080022CC72B6FFF78DFD0346002B01D0FFF7A0FD74
S315080022DC7868FFF7D7FE0346002B02D07868FFF71D
S315080022EC2FFE0C20FFF7E0FE00F032FC0837BD4647
S315080022FC80BD00BF80B500AFFFF7DAFF80BD00BF19
S3150800230C80B584B000AF78607B685A687B689B6838
S3150800231C1344FB60FB6803F00703002B05D00E483B
S3150800232C0E494FF49372FEF77BF97B68FA681A60CC
S3150800233C7868FFF739FEFB68103BFB60FFF7CCFBB0
S3150800234C03465B42FA681A447B681A607868FFF79A
S3150800235C3FFE1037BD4680BD008F0008488E00082A
S3150800236C80B582B000AF78607B681B6C5B7B012BF9
S3150800237C0BD17B6893F830300133DAB27B6883F87B
S3150800238C30207868FFF740FF02E07B6804229A81C8
S3150800239C7868FFF7B5FF7868FFF766FF7868FFF788
S315080023ACBFFC0837BD4680BD80B584B000AF00239E
S315080023BCBB6000237B600023FB701D4BDB6CFB6052
S315080023CC25E0FB689B8903F00903002B15D0FB78E5
S315080023DC012B0AD1FB68DA6A7B689A4213D9FB6827
S315080023ECDB6A7B60FB68BB600DE00123FB70FB6856
S315080023FCDB6A7B60FB68BB6005E00E480E494FF450
S3150800240CB372FEF70DF9FB68D3F88430FB60FB68F2
S3150800241C002BD6D1BB68002B05D10848064940F2DB
S3150800242C6B12FEF7FDF8BB6818461037BD4680BD23
S3150800243CFC270020208F0008488E0008248F0008EF
S3150800244C80B582B000AF78607868FFF759FF786876
S3150800245CFFF702FD7868FFF7A9FC1A4B1B689B89E6
S3150800246C03F00803002B05D1174818494FF41672C8
S3150800247CFEF7D6F8134B1B689B6A002B05D014483D
S3150800248C12494FF41672FEF7CBF80E4B1B68012255
S3150800249C9A620C4B5B6A1B69002B03D0094B5B6A6F
S315080024AC1B6998477B681B6818460A49FEF777FE2E
S315080024BC0948064940F25D22FEF7B2F80837BD46D0
S315080024CC80BD00BFFC270020408F0008488E0008FE
S315080024DC748F000801230008208F000880B584B08B
S315080024EC00AF0346FB80FFF76FFCF860B84B5B69DF
S315080024FC002B05D0B748B84940F27122FEF790F880
S3150800250CFFF796FC034683F00103DBB2002B05D0DC
S3150800251CB248B14940F27222FEF782F8FB689B89F1
S3150800252C03F00803002B05D1AD48AB4940F27522E0
S3150800253CFEF776F8A64B1B689B8903F00803002B5D
S3150800254C05D1A848A44940F27622FEF769F8A04BB3
S3150800255C1B689B6A012B05D0A3489F4940F276223B
S3150800256CFEF75EF89A4B1B6800229A62984B5B6AD8
S3150800257C5B69002B03D0964B5B6A5B699847FB88B3
S3150800258C013B3F2B00F2E18001A252F823F000BF79
S3150800259C9D260008A526000857270008AD26000822
S315080025AC5727000857270008572700081D27000833
S315080025BC57270008572700085727000857270008E9
S315080025CC5727000857270008572700089D26000894
S315080025DC57270008572700085727000857270008C9
S315080025EC57270008572700085727000857270008B9
S315080025FC57270008572700085727000857270008A9
S3150800260C572700085727000857270008B52600083B
S3150800261C5727000857270008572700085727000888
S3150800262C5727000857270008572700085727000878
S3150800263C5727000857270008572700085727000868
S3150800264C5727000857270008572700085727000858
S3150800265C5727000857270008572700085727000848
S3150800266C5727000857270008572700085727000838
S3150800267C5727000857270008572700085727000828
S3150800268C5727000857270008572700089D260008D3
S3150800269CF868FFF723FD5FE0F868FFF7C9FD5BE014
S315080026ACF868FFF7B1FD57E0494B1B69002B05D1BC
S315080026BC4E48494940F29122FDF7B2FF444B1A693C
S315080026CCFB689A4223D0FB6893F83030002B05D16F
S315080026DC474841494FF42872FDF7A2FFFB6893F867
S315080026EC3030013BDAB2FB6883F83020FB6893F88C
S315080026FC3030002B03D1F868FFF74AFD07E0F8687D
S3150800270CFFF7ECFCFB68012283F8312024E023E078
S3150800271CFB6893F83030002B05D135482E4940F22A
S3150800272CB522FDF77DFFFB6893F83030013BDAB232
S3150800273CFB6883F83020FB6893F83030002B03D104
S3150800274CF868FFF725FD07E006E02A48224940F21B
S3150800275CBD22FDF765FF00BFFFF726FEB860BA6815
S3150800276CFB689A422DD0FB88202B0AD1184B1A6984
S3150800277CFB689A4205D1164B00221A61F868FFF7D6
S3150800278CADFCBB68002B05D11B48134940F2CD2282
S3150800279CFDF746FF00F0E4FCF868FFF75DFCBB6844
S315080027AC93F83130012B07D1BB68002283F831200E
S315080027BCB868FFF745FE07E0F868B96800F01EF838
S315080027CC02E0B868FFF73CFE1037BD4680BD00BF77
S315080027DCFC2700209C8F0008488E0008BC8F000838
S315080027ECDC8F0008408F0008049000082C90000825
S315080027FC58900008208F00087490000880B582B0A5
S3150800280C00AF786039603B68002B35D03868FFF725
S3150800281CCDFA3B681B6CDB69194A136400F08CFC17
S3150800282C3868FFF719FB164B1B689B8903F00803DE
S3150800283C002B05D11348144940F20B32FDF7F0FE74
S3150800284C0F4B1B689B6A002B05D010480E4940F2AB
S3150800285C0B32FDF7E5FE0A4B1B6801229A62084B00
S3150800286C5B6A1B69002B03D0054B5B6A1B6998478F
S3150800287C78683968FEF798FC0837BD4680BD00BFF6
S3150800288CFC270020408F0008488E0008748F00082B
S3150800289C80B582B000AF786039603868FFF786FA81
S315080028AC3B681B6CDB691C4A136400F045FC3868F2
S315080028BCFFF7D2FA184B1B689B8903F00803002B09
S315080028CC05D11648164940F21F32FDF7A9FE124BE0
S315080028DC1B689B6A002B05D01248114940F21F321F
S315080028ECFDF79EFE0C4B1B6801229A620A4B5B6A2B
S315080028FC1B69002B03D0084B5B6A1B6998477868E1
S3150800290C3968FEF756FC084805494FF44972FDF735
S3150800291C87FE0837BD4680BDFC270020408F00087F
S3150800292C488E0008748F0008208F000880B584B084
S3150800293C00AF03463960FB80FB881846FFF798FA08
S3150800294CF8603B68002B29D0FFF7BCF802463B68B9
S3150800295CDA60FB685A683B685A60FB681A683B6819
S3150800296C1A60FB689A683B689A60F868FFF7FEFA83
S3150800297C02463B681A613B689A683B685B6819466D
S3150800298C3B681B69CB1A1344642202FB03F23B68AF
S3150800299C9B68B2FBF3F3DAB23B681A751037BD467F
S315080029AC80BD00BF80B584B000AF78600023FB7390
S315080029BC7B68002B0DD11823FB73134B04221A705A
S315080029CC7B68114A5360FB7B1846FFF76DFBFB7B54
S315080029DC15E07B684DF6AD621A800C4B5B69002BD3
S315080029EC0CD10A4B1B689B8903F00803002B05D0F6
S315080029FC064B1B681B6C1A887B681A80FB7B18466F
S31508002A0C1037BD4680BD00BFE8270020FC270020F4
S31508002A1C90B587B000AF0346FB80FFF7D5F9786110
S31508002A2C0023FB74FB88032B0DD90323FB74444B3F
S31508002A3C00221A70FB88424A5360FB7C1846FFF743
S31508002A4C33FBFB7C77E0FB881846FFF711FAF86036
S31508002A5CFFF7C6F90346002B0DD00D23FB74384B34
S31508002A6C00221A70FB88364A5360FB7C1846FFF71F
S31508002A7C1BFBFB7C5FE0FFF77BF9B860FB6893F800
S31508002A8C30300133DAB2FB6883F83020FB689B8957
S31508002A9C042B21D0FB6893F83020FB681B6C93F849
S31508002AAC3C309A4229D90423FB74B868FFF770F9AD
S31508002ABCFB6893F83030013BDAB2FB6883F83020B8
S31508002ACC1F4B00221A70FB881D4A5360FB7C184664
S31508002ADCFFF7EAFAFB7C2EE0FB6893F83030012B03
S31508002AEC05D01848184940F2FE32FDF799FDF868EA
S31508002AFCFFF76AFBF868FFF787FB144B5B69002B3B
S31508002B0C15D17B691B6C93F82830002B0FD1FB6809
S31508002B1CDC6AFFF759F90346DB6A9C4207D9FFF7CB
S31508002B2C87F90346002B02D00420FFF7D7FCB868B8
S31508002B3CFFF72EF9FB7C18461C37BD4690BD00BF27
S31508002B4CE827002088900008488E0008FC270020FB
S31508002B5C80B582B000AF0023FB71FFF735F93860FA
S31508002B6CFFF73EF90346002B0AD00D23FB711C4BCD
S31508002B7C01221A70FB791846FFF796FAFB792AE0B8
S31508002B8C184B5B69002B0AD00223FB71144B0122EC
S31508002B9C1A70FB791846FFF787FAFB791BE0386839
S31508002BACFFF770FA0346002B0AD00623FB710C4B71
S31508002BBC01221A70FB791846FFF776FAFB790AE0B8
S31508002BCC72B60820FFF78AFC0748084940F24142CA
S31508002BDCFDF726FDFB7918460837BD4680BD00BFB4
S31508002BECE8270020FC270020208F0008488E0008C4
S31508002BFC80B586B000AFF8600B467A607B817B891E
S31508002C0C1846FFF735F97861FB68002B05D116488D
S31508002C1C164940F2C642FDF703FD7B6803F0010333
S31508002C2C002B12D0FA687B691B6C5B6A1046194636
S31508002C3C102205F00FFC7B691B6C1B7B032B01D147
S31508002C4C012200E00022FB681A617B6803F002038C
S31508002C5C002B06D0FB6814337A8910461946FFF701
S31508002C6C65FE1837BD4680BD74900008488E00086E
S31508002C7C80B483B000AFEFF310833B603B687B6096
S31508002C8C72B67B6818460C37BD465DF8047B7047F0
S31508002C9C80B485B000AF78607B68FB60FB6883F313
S31508002CAC10881437BD465DF8047B704780B400AFB6
S31508002CBC034B1B681846BD465DF8047B704700BF7E
S31508002CCCFC27002080B400AF084B1A78084B1B78F9
S31508002CDC1343DBB25BB2002B14BF01230023DBB218
S31508002CEC1846BD465DF8047B704700BFF9270020DF
S31508002CFCF827002080B483B000AF0346FB71FA793D
S31508002D0C13465B0013441B01034A134418460C373D
S31508002D1CBD465DF8047B7047E000002080B400AF28
S31508002D2C074B5B6D9B8B4FF6FF7293420CBF0123CF
S31508002D3C0023DBB21846BD465DF8047B704700BF1E
S31508002D4CFC27002080B483B000AF0346FB80FA88CA
S31508002D5C1346DB0013441B01034A134418460C376D
S31508002D6CBD465DF8047B70476028002080B483B0AC
S31508002D7C00AF786039603B681B6C1A887B689A834D
S31508002D8C3B68DA6A7B689A617B685A693B68DA62DF
S31508002D9C7B689B7F022B0FD07B6800229A623B686C
S31508002DACDA6B7B68DA623B68DB6B7A681A607B687D
S31508002DBC03F128023B68DA630C37BD465DF8047BE1
S31508002DCC704700BF80B582B000AF786039607B6809
S31508002DDC9A8B3B681B6C1B889A4205D01F48204966
S31508002DEC40F20312FDF71CFC7B684FF6FF729A83C0
S31508002DFC7B689A693B68DA627B689B7F022B29D0D1
S31508002E0C3B689B6B002B05D11648154940F20912F5
S31508002E1CFDF706FC3B68DB6B5B681A687B689A42B5
S31508002E2C05D011480E494FF48672FDF7F9FB7B68FD
S31508002E3C9B6A002B05D07B689B6A7A68D26ADA6231
S31508002E4C03E07B68DA6A3B68DA637B68DB6A7A6874
S31508002E5C926A1A600837BD4680BD00BFF890000814
S31508002E6C2091000884910008BC91000880B582B0B6
S31508002E7C00AF0346FB71094B5B6A002B0AD0074B64
S31508002E8C5B6ADB68002B05D0044B5B6ADB68FA7956
S31508002E9C104698470837BD4680BD00BFFC27002062
S31508002EAC80B586B000AF0346FB710023FB74FFF7B1
S31508002EBC09FF0346002B0DD00D23FB743B4B052253
S31508002ECC1A70FB79394A5360FB7C1846FFF7CEFF1C
S31508002EDCFB7C66E0FB79012B0DD90323FB74334B82
S31508002EEC05221A70FB79314A5360FB7C1846FFF7AA
S31508002EFCBDFFFB7C55E0FFF7BBFEF8602C4B5B690E
S31508002F0C002B10D02623FB74F868FFF7C1FE274B5D
S31508002F1C05221A70FB79254A5360FB7C1846FFF785
S31508002F2CA5FFFB7C3DE0FFF7C1FEB860FB79012BE2
S31508002F3C03D11F4B5B6D7B612BE0FB791846FFF7C2
S31508002F4CD9FE7861BB681B6CDA6AFB7922FA03F343
S31508002F5C03F00103002B0BD07B699B8B4FF6FF729A
S31508002F6C934205D1BB68DA6A7B695B699A4210D9C8
S31508002F7C0123FB74F868FFF78BFE0C4B05221A70BD
S31508002F8CFB790A4A5360FB7C1846FFF76FFFFB7CFC
S31508002F9C07E07869B968FFF7E9FEF868FFF778FE85
S31508002FACFB7C18461837BD4680BD00BFE8270020B5
S31508002FBCFC27002090B589B000AF0346FB710023AF
S31508002FCCFB76FFF773FE7861FFF77CFE0346002B52
S31508002FDC0DD00D23FB76564B06221A70FB79544AF4
S31508002FEC5360FB7E1846FFF741FFFB7E9BE0FB799F
S31508002FFC012B0DD90323FB764D4B06221A70FB7950
S3150800300C4B4A5360FB7E1846FFF730FFFB7E8AE07F
S3150800301CFFF72EFE3861474B5B69002B10D0262331
S3150800302CFB763869FFF734FE414B06221A70FB799A
S3150800303C3F4A5360FB7E1846FFF718FFFB7E72E08B
S3150800304CFB79012B03D13B4B5B6DFB611CE07B6968
S3150800305C1B6CDA6AFB7922FA03F303F00103002BE3
S3150800306C0DD10323FB76324B06221A70FB79304AB4
S3150800307C5360FB7E1846FFF7F9FEFB7E53E0FB799F
S3150800308C1846FFF737FEF861FB699B8B4FF6FF7204
S3150800309C934210D10523FB763869FFF7F9FD244BCB
S315080030AC06221A70FB79224A5360FB7E1846FFF7F4
S315080030BCDDFEFB7E37E07B69DA6AFB695B699A425F
S315080030CC10D20123FB763869FFF7E2FD184B06226E
S315080030DC1A70FB79164A5360FB7E1846FFF7C6FE34
S315080030ECFB7E20E0F8697969FFF76CFE7B691B6C3F
S315080030FC93F82830002B12D1FFF710FE0346002B4D
S3150800310C0DD0FFF751F9F860FB68DC6AFFF7CEFDC6
S3150800311C0346DB6A9C4202D94020FFF7DFF938697F
S3150800312CFFF7B6FDFB7E18462437BD4690BD00BF9B
S3150800313CE8270020FC27002080B582B000AFFFF7F7
S3150800314CB5FD78607B681B6C9B6B3B603B68002B02
S3150800315C03D038687968FFF709FE0837BD4680BD85
S3150800316C80B582B000AFFFF7A1FD78607B681B6C59
S3150800317C9B6B3B603B68002B03D038687968FFF77C
S3150800318C21FE0837BD4680BD80B586B000AF254BFD
S3150800319C5B6D4FF0FF325A61224B5B6D1846224924
S315080031AC05F082F81F4B5B6D01221A611D4B5B6D96
S315080031BC4FF6FF729A8300233B612DE03B69DBB225
S315080031CC1846FFF797FDB86000237B610023FB8147
S315080031DC19E0FB891846FFF7B5FD78607B681B6C10
S315080031ECDA6A3B6922FA03F303F00103002B07D0D2
S315080031FC7B681B6C5B687A69934238BF13467B61A4
S3150800320CFB890133FB81FB89032BE2D9BB687A69FD
S3150800321C5A613B6901333B613B69002BCED01837A9
S3150800322CBD4680BDFC2700200892000880B483B0F8
S3150800323C00AFEFF310833B603B687B6072B67B682C
S3150800324C18460C37BD465DF8047B704780B485B0CC
S3150800325C00AF78607B68FB60FB6883F310881437D3
S3150800326CBD465DF8047B704780B400AF084B1A78EE
S3150800327C084B1B781343DBB25BB2002B14BF01233C
S3150800328C0023DBB21846BD465DF8047B704700BFC9
S3150800329CF9270020F827002080B483B000AF7860A7
S315080032AC7B681B6A18460C37BD465DF8047B70476D
S315080032BC80B483B000AF78607B685B6918460C37BE
S315080032CCBD465DF8047B704780B487B000AFF860E4
S315080032DCB9607A60BA68FB68D31A3B617A683B694D
S315080032EC9A4204D8FA687B6813447B6106E0FA684C
S315080032FCBB68D21A7B681344013B7B617B69184611
S3150800330C1C37BD465DF8047B704700BF80B483B09C
S3150800331C00AF0346FB80FA881346DB001344DB0038
S3150800332C034A134418460C37BD465DF8047B7047B0
S3150800333C5000002080B582B000AF0346FB71094BE4
S3150800334C5B6A002B0AD0074B5B6ADB68002B05D03F
S3150800335C044B5B6ADB68FA79104698470837BD4612
S3150800336C80BD00BFFC27002080B485B000AF786014
S3150800337C39600023FB737B68002B0DD03B685B68B8
S3150800338C9A6A7B689A4205D83B685B681A6A7B68B6
S3150800339C9A4201D20823FB73FB7B18461437BD46A9
S315080033AC5DF8047B704700BF90B583B000AF7860BA
S315080033BC7B689B69002B04D17B68002283F8242048
S315080033CC15E07B685B681846FFF772FF04467B6856
S315080033DC5B681846FFF760FF02467B689B692046C8
S315080033EC11461A46FFF770FF02467B681A620C37BD
S315080033FCBD4690BD80B588B000AFB9607A601A46F4
S3150800340C0346FB8113467B730023FB777B7B002BE0
S3150800341C18D1FFF729FF0346002B13D00D23FB7792
S3150800342C524B0D221A70FB89504A53604F4ABB689F
S3150800343C93604E4A7B68D360FB7F1846FFF77AFF8A
S3150800344CFB7F8EE0FB89012B13D90323FB77474BB4
S3150800345C0D221A70FB89454A5360444ABB6893602F
S3150800346C424A7B68D360FB7F1846FFF763FFFB7FF6
S3150800347C77E0FB891846FFF749FFB861BB68002B54
S3150800348C05D0BB695B681A6ABB689A4213D20823D3
S3150800349CFB77364B0D221A70FB89344A5360334A34
S315080034ACBB689360314A7B68D360FB7F1846FFF78D
S315080034BC41FFFB7F55E07868B969FFF755FF03466E
S315080034CC082B13D10823FB77284B0D221A70FB897E
S315080034DC264A5360254ABB689360244A7B68D360A6
S315080034ECFB7F1846FFF726FFFB7F3AE0FFF79EFEA9
S315080034FC7861BB6993F82430002B16D07869FFF7EE
S3150800350CA5FE0723FB77194B0D221A70FB89174A60
S3150800351C5360164ABB689360144A7B68D360FB7F7A
S3150800352C1846FFF707FFFB7F1BE0BB69012283F8F0
S3150800353C2420BB695B681846FFF7BAFE0246BB69CE
S3150800354C5B681B6A10461946BA68FFF7BDFE024649
S3150800355CBB691A62BB697A689A617869FFF776FE65
S3150800356CFB7F18462037BD4680BD00BFE8270020E4
S3150800357C80B588B000AFB9607A601A460346FB81FD
S3150800358C13467B730023FB777B7B002B18D1FFF745
S3150800359C6BFE0346002B13D00D23FB77494B0E22EB
S315080035AC1A70FB89474A5360464ABB689360454A7A
S315080035BC7B68D360FB7F1846FFF7BCFEFB7F7DE07C
S315080035CCFB89012B13D90323FB773E4B0E221A706A
S315080035DCFB893C4A53603B4ABB689360394A7B6813
S315080035ECD360FB7F1846FFF7A5FEFB7F66E0FB89D9
S315080035FC1846FFF78BFEB861BB695B681A6ABB682D
S3150800360C9A4213D20823FB772E4B0E221A70FB898B
S3150800361C2C4A53602B4ABB6893602A4A7B68D36052
S3150800362CFB7F1846FFF786FEFB7F47E07868B9698B
S3150800363CFFF79AFE0346082B13D10823FB77214B79
S3150800364C0E221A70FB891F4A53601E4ABB68936088
S3150800365C1C4A7B68D360FB7F1846FFF76BFEFB7F23
S3150800366C2CE0FFF7E3FD7861BB6993F82430002B57
S3150800367C16D00723FB777869FFF7E8FD114B0E2266
S3150800368C1A70FB890F4A53600E4ABB6893600D4A41
S3150800369C7B68D360FB7F1846FFF74CFEFB7F0DE07B
S315080036ACBB69012283F82420BB69BA681A62BB6914
S315080036BC7A689A617869FFF7C9FDFB7F1846203747
S315080036CCBD4680BDE827002080B584B000AF034610
S315080036DCB9607A60FB81FB891846B9687A68002359
S315080036ECFFF788FE034618461037BD4680BD00BF57
S315080036FC80B586B000AF0346FB800023FB75FFF749
S3150800370CB3FD0346002B0DD00D23FB75244B0F225E
S3150800371C1A70FB88224A5360FB7D1846FFF70AFE8F
S3150800372CFB7D39E0FB88012B0DD90323FB751C4B5C
S3150800373C0F221A70FB881A4A5360FB7D1846FFF74E
S3150800374CF9FDFB7D28E0FB881846FFF7DFFD38619D
S3150800375CFFF76CFDF8603B6993F8243083F001039E
S3150800376CDBB2002B10D00523FB75F868FFF76EFD4E
S3150800377C0B4B0F221A70FB88094A5360FB7D1846BF
S3150800378CFFF7D8FDFB7D07E03B69002283F8242070
S3150800379CF868FFF75BFDFB7D18461837BD4680BDFC
S315080037ACE827002080B584B000AF78607B681B6B77
S315080037BCFB604DE0FB6893F82430002B45D07B6802
S315080037CC5A69FB681B6A9A423FD1FB6893F8283002
S315080037DC032B32D801A252F823F000BFF9370008A0
S315080037EC0B3800085538000835380008FB685B8D1F
S315080037FC1846FFF70DF9F868FFF7D6FD25E0FB68C4
S3150800380C598DFB68D3E90C230846FDF705FE0346DC
S3150800381CFB72FB7A002B03D0FB7A1846FFF78AFD5E
S3150800382CF868FFF7C1FD10E0FB689B6B184600F0C3
S3150800383C0FF9F868FFF7B8FD07E0084808494FF490
S3150800384C0072FCF7EDFE00E000BFFB685B6CFB60EA
S3150800385CFB68002BAED11037BD4680BD1892000808
S3150800386C1C92000880B584B000AF0023FB8130E0C1
S3150800387CFB891846FFF74AFDB860BB681B6C002B22
S3150800388C24D0BB681B6C7B60154B9A6B7B68DB681A
S3150800389C1340002B1AD07B681B79002B0BD17B6845
S315080038AC1A687B689B68F989084611461A460123EB
S315080038BCFFF75EFE0AE07B681A687B689B68F989E5
S315080038CC084611461A460123FFF794FDFB89013376
S315080038DCFB81FB89012BCBD91037BD4680BD00BFB8
S315080038ECFC27002080B483B000AFEFF310833B6055
S315080038FC3B687B6072B67B6818460C37BD465DF82C
S3150800390C047B704780B485B000AF78607B68FB6039
S3150800391CFB6883F310881437BD465DF8047B704743
S3150800392C80B400AF084B1A78084B1B781343DBB2EC
S3150800393C5BB2002B14BF01230023DBB21846BD462D
S3150800394C5DF8047B704700BFF9270020F827002094
S3150800395C80B483B000AF78607B681B6A18460C3756
S3150800396CBD465DF8047B704780B483B000AF7860C1
S3150800397C7A681346DB009B1ADB00044A1344184684
S3150800398C0C37BD465DF8047B704700BF1800002055
S3150800399C80B487B000AFF860B9607A60BA68FB6823
S315080039ACD31A3B617A683B699A4204D8FA687B68F1
S315080039BC13447B6106E0FA68BB68D21A7B68134429
S315080039CC013B7B617B6918461C37BD465DF8047B59
S315080039DC704700BF80B483B000AF0346FB80FA88FB
S315080039EC1346DB001344DB00034A134418460C3712
S315080039FCBD465DF8047B70475000002080B582B048
S31508003A0C00AF0346FB71094B5B6A002B0AD0074BC8
S31508003A1C5B6ADB68002B05D0044B5B6ADB68FA79BA
S31508003A2C104698470837BD4680BD00BFFC270020C6
S31508003A3C80B483B000AF78607B68002B0CBF012381
S31508003A4C0023DBB218460C37BD465DF8047B70477D
S31508003A5C90B587B000AF78600023FB75FFF760FF61
S31508003A6C0346002B0DD00D23FB752A4B27221A7003
S31508003A7C284A7B685360FB7D1846FFF7BFFFFB7D22
S31508003A8C44E07868FFF7D4FF0346002B0DD10323D7
S31508003A9CFB75204B27221A701E4A7B685360FB7DE8
S31508003AAC1846FFF7ABFFFB7D30E07868FFF75CFF45
S31508003ABC38613B691B7C83F00103DBB2002B0DD00C
S31508003ACC0323FB75134B27221A70124A7B68536023
S31508003ADCFB7D1846FFF792FFFB7D17E0FFF702FF09
S31508003AECF8603B695C693869FFF732FF0346204684
S31508003AFC19460122FFF74CFF02463B695A613869A1
S31508003B0CFFF750FEF868FFF7FDFEFB7D18461C37DD
S31508003B1CBD4690BDE827002090B583B000AF0F4B8B
S31508003B2C1B681846FFF720FF78600D4B9B6901331D
S31508003B3C0B4A93617B685C697868FFF709FF034653
S31508003B4C204619460122FFF723FF02467B685A6175
S31508003B5C7868FFF727FE0C37BD4690BD480700204E
S31508003B6CFC27002080B584B000AF0020FFF732FF99
S31508003B7CB860BB685B687B607B6800221A630023AD
S31508003B8CFB8111E0FB891846FFF724FFB860BB6878
S31508003B9C5B687B607B681A6BBB685A647B68BA681F
S31508003BAC1A63FB890133FB81FB89012BEAD9103790
S31508003BBCBD4680BD80B483B000AF03463960FB7147
S31508003BCC97F90730002B0BDA0D49FB7903F00F0335
S31508003BDC043B3A68D2B21201D2B20B441A7609E007
S31508003BEC084997F907303A68D2B21201D2B20B4497
S31508003BFC83F800230C37BD465DF8047B704700BF7D
S31508003C0C00ED00E000E100E080B582B000AF78601E
S31508003C1C7B68013BB3F1807F01D301230FE00A4A8D
S31508003C2C7B68013B53604FF0FF300F21FFF7C2FF53
S31508003C3C054B00229A60044B07221A60002318468B
S31508003C4C0837BD4680BD00BF10E000E080B500AF68
S31508003C5C014800F00BFA80BD8892000880B582B046
S31508003C6C00AF78607868FFF7CFFF0837BD4680BD90
S31508003C7C80B400AF034B1B681846BD465DF8047B41
S31508003C8C704700BFFC27002080B400AF084B1A7899
S31508003C9C084B1B781343DBB25BB2002B14BF012312
S31508003CAC0023DBB21846BD465DF8047B704700BF9F
S31508003CBCF9270020F827002080B400AF044B002217
S31508003CCC1A70044B00221A70BD465DF8047B7047C7
S31508003CDCF9270020F827002080B483B000AF78605D
S31508003CEC07497A6813465B0013449B000B44083358
S31508003CFC5B7818460C37BD465DF8047B704700BFE9
S31508003D0C2C87000880B485B000AF78600023FB735D
S31508003D1C7B685B68BB60BB681B78422B0CBF0123B6
S31508003D2C0023DBB2FB73FB7B18461437BD465DF8E4
S31508003D3C047B704780B485B000AF78600023FB73B2
S31508003D4C7B685A687B689B681344BB60BB68013BFD
S31508003D5C1B78422B0CBF01230023DBB2FB73FB7BC6
S31508003D6C18461437BD465DF8047B704780B582B09B
S31508003D7C00AF78607868FFF7C5FF0346002B05D0BF
S31508003D8C7868FFF7D7FF0346002B02D10E20FDF704
S31508003D9CBDFD0837BD4680BD80B582B000AF034671
S31508003DACFB71094B5B6A002B0AD0074B5B6ADB6815
S31508003DBC002B05D0044B5B6ADB68FA7910469847EA
S31508003DCC0837BD4680BD00BFFC27002080B582B0F1
S31508003DDC00AF78607B681B881BB2184601F0BAFDE9
S31508003DEC0837BD4680BD00BF80B582B000AF78608D
S31508003DFC7B681B881BB2184601F0ACFD0837BD461C
S31508003E0C80BD00BF80B582B000AF78607B681B8828
S31508003E1C1BB2184601F0DEFD0837BD4680BD00BF53
S31508003E2C80B582B000AF78607B681B881BB21846D9
S31508003E3C01F0D0FD0837BD4680BD00BF80B584B003
S31508003E4C00AF78607B68DB68FB6006E0F868796829
S31508003E5C00F05AF8FB689B6AFB60FB68002BF5D1EF
S31508003E6C1037BD4680BD00BF80B483B000AF786004
S31508003E7C7B68DB68002B14BF01230023DBB21846D2
S31508003E8C0C37BD465DF8047B704700BF80B485B01F
S31508003E9C00AF78607B68DB881BB21033054AD35CAD
S31508003EACFB81FB891BB218461437BD465DF8047BAB
S31508003EBC704700BF4C07002080B485B000AF03469E
S31508003ECC3960FB800023FB60FB880D4AD35C7B8141
S31508003EDC3B68FA881A807B89FF2B0AD07B89092BC9
S31508003EEC07D87A8913469B0013449B00054A13444A
S31508003EFCFB60FB6818461437BD465DF8047B7047B3
S31508003F0C4C070020E02A002080B582B000AF78600C
S31508003F1C39607B689B8B1A463B681B881BB29A4296
S31508003F2C04D01C481C49B222FCF77AFB7B684FF676
S31508003F3CFF729A837B689B7F022B27D03B68DB68D2
S31508003F4C002B04D115481449B722FCF769FB3B68CA
S31508003F5C1B695B681A687B689A4204D010480E493C
S31508003F6CBC22FCF75DFB7B689B6A002B05D07B6843
S31508003F7C9B6A7A68D26ADA6203E07B68DA6A3B681B
S31508003F8C1A617B68DB6A7A68926A1A600837BD46DA
S31508003F9C80BD00BFA0920008BC92000820930008C0
S31508003FAC589300082DE9F04184B002AF78600B46AF
S31508003FBC7B80B7F90220224913469B0013449B00C9
S31508003FCC0B4408337A681A60B7F902201C49134661
S31508003FDC9B0013449B000B447A881A80B7F902207D
S31508003FEC174913469B0013449B000B444FF6FF726C
S31508003FFC5A807B68DB881BB210337A88D1B2114A97
S3150800400CD1547B68DE687B68B3F806807B681B89AD
S3150800401C9DB27B685C797B681B691846FFF75CFE6A
S3150800402C03461A460FFA88F30092304619462A4672
S3150800403C234600F0E5FA0837BD46BDE8F08100BF17
S3150800404CE02A00204C07002080B500AF00F0B6FA35
S3150800405C044B00221A800448FF21542203F0F8FF6F
S3150800406C80BD00BFD02A00204C07002080B584B044
S3150800407C00AF78607B68002B04D11F481F49F922D2
S3150800408CFCF7CEFA7B68DB881BB21033532B04D9AA
S3150800409C1B481A49FA22FCF7C3FA7868FFF7F6FEAA
S315080040AC0346BB81B7F90C30FF2B02D0BB89FB81C9
S315080040BC1BE0144B1B88FB81124B1B889BB29BB2D3
S315080040CC01339BB29AB20F4B1A80B7F90E30092BF3
S315080040DC05DD0D4809494FF48772FCF7A1FAB7F9C3
S315080040EC0E3078681946FFF75DFFFB891BB2184638
S315080040FC1037BD4680BD00BFA4930008BC920008CB
S3150800410CBC930008D02A0020F493000880B483B02E
S3150800411C00AF78607B68054A5A607B684FF400628A
S3150800412C9A600C37BD465DF8047B7047B02B0020AF
S3150800413C80B485B000AF0346FB800023FB600B4BB5
S3150800414C1B88B7F906201BB29A4208DAB7F906207B
S3150800415C13469B0013449B00054A1344FB60FB68FB
S3150800416C18461437BD465DF8047B7047D02A0020E4
S3150800417CE02A002080B586B000AF78600B467B80BD
S3150800418C00237B6100233B610023FB6000237B81BA
S3150800419C7A8807F10A0310461946FFF78DFE7861EF
S315080041AC7B69002B05D16C486C4940F29F12FCF7D1
S315080041BC37FA7B699B681B89002B20D1684B9B6857
S315080041CCFB60674A7B699360654B5B690133644A9C
S315080041DC536162B67B699B68DB68984772B6604B1D
S315080041EC5B69013B5E4A53615D4AFB6893607B8958
S315080041FC9BB21BB2184600F0F9F97B68A8E07B69FC
S3150800420C9B681B891BB2012B05D05648534940F2B3
S3150800421CAF12FCF705FA524B5A69534B1B681344F9
S3150800422C002B2ED14E4B1B689B8903F00803002BE1
S3150800423C05D14E48494940F2B912FCF7F1F9484BF9
S3150800424C1B689B6A012B05D04948444940F2B912B0
S3150800425CFCF7E6F9424B1B6800229A62404B5B6AF4
S3150800426C5B69002B03D03E4B5B6A5B699847FFF78B
S3150800427CFFFC38613B6901229A813869FFF776FDA4
S3150800428C0DE0394B1B68012B09D0354B9B68FB603D
S3150800429CFB681A887B695A80F868FFF7B3FD304BC0
S315080042AC5B6901332E4A53617B6901225A602C4A99
S315080042BC7B6993607869FFF789FD62B67B699B68B1
S315080042CCDB68984772B67869FFF7AAFD7B695B8845
S315080042DC1BB2B3F1FF3F13D07B695B881AB2134646
S315080042EC9B0013449B00234A13441D4A93601C4BA2
S315080042FC9B681846FFF778FD7B694FF6FF725A8064
S3150800430CFFF7C2FC0346002B04D0FFF7D5FC0D20A3
S3150800431CFFF742FD7869FFF7A7FD0346012B05D188
S3150800432C7869FFF78BFD0620FFF736FD7B690222BD
S3150800433C5A600B4A7B6993607B899BB21BB2184601
S3150800434C00F054F9064B5B69013B054A536100239F
S3150800435C18461837BD4680BDA4930008BC920008C1
S3150800436CFC270020049400085C28002020940008F0
S3150800437C54940008E02A002090B585B000AF786008
S3150800438C0B467B80B7F902301846FFF7D1FEF8606A
S3150800439CFB68002B0DD07C68B7F902301846FFF77E
S315080043ACC7FE03469B681B6820461946102204F074
S315080043BC51F81437BD4690BD80B400AF034B1B882B
S315080043CC1BB21846BD465DF8047B7047D02A002000
S315080043DC80B483B000AF0023FB802BE0FB88194A1E
S315080043EC4C2101FB03F31344083300221A70F98895
S315080043FCFA88154813465B0013449B00034408339C
S3150800440C1878104A4C2303FB01F3134402461A701E
S3150800441CF988FA880C4813465B0013449B0003443E
S3150800442C1A6808484C2303FB01F303445A60FB88BB
S3150800443C0133FB80FB88002BD0D00C37BD465DF8CA
S3150800444C047B7047B03300202C87000880B584B0F5
S3150800445C00AF786039600423FB73114B5B6A002B41
S3150800446C15D00F4B5B6A1B68002B10D07868FCF7CD
S3150800447C7FFE0346BB73BB7BFF2B08D0084B5B6ADE
S3150800448C1B68BA7B104698470346FB73FFE7FB7B12
S3150800449C002B02D01F20FDF739FA1037BD4680BD18
S315080044ACFC27002080B485B000AF78607B6803F0E9
S315080044BC0703FB600C4BDB68BB60BA684FF6FF035F
S315080044CC1340BB60FB681A02BB68134343F0BF6317
S315080044DC43F40033BB60044ABB68D3601437BD464B
S315080044EC5DF8047B704700BF00ED00E080B483B034
S315080044FC00AF03463960FB7197F90730002B0BDACE
S3150800450C0D49FB7903F00F03043B3A68D2B212014A
S3150800451CD2B20B441A7609E0084997F907303A687B
S3150800452CD2B21201D2B20B4483F800230C37BD4623
S3150800453C5DF8047B704700BF00ED00E000E100E089
S3150800454C80B582B000AF0346FB71FB791F2B04D9EB
S3150800455C074808492922FCF763F8FB795B08DBB2A4
S3150800456CC3F10F03DBB218460837BD4680BD00BF42
S3150800457C7C9400088494000880B582B000AF03468A
S3150800458C3960FB7197F9073018463968FFF7AEFFA3
S3150800459C97F90730002B0CDB074AFB795B09DBB272
S315080045AC1846FB7903F01F03012101FA03F342F8BD
S315080045BC20300837BD4680BD00E100E080B500AF6D
S315080045CC0020FFF76FFF1420FFF7BAFF03466FF0C2
S315080045DC01001946FFF78AFF034A034B5B6863F031
S315080045ECFF03536080BD00BF002004E080B483B095
S315080045FC00AF0346FB800C37BD465DF8047B70475D
S3150800460C90B585B000AFF860084611461A460346C1
S3150800461C7B810B463B811346FB71B7F90A30532B4A
S3150800462C28DC3B89002B0FD1FB79152B04D81548B0
S3150800463C15497C22FBF7F4FFB7F90A3010331349F6
S3150800464CFA6841F8232007E0FB79132B04D91048A4
S3150800465C0D497F22FBF7E4FF7B89DCB2FB79184610
S3150800466CFFF76EFF03461A4663B218461146FFF764
S3150800467C83FF04E0074804498622FBF7D1FF143769
S3150800468CBD4690BDF494000884940008FC330020C1
S3150800469C089500081895000880B400AF72B6064B4A
S315080046AC1B78DBB2DBB20133DBB2DAB2024B1A701F
S315080046BCBD465DF8047B7047F827002080B400AF30
S315080046CC0A4B1B78002B0DD0084B1B78DBB2DBB2E0
S315080046DC013BDBB2DAB2054B1A70044B1B78002B84
S315080046EC00D162B6BD465DF8047B7047F8270020FA
S315080046FC80B483B000AF00237B6007E0094A7B686F
S3150800470C002142F823107B6801337B607B68042BFD
S3150800471CF4D9054B01221A700C37BD465DF8047B9B
S3150800472C704700BF503500204C35002090B585B039
S3150800473C00AF0446084611461A462346FB80034634
S3150800474C7B710B463B711346FB700023FB72124BB5
S3150800475C1B78022B1BD1FFF79FFF0023FB6011E090
S3150800476C0E4AFB6852F82330002B08D00B4AFB681C
S3150800477C52F82340F88879793A79FB78A047FB6890
S3150800478C0133FB60FB68042BEAD9FFF797FFFB7A2A
S3150800479C18461437BD4690BD4C35002050350020C0
S315080047AC80B400AF034B02221A70BD465DF8047B39
S315080047BC704700BF4C35002080B582B000AF034669
S315080047CCFB71FB79184602F09FFD0837BD4680BD84
S315080047DC80B584B000AF786039600023FB6009E0CF
S315080047EC7B685A1C7A601B781846FFF7E5FFFB684E
S315080047FC0133FB60FA683B689A42F1D33B6818466A
S3150800480C1037BD4680BD00BF80B485B000AFF860D8
S3150800481CB9607A60002318461437BD465DF8047BE8
S3150800482C704700BF80B485B000AF786039607B688C
S3150800483C002B03D13B68013BFB6002E07B68013B24
S3150800484CFB60FB6818461437BD465DF8047B704759
S3150800485C80B483B000AF786039607B6801333A68FE
S3150800486C93FBF2F2396801FB02F29B1A18460C37D5
S3150800487CBD465DF8047B704780B586B000AFF8601E
S3150800488CB9607A60F868B9687A6803F049FE7861A5
S3150800489C7B6918461837BD4680BD00BF80B584B005
S315080048AC00AF786039600023BB607B68012B16D19A
S315080048BC1B4801F0CDFD1B4B5B68FB600BE0FB68EE
S315080048CCDA68FB681B69184811461A4601F0C0FDE0
S315080048DCFB689B69FB60FB68002BF0D11BE03B680F
S315080048EC5B68BB600F4B5B68FB6011E0FB68DB68C1
S315080048FCB868194603F0FAFB0346002B05D1FB688A
S3150800490C5B690A48194601F0A3FDFB689B69FB60C5
S3150800491CFB68002BEAD1002318461037BD4680BD2C
S3150800492C0C960008C0350020209600082C96000826
S3150800493C80B586B000AF786039607B68012B3FD1B3
S3150800494C224801F085FD224B9B680A2B1FD1204B70
S3150800495C1B687B6100233B6115E07A6913469B0053
S3150800496C1344DB0008331A4A1344043319483969CB
S3150800497C1A4601F06DFD78690A21FFF769FF78611F
S3150800498C3B6901333B613B69092BE6DD18E00023E3
S3150800499CFB6010E0FA6813469B001344DB000833EF
S315080049AC0B4A134404330B48F9681A4601F050FDB8
S315080049BCFB680133FB60064B9A68FB689A42E9DC94
S315080049CC002318461837BD4680BD00BF3096000830
S315080049DCCC3500203C96000880B500AF0D4B012263
S315080049EC1A600C4B00225A600A4B0B4A9A600B4809
S315080049FC00F01EF80A4800F01BF80A4B1B685B68A7
S31508004A0C0948194601F0F8FC084800F0BFF80023DD
S31508004A1C184680BDC0350020C4350020440100204E
S31508004A2C64010020CC020020449600086496000815
S31508004A3C80B582B000AF78600C4B1B68012B01D097
S31508004A4CFFF7CAFF7B6800229A61084B9A687B6855
S31508004A5CDA61064B9B687A681A607B681833034AD6
S31508004A6C9360002318460837BD4680BDC035002024
S31508004A7C80B594B000AF786039603E4B3B64002338
S31508004A8CBB6400237B643B6801221A607B68002B9D
S31508004A9C01D102236AE0786803F064FC034601330B
S31508004AACFB63FB6B282B01D901235FE0324879683D
S31508004ABCFA6B03F057FA07F130032F48396C1A468C
S31508004ACCFFF7DAFEB863BB6B002B01D102234DE06E
S31508004ADC2A4B5B68FB640EE0FB6CDB68B86B19460B
S31508004AEC03F004FB0346002B02D1FB6CBB6405E008
S31508004AFCFB6C9B69FB64FB6C002BEDD1BB6C002B30
S31508004B0C2FD0BB6BBB607B6C01337B6412E07B6C78
S31508004B1C092B05DD1A481B4940F22912FBF780FDC3
S31508004B2C7B6C5A1C7A649B0007F1500213447A6B0F
S31508004B3C43F8482C07F130030020396C1A46FFF766
S31508004B4C9BFE78637B6B002BE1D1BB6C1B6807F172
S31508004B5C0802786C1146984702463B681A6000238F
S31508004B6C04E00948B96B01F073FC03231846503767
S31508004B7CBD4680BD6896000864350020C035002007
S31508004B8C6C96000874960008C896000880B582B022
S31508004B9C00AF78600348796801F05AFC0837BD46BF
S31508004BAC80BD00BFE496000880B584B000AFA44B66
S31508004BBC1B681B68184601F037FC0346FB70A14BB3
S31508004BCC1B68272B02DD9F4B00221A609E4B1B6825
S31508004BDC002B00F0B7809C4B1B68012B0AD1FB7885
S31508004BEC5B2B03D1984B02221A60A9E0964B002244
S31508004BFC1A60A5E0944B1B68022B40F0A180FB7849
S31508004C0C412B4BD18F4B1B68002B05D08D4B1B684A
S31508004C1C8E48194601F01CFC8D4B9B68002B00F046
S31508004C2C8C808B4B5B6818460A21FFF7FBFD024606
S31508004C3C874B5A60864B5A6813469B001344DB0015
S31508004C4C0833834A13441A1D7D4B1B685B68104650
S31508004C5C194601F0D1FB7E4B5A6813469B00134448
S31508004C6CDB0008337A4A13440433184603F07AFBFC
S31508004C7C03461A46734B1A60754B5A6813469B00C3
S31508004C8C1344DB000833724A13441A1D6D4B1B6818
S31508004C9C704811461A4603F065F94EE0FB78422B2C
S31508004CAC4BD16B4B5A686A4B1B689A4245D0654B7D
S31508004CBC1B68002B05D0634B1B686448194601F02A
S31508004CCCC7FB634B5B6818460A21FFF7C1FD024612
S31508004CDC5F4B5A605E4B5A6813469B001344DB00C5
S31508004CEC08335B4A13441A1D554B1B685B68104600
S31508004CFC194601F081FB564B5A6813469B00134420
S31508004D0CDB000833524A13440433184603F02AFBD3
S31508004D1C03461A464B4B1A604D4B5A6813469B0072
S31508004D2C1344DB0008334A4A13441A1D454B1B68C7
S31508004D3C484811461A4603F015F9434B00221A60E7
S31508004D4C00230EE1FB781B2B03D13F4B01221A6083
S31508004D5C06E1FB78082B11D13A4B1B68002B00F0A7
S31508004D6CFF80384B1B68013B364A1360344B1B6873
S31508004D7C5B683948194601F03FFBF1E0FB780A2BD2
S31508004D8C02D0FB780D2B6FD12D4B1B685B68334813
S31508004D9C194601F031FB2B4B1B685A1C29490A6032
S31508004DAC2C4A0A21D154274B1B682A4A0021D15474
S31508004DBC244B1B68012B3CDD254B1A6813469B00BC
S31508004DCC1344DB000833224A13441A1D1D4B1B6877
S31508004DDC104620491A4603F0C5F81D4B1A68194B9C
S31508004DEC1B68591E1A4813469B001344DB000344E0
S31508004DFC0B44083300221A71154B1B6818460A21F6
S31508004E0CFFF726FD0246124B1A60114B9B680133BD
S31508004E1C0F4A93600E4B9B680A2BA8BF0A230C4AB1
S31508004E2C93600B4B1B680A4A53600A480C49FFF7F8
S31508004E3C1FFE044B00221A600A48FFF7A7FE8FE0F4
S31508004E4CCC0200208C35002090350020F496000802
S31508004E5CCC350020943500200097000808970008E8
S31508004E6CBC35002064960008FB78092B65D13F4BAE
S31508004E7C1B68002B60DD0023BB600023FB8000232E
S31508004E8CBB803B4B5B68FB6028E0FB68DA68374BFA
S31508004E9C1B68104637491A4603F092FA0346002B4C
S31508004EAC19D1BB68002B02D1FB68BB6010E0BB882C
S31508004EBC002B07D1BB68DB682F48194601F0C8FAE6
S31508004ECC0123BB80FB68DB682C48194601F0C0FA45
S31508004EDCFB880133FB80FB689B69FB60FB68002B36
S31508004EECD3D1FB88002B27D0FB88012B1BD1BB68A1
S31508004EFCDB681E4A12681A44214B1B685B6810460D
S31508004F0C194601F079FABB68DB68184603F02AFAE9
S31508004F1C03461A46154B1A60BB68DB6815481946D2
S31508004F2C03F0C2F908E0114B1B68124A0021D15450
S31508004F3C1048FFF72BFE13E012E0FB78002B0FD07E
S31508004F4C0A4B1B685A1C09490A600A49FA78CA545A
S31508004F5CFA780B4B1B685B681046194601F034FA55
S31508004F6C002318461037BD4680BD00BF8C3500207F
S31508004F7CC0350020943500200C97000814970008BB
S31508004F8CCC02002080B500AFFFF70EFEFCE700BF91
S31508004F9C80B400AF72B6064B1B78DBB2DBB20133BA
S31508004FACDBB2DAB2024B1A70BD465DF8047B704769
S31508004FBCF827002080B400AF0A4B1B78002B0DD0C5
S31508004FCC084B1B78DBB2DBB2013BDBB2DAB2054B22
S31508004FDC1A70044B1B78002B00D162B6BD465DF8DF
S31508004FEC047B7047F8270020F0B593B002AF7860C1
S31508004FFC39600023FB637B68012B40F0E780764B16
S3150800500C1B685B687548194601F0F6F9724B1B6804
S3150800501C5B687348194601F0EFF96F4B1B685B68C0
S3150800502C7048194601F0E8F90023BB6344E0BB6BF2
S3150800503C9BB207F10802104619460222FDF7D8FD65
S3150800504C6949BA6B13465B0113449B000B441B78E6
S3150800505C1A46FB6B1344FB63BA6B13465B0113448A
S3150800506C9B001033604A13441D1D5F49BA6B1346E7
S3150800507C5B0113449B000B441B781E465A49BA6BBA
S3150800508C13465B0113449B000B445C685649BA6B88
S3150800509C13465B0113449B000B4408331B6897F8B3
S315080050AC302000930192514829463246234601F096
S315080050BCCFF9BB6B0133BB63BB6B032BB7D9464B21
S315080050CC1B685B684A48194601F096F9424B1B68FF
S315080050DC5B684848194601F08FF93F4B1B685B68BB
S315080050EC4548194601F088F93B4B1B685B683D48F7
S315080050FC194601F081F900237B635CE03F497A6B22
S3150800510C13465B0113449B000B4410331B79002B8D
S3150800511C18D17B6B9BB207F108021BB210461946D5
S3150800512CFFF72AF97A6B13465B0113449B0010337D
S3150800513C324A13441A1D07F1080310461946202251
S3150800514C02F010FF2D497A6B13465B0113449B0042
S3150800515C0B441B781A46FB6B1344FB637A6B13469A
S3150800516C5B0113449B001033244A13441D1D234929
S3150800517C7A6B13465B0113449B000B441B781E4643
S3150800518C1E497A6B13465B0113449B000B445C68FF
S3150800519C1A497A6B13465B0113449B000B4408337C
S315080051AC1B680093164829463246234601F050F9E7
S315080051BC7B6B01337B63FFF7FFF803461A467B6B61
S315080051CC9A429BDC0F48F96B01F042F9002318460A
S315080051DC4437BD46F0BD00BFCC0200206C9A0008CF
S315080051EC9C9A0008CC9A000808450020009B0008E9
S315080051FC1C9B0008209B00084C9B0008A03700202D
S3150800520C789B0008909B00082DE9F04F8DB008AFED
S3150800521C786039607B68012B40F09A804F4B1B688D
S3150800522C5B684F48194601F0E7F84C4B1B685B68FE
S3150800523C4C48194601F0E0F8484B1B685B684A482D
S3150800524C194601F0D9F80023FB607AE0FA68134690
S3150800525C5B0113449B001033444A134403F1040BBB
S3150800526C4249FA6813465B0113449B000B445033BE
S3150800527CD3F804A03D49FA6813465B0113449B0016
S3150800528C0B445833D3F804903849FA6813465B0133
S3150800529C13449B000B445833D3F808C03349FA68B7
S315080052AC13465B0113449B000B446033D3F804E0AC
S315080052BC2E49FA6813465B0113449B000B4468336A
S315080052CC5E682A49FA6813465B0113449B000B4433
S315080052DC68339D682549FA6813465B0113449B009D
S315080052EC0B4470335C682149FA6813465B01134416
S315080052FC9B000B44783358681C49FA6813465B01C3
S3150800530C13449B000B4478339968DFF86080FA687D
S3150800531C13465B0113449B0043441B78CDF800C02D
S3150800532CCDF804E00296039504940590069107932C
S3150800533C0F48594652464B4601F08AF8FB6801332A
S3150800534CFB600C4B1B781A46FB689A423FF77EAFFC
S3150800535C002318461437BD46BDE8F08FCC02002052
S3150800536CAC9B0008049C00085C9C0008C83C002008
S3150800537CB49C00086837002080B58EB000AF324B5D
S3150800538C1B78002B5CD13148FFF752FB3048FFF7EE
S3150800539C4FFB02F0D5FA2C4B01221A7000237B63C3
S315080053AC27E07B6B9BB23A1D104619464FF0FF322D
S315080053BCFDF71EFC7A6B13465B0113449B001033F6
S315080053CC244A13441A1D3B1D10461946102202F096
S315080053DCC9FD20497A6B13465B0113449B000B44A9
S315080053EC4033FF221A701C4B00221A707B6B013358
S315080053FC7B637B6B032BD4D900233B6319E03B6B94
S3150800540C9BB23A1D1BB210461946FEF7B5FF3A6B0E
S3150800541C13465B0113449B001033104A13441A1DA0
S3150800542C3B1D10461946102202F09CFD3B6B0133BE
S3150800543C3B63FEF7C1FF03461A463B6B9A42DEDC1A
S3150800544C3837BD4680BD00BF70370020A401002048
S3150800545C840100200845002068370020A03700206A
S3150800546C90B591B000AF6D4B1B68002B38D102F08C
S3150800547C8FFA0246694B1A600023FB6327E0FB6B25
S3150800548C9BB23A461BB210461946FEF775FF64499D
S3150800549CFA6B13465B0113449B000B4410331B79C0
S315080054AC002B11D13B78002B0ED0FA6B13465B01FF
S315080054BC13449B0010335A4A13441A1D3B46104694
S315080054CC1946102202F04EFDFB6B0133FB63FEF707
S315080054DC73FF03461A46FB6B9A42D0DC00BF2FE2D9
S315080054ECFFF756FD02F054FA02464C4B1B68D21ACB
S315080054FC4C4B1B684C49A1FB03139B0CB2FBF3F3F7
S3150800550CFB624A4B1A6AFB6A1344484A1362474AB7
S3150800551CFB6A536202F03CFA0246404B1A60434B54
S3150800552C00229A61414B0022DA61404B00229A60B4
S3150800553C3E4B0022DA603E4B5B6B3C4A53610023C0
S3150800554CBB6360E03A49BA6B13465B0113449B0094
S3150800555C0B44103319683648BA6B13465B0113446F
S3150800556C9B00034430335B6819443148BA6B1346C5
S3150800557C5B0113449B000344103319602C49BA6B26
S3150800558C13465B0113449B000B4430335B6864225F
S3150800559C02FB03F2FB6AB2FBF3F3D8B22449BA6BEB
S315080055AC13465B0113449B000B4402461A70BB6BF3
S315080055BC002B1BD01D4B99681D48BA6B13465B0113
S315080055CC13449B00034410331B680B44174A93601F
S315080055DC164B99691648BA6B13465B0113449B0024
S315080055EC034430335B680B44104A93611049BA6B19
S315080055FC13465B0113449B000B44303300225A605C
S3150800560CBB6B0133BB63BB6B032B9BD9084B1B6969
S3150800561C064A536000237B636AE000BF7437002098
S3150800562CA03700208847002083DE1B4378370020EC
S3150800563C0845002053497A6B13465B0113449B00BB
S3150800564C0B44103319684F487A6B13465B011344A5
S3150800565C9B00034430335B6819444A487A6B1346FB
S3150800566C5B0113449B0003441033196045497A6B5C
S3150800567C13465B0113449B000B4430335B6864226E
S3150800568C02FB03F2FB6AB2FBF3F3D8B23D497A6B21
S3150800569C13465B0113449B000B4402461A703A4BA3
S315080056ACD96838487A6B13465B0113449B0003444C
S315080056BC10331B680B44344AD360334BD9693148D1
S315080056CC7A6B13465B0113449B00034430335B68C7
S315080056DC0B442D4AD3612B497A6B13465B01134451
S315080056EC9B000B44303300225A607B6B01337B637F
S315080056FCFEF762FE03461A467B6B9A429ADC224BED
S3150800570C9B68642202FB03F21F4B1B6AB2FBF3F382
S3150800571CDAB21D4B5A701C4BDB68642202FB03F28F
S3150800572C194B1B6AB2FBF3F3DAB2174B1A70164B0A
S3150800573C5A78154B1B781344DAB2134B9A70124BE2
S3150800574C9B69642202FB03F20F4B5B6AB2FBF3F311
S3150800575CDAB20D4B5A740C4BDB69642202FB03F26A
S3150800576C094B5B6AB2FBF3F3DAB2074B1A74064BB6
S3150800577C5A7C054B1B7C1344DAB2034B9A740023F0
S3150800578C3B63D4E0A0370020783700206E493A6B8B
S3150800579C13465B0113449B000B44603399686A48B3
S315080057AC3A6B13465B0113449B00034450331B6846
S315080057BC013BB1FBF3F164483A6B13465B011344A6
S315080057CC9B000344603359605F493A6B13465B018F
S315080057DC13449B000B44503399685B483A6B134649
S315080057EC5B0113449B00034450331868564C3A6BC0
S315080057FC13465B0113449B00234438331B785BB276
S3150800580CC31AB1FBF3F150483A6B13465B011344C8
S3150800581C9B000344503359604B493A6B13465B0162
S3150800582C13449B000B447033996847483A6B1346EC
S3150800583C5B0113449B00034450331868424C3A6B83
S3150800584C13465B0113449B00234438331B785BB225
S3150800585CC31AB1FBF3F13C483A6B13465B0113448C
S3150800586C9B0003447033596037493A6B13465B0106
S3150800587C13449B000B4450339B68642202FB03F2CF
S3150800588C324B5B6AB2FBF3F3D8B22F493A6B134629
S3150800589C5B0113449B000B4402461A702A493A6B67
S315080058AC13465B0113449B000B44503300229A6049
S315080058BC25493A6B13465B0113449B000B44603332
S315080058CC00229A6020493A6B13465B0113449B00ED
S315080058DC0B44703300229A601B493A6B13465B01E2
S315080058EC13449B000B44503300221A6016493A6B3A
S315080058FC13465B0113449B000B44483300221A6081
S3150800590C11493A6B13465B0113449B000B44303325
S3150800591C00225A600C493A6B13465B0113449B00F0
S3150800592C0B44483300225A603B6B01333B63084BEC
S3150800593C1B781A463B6B9A423FF728AFFFF73AFBA0
S3150800594C4437BD4690BD00BFC83C002078370020C0
S3150800595C6837002090B583B000AF0346FB80B7F9D3
S3150800596C06201B4913465B0113449B000B445B68DA
S3150800597C591C174813465B0113449B000344596092
S3150800598CB7F90620124913465B0113449B000B44D6
S3150800599C38331B78DBB2DBB20133DBB2D8B20C4935
S315080059AC13465B0113449B000B44383302461A70AA
S315080059BCB7F9064001F0ECFF0146054A23465B01A0
S315080059CC23449B001344383359600C37BD4690BDAD
S315080059DCA037002080B584B000AF0346FB8001F0E9
S315080059ECD7FFB7F906202D4913465B0113449B00D4
S315080059FC0B4438335B68C21A294B1B682949A1FB2F
S31508005A0C03139B0CB2FBF3F3FB60B7F9062023498F
S31508005A1C13465B0113449B000B4408331A68FB6856
S31508005A2C9A420AD2B7F906201C4913465B0113445D
S31508005A3C9B000B440833FA681A60B7F90620B7F9C5
S31508005A4C061016480B465B010B449B000344303387
S31508005A5C5968FB681944114813465B0113449B00AB
S31508005A6C034430335960B7F906200C4913465B01D9
S31508005A7C13449B000B4438331B78DBB2DBB2013B77
S31508005A8CDBB2D8B2054913465B0113449B000B44A1
S31508005A9C383302461A701037BD4680BDA037002031
S31508005AAC8847002083DE1B4390B583B000AFBB1D2F
S31508005ABC1846FCF777FFFB881A462C4913465B01F8
S31508005ACC13449B000B445B68591C284813465B011E
S31508005ADC13449B0003445960FB881A462349134612
S31508005AEC5B0113449B000B4438331B78DBB2DBB2E7
S31508005AFC0133DBB2D8B21D4913465B0113449B0034
S31508005B0C0B44383302461A70FB881C4601F040FFDA
S31508005B1C0146164A23465B0123449B00134438333B
S31508005B2C5960FB881946114A0B465B010B449B00CE
S31508005B3C134440331B780F2B15D8FB8819460B4A90
S31508005B4C0B465B010B449B00134440331B781C46E5
S31508005B5C01F01EFF0146064A23465B0123449B00BF
S31508005B6C1344383359600C37BD4690BD08450020A0
S31508005B7CC83C002080B584B000AFBB1C1846FCF7A7
S31508005B8C11FF7B881A46464913465B0113449B0052
S31508005B9C0B4438331B78DBB2DBB2013BDBB2D8B231
S31508005BAC3F4913465B0113449B000B4438330246AA
S31508005BBC1A7001F0EDFE7B881946394A0B465B01D3
S31508005BCC0B449B00134438335B68C21A354B1B686D
S31508005BDC3549A1FB03139B0CB2FBF3F3FB607B88E3
S31508005BEC19462F4A0B465B010B449B00134408339A
S31508005BFC1A68FB689A420AD27B881946284A0B46C9
S31508005C0C5B010B449B0013440833FA681A607B88C3
S31508005C1C18467B881946224A0B465B010B449B00A7
S31508005C2C134430335A68FB681A441D4903465B0112
S31508005C3C03449B000B4430335A607B881946184A38
S31508005C4C0B465B010B449B00134440331B78FB72D9
S31508005C5CFB7A0F2B20D801F09BFEFA7A13491346D0
S31508005C6C5B0113449B000B4438335B68C31A7B6097
S31508005C7CFA7AF97A0D480B465B010B449B000344F0
S31508005C8C483359687B681944084813465B01134422
S31508005C9C9B000344483359601037BD4680BD00BF8E
S31508005CAC084500208847002083DE1B43C83C00209B
S31508005CBC90B484B000AF03463960FB711346BB71D0
S31508005CCCBB791F2B43D8FB790F2B40D80023FB73CA
S31508005CDC12E0FA79F97BFB7B386803441C781E487A
S31508005CEC13465B0113449B0003440B4410332246B2
S31508005CFC1A71FB7B0133FB73FA7BBB799A42E8D3A7
S31508005D0CFA79154913465B0113449B000B44583327
S31508005D1C4FF0FF325A60FA790F4913465B01134468
S31508005D2C9B000B4468334FF0FF325A60FA790A49E4
S31508005D3C13465B0113449B000B4478334FF0FF3238
S31508005D4C5A60064B1B780133DAB2044B1A701037BB
S31508005D5CBD4690BC704700BFC83C00206837002081
S31508005D6C90B585B000AF0346FB7107F10A031846D8
S31508005D7CFCF718FEFB790F2B00F2F180FA797949BA
S31508005D8C13465B0113449B000B445B68591C75480E
S31508005D9C13465B0113449B0003445960FA79714915
S31508005DAC13465B0113449B000B4450331B68591C68
S31508005DBC6C4813465B0113449B000344503319602B
S31508005DCCFA79684913465B0113449B000B44383334
S31508005DDC1B78DBB2DBB20133DBB2D8B261491346AE
S31508005DEC5B0113449B000B44383302461A70FC794A
S31508005DFC01F0CEFD01465B4A23465B0123449B001A
S31508005E0C134438335960FA79564913465B011344DF
S31508005E1C9B000B44483300225A60FA79F9795148A9
S31508005E2C0B465B010B449B000344383359684D48B9
S31508005E3C13465B0113449B00034440335960FA79BB
S31508005E4C484913465B0113449B000B4450331B68AB
S31508005E5C012B5BD9FA79434913465B0113449B0022
S31508005E6C0B4440335968FA793E4813465B01134490
S31508005E7C9B00034448331B68CA1A3B4B1B683B49B7
S31508005E8CA1FB03139B0CB2FBF3F3FB60FA79F979CC
S31508005E9C34480B465B010B449B00034460339968FA
S31508005EACFB6819442F4813465B0113449B000344B3
S31508005EBC60339960FA79F9792A480B465B010B44E9
S31508005ECC9B00034468335968FB68994228BF1946F6
S31508005EDC244813465B0113449B00034468335960FA
S31508005EECFA79F9791F480B465B010B449B0003446E
S31508005EFC68339968FB68994238BF1946194813469E
S31508005F0C5B0113449B00034468339960FA79F97969
S31508005F1C14480B465B010B449B00034440335968F9
S31508005F2C104813465B0113449B000344483319601D
S31508005F3C7B8919460E4A0B465B010B449B0013449E
S31508005F4C40331B78FF2B0AD17B891946084A0B4626
S31508005F5C5B010B449B0013444033FA791A701437CF
S31508005F6CBD4690BDC83C00208847002083DE1B43F5
S31508005F7C0845002090B585B000AF0346FB7107F1C4
S31508005F8C0A031846FCF70EFDFB790F2B00F210815D
S31508005F9C01F0FEFCFA79884913465B0113449B0011
S31508005FAC0B4438335B68C01AFA79F979824C0B467C
S31508005FBC5B010B449B00234448335B6819187E48E5
S31508005FCC13465B0113449B00034448335960FA7922
S31508005FDC794913465B0113449B000B4448335A68B2
S31508005FEC764B1B687649A1FB03139B0CB2FBF3F3A8
S31508005FFCFB60FA79F97970480B465B010B449B00F8
S3150800600C034430335968FB6819446B4813465B01E3
S3150800601C13449B00034430335960FA79F97966487E
S3150800602C0B465B010B449B00034410331968FB6851
S3150800603C1944614813465B0113449B00034410330F
S3150800604C1960FA795C4913465B0113449B000B44AF
S3150800605C38331B78DBB2DBB2013BDBB2D8B256491C
S3150800606C13465B0113449B000B44383302461A70E3
S3150800607CFA79F97950480B465B010B449B000344AB
S3150800608C50339968FB6819444B4813465B01134413
S3150800609C9B00034450339960FA79F97946480B46C4
S315080060AC5B010B449B00034458335968FB689942BF
S315080060BC28BF1946404813465B0113449B0003440A
S315080060CC58335960FA79F9793B480B465B010B440E
S315080060DC9B00034458339968FB68994238BF1946A4
S315080060EC354813465B0113449B00034458339960A7
S315080060FC01F04EFCFA79304913465B0113449B00B8
S3150800610C0B4440335B68C21A2C4B1B682C49A1FB09
S3150800611C03139B0CB2FBF3F3FB60FA79F979264867
S3150800612C0B465B010B449B00034470339968FB6870
S3150800613C1944214813465B0113449B0003447033EE
S3150800614C9960FA79F9791C480B465B010B449B005C
S3150800615C034478335968FB68994228BF1946164890
S3150800616C13465B0113449B00034478335960FA7950
S3150800617CF97911480B465B010B449B0003447833B1
S3150800618C9968FB68994238BF19460B4813465B0158
S3150800619C13449B000344783399607B891946094A52
S315080061AC0B465B010B449B0013444033FF221A70C9
S315080061BC1437BD4690BD00BFC83C00208847002058
S315080061CC83DE1B430845002080B483B000AF78609B
S315080061DC7B68042B0BDC09497A6813469B0013442D
S315080061ECDB000B441B68002B01D0012300E00023C5
S315080061FC18460C37BD465DF8047B7047F80100203D
S3150800620C80B483B000AF78607B681B6818460C377F
S3150800621CBD465DF8047B704790B58BB000AFF8604F
S3150800622CB9607A6000237B623749FA6813469B008B
S3150800623C1344DB000B4410335B68FB61FB69002BD2
S3150800624C01D109235BE0FB695B68012B30D1FB6943
S3150800625CBB612D49FA6813469B001344DB000B44BB
S3150800626C08335B6803F00103002B0CD0BB695B6A2F
S3150800627CB8687968984778627B6A002B17D14FF013
S3150800628CFF337B623AE07B683B620AE0BB695B6A78
S3150800629C3A6AB8681146984778623A6A7B6AD31A9A
S315080062AC3B623B6A002BF1DC7B687B6226E025E0CF
S315080062BCFB695B68022B21D1FB697B61FA68134683
S315080062CC9B001344DB00104A13443B617B699C69B1
S315080062DC78693969BA687B68A04778627B6A002B4B
S315080062EC06DA01F039FE02467B6A5B42136005E06A
S315080062FC3B69DA697B6A1A443B69DA617B6A184638
S3150800630C2C37BD4690BD00BFF801002090B58BB068
S3150800631C00AFF860B9607A6000237B62F868FFF713
S3150800632C53FF0346002B01D1092346E02549FA6899
S3150800633C13469B001344DB000B4410335B683B622B
S3150800634C3B6A5B68012B08D13B6AFB61FB699B6A5C
S3150800635CB8687968984778622EE03B6A5B68022BC6
S3150800636C2AD13B6ABB61FA6813469B001344DB00CF
S3150800637C144A13447B61BB69DC69B8697969BA68E4
S3150800638C7B68A04778627B6A002B06DA01F0E4FD8D
S3150800639C02467B6A5B4213600EE07B69DA697B68AE
S315080063AC1A447B69DA617B695A6A7B69DB699A42AA
S315080063BC38BF1A467B695A627B6A18462C37BD4623
S315080063CC90BD00BFF801002080B584B000AF78609E
S315080063DC39607B68DBB2FB723868FFF711FFF8602F
S315080063EC07F10B03F8681946012202F04FF97B688E
S315080063FC18461037BD4680BD80B582B000AF7860B0
S3150800640C396007E07B685A1C7A601B78184639682D
S3150800641CFFF7DAFF7B681B78002BF3D100231846AD
S3150800642C0837BD4680BD00BF80B584B000AF786024
S3150800643C7868FFF7E5FEF86007F10B03F86819466C
S3150800644C012202F017F9FB7A18461037BD4680BDB3
S3150800645C0FB480B582B000AF07F114033B60084B4C
S3150800646C1B685B68184639693A6800F00BF878605F
S3150800647C7B6818460837BD46BDE8804004B07047AF
S3150800648CCC02002080B588B002AFF860B9607A609B
S3150800649C7B680093F86800214FF0FF32BB6800F068
S315080064ACD5F878617B6918461837BD4680BD00BF9C
S315080064BC80B584B000AFF860B9603B601346FB71D9
S315080064CC3B681B68012B01D101231AE03B681B684A
S315080064DC5A1E3B681A60BB68002B08D1FA790B4B1D
S315080064EC1B685B6810461946FFF76EFF08E0BB6829
S315080064FC1B68FA791A70BB681B685A1CBB681A6049
S3150800650C012318461037BD4680BD00BFCC020020BB
S3150800651C80B588B000AFF860B9607A603B607B687C
S3150800652CBB61BB6A03F00203002B01D0302300E0E9
S3150800653C2023FB75BB6A03F01003002B25D0002320
S3150800654CFB610CE0FB69BA6913441B78F868B968F7
S3150800655C1A46FB6AFFF7ACFFFB690133FB61FB6963
S3150800656CBA6913441B78002BECD109E0FB7DF8685B
S3150800657CB9681A46FB6AFFF79BFFFB690133FB6197
S3150800658CFA693B689A42F1DB2FE0786801F0EAFE7B
S3150800659C03463B613A683B699A4212DD0023FB616C
S315080065AC09E0FB7DF868B9681A46FB6AFFF780FFB5
S315080065BCFB690133FB613A683B69D21AFB699A425B
S315080065CCEFDC0023FB610CE0FB697A6813441B784B
S315080065DCF868B9681A46FB6AFFF76AFFFB69013364
S315080065ECFB61FA693B699A42EEDB2037BD4680BDF2
S315080065FC80B58AB002AFF860B9607A603B6007F183
S3150800660C1003FB61FB6A03F02003002B09D07A68A0
S3150800661C7B68DB0FDBB21046F9693A6800F064F95F
S3150800662C06E07B681846F9693A68002300F05CF9BD
S3150800663CFB6A00933B6B0193F868B968FA69BB6A05
S3150800664CFFF766FF2037BD4680BD00BF80B590B00A
S3150800665C04AFF860B9607A603B607B687B6120E1C7
S3150800666C97F82F30252B40F012813B685A1C3A605C
S3150800667C1B7887F82F3097F82F30252B08D197F8E9
S3150800668C2F2007F11403F868B968FFF711FF08E122
S3150800669C97F82F30302B02D10223BB6212E097F801
S315080066AC2F30202B02D10823BB620BE097F82F3032
S315080066BC2D2B02D11023BB6204E00023BB623B687E
S315080066CC013B3B603B685A1C3A601B7887F82F30B5
S315080066DC97F82F302F2B33D997F82F30392B2FD8F3
S315080066EC0123FB6197F82F303B740BE0FB695A1CAE
S315080066FCFA613A68511C3960127807F130010B447B
S3150800670C03F8202C3B681B782F2B03D93B681B7886
S3150800671C392BEBD907F11002FB69134400221A70C6
S3150800672C07F11003184600210A2201F097FF0346C9
S3150800673C3B623B685A1C3A601B7887F82F3001E09D
S3150800674C00233B6297F82F30682B07D097F82F3029
S3150800675C6C2B03D097F82F304C2B05D13B685A1C61
S3150800676C3A601B7887F82F3097F82F30632B0BD1AC
S3150800677CBB6B1A1DBA631B68DAB207F11403F86807
S3150800678CB968FFF795FE8CE097F82F30642B14D177
S3150800679CBB6A43F02003BB62BB6B1A1DBA631A684B
S315080067AC3B6A0093BB6A019307F114030293F868DA
S315080067BCB9680A23FFF71CFF73E097F82F30752B7F
S315080067CC14D1BB6A43F04003BB62BB6B1A1DBA6398
S315080067DC1A683B6A0093BB6A019307F11403029388
S315080067ECF868B9680A23FFF703FF5AE097F82F30C1
S315080067FC782B14D1BB6A43F04003BB62BB6B1A1DE2
S3150800680CBA631A683B6A0093BB6A019307F11403CF
S3150800681C0293F868B9681023FFF7EAFE41E097F887
S3150800682C2F30702B14D1BB6A43F08003BB62BB6B51
S3150800683C1A1DBA631A683B6A0093BB6A019307F17F
S3150800684C14030293F868B9681023FFF7D1FE28E001
S3150800685C97F82F30732B15D1BB6B1A1DBA631B68AF
S3150800686C7B627B6A002B01D11E4B7B62BB6A009351
S3150800687C07F114030193F868B9687A6A3B6AFFF75B
S3150800688C47FE0EE097F82F302E2B0AD11AE7002375
S3150800689CBB6297F82F2007F11403F868B968FFF75D
S315080068AC07FE3B685A1C3A601B7887F82F3097F816
S315080068BC2F30002B7FF4D4AE7B691A467B689B1A63
S315080068CCBB61BB68002B08D000237B6107F114035E
S315080068DCF868B9680022FFF7EBFDBB691846303734
S315080068ECBD4680BDF49C000880B489B000AFF86042
S315080068FCB9607A603B60BB68BB613B68002B02D011
S3150800690CFB685B42FB607B68092B06DC7B68102BFB
S3150800691C03DDBB6830221A7041E00023FB61FB697A
S3150800692C5A1CFA611A46BB6899187A68FB68B3FB55
S3150800693CF2F002FB00F29B1A1B4AD35C0B707B68C5
S3150800694CFA68B2FBF3F3FB60FB68002BE7D13B68F4
S3150800695C002B07D0FB695A1CFA611A46BB6813440C
S3150800696C2D221A70FB69BA68134400221A70FB6947
S3150800697C013BBA681344BB600DE0BB681B78FB751A
S3150800698CBB685A1EBA60BA6912781A70BB695A1C67
S3150800699CBA61FA7D1A70BA68BB699A42EDD824377F
S315080069ACBD465DF8047B7047FC9C000880B489B032
S315080069BC00AF786039600023FB6100233B6100233C
S315080069CCBB610023FB6000237B610023BB603B6833
S315080069DCDB7803F00F03FB613B68DB7803F01003ED
S315080069EC002B05D03B689B781A46FB691343FB6161
S315080069FC3B681B88DBB2002B44D07B681B687B6129
S31508006A0C0023BB6138E0BB69012202FA03F3FB6081
S31508006A1C3B681B881A46FB6813403B613A69FB685E
S31508006A2C9A4226D1BB699B00FB60FB680F2202FACF
S31508006A3C03F3BB60BB68DB437A6913407B61FB6875
S31508006A4CFA6902FA03F37A6913437B613B68DB78CC
S31508006A5C282B05D1BB6901229A407B685A6108E04C
S31508006A6C3B68DB78482B04D1BB6901229A407B68CA
S31508006A7C1A61BB690133BB61BB69072BC3D97B6838
S31508006A8C7A691A603B681B88FF2B4AD97B685B6856
S31508006A9C7B610023BB613EE0BB6908331A460123C0
S31508006AAC9340FB603B681B881A46FB6813403B61A6
S31508006ABC3A69FB689A422BD1BB699B00FB60FB6861
S31508006ACC0F2202FA03F3BB60BB68DB437A691340F7
S31508006ADC7B61FB68FA6902FA03F37A6913437B61F3
S31508006AEC3B68DB78282B07D1BB6908331A46012388
S31508006AFC03FA02F27B685A613B68DB78482B07D1AC
S31508006B0CBB6908331A46012303FA02F27B681A6139
S31508006B1CBB690133BB61BB69072BBDD97B687A6935
S31508006B2C5A602437BD465DF8047B704780B483B041
S31508006B3C00AF78607B68DB689BB218460C37BD469D
S31508006B4C5DF8047B704700BF80B483B000AF7860F3
S31508006B5C0B467B807A887B68DA600C37BD465DF815
S31508006B6C047B704780B487B000AF78600B46FB7027
S31508006B7C00233B610023FB6000237B610023BB6081
S31508006B8C7B68002B03DA2E4BDB697B6102E02C4B0E
S31508006B9C5B687B617B6803F470231B0CBB607B68AA
S31508006BAC9BB23B617B6803F44013B3F5401F0AD1D3
S31508006BBC7B6923F070637B61214A214B5B6823F068
S31508006BCC7063536021E07B6803F48013002B0ED0AE
S31508006BDCBB68032202FA03F3FB60FB68DB437A69A2
S31508006BEC13407B617B6943F070637B610DE07B68C6
S31508006BFC5B0D1B011A463B699340DB437A691340CC
S31508006C0C7B617B6943F070637B61FB78002B08D052
S31508006C1C7B685B0D1B011A463B6993407A691343E3
S31508006C2C7B617B68002B03DA054A7B69D36102E03A
S31508006C3C034A7B6953601C37BD465DF8047B704775
S31508006C4C0000014080B400AFBFF34F8F0549054BD8
S31508006C5CDB6803F4E062044B1343CB60BFF34F8F3E
S31508006C6C00BFFDE700ED00E00400FA0580B485B02E
S31508006C7C00AF78600023FB6015E01049FA681346EC
S31508006C8C5B0013449B000B445A687B689A4207D1F5
S31508006C9CFA6813465B0013449B00084A134406E043
S31508006CACFB680133FB60FB68012BE6D90023184609
S31508006CBC1437BD465DF8047B704700BF449D000839
S31508006CCC80B582B000AF064B1B687B607868FFF70F
S31508006CDCCDFF3860002318460837BD4680BD00BF77
S31508006CEC00ED00E080B483B000AF0346FB71FB797E
S31508006CFC023B9B0418460C37BD465DF8047B70476F
S31508006D0C80B483B000AF0346FB71FB79023B1B02D0
S31508006D1C18460C37BD465DF8047B704780B584B0C1
S31508006D2C00AF78600023FB600023BB604E4A4E4BD5
S31508006D3C1B6843F4803313604B4B1B6803F4003316
S31508006D4CBB60FB680133FB60BB68002B03D1FB6897
S31508006D5CB3F5A06FF0D1444B1B6803F40033002B3A
S31508006D6C02D00123BB6001E00023BB60BB68012B8A
S31508006D7C75D13E4A3D4B1B6843F0100313603B4AE2
S31508006D8C3A4B1B6823F003031360384A374B1B68CE
S31508006D9C43F002031360344A334B5B685360324A40
S31508006DAC314B5B685360304A2F4B5B6843F4806306
S31508006DBC53602D492C4BDA6A2D4B1340CB627B68FA
S31508006DCC5B791846FFF79CFF034643F4803343F080
S31508006DDC44032549244AD26A1343CB62224A224BDE
S31508006DEC1B6843F08063136000BF1F4B1B6803F0DE
S31508006DFC0063002BF9D01C4A1B4B5B6823F47C13ED
S31508006E0C53607B681B791846FFF76CFF034643F4FF
S31508006E1C80331549144A526813434B60124A124B75
S31508006E2C1B6843F08073136000BF0F4B1B6803F09D
S31508006E3C0073002BF9D00C4A0B4B5B6823F0030349
S31508006E4C5360094A084B5B6843F00203536000BF62
S31508006E5C054B5B6803F00C03082BF9D101E0FFF72F
S31508006E6CF1FE1037BD4680BD0010024000200240DE
S31508006E7C00F0FEFF80B400AF0C490C4B5A690C4B62
S31508006E8C1B6813434B610949084BDA69084B5B6865
S31508006E9C1343CB610549054B9A69054B9B6813430C
S31508006EAC8B61BD465DF8047B704700BF001002403D
S31508006EBCD489000880B582B000AF7860194A194B9E
S31508006ECC1B6843F0010313601649164B5A68164B98
S31508006EDC13404B60134A134B1B6823F0847323F43B
S31508006EEC803313600F4A0F4B1B6823F480231360FF
S31508006EFC0C4A0C4B5B6823F4FE035360094A094B96
S31508006F0C1B6823F0A0531360064B4FF47F029A605C
S31508006F1C044B0022DA627868FFF700FF0837BD4693
S31508006F2C80BD00BF001002400000FFF080B582B0A3
S31508006F3C00AF78607B68002B06D165200021002203
S31508006F4C0A23FDF7F3FB0DE0FFF7BAFE074800210D
S31508006F5C082201F07DF862B6054A7B685360044B3B
S31508006F6C01221A700837BD4680BD00BFE802002012
S31508006F7CDC02002080B584B000AF0346FB71194BC8
S31508006F8C1B78012B07D06520002102220F23FDF761
S31508006F9CCDFB012322E0134B5B689B78FA799A4266
S31508006FAC07D36520002102220B23FDF7BFFB012323
S31508006FBC14E00C4AFB7913720A4B5B685A68094B46
S31508006FCC1B7A19460B465B000B449B001344FB606B
S31508006FDCF868FFF76FFFFFF74DFF002318461037C9
S31508006FECBD4680BDDC02002080B500AF074B1B7880
S31508006FFC012B07D06520002103220F23FDF796FBF2
S3150800700C012300E00023184680BD00BFDC020020E7
S3150800701C80B582B000AF0E4B1B78012B07D06520CC
S3150800702C002104220F23FDF781FB02230BE0094BF9
S3150800703C1B6803F00073002B02D00023FB7101E0E0
S3150800704C0123FB71FB7918460837BD4680BD00BF86
S3150800705CDC0200200010024080B582B000AF174B4E
S3150800706C1B78012B07D06520002105220F23FDF77D
S3150800707C5DFB03231DE0124B5B6A3B603B6803F028
S3150800708C8053002B02D00223FB7111E03B6803F0FE
S3150800709CC043002B02D00123FB7109E03B6803F0C7
S315080070AC0063002B02D00023FB7101E00323FB7164
S315080070BCFB7918460837BD4680BD00BFDC020020A8
S315080070CC0010024080B582B000AF0346FB71074B37
S315080070DC1B78012B06D06520002108220F23FDF70B
S315080070EC25FB00BF0837BD4680BD00BFDC0200206B
S315080070FC80B485B000AF1F4B5B685A681D4B1B7A72
S3150800710C19460B465B000B449B0013441B68FB603B
S3150800711C184B5B685A68174B1B7A19460B465B006B
S3150800712C0B449B0013441B79BB60124B5B685A6873
S3150800713C104B1B7A19460B465B000B449B001344F9
S3150800714C5B797B60FB680C4AA2FB03239B087A6875
S3150800715C02FB03F3084AA2FB03239B08BA6802FB4B
S3150800716C03F33B603B6818461437BD465DF8047B51
S3150800717C704700BFDC020020CDCCCCCC80B586B0E5
S3150800718C00AF78607B68002B06D17C20002100229A
S3150800719C0C23FDF7CBFA4CE00023FB7426E0FB7CB2
S315080071AC254A52F82330FB607B685A68FB7CDB0067
S315080071BC13441A68FB681A60FB6804337A685168CA
S315080071CCFA7CD20004320A4412681A60FB7C1B4A09
S315080071DC52F82330FB607B689A68FB7C5B0013448F
S315080071ECFA681B881380FB7C0133FB74FB7C9AB210
S315080071FC7B681B889A42D2D300237B610CE07B68A0
S3150800720C1A697B699B0013441B6818460121FFF712
S3150800721CA9FC7B6901337B617B689B891A467B6970
S3150800722C9A42ECD8064B01221A70064A7B68136000
S3150800723C00BF1837BD4680BD5C9D0008789D0008C8
S3150800724C184700201C47002080B586B000AF0120E7
S3150800725C0121F9F7C7F94FF480400121F9F7C2F972
S3150800726C04200121FFF77EFC4023BB801823FB7109
S3150800727C0323BB713B1D22481946FFF797FB802356
S3150800728CBB800423FB713B1D1D481946FFF78EFB7B
S3150800729C4FF4E133BB600023BB810023FB81002341
S315080072AC3B820023BB820C237B8207F1080315481B
S315080072BC194600F03BF8134840F22551012200F01C
S315080072CC0FF91048012100F0EBF84FF0006000218F
S315080072DC00F0D4F94FF4C06000F05CF925233B703C
S315080072EC01237B700023BB700123FB703B461846B9
S315080072FC00F062F9034B34229A801837BD4680BDDC
S3150800730C000C01400038014080B582B000AF03463E
S3150800731CFB71FB799BB20448194600F029F9FB79F5
S3150800732C18460837BD4680BD0038014080B58CB07C
S3150800733C00AF786039600023FB620023BB62002330
S3150800734C7B6200233B620023FB617B68FB617B68E5
S3150800735C1B8A9BB2FB62FA6A4CF6FF731340FB62FC
S3150800736C3B68DB881A46FB6A1343FB62FB6A9AB2D4
S3150800737C7B681A827B689B899BB2FB62FA6A4EF61B
S3150800738CF3131340FB623B689A883B681B891343CB
S3150800739C9AB23B685B8913439BB21A46FB6A134342
S315080073ACFB62FB6A9AB27B689A817B689B8A9BB262
S315080073BCFB62FA6A4FF6FF431340FB623B689B89F4
S315080073CC1A46FB6A1343FB62FB6A9AB27B689A827B
S315080073DC07F108031846F9F723F8FB692E4A934276
S315080073EC02D17B69BB6201E03B69BB627B689B8906
S315080073FC9BB29BB21BB2002B0CDABA6A13469B00E3
S3150800740C13449A001A443B681B685B00B2FBF3F3FF
S3150800741C7B620BE0BA6A13469B0013449A001A4423
S3150800742C3B681B689B00B2FBF3F37B627B6A1B4AC7
S3150800743CA2FB03235B091B01FB62FB6A1B09642283
S3150800744C02FB03F37A6AD31A3B627B689B899BB26D
S3150800745C9BB21BB2002B0CDA3B6ADB0032330F4AA9
S3150800746CA2FB03235B0903F00703FA6A1343FB62C7
S3150800747C0BE03B6A1B013233084AA2FB03235B0968
S3150800748C03F00F03FA6A1343FB62FB6A9AB27B6832
S3150800749C1A813037BD4680BD003801401F85EB5137
S315080074AC80B483B000AF78600B46FB70FB78002B7A
S315080074BC08D07B689B899BB243F400539AB27B68CD
S315080074CC9A8107E07B689B899BB223F400539AB296
S315080074DC7B689A810C37BD465DF8047B704700BF04
S315080074EC80B487B000AF78600B467B8013467B7000
S315080074FC00233B610023FB600023BB6000237B61F8
S3150800750C7B687B617B88DBB25B09DBB23B617B8882
S3150800751C03F01F03FB60FB68012202FA03F3BB604E
S3150800752C3B69012B03D17B690C337B6109E03B6911
S3150800753C022B03D17B6910337B6102E07B69143320
S3150800754C7B617B78002B06D07B697A691168BA68EF
S3150800755C0A431A6006E07B697A691168BA68D243ED
S3150800756C0A401A601C37BD465DF8047B704700BF9D
S3150800757C80B483B000AF78600B467B807B88C3F3FE
S3150800758C08039AB27B689A800C37BD465DF8047B73
S3150800759C704700BF80B483B000AF7860054A7B683B
S315080075AC43F0BF6343F40033D3600C37BD465DF834
S315080075BC047B704700ED00E080B487B000AF7860BC
S315080075CC00237B6100233B610F23FB607B68DB7820
S315080075DC002B3AD0274BDB68DB4303F4E0631B0A2A
S315080075EC7B617B69C3F104033B617B69FA6822FA08
S315080075FC03F3FB607B685B781A463B6902FA03F374
S3150800760C7B617B689B781A46FB6813407A6913433F
S3150800761C7B617B691B017B61174A7B681B787969DF
S3150800762CC9B213440A4683F80023134A7B681B78AD
S3150800763C5B09DBB218467B681B7803F01F03012134
S3150800764C01FA03F342F820300FE00B497B681B78EC
S3150800765C5B09DBB218467B681B7803F01F03012213
S3150800766C9A4000F1200341F823201C37BD465DF8EB
S3150800767C047B704700ED00E000E100E080B483B0C5
S3150800768C00AF7860396007493B6823F0604323F004
S3150800769C7F037A6813438B600C37BD465DF8047B11
S315080076AC704700BF00ED00E080B485B000AF78608D
S315080076BC0E4B1B681B68FB600023BB600AE0FB686B
S315080076CC1A687B689A4202D10123BB6007E0FB6803
S315080076DC0433FB60FB681B68B3F1FF3FEFD1BB6853
S315080076EC18461437BD465DF8047B704724470020BE
S315080076FC80B485B000AF78600E4B1B689B68FB6046
S3150800770C0023BB600AE0FB681A687B689A4202D1C0
S3150800771C0123BB6007E0FB680433FB60FB681B684E
S3150800772CB3F1FF3FEFD1BB6818461437BD465DF879
S3150800773C047B70472447002080B582B000AF786080
S3150800774C0B467B80124B1B79002B06D17820002127
S3150800775C04223023FCF7EAFF16E07868FFF7C8FF27
S3150800776C0346002B06D17820002103221423FCF7AC
S3150800777CDDFF09E0074A7B6852F823207B88104610
S3150800778C1946FFF7E1F900BF0837BD4680BD00BFB3
S3150800779C24470020A09D000880B584B000AF78600F
S315080077AC0B46FB70214B1B79002B06D17820002148
S315080077BC01223023FCF7BAFF34E07868FFF774FF30
S315080077CC0346002B06D17820002101220A23FCF758
S315080077DCADFF27E07B681B09154A52F8233018467B
S315080077ECFFF7A4F90346FB817B6803F00F0301221C
S315080077FC02FA03F3BB81FB78012B04D1FA89BB8906
S3150800780C1343FB8106E0BB89DB439AB2FB89134021
S3150800781C9BB2FB817B681A09FB8910461946FFF750
S3150800782C8BFF00BF1037BD4680BD00BF2447002024
S3150800783CA09D000880B582B000AF78607B68002BED
S3150800784C06D17820002110221023FCF76FFF05E0E3
S3150800785C044A7B681360034B01221A710837BD462C
S3150800786C80BD00BF2447002080B400AFBD465DF83C
S3150800787C047B704780B400AFBD465DF8047B704747
S3150800788C80B500AF01200A210222FBF71DFFF8F78D
S3150800789C91FF0120FBF72CFF01200A210522FBF79B
S315080078AC13FF0020F8F7B6FFFBF752F980BD00BFAF
S315080078BC80B582B000AFFB1D1846F8F799FFFB7927
S315080078CC112B1ED0122B02D1FFF7D4FF1AE0FFF7AB
S315080078DCD1FF0F4B1B6801330D4A13600C4B19680B
S315080078EC0C4BA3FB01239A0813469B001344CA1A94
S315080078FC002A05D1F9F712F9054B00221A6001E0A6
S3150800790C00E000BFFBF724F90837BD4680BD00BF71
S3150800791C84470020CDCCCCCC80B485B000AFF860C1
S3150800792CB9607A60FB68FA681168BA68D243114084
S3150800793C7A680A431A601437BD465DF8047B7047AB
S3150800794C80B500AF0D4B1B78012B15D10C480021C7
S3150800795C4FF08072FFF7E0FF0A4B00221A600A48C4
S3150800796C00210122FFF7D8FFFFF7C2FB0246074B9F
S3150800797C1A60024B00221A7080BD00BFF00200206C
S3150800798CFCED00E0041000E0001000E08847002041
S3150800799C80B400AF034B1B681846BD465DF8047BE4
S315080079AC704700BF041000E053B94AB9002908BF54
S315080079BC00281CBF4FF0FF314FF0FF3000F03CB8E9
S315080079CC82B0EC462DE9005000F01EF8DDF804E014
S315080079DC02B00CBC704700BF2DE9F041069C9046DE
S315080079EC06460F461D4600F029F808FB01FCA8FBC5
S315080079FC002300FB05C5B21A2B4467EB0303864626
S31508007A0CC4E90023BDE8F0812DE9F843089E174622
S31508007A1C804689461D4600F067F900FB05F3A0FB76
S31508007A2C074507FB0137B8EB04043D4469EB05052C
S31508007A3CC6E90045BDE8F883704700BF00292DE963
S31508007A4CF043C0F2A8800026002BC0F29E80814627
S31508007A5C8E4690469C46174604460D46002B3DD14D
S31508007A6C8A4259D9B2FA82F33BB1C3F120029D403E
S31508007A7C20FA02F29F4015439C40390CB5FBF1F0F5
S31508007A8C1FFA87FE01FB10550EFB00F3220C42EA87
S31508007A9C0545AB4209D9ED1900F1FF3280F00B818F
S31508007AACAB4240F2088102383D44ED1AB5FBF1F3BE
S31508007ABC01FB13550EFB03FEA4B244EA0545AE457D
S31508007ACC08D9ED1903F1FF3280F0F780AE4540F284
S31508007ADCF480023B43EA0043002203E08B420FD9B1
S31508007AEC00221346341C18BF012460424FF00005CF
S31508007AFC65EB45015840514000196941BDE8F083D2
S31508007B0CB3FA83F2002A40F089808B4202D380456F
S31508007B1C00F2E2800123E5E712B90123B3FBF2F781
S31508007B2CB7FA87F8B8F1000F3BD1ED1B4FEA174CA3
S31508007B3C1FFA87FE0122B5FBFCF00CFB10550EFB59
S31508007B4C00F3210C41EA0545AB4207D9ED1900F1C2
S31508007B5CFF3102D2AB4200F2C3800846ED1AB5FBE0
S31508007B6CFCF30CFB13550EFB03FEA4B244EA0545C5
S31508007B7CAE4507D9ED1903F1FF3102D2AE4500F235
S31508007B8CAD800B4643EA0043ACE752426FEA060661
S31508007B9C63EB43035BE7404261EB41014FF0FF3671
S31508007BAC52E707FA08F7C8F1200225FA02F34FEA5A
S31508007BBC174CB3FBFCF11FFA87FE0CFB113324FAA6
S31508007BCC02F205FA08F50EFB01F92A43100C40EAF5
S31508007BDC0343994504FA08F407D9DB1901F1FF3078
S31508007BEC78D2994576D902393B44C9EB0303B3FBE2
S31508007BFCFCF00CFB10330EFB00F592B242EA034381
S31508007C0C9D4207D9DB1900F1FF325FD29D425DD93F
S31508007C1C02383B445D1B40EA01428CE7C2F1200363
S31508007C2C28FA03F10CFA02FC41EA0C0C4FEA1C4048
S31508007C3C2EFA03F1B1FBF0F51FFA8CF700FB1511C0
S31508007C4C29FA03F30EFA02FE07FB05F943EA0E0EB0
S31508007C5C4FEA1E4343EA0141894508FA02F808D956
S31508007C6C11EB0C0105F1FF3332D2894530D9023DAF
S31508007C7C6144C9EB0101B1FBF0F300FB131107FBDF
S31508007C8C03F71FFA8EFE4EEA014E774508D91EEB0E
S31508007C9C0C0E03F1FF3117D2774515D9023BE64492
S31508007CAC43EA0543A3FB0889C7EB0E0ECE4509D359
S31508007CBC05D0002216E71046F7E613460AE7944065
S31508007CCC4445F6D2013BF4E70B46E9E71046A1E733
S31508007CDC1D46CEE7014688E7134603E7023B51E704
S31508007CEC02383D443AE700BF2DE9F043002B44D156
S31508007CFC8A42154604464FD9B2FA82F70E464FB158
S31508007D0CC7F12003B94020FA03F602FA07F50E4329
S31508007D1C00FA07F42F0CB6FBF7F01FFA85FE07FBE3
S31508007D2C10620EFB00F1260C46EA0243994209D969
S31508007D3C5B1900F1FF3280F0EE80994240F2EB803D
S31508007D4C02382B44591AB1FBF7F307FB13110EFB38
S31508007D5C03FEA4B244EA01418E4508D9491903F138
S31508007D6CFF3280F0DA808E4540F2D780023B43EA38
S31508007D7C004000263146BDE8F0838B4247D8B3FA5B
S31508007D8C83F6002E48D18B4202D3824200F2CF8072
S31508007D9C01203146BDE8F08312B90125B5FBF2F591
S31508007DACB5FA85FCBCF1000F78D1491B2F0C1FFACC
S31508007DBC85FE0126B1FBF7F007FB10110EFB00F24E
S31508007DCC230C43EA01418A4207D9491900F1FF33CA
S31508007DDC02D28A4200F2BC801846891AB1FBF7F324
S31508007DEC07FB13110EFB03FEA4B244EA01429645A7
S31508007DFC08D9521903F1FF3180F09180964540F26B
S31508007E0C8E80023B43EA00403146BDE8F0830026EB
S31508007E1C30463146BDE8F083C6F1200422FA04F553
S31508007E2CB3402B4321FA04F74FEA1348B7FBF8FC87
S31508007E3C1FFA83F908FB1C7720FA04FE01FA06F5EB
S31508007E4C09FB0CF44EEA05054FEA154E4EEA0747B0
S31508007E5CBC4202FA06F204D9FF180CF1FF3168D3BA
S31508007E6C8C463F1BB7FBF8F408FB147709FB04F99F
S31508007E7CADB245EA0741894504D9C91804F1FF355D
S31508007E8C5DD32C4644EA0C44A4FB0223C9EB01013E
S31508007E9C994249D345D0204600266BE7CCF12004FD
S31508007EAC05FA0CF521FA04F32A0CB3FBF2F61FFAC1
S31508007EBC85FE02FB163820FA04F701FA0CF10EFBC4
S31508007ECC06F90F433C0C44EA0843994500FA0CF4AE
S31508007EDC07D95B1906F1FF3138D2994536D9023ED6
S31508007EEC2B44C9EB0303B3FBF2F002FB10330EFB76
S31508007EFC00F1BFB247EA0343994207D95B1900F16F
S31508007F0CFF3721D299421FD902382B441746591AE2
S31508007F1C40EA06464EE7104614E7134627E70B4693
S31508007F2C70E7B0409042B6D2601E002622E7304673
S31508007F3C20E7BC4294D9ACF1020C1F4491E7894561
S31508007F4C9FD9023C19449DE73846DFE70E46C8E739
S31508007F5C0238294441E700BF014B1868704700BF37
S31508007F6CF8020020844641EA000313F0030349D1C2
S31508007F7C403A23D30B6803604B6843608B68836075
S31508007F8CCB68C3600B6903614B6943618B69836179
S31508007F9CCB69C3610B6A03624B6A43628B6A836261
S31508007FACCB6AC3620B6B03634B6B43638B6B836349
S31508007FBCCB6BC36340304031403ADBD230320BD303
S31508007FCC0B6803604B6843608B688360CB68C3603F
S31508007FDC10301031103AF3D20C3205D351F8043B59
S31508007FEC40F8043B043AF9D2043208D0D2071CBF35
S31508007FFC11F8013B00F8013B01D30B88038060465E
S3150800800C704700BF082A13D38B07B1D010F00303AF
S3150800801CAED0C3F10403D21ADB071CBF11F8013B1F
S3150800802C00F8013BA4D331F8023B20F8023B9FE74A
S3150800803C043AD9D3013A11F8013B00F8013BF9D2BD
S3150800804C0B7803704B7843708B7883706046704757
S3150800805C70B4840746D0541E002A41D0CDB20346CC
S3150800806C02E0621EE4B3144603F8015B9A07F8D1E2
S3150800807C032C2ED9CDB245EA05250F2C45EA054524
S3150800808C19D9264603F11002103E0F2E42F8105C41
S3150800809C42F80C5C42F8085C42F8045C02F11002E7
S315080080ACF2D8A4F1100222F00F0204F00F041032D9
S315080080BC032C13440DD91E462246043A032A46F8C5
S315080080CC045BFAD8221F22F003020432134404F08C
S315080080DC03042CB1C9B21C4403F8011BA342FBD1FF
S315080080EC70BC704714460346C2E700BF80EA010C11
S315080080FC1CF0030F37D110F0030C20F0030021F00D
S3150800810C030150F8042B08BF51F8043B0ED08CF031
S3150800811C030C6FF07F434FEACC0C23FA0CFC51F896
S3150800812C043B42EA0C0243EA0C0300BFA2F1013CF1
S3150800813C9A4201BF2CEA020C1CF0803F50F8042B23
S3150800814C51F8043BF2D04FEA02604FEA122201289A
S3150800815C28BFB0EB036F08BF1B0AF4D003F0FF036C
S3150800816C000EC01A704710F0030F0AD010F8012B36
S3150800817C11F8013B012A28BF9A42F4D0A2EB03005E
S3150800818C70474DF8045D50F8042B01F0030521F0F7
S3150800819C030151F8043B022D26D04DD822F07F4519
S315080081ACB5EB132FA2F1013C2CEA020C0DD11CF0F5
S315080081BC803C08BF51F8043B0AD185EA0205B5EBA9
S315080081CC036F0CD150F8042BE8E74FEA13235BE056
S315080081DC3CF07F4C54D10B784FEA126554E04FEAC9
S315080081EC126503F0FF034FE04FEA0245A2F1013C8A
S315080081FC4FEA15452CEA020CB5EB134F18D11CF0B7
S3150800820C803C08BF51F8043B07D185EA0205B5EB5B
S3150800821C034F09D150F8042BE6E75FEA0C4C2FD133
S3150800822C0B884FEA12452FE04FEA03434FEA1245F3
S3150800823C4FEA134328E000BF02F0FF05B5EB136FB6
S3150800824CA2F1013C2CEA020C0DD11CF0803C08BFB3
S3150800825C51F8043B0AD185EA0205B5EB032F0AD17E
S3150800826C50F8042BE8E74FEA13630DE012F0FF0F02
S3150800827C06D051F8043B4FEA122523F07F4303E05E
S3150800828C4FF0000020BC704705F0FF0203F0FF001A
S3150800829C012828BF904204BF2D0A1B0AF4D0A2EB72
S315080082AC000020BC704700BF80EA0102844612F029
S315080082BC030F4FD111F0030F32D14DF8044D11F0C5
S315080082CC040F51F8043B0BD0A3F101329A4312F078
S315080082DC803F04BF4CF8043B51F8043B16D100BF51
S315080082EC51F8044BA3F101329A4312F0803FA4F1E2
S315080082FC01320BD14CF8043BA24312F0803F04BF69
S3150800830C51F8043B4CF8044BEAD023460CF8013BD5
S3150800831C13F0FF0F4FEA3323F8D15DF8044B70477F
S3150800832C11F0010F06D011F8012B0CF8012B002ABD
S3150800833C08BF704711F0020FBFD031F8022B12F0AC
S3150800834CFF0F16BF2CF8022B8CF8002012F47F4F67
S3150800835CB3D1704711F8012B0CF8012B002AF9D16F
S3150800836C704700BF20F0030110F00300C0F10000B5
S3150800837C51F8043B00F1040C4FEACC0C6FF00002E8
S3150800838C1CBF22FA0CF213434FF0010C4CEA0C2CCE
S3150800839C4CEA0C4CA3EB0C0222EA030212EACC12AE
S315080083AC04BF51F8043B0430F4D0C2F1000102EAD0
S315080083BC0102B2FA82F2C2F11F0200EBD200704738
S315080083CC002A3CD040EA010313F00303F0B425D18C
S315080083DC032A23D904680D68AC421FD1043A30D05D
S315080083ECA4F1013525EA040414F0803F2CD1071DAD
S315080083FC0D1D0DE057F8043B0E68A3F10134B3428A
S3150800840C24EA03040AD1043A1BD014F0803F1ED187
S3150800841C032A2946384605F10405EBD803780C7867
S3150800842C013AA34208D162B173B110F8013F11F8B1
S3150800843C014F013AA342F6D0181BF0BC7047104600
S3150800844C70471046F0BC70471846F0BC70470020C1
S3150800845CF3E700BF40EA01039B0770B42BD1032A4C
S3150800846C29D90C460346214654F8046BA6F1013566
S3150800847C25EA060515F0803F05D1043A032A43F888
S3150800848C046B2146EFD8A2B10C78013A1C70013165
S3150800849C01333CB16AB111F8014B013A03F8014BAF
S315080084AC002CF7D12AB11A44002103F8011B934278
S315080084BCFBD170BC70470346E5E700BFF0B420B3A8
S315080084CC07460D4617F8016B01E0A64216D015F8BB
S315080084DC014B002CF9D1EEB13E460C4616F8015B61
S315080084EC00E073B114F8013BAB42FAD15DB100233D
S315080084FC3B70166006463046F0BC704763B138468A
S3150800850CDEE73746E8E72E46F3E710680028D7D1AA
S3150800851C0646F0E71660EEE7176006460370EAE7CC
S3150800852C0123FFF7CBBF00BF2DE9F04F494C0F468F
S3150800853CD4F800E000E027463C4614F8015B0EEB45
S3150800854C0506767806F0080606F0FF08002EF2D126
S3150800855C2D2D51D02B2D04BF7D78BC1C5BB1102B57
S3150800856C5BD04FF0FF39B9FBF3F903FB09FB9A46CD
S3150800857C6FEA0B0B07E0302D43D00A239A46DFF837
S3150800858CD8904FF0050B0027BC460CE0303DAB42AB
S3150800859C19DD7E1C05D0CC4524D821D00AFB0C5CF1
S315080085AC012714F8015B0EEB0506767816F0040F16
S315080085BCECD116F0030606D0012E0CBF372657262B
S315080085CCAD1BAB42E5DC002F11DBC8F100008CEAD1
S315080085DC000040444AB107B1611E1160BDE8F08F36
S315080085EC5D45DBDD4FF0FF37DBE7BDE8F08F222377
S315080085FC03604FF0FF30EDE7BC1C7D784FF00108A7
S3150800860CACE7237803F0DF03582B0ED008239A46E1
S3150800861C4FF0070B6FF06049B5E7302D0FD09A462F
S3150800862C4FF00F0B6FF07049ADE74FF0100A6578F5
S3150800863C53464FF00F0B02346FF07049A3E72678B8
S3150800864C06F0DF06582EF0D04FF00F0B6FF070497E
S3150800865C9A4698E7280700209999991930B40D4637
S3150800866C034C134601462A46206830BCFFF75CBF0C
S3150800867CF802002030B40D46034C134601462A4630
S3150800868C206830BC00F022B8F802002030B40D4641
S3150800869C034C134601462A46206830BC00F002B843
S315080086ACF802002070B5084C064600250846114607
S315080086BC1A462560FDF72AFE431C00D070BD2368B8
S315080086CC002BFBD0336070BD8C47002070B5084C6E
S315080086DC06460025084611461A462560FDF79CFDF8
S315080086EC431C00D070BD2368002BFBD0336070BDD3
S309080086FC8C47002079
S30D0800870048F3FF7F01000000A9
S3150800870854696D65725F7544656C6179000000008F
S31508008718640000004F734170706C69636174696F17
S315080087286E000000000000001C8700080100000019
S315080087384F73416C61726D5F31306D7300000000D4
S31508008748416C61726D5F42737753657276696365CA
S31508008758000000004F7349646C6500005363684D58
S315080087685F42737753657276696365005363684D2C
S315080087785F53746172747570000000005461736BFE
S315080087884C6F616400000000000000000000000053
S31508008798A90300080101000000000000A01F00202E
S315080087A80008000000000000010000005C870008BF
S315080087B800000000000000000000000000000000A3
S315080087C8000000000100000001000000020000008F
S315080087D8BD7800080100000000000000A00700207E
S315080087E80008000000000000010000006487000877
S315080087F80000000000000000000000000000000063
S31508008808000000000100000002000000010000004E
S315080088188D7800080101000000000000A01700205C
S315080088280008000000000000010000007487000826
S315080088380000000000000000000000000000000022
S31508008848000000000100000003000000010000000D
S31508008858090300080300000000000000A00F00201C
S3150800886800080000000000000100000084870008D6
S3150800887800000000000000000100000000000000E1
S31508008888000000000100000000000000A501000823
S31508008898BD010008C9010008B55A0008815B00082F
S315080088A80000000040000000000000004000000032
S315080088B8FFFFFFFF000000000100000000000000A5
S315080088C8AAAA555500000000AAAA55550000000096
S315080088D88000000001000000102700001027000093
S315080088E81027000002000000A8880008B4880008BD
S315080088F8E0890008448A00087C8A0008000000000D
S3150800890830000000643A2F417263746963537475C2
S3150800891864696F2D32312E302E302D77696E3332D9
S315080089282E77696E33322E7838365F36342F776F5E
S31508008938726B73706163652F636F72652D32312EA2
S31508008948302E302F6578616D706C65732F4F7350B4
S315080089586572662F7372632F4563754D5F43616C45
S315080089686C6F75745F53747562732E63000000002C
S315080089786563754D5374617465203D3D202833340D
S31508008988552900006563754D5374617465203D3D2E
S3150800899820283333552900006563754D537461746F
S315080089A865203D3D20283335552900006563754DFA
S315080089B85374617465203D3D2028383055290000D8
S315080089C840787D01090800000000000001C0010088
S315080089D8050000027D02000003000100C88900089E
S315080089E8000000000010000000601D0020002000A4
S315080089F840002000444B44044B4444440044844902
S31508008A084BB4BB44B44440444444444498144114C5
S31508008A1844449444444444444444444444444444B0
S31508008A284444444444444444444444440000000000
S31508008A380000000000000000000000000700000019
S31508008A48FC890008348A000804000000EC8900083C
S31508008A5837000000330000003D0000003400000025
S31508008A68FFFFFFFF03000000FFFFFFFFFFFFFFFFF9
S31508008A7800000000588A0008748A00086C8A0008F2
S31508008A88637572725F7063622D3E737461746520D4
S31508008A9826202831553C3C2875696E7433322933AB
S31508008AA855290000643A2F417263746963537475D3
S31508008AB864696F2D32312E302E302D77696E333238
S31508008AC82E77696E33322E7838365F36342F776FBD
S31508008AD8726B73706163652F636F72652D32312E01
S31508008AE8302E302F636F72652F73797374656D2F07
S31508008AF84F732F72746F732F7372632F6F735F655B
S31508008B0876656E742E6300003000000028264F73C1
S31508008B185F5379735B305D292D3E73746174757381
S31508008B282E696E69745F6F735F63616C6C65640048
S31508008B38643A2F41726374696353747564696F2D57
S31508008B4832312E302E302D77696E33322E77696E94
S31508008B5833322E7838365F36342F776F726B7370E8
S31508008B686163652F636F72652D32312E302E302F73
S31508008B78636F72652F73797374656D2F4F732F72D0
S31508008B88746F732F7372632F6F735F696E69742EB0
S31508008B9863000000746D7050636250747220213D42
S31508008BA8202828766F6964202A29302900000000C1
S31508008BB8746D705063625074722D3E616374697681
S31508008BC86174696F6E73203C3D20746D70506362E2
S31508008BD85074722D3E636F6E73745074722D3E61B5
S31508008BE8637469766174696F6E4C696D697400009F
S31508008BF8300000004972715F566563746F7254617C
S31508008C08626C655B766563746F725D20213D20280A
S31508008C1828766F6964202A2930290000643A2F418A
S31508008C28726374696353747564696F2D32312E30B3
S31508008C382E302D77696E33322E77696E33322E7859
S31508008C4838365F36342F776F726B73706163652FAA
S31508008C58636F72652D32312E302E302F636F726531
S31508008C682F73797374656D2F4F732F6F73616C2F1C
S31508008C7861726D2F61726D76375F6D2F6B65726ED7
S31508008C88656C2F617263682E63000000284F735F56
S31508008C98537973496E74416E7944697361626C6578
S31508008CA8642829203D3D20302900000028264F73D6
S31508008CB85F5379735B305D292D3E63757272546113
S31508008CC8736B5074722D3E73746174652026202860
S31508008CD831553C3C2875696E743332293355290059
S31508008CE828264F735F5379735B305D292D3E63756C
S31508008CF872725461736B5074722D3E666C61677339
S31508008D08203D3D2030000000725074722D3E6F776A
S31508008D186E6572203D3D207063625074722D3E6305
S31508008D286F6E73745074722D3E706964000000008B
S31508008D38643A2F41726374696353747564696F2D55
S31508008D4832312E302E302D77696E33322E77696E92
S31508008D5833322E7838365F36342F776F726B7370E6
S31508008D686163652F636F72652D32312E302E302F71
S31508008D78636F72652F73797374656D2F4F732F72CE
S31508008D88746F732F7372632F6F735F7461736B5F7E
S31508008D98692E6800212828267063625074722D3E51
S31508008DA87265736F7572636548656164292D3E74CB
S31508008DB871685F6669727374203D3D202828766F4E
S31508008DC86964202A2930292900000000282A282829
S31508008DD8287374727563742068656164202A292863
S31508008DE828267063625074722D3E7265736F7572A9
S31508008DF8636548656164292D3E7471685F6C6173A3
S31508008E087429292D3E7471685F6C61737429292049
S31508008E183D3D2072507472006375727250636250D9
S31508008E2874722D3E7374617465203D3D2028315552
S31508008E383C3C2875696E743332293355290000007D
S31508008E48643A2F41726374696353747564696F2D44
S31508008E5832312E302E302D77696E33322E77696E81
S31508008E6833322E7838365F36342F776F726B7370D5
S31508008E786163652F636F72652D32312E302E302F60
S31508008E88636F72652F73797374656D2F4F732F72BD
S31508008E98746F732F7372632F6F735F7461736B2E9E
S31508008EA8630000007063622D3E7374617465202642
S31508008EB820282875696E7433322931557C2831552E
S31508008EC83C3C2875696E74333229335529290000C4
S31508008ED87063625074722D3E737461636B2E63758A
S31508008EE87272203E207063625074722D3E737461EC
S31508008EF8636B2E746F700000282875696E74333298
S31508008F0829626F74746F6D202620307837554C297E
S31508008F18203D3D203000000030000000746F705F6F
S31508008F287072696F5F706362213D2828766F69647D
S31508008F38202A29302900000028264F735F537973A1
S31508008F485B305D292D3E637572725461736B50747C
S31508008F58722D3E73746174652026202831553C3C71
S31508008F682875696E743332293355290028264F73B4
S31508008F785F5379735B305D292D3E63757272546150
S31508008F88736B5074722D3E666C616773203D3D2085
S31508008F983000000028264F735F5379735B305D29CC
S31508008FA82D3E696E744E657374436E74203D3D207C
S31508008FB8300000004F735F5363686564756C6572AB
S31508008FC85265736F757263654973467265652829B4
S31508008FD800000000637572725063625074722D3E09
S31508008FE873746174652026202831553C3C287569B8
S31508008FF86E743332293355290000000028264F732A
S315080090085F5379735B305D292D3E637572725461BF
S31508009018736B5074722D3E666C616773203D3D20F4
S315080090283100000028264F735F5379735B305D293A
S315080090382D3E636861696E65645063625074722078
S31508009048213D202828766F6964202A2930290000BE
S31508009058637572725063625074722D3E61637469E7
S31508009068766174696F6E73203E20300070636250B3
S315080090787472213D2828766F6964202A29302900C8
S31508009088646573745063625074722D3E61637469C3
S31508009098766174696F6E73203D3D203100000000CB
S315080090A8646573745063625074722D3E61637469A3
S315080090B8766174696F6E73203D3D203000000000AC
S315080090C84F735F5379735461736B4765744375724D
S315080090D87228292D3E737461746520262028315517
S315080090E83C3C2875696E74333229335529000000CB
S315080090F8725074722D3E6F776E6572203D3D2070F2
S3150800910863625074722D3E636F6E73745074722D59
S315080091183E70696400000000643A2F4172637469FE
S315080091286353747564696F2D32312E302E302D775E
S31508009138696E33322E77696E33322E7838365F3653
S31508009148342F776F726B73706163652F636F7265FF
S315080091582D32312E302E302F636F72652F73797347
S3150800916874656D2F4F732F72746F732F7372632F15
S315080091786F735F7461736B5F692E680021282826F0
S315080091887063625074722D3E7265736F757263658B
S3150800919848656164292D3E7471685F6669727374DF
S315080091A8203D3D202828766F6964202A29302929F8
S315080091B800000000282A282828737472756374200A
S315080091C868656164202A29282826706362507472A3
S315080091D82D3E7265736F7572636548656164292DDE
S315080091E83E7471685F6C61737429292D3E747168C1
S315080091F85F6C6173742929203D3D20725074720092
S315080092085245535F5343484544554C455200000060
S3150800921830000000643A2F417263746963537475A9
S3150800922864696F2D32312E302E302D77696E3332C0
S315080092382E77696E33322E7838365F36342F776F45
S31508009248726B73706163652F636F72652D32312E89
S31508009258302E302F636F72652F73797374656D2F8F
S315080092684F732F72746F732F7372632F6F735F61E7
S315080092786C61726D2E6300004F735469636B00004E
S31508009288809200080006FFFF01000000253B000841
S315080092980000000000000000725074722D3E6F77BF
S315080092A86E6572203D3D206973725074722D3E6951
S315080092B864000000643A2F417263746963537475D5
S315080092C864696F2D32312E302E302D77696E333220
S315080092D82E77696E33322E7838365F36342F776FA5
S315080092E8726B73706163652F636F72652D32312EE9
S315080092F8302E302F636F72652F73797374656D2FEF
S315080093084F732F72746F732F7372632F6F735F693E
S3150800931873722E630000000021282826697372508C
S3150800932874722D3E7265736F7572636548656164FC
S31508009338292D3E7471685F6669727374203D3D20F5
S315080093482828766F6964202A293029290000000010
S31508009358282A2828287374727563742068656164D6
S31508009368202A292828266973725074722D3E726538
S31508009378736F7572636548656164292D3E747168F3
S315080093885F6C61737429292D3E7471685F6C61730B
S31508009398742929203D3D20725074720069737250F1
S315080093A8747220213D202828766F6964202A29307E
S315080093B829000000286973725074722D3E76656319
S315080093C8746F72202B2031367529203C2028287581
S315080093D8696E743332294F54475F46535F49525171
S315080093E86E2B3136752B31290000000069643C283C
S315080093F8495352547970652931307500697372502A
S3150800940874722D3E636F6E73745074722D3E747940
S315080094187065203D3D20310028264F735F537973C8
S315080094285B305D292D3E637572725461736B507497
S31508009438722D3E73746174652026202831553C3C8C
S315080094482875696E743332293355290028264F73CF
S315080094585F5379735B305D292D3E6375727254616B
S31508009468736B5074722D3E666C616773203D3D20A0
S31508009478310000007072696F3C333200643A2F413C
S31508009488726374696353747564696F2D32312E304B
S315080094982E302D77696E33322E77696E33322E78F1
S315080094A838365F36342F776F726B73706163652F42
S315080094B8636F72652D32312E302E302F636F7265C9
S315080094C82F73797374656D2F4F732F6F73616C2FB4
S315080094D861726D2F61726D76375F6D2F6B65726E6F
S315080094E8656C2F6972712E63000000007072696FCF
S315080094F872697479203E202832302B3120290000E1
S315080095087072696F72697479203C203230000000E5
S31508009518300000007246696C6520213D20282876AF
S315080095286F6964202A29302900000000643A2F410F
S31508009538726374696353747564696F2D32312E309A
S315080095482E302D77696E33322E77696E33322E7840
S3150800955838365F36342F776F726B73706163652F91
S31508009568636F72652D32312E302E302F636F726518
S315080095782F636F6D6D6F6E2F72616D6C6F672E63DB
S315080095880000000072616D6C6F67000072000000D1
S315080095982F6465762F72616D6C6F670068656C70ED
S315080095A80000000068656C70203C636D643E00002E
S315080095B853686F7720616C6C20636F6D6D616E649C
S315080095C87320616C6C2068656C70206E6F20612052
S315080095D8737065636966696320636F6D6D616E6430
S315080095E80A000000686973746F72790053686F77A8
S315080095F820636F6D6D616E6420686973746F727924
S315080096080A0000004C697374206F6620636F6D6DDD
S31508009618616E64733A0A0000252D313573202D20B2
S3150800962825730A0025730A000A486973746F7279E4
S315080096383A0A00002533642025730A000A41726332
S31508009648436F7265205368656C6C2076657273691A
S315080096586F6E3A20302E322E300A000000000000C5
S3150800966820090A00617267633C313000643A2F4169
S31508009678726374696353747564696F2D32312E3059
S315080096882E302D77696E33322E77696E33322E78FF
S3150800969838365F36342F776F726B73706163652F50
S315080096A8636F72652D32312E302E302F636F7265D7
S315080096B82F636F6D6D6F6E2F7368656C6C2E630004
S315080096C822257322203A20636F6D6D616E64206EC1
S315080096D86F7420666F756E640A0000005B417263DA
S315080096E8636F72655D202420257300001B5B256463
S315080096F8441B5B4B000000001B5B441B5B4B0000D4
S315080097080A0000000A2025730A0000002025730AAB
S3150800971800000000746F705F66756E6300000000D5
S31508009728537461742061626F75742046756E63742C
S31508009738696F6E206D6561737572656D656E747394
S315080097482028616C7068612076657273696F6E2966
S315080097580A00000020282A292055736520506572BA
S31508009768665F50726546756E6374696F6E486F6F8B
S315080097786B3B203C46756E6374696F6E3E3B2050A2
S315080097886572665F506F737446756E6374696F6E3B
S31508009798486F6F6B3B200A2020202020416374699C
S315080097A876652054696D655B75735D3A2054696DF5
S315080097B86520666F722077686963682066756E63C8
S315080097C874696F6E207761732061637469766520A2
S315080097D8286578636C756465732074696D65206699
S315080097E86F722077686963682066756E6374696F37
S315080097F86E20697320707265656D707465642920BA
S315080098080A2020202020496E766F6B6520506572E5
S31508009818696F645B75735D3A2054696D6520626586
S31508009828747765656E2074776F20636F6E736563EA
S31508009838757469766520696E766F636174696F6E8B
S31508009848730A2020202020456E7472792D45786980
S315080098587420506572696F645B75735D3A20546944
S315080098686D65206265747765656E2066756E6374C6
S31508009878696F6E20656E74727920616E64206675EC
S315080098886E6374696F6E20657869742028696E63DB
S315080098986C7564657320696E61637469766520748E
S315080098A8696D65290A2020202020476C6F62616C43
S315080098B8205661726961626C652022506572665F1E
S315080098C846756E6374696F6E54696D657273222086
S315080098D8666F7220636F6D706C657465207374614A
S315080098E87473200A202020202041766572616765F6
S315080098F820616E64204C6F61642061726520636123
S315080099086C63756C61746564206F76657220747211
S31508009918696767657220706572696F642C20616E65
S3150800992864204D696E2C4D6178206F7665722065C6
S315080099386E746972652074696D650A202020202076
S315080099485761726E696E673A204E6F206E6573743A
S3150800995865642063616C6C7320666F72205065724B
S31508009968665F46756E6374696F6E486F6F6B0A201B
S31508009978202020205761726E696E673A2048696709
S3150800998868657220435055206C6F61640A000000B0
S3150800999820202020205761726E696E673A20537519
S315080099A870706F7274732066756E6374696F6E7300
S315080099B820696E207461736B73206F6E6C7920282A
S315080099C86E6F20495352290A00000000746F700010
S315080099D84C69737420435055206C6F61640A2028BB
S315080099E82A292054686520746F74616C2077696C1D
S315080099F86C206E65766572206265203130302520C8
S31508009A0873696E63652063616C63756C6174696FED
S31508009A186E2074696D65730A20202020206172659E
S31508009A2820666C6F6F72656420616E642074696D58
S31508009A3865206265747765656E206D6561737572F4
S31508009A48696E6720706F696E7473206973206E6F0C
S31508009A58740A20202020206D656173757265642E4E
S31508009A680A00000020202020202020202020202056
S31508009A782020202020206C6F6164202020202020B0
S31508009A882020202020202020202020207374616395
S31508009A986B0A00005461736B206E616D6520202087
S31508009AA8202020202020205B255D202020696E7636
S31508009AB8436E74206D61785B75735D20205B255D48
S31508009AC8200A00002D2D2D2D2D2D2D2D2D2D2D2D3A
S31508009AD82D2D2D2D2D2D2D2D2D2D2D2D2D2D2D2DA0
S31508009AE82D2D2D2D2D2D2D2D2D2D2D2D2D2D2D2D90
S31508009AF82D2D2D2D2D2D0A002020252D31367320AC
S31508009B0825336420253864202536642020253364C7
S31508009B180A0000000A00000020202020202020201B
S31508009B28202020202020202020206C6F61642020FF
S31508009B38202020202020202020202020202020200F
S31508009B48200A0000495352206E616D6520202020A6
S31508009B58202020202020205B255D202020696E7685
S31508009B68436E7420206D61785B75735D200A00006A
S31508009B782020252D31367320253364202538642086
S31508009B882536640A000000000A546F74616C25259E
S31508009B983A20256420282A29205365652068656C9B
S31508009BA8700A0A002020202020202020202020209B
S31508009BB820202009094163746976652054696D6512
S31508009BC85B75535D207C2020496E766F6B65205047
S31508009BD86572696F645B75535D7C2020456E747287
S31508009BE8792D4578697420506572696F645B755379
S31508009BF85D207C204C6F6164200A000046756E6300
S31508009C0874696F6E206E616D652020090961766733
S31508009C182020206D696E2020206D6178207C202008
S31508009C286176672020206D696E2020206D61782076
S31508009C38207C202061766720202020206D696E20F0
S31508009C48202020206D61782020207C205B255D203F
S31508009C58200A00002D2D2D2D2D2D2D2D2D2D2D2DA8
S31508009C682D2D2D2D2D2D2D2D2D2D2D2D2D2D2D2D0E
S31508009C782D2D2D2D2D2D2D2D2D2D2D2D2D2D2D2DFE
S31508009C882D2D2D2D2D2D2D2D2D2D2D2D2D2D2D2DEE
S31508009C982D2D2D2D2D2D2D2D2D2D2D2D2D2D2D2DDE
S31508009CA82D2D2D2D2D2D2D2D2D2D0A002020252D40
S31508009CB83136732020202020253564202535642058
S31508009CC82535647C202535642025356420253564AA
S31508009CD8207C2025356420202535642020253564F8
S31508009CE8202020207C202532640A0000286E756C06
S31508009CF86C290000303132333435363738396162E9
S31508009D086364656600000000617263636F726500CC
S31508009D18109D000800000000000000000000000078
S31508009D280000000000000000434F52455F41524DB5
S31508009D385F434F525445585F4D330000309D000825
S31508009D4831C21F41000000000000000000000000AA
S31508009D580000000000080140000C01400010014006
S31508009D680014014000180140001C01400020014071
S31508009D780C0801400C0C01400C1001400C14014061
S31508009D880C1801400C1C01400C2001403C007C00CA
S31508009D98050001002563000000080140000C014089
S31508009DA8001001400014014000180140001C014041
S31508009DB843000000002020202020202020202828DA
S31508009DC82828282020202020202020202020202065
S31508009DD820202020208810101010101010101010A5
S31508009DE810101010100404040404040404040410D5
S31508009DF81010101010104141414141410101010163
S31508009E08010101010101010101010101010101012C
S31508009E181010101010104242424242420202020238
S31508009E2802020202020202020202020202020202FC
S31508009E3810101010200000000000000000000000AC
S31508009E4800000000000000000000000000000000FC
S31508009E5800000000000000000000000000000000EC
S31508009E6800000000000000000000000000000000DC
S31508009E7800000000000000000000000000000000CC
S31508009E8800000000000000000000000000000000BC
S31508009E9800000000000000000000000000000000AC
S31508009EA8000000000000000000000000000000009C
S30D08009EB8000000000000000094
S31508009EC00000000001020304010203040607080952
S31508009ED00204060800000000000000000000000060
S31508009EE00000000000000000000100000000000063
S31508009EF00000000001000000FFFFFFFF0100000056
S31508009F000100000000000000000000000000000042
S31508009F103887000818000020000000000100000033
S31508009F200000000000000000000000000000000023
S31508009F30000000000000000001000300000000000F
S31508009F400100000000000000000000000000000002
S31508009F5000000000000000004887000818000020E4
S31508009F6000000000010000000000000000000000E2
S31508009F7000000000000000000000000000000000D3
S31508009F8000000100000000000000000000000000C2
S31508009F9000000000000000000000000000000000B3
S31508009FA000000000000000000000000000000000A3
S31508009FB0000000000000000000000000FFFF000095
S31508009FC00000000001000000000000000000000082
S31508009FD0989500080100000072616D6C6F670000BB
S31508009FE000000000000000000000000015480008FE
S31508009FF00000000000000000DD4700080000000027
S3150800A00000000000A9480008000000000100000048
S3150800A010A4950008AC950008B89500080000000053
S3150800A020000000003D490008000000000100000093
S3150800A030EC950008EC950008F4950008000000006F
S3150800A0400000000015520008000000000100000092
S3150800A0501C970008289700085C970008989900083C
S3150800A06000000000F54F0008000000000100000095
S3150800A070D4990008D4990008D8990008000000006F
S3150800A080000000000000000000000000736572690F
S3150800A090616C5F44756D6D7900000000000000007A
S3150800A0A000000000000000000000000000000000A2
S3150800A0B00000000000000000000000000000000092
S3150800A0C00100000000000000000000001001002050
S3150800A0D00000000000000000000000000000000072
S3150800A0E00100000000000000010000000000000060
S3150800A0F00000000010010020000000000000000021
S3150800A100000000000000000002000000000000003F
S3150800A11001000000000000000000000010010020FF
S3150800A1200000000000000000000000000000000021
S3150800A1300000000000000000000000000000000011
S3150800A1400000000000000000000000000000000001
S3150800A15000000000000000000000000000000000F1
S3150800A16000000000000000000000000000000000E1
S3150800A17000000000000000000000000000000000D1
S3150800A180F80100202002002048020020C00200201A
S3150800A1901001002010010020C4010020000000006A
S3150800A1A0E089000800000000000000000000000030
S3150800A1B0010000000000000000030020000000006D
S3150800A1C000000000EC05002054060020BC06002014
S3150800A1D00000000000000000000000000000000071
S3150800A1E00000000000000000000000000000000061
S3150800A1F000000000B89D00080000000000000000F4
S3150800A2000000000000000000000000000000000040
S3150800A2100000000000000000000000000000000030
S3150800A2200000000000000000000000000000000020
S3150800A2300000000000000000000000000000000010
S3150800A2400000000000000000000000000000000000
S3150800A25000000000000000000000000000000000F0
S3150800A26000000000000000000100000000000000DF
S3150800A2700E33CDAB34126DE6ECDE05000B000000A4
S3150800A28000000000000000000000000000000000C0
S3150800A29000000000000000000000000000000000B0
S3150800A2A000000000000000000000000000000000A0
S3150800A2B00000000000000000000000000000000090
S3110800A5E00000000000000000BC9D000800
S705080003B53A
